:100000000C94F5000C941D010C941D010C941D0121
:100010000C941D010C941D010C941D010C941D01E8
:100020000C941D010C941D010C94C1020C9433031B
:100030000C941D010C941D010C941D010C941D01C8
:100040000C941D010C941D010C941D010C941D01B8
:100050000C941D010C941D010C941D010C94D506EB
:100060000C941D010C941D010C941D010C941D0198
:100070000C941D010C941D010C941D010C941D0188
:100080000C941D010C941D010C941D010C941D0178
:100090000C941D010C941D010C941D010C941D0168
:1000A0000C941D010C941D010C941D019B059E05D3
:1000B0008D0591059505BF05BF05BF05A205A605E0
:1000C000AA05B005B405BF05BA058E0993099809BC
:1000D000A209AC09F609F609F609B609C009CA0968
:1000E000D409E109F609E90900000000240027000D
:1000F0002A002D00300000000000250028002B0001
:100100002E00310004040404040304050202020268
:1001100004030202020206060606060604040202A0
:100120000204040408020110408040102040804076
:10013000800802040180402010020110801020403D
:100140004020080B00020202010009040000010225
:10015000020000052400100105240101010424020D
:10016000060524060001070581031000400904016B
:1001700000020A0000000705020240000007058394
:10018000024000000403090441726475696E6F2027
:100190004C4C430041726475696E6F204C656F6E04
:1001A0006172646F001201000200000040412336BA
:1001B0008000010102030112010002EF020140412F
:1001C0002336800001010203010000000200090F34
:1001D0000000030401000C0000000000000000000B
:1001E00000000000000000006C0811241FBECFEFCB
:1001F000DAE0DEBFCDBF11E0A0E0B1E0E0E1F9E17F
:1002000002C005900D92AE32B107D9F722E0AEE2FE
:10021000B1E001C01D92A63BB207E1F710E0C5EFC7
:10022000D0E004C02197FE010E94800CC43FD1079A
:10023000C9F70E9481080C94860C0C940000409130
:100240003A0150913B012091380130913901421718
:100250005307B4F49091E8009570E1F39091E800B1
:1002600092FD19C08093F10080913A0190913B0179
:1002700001968F739927892B19F48EEF8093E800EC
:1002800080913A0190913B01019690933B018093BC
:100290003A0181E0089580E00895CF92DF92EF92D5
:1002A000FF920F931F93CF93DF931F92CDB7DEB7CB
:1002B000182F062FE42E862F880F8E5F99830E94B9
:1002C0001F0183E00E941F01F12EC12E9981D92EBA
:1002D0008C2D8F19801798F4F601E7FE02C08491E7
:1002E00001C080810E941F01182F80E00E941F0121
:1002F0008123FFEFCF1ADF0A8111EACF01C081E02D
:100300000F90DF91CF911F910F91FF90EF90DF90B1
:10031000CF900895DF92EF92FF920F931F93CF93A8
:10032000DF93D82E8A017B01E40EF51EEB01CE157A
:10033000DF0571F0D7FE03C0FE01849101C0888102
:100340000E941F0121968111F2CF8FEF9FEF01C014
:10035000C801DF91CF911F910F91FF90EF90DF9037
:100360000895615030F02091F100FC012083019646
:10037000F8CF289884E68093A8020895CF92DF9260
:10038000EF92FF920F931F93CF93DF936C017A014B
:100390008B01C0E0D0E0CE15DF0589F0D8016D916A
:1003A0008D01D601ED91FC910190F081E02DC60107
:1003B0000995892B11F47E0102C02196ECCFC7016B
:1003C000DF91CF911F910F91FF90EF90DF90CF9031
:1003D0000895CF93DF931F92CDB7DEB76983DC0119
:1003E000ED91FC910280F381E02D41E050E0BE01EF
:1003F0006F5F7F4F09950F90DF91CF91089583E054
:100400008093E9008091F200882319F08AE38093B9
:10041000E8000895FC018485958597FD0BC09FB782
:10042000F89482E08093E9008091F2009FBF90E011
:10043000019608959FB7F89482E08093E900809137
:10044000F2009FBF90E008953FB7F8948091330188
:1004500090913401A0913501B091360126B5A89B49
:1004600005C02F3F19F00196A11DB11D3FBFBA2F46
:10047000A92F982F8827820F911DA11DB11DBC01A6
:10048000CD0142E0660F771F881F991F4A95D1F76B
:1004900008950DB407FEFDCF08950F931F93CF93DA
:1004A000DF931F92CDB7DEB782E0898342E450E04C
:1004B00062E471E080E80E948A010E945808DC0131
:1004C00012960D911C9113970115110569F0D80131
:1004D000ED91FC910280F381E02DBE016F5F7F4FB3
:1004E000C801099597FF07C089810F90DF91CF91CF
:1004F0001F910F910895F80100851185E5CFCF93E5
:10050000DF931F92CDB7DEB7FC018485958597FDFB
:1005100005C02FEF3FEF358724870BC0CE01019632
:100520000E940308019719F4898190E002C08FEFBF
:100530009FEF0F90DF91CF9108950F931F93CF936B
:10054000DF931F92CDB7DEB78C01FC0184859585C2
:1005500097FF0EC0CE0101960E940308019719F47F
:10056000298130E002C02FEF3FEFF8013587248763
:10057000F801848595850F90DF91CF911F910F91A0
:1005800008951F920F920FB60F9211248F939F938D
:100590008091E1009091E100937F9093E10083FFCF
:1005A0000FC01092E90091E09093EB001092EC00E4
:1005B00092E39093ED001092A90298E09093F000DE
:1005C00082FF20C093E09093E9009091F20099237C
:1005D00019F09AE39093E80090913C01992339F047
:1005E00090913C01915090933C01992389F1909115
:1005F000A802992339F09091A80291509093A802F3
:10060000992341F184FF10C08091E2008E7E8160C9
:100610008093E2008091E1008F7E8093E1008091E1
:100620003E018E7E806111C080FF16C08091E20085
:100630008E7E80618093E2008091E1008E7E8093C7
:10064000E10080913E018E7E816080933E0104C076
:100650005D9ACDCF289AD6CF9F918F910F900FBEE4
:100660000F901F9018951F920F920FB60F921124A2
:10067000CF92DF92EF92FF920F931F932F933F93AE
:100680004F935F936F937F938F939F93AF93BF939A
:10069000EF93FF93CF93DF93CDB7DEB76C97DEBFB9
:1006A000CDBF1092E9008091E80083FFFAC168E0B5
:1006B000CE0145960E94B10182EF8093E8008D89BA
:1006C00087FF05C09091E80090FFFCCF03C09EEF2C
:1006D0009093E800982F907609F0C6C09E892F89E4
:1006E000188D91110CC0803829F480913F018093BE
:1006F000F10002C01092F1001092F10047C1422FA8
:1007000050E0512B913051F4811140C141305105DD
:1007100009F03CC180913F018D7F0BC0933061F4A3
:10072000811134C14130510509F030C180913F0140
:10073000826080933F012AC1953041F48091E800A6
:1007400080FFFCCF20682093E30020C1963009F0A1
:100750005FC0EB8CFC8C1092E90010923B01109270
:100760003A01123091F510923901109238010E942D
:100770004D0299E0BE016F5F7F4FDB01E92F1D92B3
:10078000EA95E9F799831A8391E09E8390EA988726
:100790009AEF998720913A0130913B01275F3F4FB3
:1007A0003C832B838D831092E90010923B011092C1
:1007B0003A01F0923901E092380149E050E080E0DE
:1007C0000E948A010E944D02E1C0F0923901E0923C
:1007D00038010E945808DC011296ED90FC901397A6
:1007E000E114F10409F4C0C0D701ED91FC9104803B
:1007F000F581E02DBE016B5E7F4FC7010995009723
:1008000019F00CF0C3C0C6C0F701E084F184E8CF52
:10081000973009F4BFC0983021F481E08093F10053
:10082000B5C0993009F0B2C0837009F0B3C0EFE1F0
:10083000F1E081E021E036E39081992361F080933B
:10084000E9002093EB0091919093EC003093ED0040
:100850008F5F873089F78EE78093EA001092EA0075
:100860008F898093A90292C08B8D9C8D1092E90094
:1008700010923B0110923A01909339018093380114
:10088000898D811156C08E899D89913A59F48132A2
:1008900009F080C047E050E064E071E080E00E9431
:1008A0008A0174C0913209F075C0833289F4888D51
:1008B00090E0982F88272F89822BA0E0B0E08093CA
:1008C000000190930101A0930201B09303015EC067
:1008D000803269F48091E80082FFFCCF67E084E019
:1008E00091E00E94B1018BEF8093E80006C0823254
:1008F00009F04CC08F8980930B0180913D018823C2
:1009000019F0EEEFFAE002C0E0E0F8E080910401B7
:1009100090910501A0910601B0910701803B9440A0
:10092000A105B10509F088C080910B0180FFA0C02E
:1009300083C00E945808DC0112960D911C911397F8
:100940000115110539F1D801ED91FC910190F0816B
:10095000E02DBE016B5E7F4FC8010995811116C065
:10096000F80100851185ECCF1130C1F0133091F4FE
:100970008F89882309F455C08230E9F440E860E1AA
:1009800084E991E00E944D01882321F08EEF80934D
:10099000E80087C081E28093EB0083C08B8D9C8D43
:1009A000089711F41093370180913701811136C0F7
:1009B00065EA71E038C0813029F440E86BE088E8EE
:1009C00091E0E0CF833031F70E945808DC011296A5
:1009D000ED90FC9013978E010F5F1F4F6801E1149B
:1009E000F10479F0D701ED91FC910680F781E02DBB
:1009F000B801C7010995080F111DF701E084F184C2
:100A0000EECFD8011C92F60101900020E9F7319752
:100A1000BF016C197D0940E0C601B4CF67EB71E0FE
:100A200002C064E871E06115710509F4B3CFFB0100
:100A3000449150E080E833CF0FB6F894A8958091A8
:100A40006000886180936000109260000FBEA895DE
:100A5000EE3F2AE0F20739F08091FE0A9091FF0AFA
:100A60009183808393CF1092FF0A1092FE0A8ECF5B
:100A7000EE3F8AE0F80731F0808191819093FF0A80
:100A80008093FE0A87E797E7918380839BE088E164
:100A90000FB6F894A895809360000FBE9093600005
:100AA00075CF6C960FB6F894DEBF0FBECDBFDF9149
:100AB000CF91FF91EF91BF91AF919F918F917F91D6
:100AC0006F915F914F913F912F911F910F91FF90E7
:100AD000EF90DF90CF900F900FBE0F901F90189562
:100AE000362F90E0FC01E753FE4F4491FC01ED5D91
:100AF000FE4F2491FC01EC5FFE4F8491882309F4A2
:100B000051C04423E1F150E0FA013197EF30F10593
:100B1000B0F5EA5AFF4F0C94800C909180009F77BB
:100B200007C0909180009F7D03C090918000977FC7
:100B30009093800024C094B59F7702C094B59F7DA8
:100B400094BD1DC0909190009F7707C09091900038
:100B50009F7D03C090919000977F909390000FC06D
:100B60009091C0009F7703C09091C0009F7D9093AB
:100B7000C00005C09091C200977F9093C200E82FFB
:100B8000F0E0EE0FFF1FEA50FF4FA591B4918FB731
:100B9000F894EC91311103C020952E2301C02E2B27
:100BA0002C938FBF0895CF93DF9390E0FC01ED5D10
:100BB000FE4F2491FC01EC5FFE4F8491882361F18C
:100BC00090E0880F991FFC01E851FF4FC591D49127
:100BD000FC01EA50FF4FA591B491611109C09FB784
:100BE000F8948881209582238883EC912E230BC072
:100BF000623061F49FB7F8943881822F8095832307
:100C00008883EC912E2B2C939FBF06C08FB7F8944E
:100C1000E8812E2B28838FBFDF91CF9108958F928B
:100C20009F92AF92BF92CF92DF92EF92FF926B01B1
:100C30007C010E9424024B015C01C114D104E10437
:100C4000F104F1F00E942402DC01CB01881999091A
:100C5000AA09BB09883E9340A105B10570F321E0C4
:100C6000C21AD108E108F10888EE880E83E0981EC8
:100C7000A11CB11CC114D104E104F10419F7DDCFAA
:100C8000FF90EF90DF90CF90BF90AF909F908F90AC
:100C900008958F929F92AF92BF92CF92DF92EF9280
:100CA000FF920F931F93CF93DF935C016B018A0137
:100CB00080910B01882309F45EC08091A9028823EA
:100CC00009F459C080913E0180FF05C08091E00089
:100CD00082608093E000E8018AEFF82E93E0E92E2D
:100CE0002FE3822E3AE3932E209709F43DC08FB76D
:100CF000F894E092E9009091E80095FF06C0909189
:100D0000F200282D291B922F01C090E08FBF911176
:100D10000AC0FA94FF2079F161E070E080E090E091
:100D20000E940F06E1CF292F30E0C217D3070CF441
:100D30009C2F8FB7F894E092E9002091E80025FFFE
:100D400011C0292F30E0C21BD30BF601915020F0C7
:100D500041914093F100FACFC20ED31E9091E8006A
:100D600095FF13C08FBFC0CF5D9884E680933C0190
:100D70001016110644F081E090E0F5019383828320
:100D800080E090E005C0C80103C09092E800EACF7F
:100D9000DF91CF911F910F91FF90EF90DF90CF9057
:100DA000BF90AF909F908F9008951F920F920FB6B3
:100DB0000F9211242F933F938F939F93AF93BF93E1
:100DC00080912F0190913001A0913101B0913201B9
:100DD00030912E0123E0230F2D3720F40196A11D21
:100DE000B11D05C026E8230F0296A11DB11D209359
:100DF0002E0180932F0190933001A0933101B09385
:100E000032018091330190913401A0913501B0916C
:100E100036010196A11DB11D8093330190933401D9
:100E2000A0933501B0933601BF91AF919F918F91FF
:100E30003F912F910F900FBE0F901F90189520910A
:100E40004C0130914D018091520290915302203219
:100E5000310511F4807F08952034310511F4807E2E
:100E600008952038310511F4807C08952115314012
:100E700009F480780895CF93DF9300D01F92CDB707
:100E8000DEB78EBD2B834A8369830E9449028EB5EB
:100E900069816EBD0E9449028EB54A814EBD0E9495
:100EA00049028EB52B812EBD0E9449028EB50F904E
:100EB0000F900F90DF91CF910895CF93DF9300D0E3
:100EC000CDB7DEB7482F60E087E049839A830E9460
:100ED000700520E049819A81692F8CE40E943B07CC
:100EE0006EE170E080E090E00E940F0661E087E034
:100EF0000F900F90DF91CF910C94700588E592E0F0
:100F00000E940A02892BD1F388E592E00E947F02B9
:100F10000895CF93C82F0E947E07803241F484E168
:100F20000E942D088C2F0E942D0880E10AC080911C
:100F30005402909155020196909355028093540269
:100F400085E1CF910C942D080E947E07803229F410
:100F500084E10E942D0880E10AC0809154029091A2
:100F600055020196909355028093540285E10C94AA
:100F70002D080F931F93CF93DF938C01C2E5D1E02F
:100F8000CE01825591408017910724F40E947E077C
:100F90008993F6CFDF91CF911F910F910895EF9232
:100FA000FF920F931F93CF93DF938C017B01CB01B3
:100FB0000E94B90760E087E00E947005E80102E541
:100FC00011E0C801825591408E159F0584F4F80107
:100FD00021918F014C2F6D2F80EC0E943B076DE219
:100FE00070E080E090E00E940F062196EACF61E079
:100FF00087E00E94700580E1DF91CF911F910F91F2
:10100000FF90EF900895FC018091A902811103C027
:101010008FEF9FEF08959FB7F89482E08093E900E7
:101020002091F20030E01216130614F421E030E0B3
:101030002115310559F0289884E68093A802809103
:10104000F10080838091F200882319F09FBFC901CD
:1010500008958BE68093E800F9CFE0915802F09173
:1010600059020190F081E02D682F88E592E0099403
:101070001F93CF93DF93182FC3E0D0E061E0812F5F
:101080000E9470056EE170E080E090E00E940F0623
:1010900060E0812F0E9470056EE170E080E090E0DA
:1010A0000E940F06219751F7DF91CF911F9108956C
:1010B0008091AE0281110DC082E08093AA0284E08B
:1010C0008093AB021092AD021092AC0281E080934B
:1010D000AE028AEA92E00895E8E5F2E01382128215
:1010E00088EE93E0A0E0B0E084839583A683B78385
:1010F00082E191E0918380838FEF9FEF95878487D2
:101100000895789484B5826084BD84B5816084BD7F
:1011100085B5826085BD85B5816085BD80916E0095
:10112000816080936E0010928100809181008260C6
:101130008093810080918100816080938100809103
:101140008000816080938000809191008260809314
:101150009100809191008160809391008091900036
:101160008160809390008091C10084608093C10071
:101170008091C10082608093C1008091C100816034
:101180008093C1008091C30081608093C3008091EF
:10119000C00082608093C0008091C2008160809313
:1011A000C20080917A00846080937A0080917A00F6
:1011B000826080937A0080917A00816080937A00C7
:1011C00080917A00806880937A001092A902109230
:1011D0003F0110923E018091D70081608093D7003B
:1011E00080EA8093D80089B5806189BD89B5826025
:1011F00089BD09B400FEFDCF61E070E080E090E0C1
:101200000E940F068091D8008F7C80618093D80067
:101210008091E000807F8093E0008091E1008E7EED
:101220008093E1008DE08093E200559A209AEEEFE2
:10123000FFE7859194918B3F9C4D19F481E0809359
:101240003D018FEF9FEF909365028093640261E010
:1012500087E00E94D30587E090E00E94380861E0B3
:1012600088E00E94D30588E090E00E94380861E0A1
:1012700089E00E94D30589E090E00E94380802EDE1
:1012800011E0F0E0EF2EF0E0FF2ECC24C394D12C3F
:101290008091560290915702892B11F061E001C0B4
:1012A00060E087E00E9470058091540290915502A1
:1012B000892B11F061E001C060E088E00E947005B8
:1012C00090910D0180EE890F813A28F080910C01F8
:1012D000819580930C01C0910C01C90FC0930D0141
:1012E000AC2EB12C61E089E00E94D305C11102C08F
:1012F00060E003C0CF3F29F461E089E00E947005FF
:101300007BC0F801849190E0FC013197EF30F1054A
:1013100008F06CC0EB59FF4F0C94800C84B58068CA
:1013200084BDC7BD69C084B5806284BDC8BD64C0CA
:1013300080918000806880938000B0928900A092A4
:1013400088005AC080918000806280938000B092B3
:101350008B00A0928A0050C08091800088608093AA
:101360008000B0928D00A0928C0046C080919000C9
:10137000806880939000B0929900A09298003CC041
:1013800080919000806280939000B0929B00A09228
:101390009A0032C080919000886080939000B09253
:1013A0009D00A0929C0028C08091C000806880931E
:1013B000C0008091C0008F7B8093C000C093CF009D
:1013C0001BC08091C00080628093C000C093D00099
:1013D00013C08091C20088608093C2008091C200D7
:1013E0008B7F8093C200C093D20006C0F0E8AF1696
:1013F000B1040CF081CF7CCF64E170E080E090E03C
:101400000E940F0688E592E00E940A02892B09F4E7
:1014100070C20E947E07813509F413C208F077C0BC
:10142000813409F4B8C050F4803309F498C0813392
:1014300009F49AC0803209F04AC23FC2853409F4E7
:10144000BFC0803509F4C1C0823409F040C284E1D4
:1014500090E00E94B90780915201809340018091F1
:101460005301809341018091540180934201809106
:1014700055018093430180915601809344018091EE
:1014800057018093450180915801809346018091D6
:1014900059018093470180915A0190E0909349014E
:1014A0008093480180915C0190E0982F88272091DB
:1014B0005D01820F911D90934B0180934A018091B1
:1014C0005E0190E0982F882720915F01820F911D87
:1014D00090934D0180934C018091600190E0982F92
:1014E000882720916101820F911D90934F01809375
:1014F0004E018091640190E0982F8827209165012A
:10150000820F911D9093510180935001B2C1813699
:1015100009F494C0D0F4863509F482C1803609F408
:101520008BC0853509F0D3C10E947E07C82F0E9469
:101530007E07282F30E0322F2227C9018C0F911D02
:10154000909353028093520294C1843709F40BC1E3
:10155000853709F491C1843609F0B9C172C010927F
:1015600055021092540285C10E947E07803209F014
:10157000C0C184E10E942D08E0915802F091590207
:101580000280F381E02D47E050E065E271E088E5FC
:1015900092E0099590C10E947E07813859F020F4AD
:1015A000803861F482E04AC1823831F0833931F405
:1015B00083E544C181E042C182E140C180E03EC197
:1015C00085E090E00E94B90754C183E58CBD8DB5DC
:1015D0008EB561E08AE00E94D30561E08AE00E9456
:1015E000700561E08FE00E94D30560E08FE00E940B
:1015F000700562E370E080E090E00E940F0660E01A
:101600008AE00E94700562E370E080E090E00E9452
:101610000F0660E08EE00E94D30561E080E10E9449
:10162000D30520E040E063E58CEA0E943B07D092BE
:101630005702C09256021DC10E947E070E947E077B
:1016400018C10E947E07C82F0E947E07D0E0DC2FC1
:10165000CC27C80FD11D0E947E07863409F04BC0ED
:10166000CE010E94B9070E947E07803209F025C191
:1016700084E10E942D0880915202909153020E94B1
:101680001F072C01A12CB12CAC16BD0684F560906F
:10169000520270905302C3010E941F074C0148166A
:1016A000590639F0C2010E945D07C3010E941F075D
:1016B0004C01F501EE5AFE4F2081462D672D80E446
:1016C0000E943B0722E0A20EB11CF501EF5AFE4F2B
:1016D0002081462D672D88E40E943B0793012F5FF0
:1016E0003F4F30935302209352022401CDCFC201C9
:1016F0000E945D07E0C0853409F090C0A0905202BE
:10170000B090530280914E0190914F018C179D072C
:101710001CF0AA0CBB1C0BC0809154029091550286
:1017200001969093550280935402C1E112C0C132D8
:10173000D10554F060E270E0C5010E94CF0780E25D
:10174000A80EB11CA097F3CFBE01C5010E94CF0720
:10175000C0E10E947E07803209F0AFC084E10E94A0
:101760002D088C2FC4C00E947E07C82F0E947E07C0
:10177000A82E0E947E07B82E0E947E07803209F0B4
:101780009CC0D0E0DC2FCC27CA0DD11D84E10E9483
:101790002D08E6E4BE1227C0A12CB12CAC16BD0664
:1017A0000CF089C0409152026091530220E080E227
:1017B0000E943B070E942D08409152026091530203
:1017C00020E088E20E943B070E942D08809152028F
:1017D0009091530201969093530280935202F2E04B
:1017E000AF0EB11CDBCF25E4B21218C0A09052029C
:1017F000B0905302AA0CBB1CCA0DDB1DAC16BD0673
:1018000009F459C02FEF4A2D6B2D80EA0E943B0747
:101810000E942D088FEFA81AB80AF0CF81E167C0A7
:1018200084E090E00E94B907209155014091540155
:1018300060915301809152010E943B070E948907E9
:1018400058C0109255021092540260E08EE00E943F
:10185000D30560E080E10E94D30560E08FE00E9444
:10186000D30560E08AE00E94D305109257021092DF
:1018700056020E94A4073DC00E947E078032E9F410
:1018800084E10E942D0820E040E060E080E30E94B7
:101890003B070E942D0820E041E060E080E30E94C9
:1018A0003B070E942D0820E042E060E080E30E94B8
:1018B0003B070E942D0880E11AC08091540290914C
:1018C0005502019690935502809354020FC0809167
:1018D00054029091550201969093550280935402C0
:1018E0000E947E07803211F482E101C085E10E94EE
:1018F0002D08E114F10409F4CBCC0E940000C8CCFF
:10190000EE0FFF1F0590F491E02D0994F894FFCF9E
:10191000FFFFFFFF00E10000000000000880000062
:101920000000E90149060A027F029D02FF0100C191
:0E1930008081000000415652204953500000B3
:00000001FF
