:1000000013C02DC02CC02BC02AC029C028C027C0B7
:1000100026C025C024C023C022C021C020C0A5C046
:100020001EC01DC01CC02BC111241FBECFEFD2E0CB
:10003000DEBFCDBF11E0A0E0B1E0ECE2F5E002C030
:1000400005900D92AA31B107D9F711E0AAE1B1E00C
:1000500001C01D92A93EB107E1F7C6D165C2D0CF5C
:10006000E0914101E03470F49091400121E02E0FC5
:1000700020934101F0E0E90FF11DEF73FF27E05CF1
:10008000FE4F82830895F89480E6E3E8F1E0DF0113
:100090001D928A95E9F778940895CF93DF93FC0138
:1000A000DB018C918823B1F180918201811126C0FE
:1000B00080914101811103C0108281E02AC0EF01CB
:1000C00091E0999390914001AF014B5F5F4F88237E
:1000D00051F0292F30E0205C3E4F81509F5F9F738D
:1000E000F901228101C020E02993C417D50779F7CF
:1000F000809341019093400185E00BC0813039F439
:100100009091180190838C931092820103C081E03A
:1001100080838C93DF91CF910895FC0190816330AF
:1001200070F4913049F4623021F481818093180198
:1001300008959093820108959230B1F4A4CF892F4D
:10014000807F803889F4F894892F8F7090E068E17F
:1001500070E0D9D1DC01AD57BE4F98E131960190E6
:100160000D929A95E1F7789408951F920F920FB629
:100170000F9211242F933F938F939F93EF93FF93AD
:100180008091E7019091E80181309105A1F020F084
:10019000029709F450C068C01EBC8091E50190919F
:1001A000E601039709F057C081E090E09093E801E1
:1001B0008093E7014BC08091E3019091E4019C01A1
:1001C0002F5F3F4F3093E4012093E301892B19F413
:1001D0008FEF8EBD1AC08091E5019091E6019C01E0
:1001E0002F5F3F4F3093E6012093E501FC01ED576F
:1001F000FE4F80818EBD8091E3019091E4010497D0
:1002000021F41092E4011092E3018091E5019091B4
:10021000E6018036910541F582E090E09093E80197
:100220008093E7011092E6011092E5011092E4013B
:100230001092E30119C01EBC8091E5019091E60186
:10024000039749F41092E8011092E7011092E60139
:100250001092E50109C08091E5019091E6010196B7
:100260009093E6018093E501FF91EF919F918F912B
:100270003F912F910F900FBE0F901F9018951F92D6
:100280000F920FB60F9211242F933F934F935F93CA
:100290006F937F938F939F93AF93BF93EF93FF934E
:1002A0008091B900883909F483C0C0F4883709F413
:1002B0005CC050F4883609F458C0803709F455C042
:1002C000803609F079C051C0883809F471C080398E
:1002D00009F44EC0803809F06FC04AC0883B91F1E4
:1002E00058F4883A99F0803B89F0803A09F064C06C
:1002F00085ED8093BC004BC0883C09F457C0883F13
:1003000009F461C0803C09F057C050C010923F0111
:10031000E0913D01F0913E01309749F080E28093F9
:100320003C016CE371E08CE191E0099502C0109210
:100330003C0180913C01811105C081E080933C012A
:1003400010921C01E0913F0181E08E0F80933F01EC
:10035000F0E0E45EFE4F80818093BB0090913F010E
:1003600080913C01981720F521C010923F011EC0DA
:10037000E0913F01E032E0F481E08E0F80933F0195
:100380008091BB00F0E0E45EFE4F80830FC080915F
:10039000BC0084FDFCCFE0911A01F0911B01309765
:1003A00029F060913F018CE191E0099585EC01C055
:1003B00085E88093BC0007C085ED8093BC008091E8
:1003C000BC0084FDFCCFFF91EF91BF91AF919F9155
:1003D0008F917F916F915F914F913F912F910F90EE
:1003E0000FBE0F901F9018952FEF27B98FE088B997
:1003F0001AB82BB9479A8DE890E090931B0180932F
:100400001A018DE490E090933E0180933D0183B109
:1004100093B1382F3170892F8270832B8865880FB4
:100420008093BA002093BB008091B9008E7F8093A7
:10043000B9008091B9008D7F8093B90085EC8093DD
:10044000BC00789420DE8CE284B985B1837D85B9C7
:1004500081ED8CBD1092E8011092E7011EBC81E095
:1004600090E09093E6018093E5011092E4011092F0
:10047000E301EE24E394F12CE2E0F1E0A0E0B1E04E
:1004800040E050E060E088B19701042E01C0220FE7
:100490000A94EAF720958F60822388B989B1308168
:1004A00083272C91EF019A91922798239883209586
:1004B00028232C938095822B892B80953827308395
:1004C000680F4F5F5F4F3396139644305105D9F64E
:1004D0008FEC97E00197F1F700C00000662361F20E
:1004E000F894809105018095BBDD8091080180958D
:1004F000B7DD80910B018095B3DD8091020180957D
:10050000AFDD7894B9CF0024552704C0080E591FD9
:10051000880F991F009729F076956795B8F37105B4
:0C052000B9F7802D952F0895F894FFCFB7
:10052C000000FF0000FF0000FF0000FF0000FF00C4
:0A053C0000FF0000FF0000FF1000A8
:00000001FF
