:100000000C94D7010C94FF010C94FF010C94FF0198
:100010000C94FF010C94FF010C94FF010C94FF0160
:100020000C94FF010C94FF010C948E070C94230890
:100030000C94FF010C94FF010C94FF010C94FF0140
:100040000C94FF010C94FF010C94FF010C94FF0130
:100050000C94FF010C94FF010C94FF010C94340EDE
:100060000C94FF010C94FF010C94FF010C94FF0110
:100070000C94FF010C94FF010C94FF010C94FF0100
:100080000C94FF010C94FF010C94FF010C94FF01F0
:100090000C940A040C94FF010C94FF010C94FF01D2
:1000A0000C94FF010C94FF010C94FF01060D090D47
:1000B000F80CFC0C000D2A0D2A0D2A0D0D0D110D4A
:1000C000150D1B0D1F0D2A0D250D084AD73B3BCEE4
:1000D000016E84BCBFFDC12F3D6C74319ABD568347
:1000E0003DDA3D00C77F11BED9E4BB4C3E916BAAFF
:1000F000AABE000000803F07634236B79BD8A71A0C
:1001000039685618AEBAAB558C1D3CB7CC5763BD99
:100110006DEDFD753EF6177231BF000000803F05A2
:10012000A84CCDB2D44EB93836A9020C50B991863C
:1001300088083CA6AAAA2ABE000000803F00080B3F
:100140000002020201000904000001020200000591
:1001500024001001052401010104240206052406DF
:1001600000010705810310004009040100020A0094
:10017000000007050202400000070583024000005E
:100180000403090441726475696E6F204C4C43008E
:1001900041726475696E6F204C656F6E6172646F39
:1001A00000120100020000004041233680000101DE
:1001B00002030112010002EF0201404123368000D8
:1001C000010102030100000000000000002A2B28AA
:1001D000000000000000000000000000000000001F
:1001E00000000000002C9EB4A0A1A2A434A6A7A5E4
:1001F000AE362D3738271E1F20212223242526B373
:1002000033B62EB7B89F8485868788898A8B8C8D74
:100210008E8F909192939495969798999A9B9C9D86
:100220002F3130A3AD350405060708090A0B0C0D64
:100230000E0F101112131415161718191A1B1C1D66
:10024000AFB1B0B5000000000200090F00000304C8
:1002500001000C0000000000000000000000000091
:100260000000000000000000250028002B002E00E8
:10027000310000000000240027002A002D0030007B
:10028000040404040403040502020202040302023B
:10029000020206060606060604040202020404041C
:1002A0000802011040804010204080408008020475
:1002B00001804020100201108010204040200501E4
:1002C0000980A1018505150026FF00190029FF9569
:1002D0000175088100C005010902A1018501050918
:1002E00019012908150025019508750181020501EC
:1002F0000930093109381581257F75089503810674
:10030000C005010906A1018508050719E029E715BF
:100310000025017501950881027504950181011977
:10032000042931150025017501952E81027501956D
:100330000181011933299B150025017501956981FA
:1003400002750195018101199D29DD1500250175B1
:100350000195418102750295018101C0050C0901D9
:10036000A1018504150026FF0319002AFF03950447
:1003700075108100C005010902A101850705091951
:10038000012908150025019508750181020501095B
:1003900030093116000026FF7F7510950281020991
:1003A000381581257F750895018106C038151124FF
:1003B0001FBECFEFDAE0DEBFCDBF12E0A0E0B1E0BC
:1003C000ECEAF5E302C005900D92AA3EB107D9F719
:1003D00025E0AAEEB2E001C01D92AF3CB207E1F702
:1003E00011E0C7EDD1E004C02197FE010E94AE16D6
:1003F000C63DD107C9F70E94DB110C94D41A0C94A6
:10040000000085ED8093BC008091BC0084FDFCCF92
:100410001092A003089540910C03262F30E0240F82
:10042000311D21323105DCF42091A0032430C9F4C0
:10043000FC0180E090E0861758F430910C03219184
:10044000DC01A651BD4FA30FB11D2C930196F3CF34
:1004500080910C03680F60930C0380E0089581E0A5
:10046000089582E008950895E091A4038091A30384
:10047000E81730F4F0E0EF5CFC4F808190E00895E5
:100480008FEF9FEF08959091A4038091A303981795
:1004900050F4E92FF0E0EF5CFC4F208130E09F5FEB
:1004A0009093A40302C02FEF3FEFC90108958091FC
:1004B000A30390E02091A403821B91090895CF9299
:1004C000DF92EF92FF920F931F93CF93DF937C0104
:1004D000262F972F8A0180917503882391F0C62FCC
:1004E000D72F6E01C40ED51ECC15DD0571F06991B4
:1004F000D701ED91FC910190F081E02DC7010995A4
:10050000F3CF642F822F0E940B02C801DF91CF919D
:100510001F910F91FF90EF90DF90CF900895CF93B0
:10052000DF931F92CDB7DEB7698320917503222335
:10053000D1F02091A103203240F021E030E0FC0115
:100540003383228380E090E015C08091A203E82FDE
:10055000F0E0EA58FC4F998190838F5F8093A2036B
:100560008093A10305C061E0CE0101960E940B02B9
:1005700081E090E00F90DF91CF9108956E3D90F46F
:10058000262F269526952695FC01E20FF11D677012
:1005900081E090E001C0880F6A95EAF79581892B88
:1005A00085830DC0605E683068F421E030E001C0F2
:1005B000220F6A95EAF7FC013481232B248381E022
:1005C00090E0089580E090E00895CF93DF93EC01F0
:1005D0000E94CF0EAE014C5F5F4F2DE130E068E02E
:1005E000DF91CF910C947E0EAF92BF92CF92DF92AB
:1005F000FF920F931F93CF93DF935C018C010659F9
:100600001F4FF801C08181E08C0F80833997F08003
:1006100081E080937503F09296031092A2031092EA
:10062000A1036C2F70E060587F4F8AE594E00E9430
:100630008F02F8E1CF9FE0011124C12CD12CF601EB
:10064000EC0FFD1FEA0DFB1D60818AE594E00E941E
:100650008F028FEFC81AD80AE8E1CE16D10479F7D5
:100660008091A103813208F046C09091A0039111BE
:10067000FCCF92E09093A00391E090939F039FEFB3
:10068000909374031092730380937203A6E7B3E010
:1006900022E533E0F9019E2F921B981718F49D91E3
:1006A0009193F9CF1092510380915103FF0CF82AD6
:1006B000F092510380919E03813061F410929E0369
:1006C000809151038093BB008091BC0083FDF8CFE3
:1006D00085EC01C085EE8093BC008091A003823040
:1006E000E1F3809174038F3F31F080917403803285
:1006F00011F0809174031092A2031092A103109242
:100700007503F8018081843009F41082DF91CF9164
:100710001F910F91FF90DF90CF90BF90AF90089501
:10072000CF93DF93EC01FC01EF59FF4F8081909153
:10073000A0039111FCCF91E09093A00390939F03AD
:100740002FEF209374031092730324E0209372031D
:100750009093510390915103880F892B80935103FB
:1007600080919E03813061F410929E038091510329
:100770008093BB008091BC0083FDF8CF85EC01C065
:1007800085EE8093BC008091A0038130E1F38091DD
:100790007303853018F48091730301C085E0A2E5EE
:1007A000B3E021E333E0F9019E2F921B981718F470
:1007B0009D919193F9CF1092A4038093A3038AE5AE
:1007C00094E00E944302813009F58AE594E00E949A
:1007D0004302FE01EB59FF4F80838AE594E00E94BB
:1007E0004302FE01EA59FF4F80838AE594E00E94AC
:1007F0004302FE01E959FF4F80838AE594E00E949D
:100800004302C859DF4F888381E001C080E0DF9157
:10081000CF9108951F920F920FB60F9211242F932C
:100820003F934F935F936F937F938F939F93AF9378
:10083000BF93EF93FF938091B900887F803609F4CE
:100840009CC068F5883209F45BC090F4803109F4EB
:1008500054C038F4882309F4F6C0883009F44DC038
:10086000F6C0883109F44CC0803209F45DC0EFC095
:10087000803409F468C048F4803309F455C08833E3
:1008800009F0E5C080937403D8C0803509F44FC0E7
:10089000883509F45DC0883409F0D9C0D6C08839DC
:1008A00009F4C7C0A8F4883709F467C038F488365B
:1008B00009F463C0803709F460C0C9C0883809F4FE
:1008C000B8C0803909F45FC0803809F0C0C05BC08F
:1008D000803B09F486C038F4803A09F466C0883A4F
:1008E00009F47FC0B4C0803C09F4A7C0883C09F477
:1008F000A4C0883B09F48AC0AAC08091510310C0EB
:100900009091730380917203981770F5E0917303CF
:1009100081E08E0F80937303F0E0EE5AFC4F8081EC
:100920008093BB0085EC86C0809374038EC0E091F9
:10093000730381E08E0F809373038091BB00F0E01E
:10094000EE5AFC4F808390917303809172036EC0C6
:10095000E091730381E08E0F809373038091BB005D
:10096000F0E0EE5AFC4F808380919F0381116DC0AF
:1009700081E080939E0384EA61C083E08093A003BA
:1009800010923003CFCF80913003803208F051C0F5
:10099000E091300381E08E0F809330038091BB00A3
:1009A000F0E0E05FFC4F8083BDCF85EC8093BC001E
:1009B0001092A00380913003803230F4E091300334
:1009C000F0E0E05FFC4F10826091300370E0E09156
:1009D0000E03F0910F0380E193E00995109230032C
:1009E00036C084E08093A00310920D0310920C0394
:1009F000E0910A03F0910B03099580910C0381119A
:100A000005C081E080930C031092EA02E0910D038F
:100A100081E08E0F80930D03F0E0E651FD4F808161
:100A20008093BB0090910D0380910C03981708F4FC
:100A300079CF85E88093BC000AC085EC8093BC0028
:100A40001092A00304C0109274030E940102FF914F
:100A5000EF91BF91AF919F918F917F916F915F9136
:100A60004F913F912F910F900FBE0F901F901895AF
:100A70000F931F93CF93DF9300D000D000D0CDB75A
:100A8000DEB73091A703A82FB0E070E0FD0154E07D
:100A9000359FE00DF11D112414E0EE0FFF1F1A9594
:100AA000E1F7E60FF71FEE0FFF1FED5EFE4F90819F
:100AB00011818091A503FD0154E0859FE00DF11D9A
:100AC000112454E0EE0FFF1F5A95E1F7E60FF71FD0
:100AD000EE0FFF1FED5EFE4F508154FF17C0618186
:100AE00055FF06C0442309F49BC12111BCC134C089
:100AF000442309F4B8C12111B6C16093A5036093E2
:100B0000A70380E090E00E94C61AADC197FF20C005
:100B1000392F307194FF06C015FD04C0442309F439
:100B2000A2C127C0892F887093FD0CC05FEF510FC1
:100B3000523010F0143031F4442309F476C12111FD
:100B400092C130C0442309F48EC121118CC148C028
:100B5000442309F488C142C16E3F11F43F5F03C0D2
:100B60006D3F21F431503093A7037DC16093A703FB
:100B70007AC110FF04C06FEF80E00E949E1011FF49
:100B800004C061E080E00E949E1012FF04C060E09B
:100B90008FEF0E949E1013FF66C160E081E00E940B
:100BA0009E1061C1113029F090E0143019F482E0F8
:100BB00002C091E080E0892B123011F090E001C07A
:100BC00094E020916604892B822B821731F0809368
:100BD000660460E080E00E94BA0F10927B0443C17B
:100BE00015FF8FC0332309F48CC016FB882780F9CA
:100BF00011FD02C040E001C044E0482B13FD02C0DB
:100C000080E001C080E1482B80917B04811115C0F8
:100C100010927A041092790410927804109277045A
:100C20008FEF9FE7909374048093730490937604FE
:100C30008093750481E080937B0440FDCECF2091AA
:100C4000730430917404369527953093740420937F
:100C5000730480917504909176049695879590938E
:100C600076048093750442FF0AC060917704709106
:100C70007804680F791F709378046093770440714B
:100C800051F04091790450917A04420F531F5093D0
:100C90007A04409379044091770450917804A0E05D
:100CA000B0E0B595A79597958795840F951FA11DE1
:100CB000B11D6091790470917A04890120E030E0DF
:100CC0003595279517950795060F171F211D311D7F
:100CD000109356040093550490935804809357043E
:100CE0006091590469831B830A839D838C831E82D0
:100CF0000E94CF0E26E030E0AE014F5F5F4F67E00D
:100D00001FC092FF20C0EDE4F4E080E090E021916C
:100D10003191232B51F4880F991FFC01E35BFB4FAA
:100D2000812F90E09183808304C0019684309105E7
:100D300071F70E94CF0E28E030E04DE454E064E00B
:100D40000E947E0E90C0882371F0113009F08BC094
:100D500080915205873020F48F5F8093520583C0C5
:100D60001092520580C091FF25C019831338C9F431
:100D70008091E0008D7F8093E0008091E00081FD14
:100D800072C080919C0380FF6EC080919D0381FFA3
:100D90006AC00E9400088091E00082608093E000B9
:100DA00062C00E94CF0E21E030E0AE014F5F5F4F86
:100DB00065E0C6CF90FF57C0113009F054C0E091F4
:100DC000DB03F091DC030280F381E02D41E250E08F
:100DD00067EC72E08BED93E0099545C092FF05C08A
:100DE0008091300482608093300490FF05C0809130
:100DF000300481608093300491FF05C080913004FD
:100E000080648093300493FF05C080913004886033
:100E100080933004612F8CE294E00E94BE0223C0D4
:100E2000222309F18093A7031EC02223E1F0113091
:100E300029F090E0143019F482E002C091E080E0E3
:100E4000892B123011F090E001C094E020916604EB
:100E5000892B80958223821731F08093660460E0AD
:100E600080E00E94BA0F26960FB6F894DEBF0FBE40
:100E7000CDBFDF91CF911F910F910895803250F433
:100E800090E0FC01EE0FFF1F8E0F9F1FFC01E95148
:100E9000FB4F0CC0803468F490E08097FC01EE0FAB
:100EA000FF1F8E0F9F1FFC01E458FB4F40835183AF
:100EB000628308950E94C11A0F931F93CF93DF930B
:100EC0001F92CDB7DEB782E0898342E450E06EE343
:100ED00071E080E80E940B0C0E94C70CDC011296A6
:100EE0000D911C9113970115110569F0D801ED9131
:100EF000FC910280F381E02DBE016F5F7F4FC8013E
:100F0000099597FF07C089810F90DF91CF911F91BD
:100F10000F910895F80100851185E5CF1F920F927A
:100F20000FB60F9211248F939F938091E1009091BF
:100F3000E100937F9093E10083FF0FC01092E900DE
:100F400091E09093EB001092EC0092E39093ED000F
:100F50001092D60398E09093F00082FF20C093E0B7
:100F60009093E9009091F200992319F09AE39093FD
:100F7000E80090919B03992339F090919B03915045
:100F800090939B03992389F19091D503992339F08C
:100F90009091D50391509093D503992341F184FF0B
:100FA00010C08091E2008E7E81608093E20080918B
:100FB000E1008F7E8093E10080919C038E7E8061B2
:100FC00011C080FF16C08091E2008E7E8061809308
:100FD000E2008091E1008E7E8093E10080919C038D
:100FE0008E7E816080939C0304C05D9ACDCF289A49
:100FF000D6CF9F918F910F900FBE0F901F90189595
:101000008091D70081608093D70080EA8093D800D8
:1010100089B5806189BD89B5826089BD09B400FE4A
:10102000FDCF61E070E080E090E00E943E0D809195
:10103000D8008F7C80618093D8008091E000807F11
:101040008093E00008951F920F920FB60F92112423
:10105000CF92DF92EF92FF920F931F932F933F93C4
:101060004F935F936F937F938F939F93AF93BF93B0
:10107000EF93FF93CF93DF93CDB7DEB76C97DEBFCF
:10108000CDBF1092E9008091E80083FFFAC168E0CB
:10109000CE0145960E94BA0C82EF8093E8008D89BC
:1010A00087FF05C09091E80090FFFCCF03C09EEF42
:1010B0009093E800982F907609F0C6C09E892F89FA
:1010C000188D91110CC0803829F480919D03809374
:1010D000F10002C01092F1001092F10047C1422FBE
:1010E00050E0512B913051F4811140C141305105F4
:1010F00009F03CC180919D038D7F0BC0933061F45A
:10110000811134C14130510509F030C180919D03F6
:10111000826080939D032AC1953041F48091E8005C
:1011200080FFFCCF20682093E30020C1963009F0B7
:101130005FC0EB8CFC8C1092E90010929A03109225
:101140009903123091F510929803109297030E9420
:101150005C0799E0BE016F5F7F4FDB01E92F1D92B5
:10116000EA95E9F799831A8391E09E8390EA98873C
:101170009AEF99872091990330919A03275F3F4F07
:101180003C832B838D831092E90010929A03109276
:101190009903F0929803E092970349E050E080E0D1
:1011A0000E940B0C0E945C07E1C0F0929803E09251
:1011B00097030E94C70CDC011296ED90FC901397E8
:1011C000E114F10409F4C0C0D701ED91FC91048051
:1011D000F581E02DBE016B5E7F4FC7010995009739
:1011E00019F00CF0C3C0C6C0F701E084F184E8CF69
:1011F000973009F4BFC0983021F481E08093F1006A
:10120000B5C0993009F0B2C0837009F0B3C0E1E015
:10121000F1E081E021E036E39081992361F0809351
:10122000E9002093EB0091919093EC003093ED0056
:101230008F5F873089F78EE78093EA001092EA008B
:101240008F898093D60392C08B8D9C8D1092E9007C
:1012500010929A03109299039093980380939703A6
:10126000898D811156C08E899D89913A59F48132B8
:1012700009F080C047E050E06BE071E080E00E9440
:101280000B0C74C0913209F075C0833289F4888DDB
:1012900090E0982F88272F89822BA0E0B0E08093E0
:1012A000070190930801A0930901B0930A015EC061
:1012B000803269F48091E80082FFFCCF67E08BE028
:1012C00091E00E94BA0C8BEF8093E80006C0823256
:1012D00009F04CC08F89809312018091AA03882362
:1012E00019F0EEEFFAE002C0E0E0F8E080910B01C7
:1012F00090910C01A0910D01B0910E01803B9440A2
:10130000A105B10509F088C08091120180FFA0C03D
:1013100083C00E94C70CDC0112960D911C9113979B
:101320000115110539F1D801ED91FC910190F08181
:10133000E02DBE016B5E7F4FC8010995811116C07B
:10134000F80100851185ECCF1130C1F0133091F414
:101350008F89882309F455C08230E9F440E860E1C0
:1013600080E991E00E94CE0B882321F08EEF8093DC
:10137000E80087C081E28093EB0083C08B8D9C8D59
:10138000089711F41093A9038091A903811136C025
:1013900061EA71E038C0813029F440E86BE084E80C
:1013A00091E0E0CF833031F70E94C70CDC01129648
:1013B000ED90FC9013978E010F5F1F4F6801E114B1
:1013C000F10479F0D701ED91FC910680F781E02DD1
:1013D000B801C7010995080F111DF701E084F184D8
:1013E000EECFD8011C92F60101900020E9F7319769
:1013F000BF016C197D0940E0C601B4CF63EB71E019
:1014000002C060E871E06115710509F4B3CFFB011A
:10141000449150E080E833CF0FB6F894A8958091BE
:101420006000886180936000109260000FBEA895F4
:10143000EE3F2AE0F20739F08091FE0A9091FF0A10
:101440009183808393CF1092FF0A1092FE0A8ECF71
:10145000EE3F8AE0F80731F0808191819093FF0A96
:101460008093FE0A87E797E7918380839BE088E17A
:101470000FB6F894A895809360000FBE909360001B
:1014800075CF6C960FB6F894DEBF0FBECDBFDF915F
:10149000CF91FF91EF91BF91AF919F918F917F91EC
:1014A0006F915F914F913F912F911F910F91FF90FD
:1014B000EF90DF90CF900F900FBE0F901F90189578
:1014C0004091990350919A0320919703309198038A
:1014D00042175307B4F49091E8009570E1F39091AE
:1014E000E80092FD19C08093F100809199039091DA
:1014F0009A0301968F739927892B19F48EEF8093A5
:10150000E8008091990390919A03019690939A0331
:101510008093990381E0089580E00895CF92DF924F
:10152000EF92FF920F931F93CF93DF936C017A0199
:101530008B01C0E0D0E0CE15DF0589F0D8016D91B8
:101540008D01D601ED91FC910190F081E02DC60155
:101550000995892B11F47E0102C02196ECCFC701B9
:10156000DF91CF911F910F91FF90EF90DF90CF907F
:101570000895CF93DF931F92CDB7DEB76983DC0167
:10158000ED91FC910280F381E02D41E050E0BE013D
:101590006F5F7F4F09950F90DF91CF91089583E0A2
:1015A0008093E9008091F200882319F08AE3809308
:1015B000E8000895FC018485958597FD0BC09FB7D1
:1015C000F89482E08093E9008091F2009FBF90E060
:1015D000019608959FB7F89482E08093E900809186
:1015E000F2009FBF90E008953FB7F8948091C50343
:1015F0009091C603A091C703B091C80326B5A89BDC
:1016000005C02F3F19F00196A11DB11D3FBFBA2F94
:10161000A92F982F8827820F911DA11DB11DBC01F4
:10162000CD0142E0660F771F881F991F4A95D1F7B9
:101630000895DC01FB0112968C91129790E02481B1
:10164000358182179307D1F491818081813A31F4F9
:1016500081E0913091F0933089F411C0813271F4BE
:101660009B3021F482811F968C9305C09A3031F40F
:10167000828150968C9381E00895089580E00895CA
:10168000DC01FB0188E4808389E4818384E4828334
:101690001D969C911D979F709F5B93831D968D91C6
:1016A0009C911E9724E0969587952A95E1F78F7077
:1016B0008F5B848385E00895FC0182818F5BFB0151
:1016C000808381E00895CF93DF931F92CDB7DEB77B
:1016D000FC018485958597FD05C02FEF3FEF358789
:1016E00024870BC0CE0101960E94B111019719F415
:1016F000898190E002C08FEF9FEF0F90DF91CF9133
:1017000008950F931F93CF93DF931F92CDB7DEB74A
:101710008C01FC018485958597FF0EC0CE01019652
:101720000E94B111019719F4298130E002C02FEF16
:101730003FEFF80135872487F801848595850F9060
:10174000DF91CF911F910F910895CF93DF93EC011B
:10175000E62FF0E0E038F105E0F4EB53FE4F649142
:1017600067FF03C08C8182608C836F77CE010E94FB
:10177000BE02CE010E94E502FE0134968DE1DF013A
:101780001D928A95E9F7CE010E94E50281E090E082
:1017900002C080E090E0DF91CF910895CF92DF9278
:1017A000EF92FF920F931F93CF93DF931F92CDB7CA
:1017B000DEB7182F062FE42E862F880F8E5F9983B1
:1017C0000E94600A83E00E94600AF12EC12E998176
:1017D000D92E8C2D8F19801798F4F601E7FE02C0E0
:1017E000849101C080810E94600A182F80E00E94CD
:1017F000600A8123FFEFCF1ADF0A8111EACF01C00F
:1018000081E00F90DF91CF911F910F91FF90EF90AA
:10181000DF90CF900895DF92EF92FF920F931F9386
:10182000CF93DF93D82E8A017B01E40EF51EEB01E6
:10183000CE15DF0571F0D7FE03C0FE01849101C013
:1018400088810E94600A21968111F2CF8FEF9FEF6D
:1018500001C0C801DF91CF911F910F91FF90EF90D0
:10186000DF900895EF92FF920F931F93CF93DF9332
:10187000FB012081213851F52381223239F5DC0129
:1018800012962C9130E04481558142175307F1F4B0
:10189000EC010B851C85E12CF12C0115110591F053
:1018A000F801448155816281738180E80E940B0CAC
:1018B0008F3FFFEF9F0769F0E80EF91ED8010D91E9
:1018C0001C91EBCF81E08F87C70105C080E090E0DD
:1018D00002C08FEF9FEFDF91CF911F910F91FF908B
:1018E000EF900895CF93DF93CDB7DEB769970FB62A
:1018F000F894DEBF0FBECDBFFC01DB018C918F5F82
:101900008C93BE016F5F7F4F89E1DB011D928A9549
:10191000E9F729E0298384E08A8391E09D8383E0CD
:101920008E832A8721E22B879C879D879F8722E2CF
:10193000288B27E02B8B25E02C8B8E8B20E430E04E
:10194000388F2F8B998F82818B8395858685998B94
:101950008A8B838180688D8B49E150E080E00E9412
:101960000B0C69960FB6F894DEBF0FBECDBFDF91AA
:10197000CF910895615030F02091F100FC01208357
:101980000196F8CF289884E68093D5030895809136
:10199000CD0381110DC082E08093C90384E0809360
:1019A000CA031092CC031092CB0381E08093CD0345
:1019B00089EC93E00895362F90E0FC01EB5BFD4F3E
:1019C0004491FC01E156FD4F2491FC01E058FD4F8C
:1019D0008491882309F451C04423E1F150E0FA01D5
:1019E0003197EF30F105B0F5EA5AFF4F0C94AE167F
:1019F000909180009F7707C0909180009F7D03C0E9
:101A000090918000977F9093800024C094B59F7739
:101A100002C094B59F7D94BD1DC0909190009F77AA
:101A200007C0909190009F7D03C090919000977F98
:101A3000909390000FC09091C0009F7703C0909149
:101A4000C0009F7D9093C00005C09091C200977F19
:101A50009093C200E82FF0E0EE0FFF1FEC59FD4F0E
:101A6000A591B4918FB7F894EC91311103C02095F2
:101A70002E2301C02E2B2C938FBF08958F929F92FF
:101A8000AF92BF92CF92DF92EF92FF926B017C01F7
:101A90000E94F40A4B015C01C114D104E104F10479
:101AA000F1F00E94F40ADC01CB0188199909AA0916
:101AB000BB09883E9340A105B10570F321E0C21A2D
:101AC000D108E108F10888EE880E83E0981EA11C79
:101AD000B11CC114D104E104F10419F7DDCFFF906A
:101AE000EF90DF90CF90BF90AF909F908F90089530
:101AF0008F929F92AF92BF92CF92DF92EF92FF921E
:101B00000F931F93CF93DF9300D01F92CDB7DEB713
:101B1000382F8B018091D603811103C08FEF9FEF87
:101B20007DC080919C0380FF05C08091E0008260B1
:101B30008093E0004A018AEFF82E832F8770E82E09
:101B40009FE3C92E832F8072B82E2AE3D22E832FD3
:101B50008074A82E8114910409F457C08FB7F894AB
:101B6000E092E9009091E80095FF05C09091F200A5
:101B70002C2D291B01C020E08FBF211110C0FA9429
:101B8000FF2061F261E070E080E090E039834A83F9
:101B90005B830E943E0D39814A815B81DBCF822FBE
:101BA00090E0881699060CF4282D6FB7F894E0920F
:101BB000E9008091E80085FF26C0822F90E0881A16
:101BC000990ABB2029F02150A8F01092F100FBCF18
:101BD000F80137FF07C0215058F074917093F1005D
:101BE0003196F9CF215020F071917093F100FACF26
:101BF000080F191F8091E80085FF0DC08114910422
:101C000011F4A11008C06FBFA5CF5D9884E6809342
:101C10009B03CA0103C0D092E800F5CF0F900F904C
:101C20000F90DF91CF911F910F91FF90EF90DF9078
:101C3000CF90BF90AF909F908F900895CF93DF93F8
:101C4000EC0180911201882331F083E00E94780D2D
:101C50001816190634F081E090E09B838A8380E0B7
:101C600090E0DF91CF9108951F920F920FB60F92DF
:101C700011242F933F938F939F93AF93BF938091A2
:101C8000D7039091D803A091D903B091DA03309192
:101C9000C40323E0230F2D3720F40196A11DB11DAD
:101CA00005C026E8230F0296A11DB11D2093C40391
:101CB0008093D7039093D803A093D903B093DA030A
:101CC0008091C5039091C603A091C703B091C8034A
:101CD0000196A11DB11D8093C5039093C603A093E7
:101CE000C703B093C803BF91AF919F918F913F916C
:101CF0002F910F900FBE0F901F901895AF92BF922B
:101D0000CF92DF92EF92FF920F931F93CF93DF93C7
:101D10001F92CDB7DEB77C0169836A01590141E0AA
:101D200050E0BE016F5F7F4FFC0183810E94780D00
:101D30008C0197FD0BC0F7018381A501B60180647A
:101D40000E94780D97FD02C0800F911F0F90DF91C8
:101D5000CF911F910F91FF90EF90DF90CF90BF90A8
:101D6000AF900895FC01A385B485109719F474878A
:101D7000638709C08D919C911197009711F0DC0148
:101D8000F9CF6D937C9325853685DB0114968D9173
:101D90009C911597820F931F968785870895809150
:101DA000BC0381116BC081E08093AF038093B003CB
:101DB00025EB33E03093B2032093B1031092B403C8
:101DC0001092B30327E932E03093AC032093AB03C6
:101DD0001092B7031092B6031092B9031092B80391
:101DE0008093BA038093BB0381EC8093B5030E9478
:101DF000C70CFC0121818091AF0390E0820F911DFF
:101E0000089724F081E08093BC0338C0A281B3819D
:101E1000109729F48BEA93E0938382830EC018967F
:101E20008D919C911997009711F0DC01F8CF8BEA06
:101E300093E019969C938E93189780818093AD03BD
:101E400081818093AE0390818091B003890F80835C
:101E500080E09091AF038917A8F6A091B103B091EB
:101E6000B203A80FB11D9C91A181B0E0A050BF4F5B
:101E70009C9391819F5F91838F5FEBCF8BEA93E07F
:101E8000089587EE94E00E94F4028CE794E00E94AB
:101E9000F40287EE94E00E94F4028CE794E00E9442
:101EA000F40287EE94E00E94F4028CE794E00E9432
:101EB000F40287EE94E00E94F4028CE794E00C9424
:101EC000F4020F931F93CF93C82F02E515E0F8019A
:101ED0004089518962890E943E070E94410F6AEF42
:101EE00070E080E090E00E943E0DF8014481558151
:101EF00066818C2F0E943E070E94410F6AE070E0CD
:101F000080E090E0CF911F910F910C943E0DCF9205
:101F1000DF92EF92CF936B01E82EC0E06E2DA60109
:101F20008C2F0E943E07CF5FC034C1F7CF91EF9056
:101F3000DF90CF90089590E0FC01E156FD4F249191
:101F4000FC01E058FD4F8491882399F090E0880FC0
:101F5000991FFC01EE58FD4FA591B491FC01EC597D
:101F6000FD4F859194918FB7F894EC91E22BEC930F
:101F70008FBF0895CF93DF9300D000D0CDB7DEB7E9
:101F80009091660499838A836B831C820E94CF0E92
:101F900024E030E0AE014F5F5F4F61E00E947E0EB3
:101FA0000F900F900F900F90DF91CF910895CF93E6
:101FB000DF9300D000D0CDB7DEB71092660419824F
:101FC0001A821B821C820E94CF0E24E030E0AE01F8
:101FD0004F5F5F4F61E00E947E0E0F900F900F9059
:101FE0000F90DF91CF9108950F931F93CF93DF93BD
:101FF000FC01EB019A01CB016BE270E00E949A16A2
:10200000AB016BE2649FC001659F900D1124C81B5A
:10201000D90B86E08C9FD0018D9FB00D1124CFEF9E
:10202000CA9FB001CB9F700D1124672F77278FEFC8
:1020300090E08C01061B170B029FB001039F700DEF
:10204000129F700D11248C010A1B1B0BC09FD00125
:10205000C19FB00D1124AB2FBB278A1B9B0B829F06
:10206000D001839FB00D929FB00D112442305105D5
:10207000B9F048F44115510579F041305105C1F4EA
:10208000728321830BC04330510571F044305105F8
:1020900079F4B28311820AC02283B18310820BC00B
:1020A00012822183B08307C012827183208303C010
:1020B000228311827083DF91CF911F910F91089538
:1020C0002FB7F8946091D7037091D8038091D9030A
:1020D0009091DA032FBF0E944E1820E030E04AEFC3
:1020E00054E40E946C172BED3FE049E450E40E9459
:1020F000F5190E94621A0E94E61722EB3AE54CEBB2
:102100005EE30E94B41620E030E048ED52E40E9405
:10211000F5190E941F1860937405662311F0663943
:1021200029F480917505819580937505462F50E0BF
:1021300068EC70E088E695E00C94F40F8F929F9223
:10214000AF92BF92CF92DF92EF92FF92CF93DF9345
:10215000811103C0662309F4F1C0C62FD82F20E0F7
:1021600030E040E85FE3609167047091680480911B
:10217000690490916A040E94B51660936704709395
:1021800068048093690490936A042DEC3CEC4CE461
:102190005DE30E94F51920E030E040EA50E40E943F
:1021A000B4160E9421172BED3FE049EC5FE30E943B
:1021B000B51620E030E040EA50E40E94F5196B01CA
:1021C0007C0120E030E040E85EE30E94671787FF73
:1021D00006C0C12CD12C80E8E82E8EE3F82E1D1607
:1021E000F4F46D2FDD0F770B880B990B0E945018BC
:1021F000A70196010E94F51920916B0430916C049F
:1022000040916D0450916E040E94B5164B015C0123
:102210000E948B189B01AC01C501B4011DC0DD23D8
:1022200031F16D2FDD0F770B880B990B0E94501841
:10223000A70196010E94F51920916B0430916C045E
:1022400040916D0450916E040E94B4164B015C01E4
:102250000E945017A50194010E94B41660936B046C
:1022600070936C0480936D0490936E0403C0812C72
:10227000912C54011C16F4F46C2FCC0F770B880BA7
:10228000990B0E945018A70196010E94F519209100
:102290006F043091700440917104509172040E9457
:1022A000B5166B017C010E948B189B01AC01C70124
:1022B000B6011DC0CC2331F16C2FCC0F770B880BEE
:1022C000990B0E945018A70196010E94F5192091C0
:1022D0006F043091700440917104509172040E9417
:1022E000B4166B017C010E945017A70196010E9451
:1022F000B41660936F04709370048093710490938C
:10230000720403C0C12CD12C760110927B04C7014A
:10231000B6010E941818C62FC501B4010E941818F2
:10232000862F6C2FDF91CF91FF90EF90DF90CF90B1
:10233000BF90AF909F908F900C94BA0F109267044B
:10234000109268041092690410926A04DF91CF9190
:10235000FF90EF90DF90CF90BF90AF909F908F90C5
:102360000895FC018091D603811103C08FEF9FEF88
:1023700008959FB7F89482E08093E9002091F200DD
:1023800030E01216130614F421E030E02115310577
:1023900059F0289884E68093D5038091F1008083DA
:1023A0008091F200882319F09FBFC90108958BE640
:1023B0008093E800F9CFCF93DF93CDB7DEB72797AF
:1023C0000FB6F894DEBF0FBECDBF789484B582609F
:1023D00084BD84B5816084BD85B5826085BD85B5C9
:1023E000816085BD80916E00816080936E00109247
:1023F00081008091810082608093810080918100C2
:102400008160809381008091800081608093800052
:102410008091910082608093910080919100816011
:1024200080939100809190008160809390008091D2
:10243000C10084608093C1008091C100826080935C
:10244000C1008091C10081608093C1008091C30070
:1024500081608093C3008091C00082608093C0003F
:102460008091C20081608093C20080917A00846074
:1024700080937A0080917A00826080937A008091C4
:102480007A00816080937A0080917A0080688093DE
:102490007A001092D60310929D0310929C030E9422
:1024A00000088091E1008E7E8093E1008DE08093B2
:1024B000E200559A209AEEEFFFE7859194918B3FC9
:1024C0009C4D19F481E08093AA030FB6F894A89567
:1024D00080916000886180936000109260000FBE60
:1024E0008DE1E0E3F4E0DF011D928A95E9F78CE2EB
:1024F00094E00E94E5020E94D70F10925904809147
:102500005704909158042091550430915604198233
:102510003B832A839D838C831E820E94CF0E26E0FC
:1025200030E0AE014F5F5F4F67E00E947E0E8DE0AE
:102530000E949B0F61E08DE00E94DB0C87E00E940F
:102540009B0F60E087E00E94DB0C109279051092EF
:102550007A0510927B0510927C0510927D051092F1
:102560007E0510927F05109280051092A4031092B0
:10257000A3031092A2031092A1031092A00381E082
:1025800080939F0310929E0361E082E00E94DB0C27
:1025900061E083E00E94DB0C8091B9008E7F809324
:1025A000B9008091B9008D7F8093B90088E4809351
:1025B000B80085E48093BC008CE08093B800609103
:1025C000560570915705809158050E94870F81E349
:1025D0000E94610F8DE00E94610F8AE20E94610FEC
:1025E00087E10E94610F85E30E94610F86E00E94EF
:1025F000610F82E10E94610F8EE00E94610F82E311
:102600000E94610F85E30E94610F82E20E94610FC8
:102610008BE30E94610F87E30E94610F84E30E94B5
:10262000610F83E0809352051092A5031092A703D7
:1026300027E0822E3FE0732E0FEF10E040E3E42E00
:1026400044E0F42E50E0C52E50E0D52E84E6A82EAE
:102650009DE1992E8091790590917A05A0917B0555
:10266000B0917C058093810590938205A0938305AA
:10267000B093840580917D0590917E05A0917F05A2
:10268000B09180058093850590938605A09387057A
:10269000B093880587EE94E00E949003882381F030
:1026A00080914C0590914D05A0914E05B0914F053C
:1026B0008093790590937A05A0937B05B0937C0570
:1026C0008CE794E00E949003882381F08091E104DC
:1026D0009091E204A091E304B091E40480937D051D
:1026E00090937E05A0937F05B093800590E0612CC8
:1026F000B12C5B2C590E409181055091820560915F
:10270000830570918405052C04C0769567955795CF
:1027100047950A94D2F7242F217040917905509162
:102720007A0560917B0570917C05052C04C0769537
:102730006795579547950A94D2F74170682D6B19A4
:10274000862D9F830E94380540918505509186050E
:102750006091870570918805052C04C07695679572
:10276000579547950A94D2F7242F217040917D0503
:1027700050917E0560917F057091800504C076952B
:102780006795579547955A94D2F74170672D6B1905
:10279000862D0E943805B3949F81B8E0BB12A9CF63
:1027A0006394985FE4E06E12A3CF9091A7038091A9
:1027B0005205923039F4843611F080935405A0927A
:1027C000520506C0843621F4809154058093520549
:1027D000B090520580915305B81699F06091560556
:1027E00070915705809158050E94870FF1E0BF1244
:1027F00008C06091590570915A0580915B050E944F
:10280000870F80915205882309F41CC1853009F493
:1028100019C1823049F40E9460106091680570917E
:10282000690580916A0533C08330A1F580917005F8
:1028300090917105A0917205B0917305B7FD3AC0F2
:102840001092700510927105109272051092730526
:1028500060916E0570916F0549E150E08BE695E05F
:102860000E94F40F80916E0590916F0501968F3F45
:10287000910518F0B8010E949A1690936F05809305
:102880006E0560916B0570916C0580916D050E94DD
:10289000870FD8C0843009F058C08091700590919E
:1028A0007105A0917205B0917305181619061A06E4
:1028B0001B0664F00196A11DB11D809370059093D5
:1028C0007105A0937205B0937305BCC0109270059A
:1028D000109271051092720510927305B12C8091BF
:1028E0006E0590916F052B2D2695269530E1239F3F
:1028F000800D911D11248F3F910518F0B8010E94A1
:102900009A1649E150E0BC018BE695E00E94F40F75
:1029100040916B0550916C0560916D058B2D0E9467
:102920003E07B39480E4B812DACF80916E0590919F
:102930006F0501968F3F910518F0B8010E949A1615
:1029400090936F0580936E057DC0863009F04DC071
:1029500080917805843120F48F5F8093780572C070
:102960001092780540915605509157056091580591
:10297000209176059091770580915505299F8019C2
:1029800011240E943E0740915605509157056091D1
:102990005805809155050E943E07909176058091DB
:1029A0005505890F809355052FEF280F2F3318F009
:1029B00091959093760540915C0550915D056091ED
:1029C0005E050E943E07409162055091630560914B
:1029D0006405209176059091770580915505299F92
:1029E000801911240E943E072DC0843659F5B12C60
:1029F0004091560550915705609158058B2D0E94C6
:102A00003E07B394ACE2BA12F3CF9CE24091620568
:102A10005091630560916405892F9F830E943E0752
:102A20009F819F5F903491F70E94601080916805AC
:102A300090916905A0916A058093D0049093D10488
:102A4000A093D2040E94410F8091520580935305B8
:102A50008CE294E00E94E502F701292D11922A955B
:102A6000E9F7C114D10409F4F5CD0E940000EECDC0
:102A70001092DE031092DD0388EE93E0A0E0B0E058
:102A80008093DF039093E003A093E103B093E2030C
:102A900083EA92E09093DC038093DB038FEF9FEF58
:102AA0009093E8038093E70380918F05811113C011
:102AB00010928A05109289058EEB92E090938C0516
:102AC00080938B0588E190E090938E0580938D052F
:102AD00081E080938F050E94CF0E69E875E00E9427
:102AE000B20E80919D05811113C01092980510922D
:102AF000970586ED92E090939A05809399058BE275
:102B000090E090939C0580939B0581E080939D05C8
:102B10000E94CF0E67E975E00E94B20E10922F045A
:102B200010922E0483EB92E090932D0480932C045A
:102B30008091AB05811113C01092A6051092A505D6
:102B400081E093E09093A8058093A7058BE590E042
:102B50009093AA058093A90581E08093AB050E941C
:102B6000CF0E65EA75E00E94B20E8091B905811121
:102B700013C01092B4051092B3058CE593E09093C6
:102B8000B6058093B50589E190E09093B8058093F0
:102B9000B70581E08093B9050E94CF0E63EB75E025
:102BA0000E94B20E8091C705811113C01092C20518
:102BB0001092C10585E793E09093C4058093C30507
:102BC00087E390E09093C6058093C50581E08093EC
:102BD000C7050E94CF0E61EC75E00E94B20E109204
:102BE0005D0410925C0488EE93E0A0E0B0E0809376
:102BF0005E0490935F04A0936004B09361048BEB38
:102C000092E090935B0480935A04109267041092B0
:102C100068041092690410926A0410926B04109276
:102C20006C0410926D0410926E0410926F04109256
:102C30007004109271041092720410927404109235
:102C40007304109276041092750410927804109216
:102C5000770410927A041092790410927B040E94F7
:102C6000D70F1092470510925005109251051092FF
:102C70004B0510924A0588E590E0909349058093B2
:102C800048051092DC041092E5041092E60483E0FB
:102C900090E09093E0048093DF048BE590E09093C4
:102CA000DE048093DD0410925205109253051092B9
:102CB00054051092550510926F0510926E051092F2
:102CC00070051092710510927205109273051092A2
:102CD000740581E0809375058093760585E0809387
:102CE00077051092780510925805109257051092AA
:102CF000560510925B058FEF80935A051092590587
:102D000010925E0510925D0580935C05109261053E
:102D1000109260059FE790935F0580936405109281
:102D200063051092620590936705109266051092F4
:102D300065050895AA1BBB1B51E107C0AA1FBB1F55
:102D4000A617B70710F0A61BB70B881F991F5A9537
:102D5000A9F780959095BC01CD010895EE0FFF1F56
:102D60000590F491E02D09945058BB27AA270E94A2
:102D7000CC160C942D190E941F1938F00E942619A8
:102D800020F039F49F3F19F426F40C94F5180EF452
:102D9000E095E7FB0C94C618E92F0E943E1958F302
:102DA000BA17620773078407950720F079F4A6F530
:102DB0000C9478190EF4E0950B2EBA2FA02D0B0170
:102DC000B90190010C01CA01A0011124FF27591B70
:102DD00099F0593F50F4503E68F11A16F040A22F76
:102DE000232F342F4427585FF3CF469537952795E7
:102DF000A795F0405395C9F77EF41F16BA0B620BE6
:102E0000730B840BBAF09150A1F0FF0FBB1F661F2C
:102E1000771F881FC2F70EC0BA0F621F731F841F6F
:102E200048F4879577956795B795F7959E3F08F095
:102E3000B0CF9395880F08F09927EE0F9795879557
:102E40000895DF93DD27B92FBF7740E85FE31616BB
:102E5000170648075B0718F4D92F0E947F199F9324
:102E60008F937F936F930E946A1AEAECF0E00E94BE
:102E7000F8180E942D192F913F914F915F910E9458
:102E8000081ADD2351F09058A2EA2AED3FE049EC00
:102E90005FE3D0785D270E94CC16DF910C942D194A
:102EA0000E94601990F09F3748F4911116F40C9429
:102EB000791960E070E080E89FE3089526F01B1622
:102EC000611D711D811D0C94CC180C94E7180E9493
:102ED000A21808F481E008950E9480170C942D191F
:102EE0000E94261958F00E941F1940F029F45F3FF4
:102EF00029F00C94C61851110C9479190C94F518FA
:102F00000E943E1968F39923B1F3552391F3951B61
:102F1000550BBB27AA2762177307840738F09F5FFA
:102F20005F4F220F331F441FAA1FA9F335D00E2E67
:102F30003AF0E0E832D091505040E695001CCAF7D4
:102F40002BD0FE2F29D0660F771F881FBB1F261797
:102F500037074807AB07B0E809F0BB0B802DBF016E
:102F6000FF2793585F4F3AF09E3F510578F00C943D
:102F7000C6180C9479195F3FE4F3983ED4F3869514
:102F800077956795B795F7959F5FC9F7880F911D5E
:102F90009695879597F90895E1E0660F771F881F4A
:102FA000BB1F621773078407BA0720F0621B730BFD
:102FB000840BBA0BEE1F88F7E095089529F416F0FC
:102FC0000C94C6180C9478190C94F5180E944619A4
:102FD000A8F39638A0F707F80F92E8942BE33AEAA3
:102FE00048EB5FE70E940B1A0F920F920F924DB7BA
:102FF0005EB70F920E94C119E7EFF0E00E94F81847
:103000004F915F91EF91FF91E595EE1FFF1F49F002
:10301000FE57E0684427EE0F441FFA95E1F741950B
:10302000550B0E948B190F9007FE0C947F19089581
:103030000E941F186894B1110C94791908950E9488
:10304000461988F09F5798F0B92F9927B751B0F0DB
:10305000E1F0660F771F881F991F1AF0BA95C9F71C
:1030600014C0B13091F00E947819B1E008950C9429
:103070007819672F782F8827B85F39F0B93FCCF3DC
:10308000869577956795B395D9F73EF49095809599
:10309000709561957F4F8F4F9F4F0895E89409C0B9
:1030A00097FB3EF490958095709561957F4F8F4F7B
:1030B0009F4F9923A9F0F92F96E9BB279395F69591
:1030C000879577956795B795F111F8CFFAF4BB0F0F
:1030D00011F460FF1BC06F5F7F4F8F4F9F4F16C073
:1030E000882311F096E911C0772321F09EE8872FFD
:1030F000762F05C0662371F096E8862F70E060E0B9
:103100002AF09A95660F771F881FDAF7880F969531
:10311000879597F908950E94601990F09F3748F4B9
:10312000911116F00C94791960E070E080E89FEB43
:10313000089526F41B16611D711D811D0C94CC1879
:103140000C94E718990F0008550FAA0BE0E8FEEF62
:1031500016161706E807F907C0F012161306E4075B
:10316000F50798F0621B730B840B950B39F40A2654
:1031700061F0232B242B252B21F408950A2609F432
:10318000A140A6958FEF811D811D089597F99F6736
:1031900080E870E060E00895882371F4772321F0DF
:1031A0009850872B762F07C0662311F499270DC0FE
:1031B0009051862B70E060E02AF09A95660F771F99
:1031C000881FDAF7880F9695879597F908959F3F9E
:1031D00031F0915020F4879577956795B795880FD2
:1031E000911D9695879597F908959FEF80EC089526
:1031F000DF93CF931F930F93FF92EF92DF927B01A8
:103200008C01689406C0DA2EEF010E94081AFE01B4
:10321000E894A5912591359145915591A6F3EF013B
:103220000E94CC16FE019701A801DA9469F7DF909D
:10323000EF90FF900F911F91CF91DF91089500249F
:103240000A941616170618060906089500240A940B
:1032500012161306140605060895092E0394000C91
:1032600011F4882352F0BB0F40F4BF2B11F460FF20
:1032700004C06F5F7F4F8F4F9F4F089557FD905849
:10328000440F551F59F05F3F71F04795880F97FB2A
:10329000991F61F09F3F79F08795089512161306E4
:1032A0001406551FF2CF4695F1DF08C01616170613
:1032B0001806991FF1CF8695710561050894089548
:1032C0000E944619A0F0BEE7B91788F4BB279F38C3
:1032D00060F41616B11D672F782F8827985FF7CFF7
:1032E000869577956795B11D93959639C8F308959E
:1032F000E894BB2766277727CB0197F908959B01B0
:10330000AC0160E070E080E89FE30C946C170C94D3
:10331000C6180C94E7180E944619D8F39923C9F3EC
:10332000940F511DA3F39150504094F059F088230D
:1033300032F0660F771F881F91505040C1F79E3FB3
:1033400051052CF7880F911D9695879597F908954B
:103350005F3FACF0983E9CF0BB27869577956795CC
:10336000B79508F4B1609395C1F7BB0F58F711F406
:1033700060FFE8CF6F5F7F4F8F4F9F4FE3CF0C947D
:103380007919FA01DC01AA0FBB1F9B01AC01BF57E1
:1033900028F4222733274427507820C0B75190F4CF
:1033A000AB2F0024469537952795011CA395D2F3A2
:1033B000002071F0220F331F441FB395DAF30ED0B3
:1033C0000C94B41661307105A0E88A07B94630F450
:1033D0009B01AC016627772788279078309621F0EB
:1033E000208331834283538308950E94081A0C94EA
:1033F0002D190E941F1938F00E94261920F09523DC
:1034000011F00C94C6180C94F51811240C94791929
:103410000E943E1970F3959FC1F3950F50E0551F20
:10342000629FF001729FBB27F00DB11D639FAA2719
:10343000F00DB11DAA1F649F6627B00DA11D661F68
:10344000829F2227B00DA11D621F739FB00DA11D89
:10345000621F839FA00D611D221F749F3327A00D43
:10346000611D231F849F600D211D822F762F6A2FDF
:1034700011249F5750409AF0F1F088234AF0EE0F44
:10348000FF1FBB1F661F771F881F91505040A9F771
:103490009E3F510580F00C94C6180C9479195F3F3B
:1034A000E4F3983ED4F3869577956795B795F795AD
:1034B000E7959F5FC1F7FE2B880F911D9695879525
:1034C00097F908959F930E94701A0F9007FCEE5F82
:1034D0000C94991A9B01AC010C94F5190C94F518F5
:1034E0000E944619D8F3E894E0E0BB279F57F0F01C
:1034F0002AED3FE049EC06C0EE0FBB0F661F771FB9
:10350000881F28F0B23A62077307840728F0B25A7E
:10351000620B730B840BE3959A9572F7803830F445
:103520009A95BB0F661F771F881FD2F790480C949F
:10353000E918EF93E0FF07C0A2EA2AED3FE049EC6B
:103540005FEB0E94CC160E942D190F90039401FC92
:103550009058EFE1F1E00C94AD1A9F938F937F9315
:103560006F93FF93EF939B01AC010E94F519EF91CC
:10357000FF910E94F8182F913F914F915F910C9409
:10358000F51981E090E0F8940C94D41A262FF9995B
:10359000FECF1FBA92BD81BD20BD0FB6F894FA9A36
:0C35A000F99A0FBE01960895F894FFCF31
:1035AC0000C18081000000FFFFFFFF00E100000070
:1035BC000000008801001E001F00200021002200D6
:1035CC000000E000E4000000230024002500260099
:1035DC0027100200350014001A000800150017000F
:1035EC002B002A002C30FE001C0018000C001200CE
:1035FC0013002E004B0004001600070009000A00FF
:10360C002900E300E60028000B000D000E000F005F
:10361C00330034004E001D001B000600190005305D
:10362C00FE00E100E500000011001000360037003C
:10363C0038002D0000003A003B003C003D003E00ED
:10364C000000E000E40000003F0040004100421098
:10365C00000000002B8004900100009025902900B0
:10366C000080018002000084CD042F0430002F0064
:10367C00308282004A9004900290089026902A840E
:10368C00B500E300E6004C005000510052004F0022
:10369C00440045004D001D001B0006001990600001
:1036AC000000E100E5000084EA84E900F100F2008A
:1036BC003104318801001E001F002000210022006F
:1036CC000000E000E400000023005F0060006100E7
:1036DC0056100000350014001A00080015001730B1
:1036EC0001002A002C3001001C005C005D005E0013
:1036FC0057002E004B0004001600070009000A00BA
:10370C002B00E300E6009E000B0059005A005B0002
:10371C002E0034004E001D001B0006001900050091
:10372C002900E100E5000000110062006300550073
:10373C0054002800000000190B720C320C400B00D6
:10374C00000000B90A1E0EDA0A630B810BCF0A00C7
:10375C00000000A50B8E0A000000008F025F0257CC
:10376C00024302340233024B6579626F6172642E3C
:10377C00494F206B6579626F61726420647269765F
:0A378C0065722076302E3030000008
:00000001FF
