:020000040800F2
:1000000000800120AD1100082D0700082F0700080F
:100010002F0700082F0700082F0700080000000026
:100020000000000000000000000000002D07000894
:100030002D070008000000002D0700082D0700080C
:100040002F0700082F0700082F0700082F070008B8
:100050002F0700082F0700082F0700082F070008A8
:100060002F0700082F0700082F0700082F07000898
:100070002F0700082F0700082F0700082F07000888
:100080002F0700082F0700082F0700082F07000878
:100090002F0700082F0700082F0700082F07000868
:1000A0002F0700082F0700082F0700082F07000858
:1000B0002F0700082F0700082F0700082F07000848
:1000C0002F0700082F0700082F0700082F07000838
:1000D0002F0700082F0700082F0700082F07000828
:1000E0002F0700082F0700082F0700082F07000818
:1000F0002F0700082F0700082F0700082F07000808
:100100002F0700082F0700082F0700082F070008F7
:100110002F0700082F0700082F0700082F070008E7
:100120002F0700082F0700082F0700082F070008D7
:100130002F0700082F0700082F0700082F070008C7
:100140002F0700082F0700082F0700082F070008B7
:10015000224A70B540F2014314461568AD0703D535
:10016000013B9BB2002BF8D11D4A1368143243F4B3
:10017000807342F8143C40F2014315461668F607B6
:1001800005D52668F60702D52668B60703D4013BD5
:100190009BB2002BF2D1B023124A136040F201430C
:1001A0002E68B60703D4013B9BB2002BF8D123681D
:1001B000014410F8013B136040F201432C686407CE
:1001C00003D4013B9BB2002BF8D18842F1D1044A01
:1001D000136843F40073136070BD00BF18540040EF
:1001E00000540040105400401346D0F8E02010B4F2
:1001F000D4690A46A446002110BC6047D0F8E0301C
:100200000A465B6900211847F0B58C0004F1804470
:1002100004F5B8441846236803F44053B3F5405F2F
:1002200048D0254E254F3368CD009BB203EBC10368
:100230005B00FB58C3F30903834206DA33689BB2C1
:100240002B445B00F858C0F30900336800F0010745
:100250009BB21D441A4B6D005B5B45085B0003F1CC
:10026000804303F5C0431E4602EB450C62451CD19A
:1002700017B113F825301370236823F0F0031B0522
:100280001B0D43F0800323600E4B5B5C63B9226857
:1002900022F4804222F0700292B282F4405242F480
:1002A000004242F080022260F0BD36F804EB22F8F2
:1002B00002EBDBE70020F7E7505C00400C600040F9
:1002C0000860004018000020F7B53F4A0446136854
:1002D000164613F4806F9FB21CD04FF6FF331360A5
:1002E0004023002583830368D0F8E0204583DB7931
:1002F0000095294696682A46B047D4F8E03029464A
:100300005B6820469847236A002B42D003B0BDE8C3
:10031000F04018471A041CD503F00F018D0005F1B9
:10032000804513F0100305F5B84534D02B681B0544
:100330003AD5082300F13402FFF766FF022301EBF0
:100340004102134404EB8303DB6E002B2ED02046C6
:1003500098473A0505D54FF2FF733360636A03B1DE
:100360009847FB0405D54EF6FF733360A36A03B1CB
:10037000984717F4007F154D05D04FF6FF52E36AFA
:100380003260E3B19847E36ACBB12B6843F4007362
:100390002B6003B0F0BD2A6822F0F0021205120DA6
:1003A00042F400422A60CAE70123C8E72B6823F021
:1003B000F0031B051B0D43F080032B60C9E72B687E
:1003C00023F40073E4E700BF445C0040405C00405D
:1003D000F0B501F07F05AC0004F1804404F5B844A9
:1003E0001846236803F03003302B2FD0184EEB0053
:1003F000316889B201EBC501490001F1804101F585
:10040000C0410988451C490001F180416D1001F58A
:10041000C04102EB4505AA4213D1326892B213449F
:100420000C4A5B00D050226822F4E04222F04002E5
:1004300092B282F0300242F4004242F08002226026
:10044000F0BD32F8027B41F8047BE4E70020F7E7D7
:10045000505C0040046000400B0612D40B4B0C486B
:100460005A54890001F1804101F5B8410B680340FD
:100470009BB23AB183F4005343F4004343F080034A
:100480000B60704783F44053F6E700BF180000206C
:100490008FBFFFFF0B060ED501F07F01890001F130
:1004A000804101F5B841086800F03000102814BF01
:1004B000002001207047890001F1804101F5B84119
:1004C000086800F44050B0F5805FF0E710B50029EF
:1004D00033D1002A14BF102420242B48036823F4AE
:1004E000E04323F0400363401BB243F4004343F076
:1004F00080039BB20360890001F1804101F5B8419E
:100500003AB90B6823F4415323F030031B041B0C4E
:100510000B60002A14BF4FF480524FF440520B6816
:1005200023F4804323F0700353401BB243F4004391
:1005300043F080039BB20B6024E00B06DBD5002A5E
:1005400014BF1022202201F07F034FEA830303F13E
:10055000804303F5B843196821F4E04121F04001DC
:1005600082EA010212B242F4004242F0800292B2E8
:100570001A6007D11A6822F4E04222F03002120415
:10058000120C1A6010BD00BF005C004048F28001F0
:1005900070B50B4A0B4E0C4D0C4C136833400B439B
:1005A0009BB2136013682B400B439BB242F8043B91
:1005B000A242F2D10368DB7920335B00838370BDF4
:1005C000045C0040BF8FFFFF8FBFFFFF205C004037
:1005D000F7B54FF0C0644D4D0DF1080CCDE9005456
:1005E00001F07F05AC0004F1804404F5B8442668AE
:1005F0000CEB420226F4E04626F07F062E43B6B20C
:100600002660266832F8082C26F4EC4626F07006A0
:10061000164349B2B6B200292660089FDFF8F4C03D
:100620004FEAC50613DB95B1DCF80020818B92B24E
:10063000DFF8E4E0324452003E2B4EF8021034D88A
:1006400001335B084FEA430E1FFA8EFE37E0DCF8F9
:100650000020B0F81CE092B23244520002F1804215
:1006600002F5C042C2F800E01FB10C2202FB0502F5
:10067000D76622689E4422F4E04222F0300212043F
:10068000120C22602268002922F4E04222F040028B
:1006900092B282F0200242F4004242F080022260D4
:1006A000A0F81CE0C0DA03B0F0BD03F1FF3ECEF3CA
:1006B00044130EF4787E0EF1200E43F02003DCF894
:1006C00000209B0292B21644114A76009BB29351CD
:1006D0001FB10C2303FB05052F672368714423F426
:1006E000415323F030031B041B0C2360226822F4C7
:1006F000804222F0700292B282F4405242F40042F0
:1007000042F0800222608183CDE700BF0002000436
:100710000C600040505C004008600040024B41F01B
:1007200080011960704700BF4C5C00407047FEE7D5
:10073000044B05481B68184000F16043584258417B
:10074000704700BF002000080000FE2F094A0A4938
:1007500013680A4843F4000313600023A2F5D9325A
:10076000A2F5EE7213600B6041F80C3C4FF41C4391
:10077000136070471C100240505C004020000020B5
:1007800010B514461A88022A84BF02221A8089886A
:10079000D0F8E030C9B29B699847003818BF0120F3
:1007A000002223681870236801205A7010BD198830
:1007B0000120022984BF02211980002311680B70D7
:1007C00012685370704719880120022984BF0221E2
:1007D0001980002311680B7012685370704730B590
:1007E0000D24C57E40686C430D3C04448D882079FF
:1007F00085420CD2012018808B88D4F809001B0197
:100800001B5803B11B7801201268137030BD002003
:10081000FCE70D2270B51C46C37E5A4343680D3A6F
:1008200013441D798A88954219D9D3F809501601C5
:1008300005EB02124B8812799A4210D9AA5952B18B
:100840001370D0F8DC3013B14A88898898470023A8
:100850000120238070BD002BF3D01046FAE7002062
:10086000F8E719881268012984BF01211980C37E25
:100870002BB141680D2000FB031313F8083C012045
:1008800013707047F8B50D464988044679B103687E
:100890000D26587C0023984201D80020F8BD6268DC
:1008A00006FB032252798A4203D00133F3E74FF06B
:1008B000FF330133DBB2E3764BB9D4F8E0302046A6
:1008C000DB689847D4F8CC309BB90120E6E70D22CD
:1008D000534362680D3B134400221046197991423C
:1008E000EBD9D3F809101601715801B10870013223
:1008F000F4E7002304F1CC06E3646365E365636613
:1009000004F1DC0756F8043B13B120466988984788
:10091000B742F7D1D9E710B50B7873B94C887F2C63
:100920000CD8D0F8E030847693F830201AB149889A
:100930005B68C9B29847012300E00023184610BD48
:100940000346002210B500F1CC0454F8040B38B172
:1009500088420AD00132042AF7D14FF0FF3010BD8F
:1009600003EB8203C3F8CC10F9E70020F7E72DE989
:10097000F74F05460C46064600F1200900F13C07FA
:1009800000F1400A00F14408D6F84CB02378BBF1DE
:10099000000F05D1237813F0600018D0002013E079
:1009A00096F8511096F850200B409A4203D0083622
:1009B0004E45E9D1EEE753463A4621462846CDF862
:1009C0000080D8470128F2D803B0BDE8F08F03F0CB
:1009D0001F03012B30D0022B3BD0002BF4D16378C6
:1009E000092BDBD801A252F823F000BF310A00081E
:1009F0009D0900089D0900089D0900089D0900083F
:100A0000350A00082D0A00089D090008290A000877
:100A1000150A0008184E53463A4621462846B44661
:100A200003B0BDE8F04F6047144EF4E7144EF2E710
:100A3000144EF0E7144EEEE763780A2B05D00B2B2B
:100A400005D0002BC0D1114EE5E7114EE3E7114E62
:100A5000E1E76378012B05D0032B08D0002BB3D13D
:100A60000D4ED8E76388002BAED10C4ED3E76388D8
:100A7000002BA9D10A4ECEE78508000863080008BC
:100A8000D9150008AF07000817090008C7070008B4
:100A9000DF0700081308000881070008030B00089F
:100AA000130B000810B503680446DA79B0F840303B
:100AB000C16B9A420FD2FFF797FB022384F83030C4
:100AC0002368E26BD979B4F840300A445B1AE263D8
:100AD000A4F8403010BD1A46FFF786FB94F8483062
:100AE000002B14BF0223032384F83030002384F842
:100AF0004830A4F84030E363ECE7D0F8E0301B69FD
:100B0000184708B589880022C9B2FFF7F6FF01200F
:100B100008BD08B589880122C9B2FFF7EEFF0120A0
:100B200008BD10B5012200210446FFF7E6FF0023AF
:100B300084F8303010BD10B590F830300446032BE7
:100B400006D0042B0CD0022B21D1BDE81040A9E720
:100B5000072380F830300021BDE81040FFF74EBB7E
:100B6000436C13B100F13401984794F8343053B911
:100B700094F83530052B06D1E18ED4F8E0302046CC
:100B80005B68C9B29847002384F8303010BDBDE8D7
:100B90001040C6E738B543690446C3638B79CA7908
:100BA0000D4643EA0223A0F84030FFF7E0FEF8B11B
:100BB000EA88AAB1B4F8403021689A42C9790DD9BF
:100BC00033B1B3FBF1F201FB1233B3FA83F35B09E8
:100BD000204684F84830BDE8384063E70023F7E753
:100BE00011462046FFF700FB042384F8303038BD5F
:100BF0002046BDE8384094E770B500250446012141
:100C0000456400F13406FFF7F9FA628F22B93146E4
:100C10002046BDE87040BDE794F93430002BF6DB88
:100C2000238B934203D22046BDE8704079E7636985
:100C3000A4F84050E36323682946DB7920469342B9
:100C400034BF0523062384F83030BDE87040FFF739
:100C5000D5BAF8B50368B0F84020458FDB79AD1AF6
:100C60009D42A8BF1D46C16BD0F8E030AEB21F6AEE
:100C70000A44334600210446B847864205D0204640
:100C8000FFF74FFF4FF0FF30F8BDB4F84030A8B287
:100C90001E44A4F84060F7E738B590F830300446B9
:100CA000062B13D0072B26D0052B21D1FFF7D1FF20
:100CB00000280ADBB4F84020638F9B1A2268D2799F
:100CC000934202DC062384F8303038BDFFF7C1FFC1
:100CD0000028FADB204604F13401FFF748FE30B16A
:100CE000002220461146FFF77FFA0423EBE7204657
:100CF000BDE8384015E7D0F8E0301D6A00231A46F9
:100D00001946A847002384F83030636C1BB1204695
:100D100004F13401984700236364D6E72DE9F041DC
:100D20004FF00F0C00250768466843FA05F4E40706
:100D30001CD5072D94BFBE46B646ACB24FEA84041C
:100D40008ABF203CA4B2A4B20CFA04F82EEA080828
:100D500004F1020E02FA0EFE01FA04F44EEA040453
:100D600044EA0804072D94BF274626460135102D76
:100D7000DBD107604660BDE8F08110B5074B08493C
:100D80001A880848B2F5007F0B6884BF04682343C3
:100D900003F03503DB07F5D410BD00BFE0F7FF1FFC
:100DA0000C2002404C200240002300F14C0252F87B
:100DB000331019B10133042BF9D1704700EBC30094
:100DC000402380F85030602380F85130014BC364D9
:100DD000704700BFD90D0008487821280FD1087846
:100DE00010F01F000DD18988042907D10649116030
:100DF0001A88282A01D928221A8001207047022047
:100E000070470020704700BF981E0008002300F1C3
:100E10004C0252F8331019B10133042BF9D1704749
:100E200000EBC300402380F850307F2380F851301E
:100E3000014BC364704700BF3D0E000810B54878F1
:100E400001280AD18C88022C09D14988012906D1B0
:100E50000449116037221A8010BD0220FCE70020EF
:100E6000FAE700BFC01E0008014B024A1A60FEE705
:100E70000CED00E00400FA05044B93F810311BB1AF
:100E8000034B044A1A60FEE7704700BF18000020B9
:100E90000CED00E00400FA05002300F14C0252F8CA
:100EA000331039B10133042BF9D10122074B83F8F8
:100EB0001021704700EBC300212380F850307F23BE
:100EC00080F85130024BC364EFE700BF18000020E8
:100ED000F718000838B5064C054694F811318342DE
:100EE00003D0D4F8143103B1984784F8115138BDB8
:100EF000180000200620EDE738B50B4C054694F8A5
:100F00001831834203D0D4F81C3103B198474DB94E
:100F100094F811310A2B02D10220FFF7DBFF84F88D
:100F2000185138BD0A20F8E71800002010B5094C08
:100F3000D4F820313BB1984784F8240130B9BDE89A
:100F400010400A20D8E7012384F824310620BDE8A8
:100F50001040BFE7180000200138FDD1704701287C
:100F600038B571F1000304460D4623DB032200234C
:100F700000F0BEFD002B08BF012A10D0002B08BFD7
:100F8000022A0ED0042C75F100030DDB002320464D
:100F90002946032200F0ACFDBDE83840DCE700BF85
:100FA000F0E700BF00BFEDE700BF00BF00BF00BF1C
:100FB00000BF00BF38BD032373B504210646684651
:100FC0000093FFF7C5F800211148FFF7C8FF04237D
:100FD000104D8DF800302C788DF801409EB14FF403
:100FE0007F43ADF8023000230134E4B205216846A6
:100FF0008DF80430FFF7ACF8032C8ABF00232C7067
:101000002B7002B070BDFF23ADF80260ECE700BFAB
:101010007A320200000000202DE9F84F5A4A5B4D59
:101020005B4BD5F828451A6002F188321A60D5F872
:101030002C3504F1006404F5005423F00103554EEF
:10104000554FDFF864B103EB040905F2251A4C454E
:1010500001D1012403E0B4F1016F16D3002420462E
:10106000FFF7A9FF4B4A136843F080031360002C7D
:1010700000F08680D5F82835D5F82C2505201344B6
:10108000C5F82835BDE8F84F24E7D5F830359C423F
:1010900003D2D5F834359C422CD224F4FF6828F0D2
:1010A000070808F50063C5F83035C5F83485FFF743
:1010B00064FE3A4B1B88B3F5007F47D9384B9845FF
:1010C00044D93B6843F002033B60364BC3F80080D1
:1010D0003B6843F040033B60FFF74FFE2F4B1B88FC
:1010E000B3F5007F3DD92E4B98453AD93B6823F0A4
:1010F00002033B60BAF80080FFF73FFE274B1B88D6
:10110000B3F5007F32D9264B9C422FD93B6843F080
:1011100001033B60A4F80080FFF72FFE1F4B1B88E4
:10112000B3F5007F27D91E4B9C4224D93B6823F09E
:1011300001033B602188BAF80020A31C9142C5F846
:1011400034358BD11C460AF1020A80E7336843F03C
:1011500002033360CBF80080336843F04003336010
:10116000BAE7336823F002033360C3E7336843F020
:1011700001033360CEE7336823F001033360D9E71E
:101180000720BDE8F84FB7E62301674518000020A7
:10119000042002401020024050200240E0F7FF1FD0
:1011A000FFFF0708542002401420024080B5BA4BCC
:1011B000BA4ABB4990B08B42C0F0C5810021B94A00
:1011C0009342C0F0C581B84AB84C1368B84D43F497
:1011D00000731360AC42C0F0BE81B64CB64DAC4259
:1011E000C0F0BD81B54D2B6843F001032B602B6827
:1011F0009907FCD5B24CB349226822F00302226061
:10120000226822F0F0022260226842F4404222600A
:10121000226822F4E06242F480622260226822F4B2
:1012200060522260226842F4800222600A6822F042
:10123000070242F001020A60226822F4701242F4AE
:1012400020122260226822F4803222602A6842F052
:1012500080722A602B689A01FCD52368002123F054
:10126000030343F002032360974B98481A68984F92
:1012700042F004021A601A68964E42F008021A60A0
:101280004FF480430222FFF749FD4FF40043002250
:1012900001218E48FFF742FD4FF400433B604FF0C1
:1012A00080433B604FF08073B046002233600121E1
:1012B0004FF480738848FFF731FD884A00BF013A38
:1012C000FCD1874B1B685B0404D4FFF731FA00287C
:1012D00040F0548100238DF82430824B04AA03F19E
:1012E0001005144618685968083303C4AB422246F7
:1012F000F7D109A8002201461B7823707A4B1B689E
:1013000001937A4B1B680293794B1B68039310ABD4
:1013100003EB620313F83C3C10AC04EB131414F819
:10132000304C03F00F03047010AC234413F8303C2E
:101330000232182A437000F10200E8D10025DFF8DC
:10134000E8916C4E09F5A76000F0BEFB89F8505596
:10135000336843F400033360336823F400033360DD
:101360004FF48073C8F80030FFF7F0F9DFF8BC8164
:10137000044608F13403036008F14603436008F1B2
:10138000530383605C4B5D49C3600423036109F22E
:10139000525343614FF480630383594BC0E939557D
:1013A0004367584BC0E933550367574BC0E9355580
:1013B000C366564BC0F8E080C9F82031544BC9F8D9
:1013C00014510362C9F81C51FFF7BAFA02235149BC
:1013D000204689F8113189F81851FFF7B1FAEE2348
:1013E000C4F8E43008F15C03C4F8E83020464A4908
:1013F000FFF7A6FA04F14C0353F83520002A00F059
:10140000B2800135042DF7D1444A454913682F486D
:1014100043F4001313603368A2F5DE3243F4001383
:1014200033603368183A23F4001333600B6823F0F9
:1014300001030B60136823F03F039BB243F03003BA
:101440001360936923F400439361936903F4704339
:1014500043F0F00393613122324B1A6003220B6890
:1014600043F001030B601146C023FFF757FC012234
:101470004FF4007311461548FFF750FC04A1D1E961
:1014800000014FF000733B6052E000BFAFF30080FB
:10149000FA1AB7000000000000000020AC1F00088E
:1014A000180000206C09002014ED00E0A41F0008C3
:1014B000A41F0008A41F0008A41F00080010024079
:1014C000041002400020024018100240000C0140AD
:1014D000100C0140100801400008014000F91500FF
:1014E000080C0140581E0008F0F7FF1FECF7FF1F23
:1014F000E8F7FF1F1010024004000020990E0008BA
:10150000F90B0008990C0008370B00083107000898
:10151000790E00080D0E0008A90D00081C100240ED
:10152000005400402054004018000020F81E00081D
:10153000FFF715FD0020FFF73EFDD4F8E030204610
:101540005B6A9847F9E752F8040B43F8040B32E65C
:1015500043F8041B34E654F8043B98473AE654F841
:10156000043B98473BE6402304EBC50585F8503023
:10157000602385F85130134BEB6445E74FF400517D
:10158000114B19602B6843F001032B6021680F4B4E
:101590000B4023602B6823F0847323F480332B608B
:1015A0002B6823F480232B60236823F4FE0323603D
:1015B000074B1A60074B1A6882F308885B689847E4
:1015C000FEE700BFD90D000808ED00E00000FFF8BD
:1015D00008100240002000082DE9F04F1D464B88FE
:1015E0000646180A0328174689B000F02B8105D853
:1015F000012828D0022831D000202CE00F28FBD170
:10160000B468002CF8D0D6F814902E88C2F8009058
:1016100027784FF0000AB74228BF374621463A469E
:10162000484600F03BFAF61B94F800B009EB0703BC
:10163000B6B221791FFA8AF2914200F2E680A9F847
:1016400002B02F8031E0336813601B782A88934200
:1016500028BF13462B8009B0BDE8F08F7269DBB25A
:101660003A600D275F43D6F804802C8818F807608D
:1016700008EB0703A64228BF2646039219463246C6
:101680000398049300F00AFA0022039BA41B18F8A5
:1016900007703344A4B20292049A1179BDF808206D
:1016A000914204D8039B5F802E800120D3E7029AE9
:1016B000029912010692049AD2F8092002EB011253
:1016C000D2F80890B9F1000F14D099F800801846AC
:1016D000A04528BFA0464946424600F0DFF9034630
:1016E00099F80020A4EB0804464417444344A4B2EC
:1016F000B6B2BFB200220592049A0699D2F8092028
:101700000A441079BDF81410884202D8029A0132B6
:10171000C1E715200599D2F80C9000FB01F819F8E3
:1017200008A009EB0802A24528BFA246019218466C
:101730005246019900F0B2F9034619F80820A4EBCB
:101740000A041744019A5644D2F80D105344A4B227
:10175000B6B2BFB2B1B1D2F811901846A145A8BF38
:10176000A1461FFA89F8424600F098F90346019A0B
:10177000A4EB0804D2F81120464417444344A4B211
:10178000B6B2BFB24FF00008019A11791FFA88F281
:10179000914202D8059A0132ADE7019AC8EB081AC6
:1017A000D2F809B018461BF80A200BEB0A09A2422E
:1017B00028BF22464946079200F070F90346079A6F
:1017C000D9F80710A41A164413441BF80A20A4B22F
:1017D0001744B6B2BFB2A9B1D9F80BB01846A345A9
:1017E000A8BFA3461FFA8BFA524600F057F90346EA
:1017F000D9F80B20A4EB0A04564417445344A4B26E
:10180000B6B2BFB208F10108BEE7D4F80520184609
:1018100052F82A100AF1010A91F800800191B045AE
:1018200028BFB046424600F039F903460199A6EBBD
:1018300008060A78474493444344B6B2BFB21FFA3D
:101840008BFBF6E613F0FF0374690DD10923A37037
:101850000423E37023702B88042B28BF04232B80E0
:10186000032363703C6020E7D6F8E4209A4219D144
:10187000D6F8E860304600F01FF901304000C0B2F1
:1018800020702B88984228BF1846002328802A8879
:101890005208013A9A42E3DDF15C04EB43025180C5
:1018A0000133F4E7F068013B00283FF4D4AE32691D
:1018B0009A427FF7A1AE40F20942898891427FF4B3
:1018C0009BAE50F82360304600F0F6F8013040003F
:1018D000C0B220702B88984228BF18460023288069
:1018E0002A885208013A9A42BADDF15C04EB4302BD
:1018F00051800133F4E72DE9F8431E468B88814679
:101900001746DDF82080002B40F0BC804C78062C78
:1019100000F2AE80DFE804F0A841830E3D047600BB
:1019200001241368584A92F811211A703480204615
:10193000BDE8F883544F156897F81131032B03D095
:10194000062B17D0002206E00420FFF7C3FA64221A
:101950004E4BC8F8003097F818316A702B7000238E
:10196000AB70EB706B71062397F811212A713380ED
:101970000124DCE797F824411CB10220FFF7AAFA02
:10198000E0E70720FFF7A6FA414B2246C8F80030EF
:10199000E1E70020FFF7B0FAEAE73B4E96F8113195
:1019A000022B0ED0052BC2D1CA883AB3396806F291
:1019B0002510C6F82C2500F071F80320FFF78AFAED
:1019C000B5E7CD888DB14FF000082A46396806F298
:1019D0002510C6F82885C6F82C5500F05FF80320BE
:1019E000FFF778FA86F82481A1E70F20FFF784FA41
:1019F000012229464846FFF780F898E7254BC8F8AA
:101A0000003094E7204B012493F81131092B8ED834
:101A100004FA03F313F41B7F89D00220CEE71A4C9B
:101A200094F81131022B1BD0092BA1D1CD88D4F809
:101A30002835EA18B2F57E2F85BFC3F56045022030
:101A40000920ADB2FFF746FAD4F82825358002F117
:101A5000006303F5005315443B60C4F8285587E73D
:101A60000023C4F82835E1E70B4BC8F800307FE7C6
:101A70000F20FFF741FA012200214846FFF73DF809
:101A8000002454E7022452E718000020191000082F
:101A90002D0F0008F50E0008690E00080A44914257
:101AA00000F1FF3300D1704710B511F8014B91429E
:101AB00003F8014FF9D110BD034613F8012B002A9A
:101AC000FBD1181A01387047034610B5013932B1FD
:101AD00011F8014F013A03F8014B002CF7D1002116
:101AE0001A44934200D110BD03F8011BF9E700002E
:101AF0007BB972B90029BEBF00204FF0004106E05B
:101B000008BF00281CBF6FF000414FF0FF3000F00D
:101B1000A1B9ADF1080C6DE904CE002909DB002B59
:101B20001ADB00F035F8DDF804E0DDE9022304B04B
:101B30007047404261EB4101002B1BDB00F028F8AD
:101B4000DDF804E0DDE9022304B0404261EB41012D
:101B5000524263EB43037047524263EB430300F08E
:101B600017F8DDF804E0DDE9022304B0404261EB40
:101B700041017047524263EB430300F009F8DDF87E
:101B800004E0DDE9022304B0524263EB43037047F3
:101B90002DE9F047089E0D4604468E46002B40F086
:101BA00083808A42174647D9B2FA82F34BB1C3F118
:101BB000200105FA03FE20FA01F19F4041EA0E0ED2
:101BC0009C404FEA1748BEFBF8FC1FFA87F908FB58
:101BD0001CE20CFB09F0210C41EA024290420AD9B6
:101BE000BA180CF1FF3180F01881904240F2158153
:101BF000ACF1020C3A44121AB2FBF8F008FB1022C6
:101C000000FB09F1A4B244EA0244A14209D93C19FB
:101C100000F1FF3280F00381A14240F200810238DE
:101C20003C44641A002140EA0C401EB10022DC4012
:101C3000C6E90042BDE8F08702B9FFDEB2FA82F3DE
:101C4000002B4FD18D1A01214FEA124E1FFA82F854
:101C5000B5FBFEFC0EFB1C5508FB0CF0220C42EA07
:101C60000545A84207D97D190CF1FF3202D2A842DE
:101C700000F2E98094462D1AB5FBFEF00EFB1055DC
:101C800008FB00F8A4B244EA0544A04507D93C1972
:101C900000F1FF3202D2A04500F2D9801046A4EB39
:101CA000080440EA0C40C0E78B4208D9002E00F03F
:101CB000B1800021C6E900050846BDE8F087B3FA07
:101CC00083F100294BD1AB4202D3824200F2B980AA
:101CD000841A65EB030301209E46002EAAD0C6E9B4
:101CE000004EA7E79F40C3F12002D1404FEA174EB4
:101CF000B1FBFEF01FFA87F80EFB101124FA02F276
:101D00009D4000FB08FC2A43150C45EA0145AC4503
:101D100004FA03F409D97D1900F1FF3180F08F80B6
:101D2000AC4540F28C8002383D44A5EB0C05B5FB78
:101D3000FEF10EFB115C01FB08F995B245EA0C457A
:101D4000A94507D97D1901F1FF3274D2A94572D98D
:101D500002393D44A5EB090541EA004178E7C1F1AC
:101D600020078B4022FA07FC4CEA030C25FA07F403
:101D70004FEA1C4EB4FBFEF91FFA8CF80EFB194417
:101D800020FA07F309FB08FA8D401D432B0C43EAA8
:101D90000444A24502FA01F200FA01F309D91CEB4E
:101DA000040409F1FF3048D2A24546D9A9F102093D
:101DB0006444A4EB0A04B4FBFEF00EFB104400FBE9
:101DC00008FAADB245EA0444A24508D91CEB040464
:101DD00000F1FF352DD2A2452BD90238644440EAE8
:101DE0000940A0FB0289A4EB0A044C45C6464D46B7
:101DF00019D316D05EB1B3EB0E0264EB050404FAFE
:101E000007F722FA01F31F43CC40C6E90074002112
:101E1000BDE8F087314630460CE78C46EBE61046CD
:101E2000FFE64345E6D2B8EB020E69EB0C0501383C
:101E3000E0E72846D3E711468CE78146B9E7084634
:101E400073E7084649E7ACF1020C3D4413E702385A
:101E50003C4424E7704700BF3031323334353637E5
:101E60003839414243444546004B6579626F61729F
:101E700064696F004D6F64656C20313030202842FA
:101E80006F6F746C6F616465722900444150426FDA
:101E90006F74204446550000280000000001040033
:101EA0000100000000000000000157494E55534258
:101EB0000000000000000000000000000000000022
:101EC0003703016466752E6B6579626F6172642EEB
:101ED000696F3F7669643D3078333439363B7069D9
:101EE000643D3078303030353B76657273696F6EA3
:101EF0003D623532383235004D0700081D070008B5
:101F0000D10500088D050008CD040008590400081B
:101F100095040008D103000809020008C90200085E
:101F2000000000000000000000000000120110028C
:101F3000000000409634050011010102030109026E
:101F40000000010100C032941F0008050F1D0001B0
:101F5000140000204D534654313030210009210730
:101F6000FF00000410011810050038B60834A90954
:101F7000A0478BFDA0768815B66500010101090414
:101F8000000000FE010204000000005D1F000809BF
:101F9000000000006A0900200100000000000000AD
:041FA0007E1F000898
:081FA400ECFBFF7F01000000CF
:101FAC0003000000691E0008741E00085005002084
:081FBC008B1E0008661F0008DF
:020000040800F2
:1020000000800120C16D0108096E0108096E0108F8
:10201000096E0108096E0108096E01080000000040
:10202000000000000000000000000000096E010830
:10203000096E010800000000096E010811BC0108CA
:10204000096E0108096E0108096E0108096E010890
:10205000096E0108096E0108096E0108096E010880
:10206000096E0108096E0108096E0108096E010870
:10207000096E0108096E0108096E0108096E010860
:10208000096E0108096E0108096E0108ADBD01085D
:10209000B9BD0108096E0108096E0108096E010841
:1020A000096E0108096E0108096E0108096E010830
:1020B000096E0108096E0108096E0108E96B010843
:1020C000016C0108C56C0108DD6C0108096E01088E
:1020D000096E010800000000096E0108096E010880
:1020E000096E0108096E0108C5BD0108096E0108E5
:1020F000096E0108096E0108096E0108096E0108E0
:10210000096E0108096E0108096E0108096E0108CF
:10211000096E0108096E0108096E0108096E0108BF
:10212000096E0108096E0108096E0108096E0108AF
:1021300010F8012B11F8013B012A28BF9A42F7D071
:10214000D01A7047034613F8012B002AFBD1181A46
:10215000013870470000000000000000000000008F
:1021600001F0FF01102A2BDB10F0070F08D010F848
:10217000013B013A8B422DD010F0070F42B3F6D14C
:10218000F0B441EA012141EA014122F007047FF065
:1021900000070023F0E80256083C85EA010586EABC
:1021A000010685FA47F5A3FA87F586FA47F6A5FAF8
:1021B00087F68EB9EED1F0BC01F0FF0102F0070204
:1021C00032B110F8013B013A83EA010313B1F8D1AF
:1021D0000020704701387047002D06BF3546033890
:1021E000073815F0010F07D1013015F4807F02BFC9
:1021F000013015F4C03F0130F0BC0138704700BF1A
:1022000081F0004102E000BF83F0004330B54FEAA7
:1022100041044FEA430594EA050F08BF90EA020F14
:102220001FBF54EA000C55EA020C7FEA645C7FEAA7
:10223000655C00F0E2804FEA5454D4EB5555B8BFCA
:102240006D420CDD2C4480EA020281EA030382EA3B
:10225000000083EA010180EA020281EA0303362DCD
:1022600088BF30BD11F0004F4FEA01314FF4801CA0
:102270004CEA113102D0404261EB410113F0004FB2
:102280004FEA03334CEA133302D0524263EB430369
:1022900094EA050F00F0A780A4F10104D5F1200E07
:1022A0000DDB02FA0EFC22FA05F2801841F1000162
:1022B00003FA0EF2801843FA05F359410EE0A5F136
:1022C00020050EF1200E012A03FA0EFC28BF4CF067
:1022D000020C43FA05F3C01851EBE37101F000451D
:1022E00007D54FF0000EDCF1000C7EEB00006EEB2A
:1022F0000101B1F5801F1BD3B1F5001F0CD34908B4
:102300005FEA30004FEA3C0C04F101044FEA44520A
:1023100012F5800F80F09A80BCF1004F08BF5FEA91
:10232000500C50F1000041EB045141EA050130BD71
:102330005FEA4C0C404141EB0101013C28BFB1F583
:10234000801FE9D291F0000F04BF01460020B1FACE
:1023500081F308BF2033A3F10B03B3F120020CDAA1
:102360000C3208DD02F1140CC2F10C0201FA0CF07F
:1023700021FA02F10CE002F11402D8BFC2F1200CE4
:1023800001FA02F120FA0CFCDCBF41EA0C0190409A
:10239000E41AA2BF01EB0451294330BD6FEA0404E3
:1023A0001F3C1CDA0C340EDC04F11404C4F12002CE
:1023B00020FA04F001FA02F340EA030021FA04F3E0
:1023C00045EA030130BDC4F10C04C4F1200220FA37
:1023D00002F001FA04F340EA0300294630BD21FA75
:1023E00004F0294630BD94F0000F83F4801306BF3B
:1023F00081F480110134013D4EE77FEA645C18BF2F
:102400007FEA655C29D094EA050F08BF90EA020FC5
:1024100005D054EA000C04BF1946104630BD91EABD
:10242000030F1EBF0021002030BD5FEA545C05D1C0
:102430004000494128BF41F0004130BD14F58004FF
:102440003CBF01F5801130BD01F0004545F0FE4173
:1024500041F470014FF0000030BD7FEA645C1ABFA8
:10246000194610467FEA655C1CBF0B46024650EADF
:10247000013406BF52EA033591EA030F41F400210B
:1024800030BD00BF90F0000F04BF0021704730B591
:102490004FF4806404F132044FF000054FF0000166
:1024A00050E700BF90F0000F04BF0021704730B527
:1024B0004FF4806404F1320410F0004548BF4042FC
:1024C0004FF000013EE700BF42004FEAE2014FEA51
:1024D00031014FEA02701FBF12F07F4393F07F4F2C
:1024E00081F06051704732F07F4208BF704793F02F
:1024F0007F4F04BF41F40021704730B54FF4607442
:1025000001F0004521F000411CE700BF50EA010244
:1025100008BF704730B54FF000050AE050EA0102ED
:1025200008BF704730B511F0004502D5404261EB5D
:1025300041014FF4806404F132045FEA915C3FF49E
:10254000D8AE4FF003025FEADC0C18BF03325FEA3B
:10255000DC0C18BF033202EBDC02C2F1200300FAEC
:1025600003FC20FA02F001FA03FE40EA0E0021FA11
:1025700002F11444BDE600BF70B54FF0FF0C4CF4FF
:10258000E06C1CEA11541DBF1CEA135594EA0C0FB1
:1025900095EA0C0F00F0DEF82C4481EA030621EAEC
:1025A0004C5123EA4C5350EA013518BF52EA033527
:1025B00041F4801143F4801338D0A0FB02CE4FF0D9
:1025C0000005E1FB02E506F00042E0FB03E54FF009
:1025D0000006E1FB03569CF0000F18BF4EF0010E01
:1025E000A4F1FF04B6F5007F64F5407404D25FEAFD
:1025F0004E0E6D4146EB060642EAC62141EA5551B0
:102600004FEAC52040EA5E504FEACE2EB4F1FD0CF1
:1026100088BFBCF5E06F1ED8BEF1004F08BF5FEA6F
:10262000500E50F1000041EB045170BD06F0004621
:1026300046EA010140EA020081EA0301B4EB5C04CE
:10264000C2BFD4EB0C0541EA045170BD41F48011C6
:102650004FF0000E013C00F3AB8014F1360FDEBFEB
:10266000002001F0004170BDC4F10004203C35DAC7
:102670000C341BDC04F11404C4F1200500FA05F34A
:1026800020FA04F001FA05F240EA020001F00042EB
:1026900021F0004110EBD37021FA04F642EB060161
:1026A0005EEA430E08BF20EAD37070BDC4F10C048B
:1026B000C4F1200500FA04F320FA05F001FA04F24F
:1026C00040EA020001F0004110EBD37041F100013B
:1026D0005EEA430E08BF20EAD37070BDC4F1200546
:1026E00000FA05F24EEA020E20FA04F301FA05F2AE
:1026F00043EA020321FA04F001F0004121FA04F256
:1027000020EA020000EBD3705EEA430E08BF20EA25
:10271000D37070BD94F0000F0FD101F0004640005F
:1027200041EB010111F4801F08BF013CF7D041EAE1
:10273000060195F0000F18BF704703F000465200E5
:1027400043EB030313F4801F08BF013DF7D043EAB6
:102750000603704794EA0C0F0CEA135518BF95EA6C
:102760000C0F0CD050EA410618BF52EA4306D1D1F3
:1027700081EA030101F000414FF0000070BD50EA12
:10278000410606BF1046194652EA430619D094EA9C
:102790000C0F02D150EA013613D195EA0C0F05D186
:1027A00052EA03361CBF104619460AD181EA0301DA
:1027B00001F0004141F0FE4141F470014FF0000092
:1027C00070BD41F0FE4141F4780170BD70B54FF02D
:1027D000FF0C4CF4E06C1CEA11541DBF1CEA1355AD
:1027E00094EA0C0F95EA0C0F00F0A7F8A4EB05048F
:1027F00081EA030E52EA03354FEA013100F0888086
:102800004FEA03334FF0805545EA131343EA12634E
:102810004FEA022245EA111545EA10654FEA002603
:102820000EF000419D4208BF964244F1FD0404F5BC
:10283000407402D25B084FEA3202B61A65EB030518
:102840005B084FEA32024FF480104FF4002CB6EBD5
:10285000020E75EB030E22BFB61A754640EA0C0055
:102860005B084FEA3202B6EB020E75EB030E22BF95
:10287000B61A754640EA5C005B084FEA3202B6EBD6
:10288000020E75EB030E22BFB61A754640EA9C0095
:102890005B084FEA3202B6EB020E75EB030E22BF65
:1028A000B61A754640EADC0055EA060E18D04FEA23
:1028B000051545EA16754FEA06164FEAC30343EAC3
:1028C00052734FEAC2025FEA1C1CC0D111F4801F90
:1028D0000BD141EA00014FF000004FF0004CB6E789
:1028E00011F4801F04BF01430020B4F1FD0C88BF28
:1028F000BCF5E06F3FF6AFAEB5EB030C04BFB6EB33
:10290000020C5FEA500C50F1000041EB045170BD25
:102910000EF0004E4EEA113114EB5C04C2BFD4EB52
:102920000C0541EA045170BD41F480114FF0000ED6
:10293000013C90E645EA060E8DE60CEA135594EA52
:102940000C0F08BF95EA0C0F3FF43BAF94EA0C0F55
:102950000AD150EA01347FF434AF95EA0C0F7FF4CA
:1029600025AF104619462CE795EA0C0F06D152EA1E
:1029700003353FF4FDAE1046194622E750EA410602
:1029800018BF52EA43067FF4C5AE50EA41047FF413
:102990000DAF52EA43057FF4EBAE12E74FF0FF3C78
:1029A00006E000BF4FF0010C02E000BF4FF0010C49
:1029B0004DF804CD4FEA410C7FEA6C5C4FEA430CC2
:1029C00018BF7FEA6C5C1BD001B050EA410C0CBF11
:1029D00052EA430C91EA030F02BF90EA020F002073
:1029E000704710F1000F91EA030F58BF994208BFDA
:1029F00090422CBFD8176FEAE37040F00100704797
:102A00004FEA410C7FEA6C5C02D150EA013C07D1ED
:102A10004FEA430C7FEA6C5CD6D152EA033CD3D038
:102A20005DF8040B704700BF8446104662468C4632
:102A30001946634600E000BF01B5FFF7B7FF002865
:102A400048BF10F1000F01BD4DF808EDFFF7F4FF8E
:102A50000CBF012000205DF808FB00BF4DF808ED19
:102A6000FFF7EAFF34BF012000205DF808FB00BF3C
:102A70004DF808EDFFF7E0FF94BF012000205DF85E
:102A800008FB00BF4DF808EDFFF7CEFF94BF012013
:102A900000205DF808FB00BF4DF808EDFFF7C4FF0C
:102AA00034BF012000205DF808FB00BF4FEA410C55
:102AB0007FEA6C5C02D150EA013C0AD14FEA430C38
:102AC0007FEA6C5C02D152EA033C02D14FF0000075
:102AD00070474FF0010070474FEA410212F50012B3
:102AE00015D211D56FF47873B3EB625212D94FEA55
:102AF000C12343F0004343EA505311F0004F23FA3F
:102B000002F018BF404270474FF00000704750EA93
:102B1000013005D111F0004008BF6FF00040704750
:102B20004FF00000704700BF10B5054C237833B953
:102B3000044B13B10448AFF300800123237010BD90
:102B4000E4030020000000004CEF010808B5034B2F
:102B50001BB103490348AFF3008008BD000000002B
:102B6000E80300204CEF010880B483B000AF786028
:102B70000B46FB701346BB707B68FA781A707B6853
:102B8000BA785A707B6818460C37BD4680BC7047CF
:102B900080B483B000AF78600B46FB707B68FA7836
:102BA0005A7000BF0C37BD4680BC704780B483B0FC
:102BB00000AF78600B46FB707B68FA781A7000BF34
:102BC0000C37BD4680BC704780B483B000AF7860DE
:102BD0007B6818460C37BD4680BC704780B483B014
:102BE00000AF78600B46FB707B68FA781A7000BF04
:102BF0000C37BD4680BC704780B483B000AF7860AE
:102C000000BF0C37BD4680BC704780B483B000AFB6
:102C1000786000BF0C37BD4680BC704780B483B07D
:102C200000AF786000BF0C37BD4680BC704780B4F1
:102C300083B000AF7860397000BF0C37BD4680BCF0
:102C4000704780B582B000AF78607B681B681B68F6
:102C500078689847002318460837BD4680BD80B481
:102C600083B000AF786039603B6818460C37BD46CA
:102C700080BC704780B582B000AF78607B681B680D
:102C80001B687868984700BF0837BD4680BD80B490
:102C900083B000AF786000BF0C37BD4680BC704782
:102CA00080B400AF024B1846BD4680BC704700BFE1
:102CB0000005002080B400AF024B1B681846BD46DB
:102CC00080BC70477004002080B483B000AF78608F
:102CD000044A7B681A607B6818460C37BD4680BC86
:102CE000704700BFD4F7010880B483B000AF7860AC
:102CF000084611461A460346FB700B46BB70134646
:102D00007B707B68FA781A707B68BA785A707B6837
:102D10007A789A707B6818460C37BD4680BC70473D
:102D200080B582B000AF786039607B681846FFF7E5
:102D3000CBFF054A7B681A607B683A685A607B68FB
:102D400018460837BD4680BD98F9010880B582B0A5
:102D500000AF786039607B681846FFF7B5FF074A17
:102D60007B681A607B683A685A607B6800221A7236
:102D70007B6818460837BD4680BD00BFB0F9010822
:102D800080B582B000AF786039607B681846FFF785
:102D90009BFF0B4A7B681A607B683A685A607B68C5
:102DA00000221A727B6801225A72FFF783FF0346E2
:102DB0009AB27B685A817B6818460837BD4680BD49
:102DC000C8F9010880B582B000AF786039607B68CF
:102DD0001846FFF779FF0B4A7B681A607B683A68F0
:102DE0005A607B6800221A817B6801229A727B6894
:102DF0000022DA727B68FF221A737B681846083754
:102E0000BD4680BDF8F9010880B582B000AF78609A
:102E100039607B681846FFF757FF0B4A7B681A60DA
:102E20007B683A685A607B6800221A817B680122BD
:102E30009A727B680022DA727B68FF221A737B68C1
:102E400018460837BD4680BDE0F9010880B582B05C
:102E500000AF786039607B681846FFF735FF054A98
:102E60007B681A607B683A685A607B681846083746
:102E7000BD4680BDA0FA010880B500AF00F094FA0D
:102E800000BF80BD80B582B000AF78603960FFF7C9
:102E900007FF386800F090FA034618460837BD4629
:102EA00080BD000080B582B000AF0346FB71FB79A6
:102EB00003F00203002B0CD0FB7903F00103002B7D
:102EC00007D10649064810F09DFA0649044810F05B
:102ED00099FA00BF0837BD4680BD00BF68EF010802
:102EE000D017002090EF0108B0B584B000AF786033
:102EF0007B685B7803F00203002B2ED07B685B7845
:102F000003F00103002B28D17B689D1C07F10C0303
:102F1000002204211846FFF727FE07F10C0318468C
:102F2000FFF752FE03461C7816F052FF01460D4B88
:102F3000A3FB0123DA081346DB0013449B00CA1AE3
:102F4000D3B22344DBB219462846FFF72FFE7B6835
:102F5000023300211846FFF71BFE00BF1037BD46A5
:102F6000B0BD00BF398EE33880B582B000AF0346F4
:102F70003960FB71FB79002B02D0012B06D009E0F0
:102F80003B685B781846FFF78DFF03E03868FFF772
:102F9000ABFF00BF002318460837BD4680BD0000C8
:102FA00080B582B000AF0346FB71034812F0C6FE45
:102FB00000BF0837BD4680BD1818002080B582B01C
:102FC00000AF0346FB7112F0D5FC00BF0837BD46C9
:102FD00080BD80B400AF00231846BD4680BC70475A
:102FE00080B500AF00F0F8F90346184680BD80B404
:102FF00000AF00231846BD4680BC704780B500AFC7
:1030000000F088FC0346184680BD80B400AF002362
:103010001846BD4680BC704780B500AF00F018FF71
:103020000346184680BD80B400AF01231846BD4654
:1030300080BC704780B582B000AF7860786801F0DE
:10304000A5F9034618460837BD4680BD80B400AFD9
:1030500001231846BD4680BC704780B582B000AFE2
:103060007860786801F04EFC034618460837BD4684
:1030700080BD80B400AF01231846BD4680BC7047B8
:1030800080B582B000AFB8803B1D184601F0F6FE57
:10309000034618460837BD4680BD80B400AF012303
:1030A0001846BD4680BC704780B582B000AF7860DE
:1030B0003B1D184602F09EF9034618460837BD46E8
:1030C00080BD80B400AF00231846BD4680BC704769
:1030D00080B500AF02F04AFC0346184680BD80B4BC
:1030E00000AF00231846BD4680BC704780B500AFD6
:1030F00002F0DAFE0346184680BD80B400AF00231C
:103100001846BD4680BC704780B500AF03F06AF931
:103110000346184680BD80B400AF01231846BD4663
:1031200080BC704780B582B000AF7860786803F0EB
:10313000F7FB034618460837BD4680BD80B400AF94
:1031400000231846BD4680BC704780B582B000AFF2
:103150007860786803F0A0FE034618460837BD463D
:1031600080BD80B400AF00231846BD4680BC7047C8
:1031700080B500AF04F04CF90346184680BD00004E
:1031800080B400AF024B1B781846BD4680BC704728
:10319000C9F7010880B582B000AF03463960FB7102
:1031A000FB79DB00054A134408221946386818F0F9
:1031B0007BFE00BF0837BD4680BD00BF50F7010849
:1031C00080B500AF2D48FFF762FD2D48FFF75FFD8A
:1031D0002C48FFF75CFD2C48FFF759FD2B48FFF703
:1031E00056FD2B48FFF753FD2A48FFF750FD2A48AC
:1031F000FFF74DFD2948FFF73DFD2948FFF747FD43
:103200002848FFF744FD2848FFF741FD2748FFF70E
:103210003EFD2748FFF73BFD2648FFF738FD2648CF
:10322000FFF735FD2548FFF732FD2548FFF72FFD55
:103230002448FFF72CFD2448FFF729FD2348FFF71A
:1032400026FD2348FFF723FD2248FFF720FD2248F3
:10325000FFF71DFD2148FFF71AFD2148FFF717FD75
:103260002048FFF714FD2048FFF711FD1F48FFF726
:103270000EFD1F48FFF70BFD00BF80BD6817002043
:103280007C170020A41700206C1700207017002066
:10329000D81700200C180020E4040020F4040020BB
:1032A000E4170020E8170020E017002000040020A9
:1032B00004040020080400200C0400201004002056
:1032C0001404002018040020DC170020FC17002044
:1032D000F41700200018002008180020D417002040
:1032E000D0170020A8170020101800201418002064
:1032F0001818002080B500AF1B4B1B68184609F05A
:1033000095FE1A4B01221A70194B00221A70184BA5
:1033100000225A70164BFF229A70FF21154810F0B8
:103320005BFFFF21144810F0F5FF372012F056F92B
:10333000124B1B6803F00103002B05D1104811F05C
:1033400027F90E4B01221A600E4B0D4A1A600E48E7
:103350000BF0C4FC05200EF037FB05210B4812F0E2
:103360005FF800BF80BD00BFE4F70108D11700205F
:103370003C000020E4170020E81700206C04002027
:1033800068040020EC170020F40400200818002036
:1033900080B500AF034B1B68184609F06FFE00BFF5
:1033A00080BD00BFE4F7010880B500AF04F0D6FB94
:1033B0000346184680BD000080B582B000AF78603B
:1033C00007220449786818F06FFD0723184608376C
:1033D000BD4680BDB4EF010880B582B000AFB448EF
:1033E00004F05AFE0346FB71FFF7F3FD0346002B82
:1033F00004D0FB79002B01D0012300E00023002B37
:1034000001D0FB7969E2AB4804F056FE0346FB713C
:10341000FFF7DFFD0346002B04D0FB79002B01D022
:10342000012300E00023002B01D0FB7955E2A248E4
:1034300004F052FE0346FB71FFF7CBFD0346002B61
:1034400004D0FB79002B01D0012300E00023002BE6
:1034500001D0FB7941E2994804F04EFE0346FB712E
:10346000FFF7B7FD0346002B04D0FB79002B01D0FA
:10347000012300E00023002B01D0FB792DE29048CE
:1034800004F04AFE0346FB71FFF7A3FD0346002B41
:1034900004D0FB79002B01D0012300E00023002B96
:1034A00001D0FB7919E2874804F046FE0346FB7120
:1034B000FFF78FFD0346002B04D0FB79002B01D0D2
:1034C000012300E00023002B01D0FB7905E27E48B8
:1034D00004F042FE0346FB71FFF77BFD0346002B21
:1034E00004D0FB79002B01D0012300E00023002B46
:1034F00001D0FB79F1E1754804F03EFE0346FB7113
:10350000FFF767FD0346002B04D0FB79002B01D0A9
:10351000012300E00023002B01D0FB79DDE16C48A2
:1035200004F03AFE0346FB71FFF753FD0346002B00
:1035300004D0FB79002B01D0012300E00023002BF5
:1035400001D0FB79C9E1634804F036FE0346FB7104
:10355000FFF73FFD0346002B04D0FB79002B01D081
:10356000012300E00023002B01D0FB79B5E15A488C
:1035700004F032FE0346FB71FFF72BFD0346002BE0
:1035800004D0FB79002B01D0012300E00023002BA5
:1035900001D0FB79A1E1514804F02EFE0346FB71F6
:1035A000FFF717FD0346002B04D0FB79002B01D059
:1035B000012300E00023002B01D0FB798DE1484876
:1035C00004F02AFE0346FB71FFF703FD0346002BC0
:1035D00004D0FB79002B01D0012300E00023002B55
:1035E00001D0FB7979E13F4804F016FE0346FB71F8
:1035F000FFF7EFFC0346002B04D0FB79002B01D032
:10360000012300E00023002B01D0FB7965E136485F
:1036100004F002FE0346FB71FFF7DBFC0346002BC0
:1036200004D0FB79002B01D0012300E00023002B04
:1036300001D0FB7951E12D4804F0EEFD0346FB710A
:10364000FFF7C7FC0346002B04D0FB79002B01D009
:10365000012300E00023002B01D0FB793DE1244849
:1036600004F0DAFD0346FB71FFF7B3FC0346002BC1
:1036700004D0FB79002B01D0012300E00023002BB4
:1036800001D0FB7929E11B4804F0C6FD0346FB711C
:10369000FFF79FFC0346002B04D0FB79002B01D0E1
:1036A000012300E00023002B26D0FB7915E100BFA9
:1036B000681700207C170020A41700206C1700203A
:1036C00070170020D81700200C180020E4040020F8
:1036D000F4040020E4170020E8170020E017002081
:1036E0000004002004040020080400200C04002032
:1036F00010040020140400207A4804F08DFD0346D5
:10370000FB71FFF766FC0346002B04D0FB79002B0E
:1037100001D0012300E00023002B01D0FB79DCE085
:10372000714804F089FD0346FB71FFF752FC034624
:10373000002B04D0FB79002B01D0012300E00023F3
:10374000002B01D0FB79C8E0684804F085FD0346F2
:10375000FB71FFF73EFC0346002B04D0FB79002BE6
:1037600001D0012300E00023002B01D0FB79B4E05D
:103770005F4804F081FD0346FB71FFF72AFC034616
:10378000002B04D0FB79002B01D0012300E00023A3
:10379000002B01D0FB79A0E0564804F07DFD0346E4
:1037A000FB71FFF716FC0346002B04D0FB79002BBE
:1037B00001D0012300E00023002B01D0FB798CE035
:1037C0004D4804F079FD0346FB71FFF702FC034608
:1037D000002B04D0FB79002B01D0012300E0002353
:1037E000002B01D0FB7978E0444804F075FD0346D6
:1037F000FB71FFF7EEFB0346002B04D0FB79002B97
:1038000001D0012300E00023002B01D0FB7964E00C
:103810003B4804F071FD0346FB71FFF7DAFB0346FA
:10382000002B04D0FB79002B01D0012300E0002302
:10383000002B01D0FB7950E0324804F06DFD0346C7
:10384000FB71FFF7C6FB0346002B04D0FB79002B6E
:1038500001D0012300E00023002B01D0FB793CE0E4
:10386000294804F069FD0346FB71FFF7B2FB0346EC
:10387000002B04D0FB79002B01D0012300E00023B2
:10388000002B01D0FB7928E0204804F065FD0346B9
:10389000FB71FFF79EFB0346002B04D0FB79002B46
:1038A00001D0012300E00023002B01D0FB7914E0BC
:1038B000174804F061FD0346FB71FFF78AFB0346DE
:1038C000002B04D0FB79002B01D0012300E0002362
:1038D000002B01D0FB7900E0FB7918460837BD4684
:1038E00080BD00BF18040020DC170020FC1700205A
:1038F000F41700200018002008180020D41700201A
:10390000D0170020A817002010180020141800203D
:103910001818002080B582B000AFB44804F03CFD18
:103920000346FB71FFF763FB0346002B04D0FB79D2
:10393000002B01D0012300E00023002B01D0FB79F4
:1039400069E2AB4804F038FD0346FB71FFF74FFB1B
:103950000346002B04D0FB79002B01D0012300E0AB
:103960000023002B01D0FB7955E2A24804F034FD7E
:103970000346FB71FFF73BFB0346002B04D0FB79AA
:10398000002B01D0012300E00023002B01D0FB79A4
:1039900041E2994804F030FD0346FB71FFF727FB35
:1039A0000346002B04D0FB79002B01D0012300E05B
:1039B0000023002B01D0FB792DE2904804F02CFD70
:1039C0000346FB71FFF713FB0346002B04D0FB7982
:1039D000002B01D0012300E00023002B01D0FB7954
:1039E00019E2874804F028FD0346FB71FFF7FFFA50
:1039F0000346002B04D0FB79002B01D0012300E00B
:103A00000023002B01D0FB7905E27E4804F024FD61
:103A10000346FB71FFF7EBFA0346002B04D0FB795A
:103A2000002B01D0012300E00023002B01D0FB7903
:103A3000F1E1754804F020FD0346FB71FFF7D7FA6A
:103A40000346002B04D0FB79002B01D0012300E0BA
:103A50000023002B01D0FB79DDE16C4804F01CFD54
:103A60000346FB71FFF7C3FA0346002B04D0FB7932
:103A7000002B01D0012300E00023002B01D0FB79B3
:103A8000C9E1634804F018FD0346FB71FFF7AFFA84
:103A90000346002B04D0FB79002B01D0012300E06A
:103AA0000023002B01D0FB79B5E15A4804F014FD46
:103AB0000346FB71FFF79BFA0346002B04D0FB790A
:103AC000002B01D0012300E00023002B01D0FB7963
:103AD000A1E1514804F010FD0346FB71FFF787FA9E
:103AE0000346002B04D0FB79002B01D0012300E01A
:103AF0000023002B01D0FB798DE1484804F00CFD38
:103B00000346FB71FFF773FA0346002B04D0FB79E1
:103B1000002B01D0012300E00023002B01D0FB7912
:103B200079E13F4804F0F8FC0346FB71FFF75FFAC8
:103B30000346002B04D0FB79002B01D0012300E0C9
:103B40000023002B01D0FB7965E1364804F0E4FC4A
:103B50000346FB71FFF74BFA0346002B04D0FB79B9
:103B6000002B01D0012300E00023002B01D0FB79C2
:103B700051E12D4804F0D0FC0346FB71FFF737FA02
:103B80000346002B04D0FB79002B01D0012300E079
:103B90000023002B01D0FB793DE1244804F0BCFC5C
:103BA0000346FB71FFF723FA0346002B04D0FB7991
:103BB000002B01D0012300E00023002B01D0FB7972
:103BC00029E11B4804F0A8FC0346FB71FFF70FFA3C
:103BD0000346002B04D0FB79002B01D0012300E029
:103BE0000023002B26D0FB7915E100BF68170020C9
:103BF0007C170020A41700206C17002070170020ED
:103C0000D81700200C180020E4040020F404002041
:103C1000E4170020E8170020E0170020000400202F
:103C200004040020080400200C04002010040020DC
:103C3000140400207A4804F06FFC0346FB71FFF780
:103C4000D6F90346002B04D0FB79002B01D00123C9
:103C500000E00023002B01D0FB79DCE0714804F088
:103C60006BFC0346FB71FFF7C2F90346002B04D03F
:103C7000FB79002B01D0012300E00023002B01D0B1
:103C8000FB79C8E0684804F067FC0346FB71FFF766
:103C9000AEF90346002B04D0FB79002B01D00123A1
:103CA00000E00023002B01D0FB79B4E05F4804F072
:103CB00063FC0346FB71FFF79AF90346002B04D01F
:103CC000FB79002B01D0012300E00023002B01D061
:103CD000FB79A0E0564804F05FFC0346FB71FFF758
:103CE00086F90346002B04D0FB79002B01D0012379
:103CF00000E00023002B01D0FB798CE04D4804F05C
:103D00005BFC0346FB71FFF772F90346002B04D0FE
:103D1000FB79002B01D0012300E00023002B01D010
:103D2000FB7978E0444804F057FC0346FB71FFF749
:103D30005EF90346002B04D0FB79002B01D0012350
:103D400000E00023002B01D0FB7964E03B4804F045
:103D500053FC0346FB71FFF74AF90346002B04D0DE
:103D6000FB79002B01D0012300E00023002B01D0C0
:103D7000FB7950E0324804F04FFC0346FB71FFF73B
:103D800036F90346002B04D0FB79002B01D0012328
:103D900000E00023002B01D0FB793CE0294804F02F
:103DA0004BFC0346FB71FFF722F90346002B04D0BE
:103DB000FB79002B01D0012300E00023002B01D070
:103DC000FB7928E0204804F047FC0346FB71FFF72D
:103DD0000EF90346002B04D0FB79002B01D0012300
:103DE00000E00023002B01D0FB7914E0174804F019
:103DF00043FC0346FB71FFF7FAF80346002B04D09F
:103E0000FB79002B01D0012300E00023002B01D01F
:103E1000FB7900E0FB7918460837BD4680BD00BF3E
:103E200018040020DC170020FC170020F4170020E5
:103E30000018002008180020D4170020D0170020F8
:103E4000A8170020101800201418002018180020AF
:103E500080B582B000AFB44804F01EFC0346FB718D
:103E6000FFF7D3F80346002B04D0FB79002B01D0D9
:103E7000012300E00023002B01D0FB7969E2AB486D
:103E800004F01AFC0346FB71FFF7BFF80346002B52
:103E900004D0FB79002B01D0012300E00023002B8C
:103EA00001D0FB7955E2A24804F016FC0346FB71F1
:103EB000FFF7ABF80346002B04D0FB79002B01D0B1
:103EC000012300E00023002B01D0FB7941E2994857
:103ED00004F012FC0346FB71FFF797F80346002B32
:103EE00004D0FB79002B01D0012300E00023002B3C
:103EF00001D0FB792DE2904804F00EFC0346FB71E3
:103F0000FFF783F80346002B04D0FB79002B01D088
:103F1000012300E00023002B01D0FB7919E2874840
:103F200004F00AFC0346FB71FFF76FF80346002B11
:103F300004D0FB79002B01D0012300E00023002BEB
:103F400001D0FB7905E27E4804F006FC0346FB71D4
:103F5000FFF75BF80346002B04D0FB79002B01D060
:103F6000012300E00023002B01D0FB79F1E175482B
:103F700004F002FC0346FB71FFF747F80346002BF1
:103F800004D0FB79002B01D0012300E00023002B9B
:103F900001D0FB79DDE16C4804F0FEFB0346FB71C8
:103FA000FFF733F80346002B04D0FB79002B01D038
:103FB000012300E00023002B01D0FB79C9E1634815
:103FC00004F0FAFB0346FB71FFF71FF80346002BD2
:103FD00004D0FB79002B01D0012300E00023002B4B
:103FE00001D0FB79B5E15A4804F0F6FB0346FB71BA
:103FF000FFF70BF80346002B04D0FB79002B01D010
:10400000012300E00023002B01D0FB79A1E15148FE
:1040100004F0F2FB0346FB71FEF7F7FF0346002BAB
:1040200004D0FB79002B01D0012300E00023002BFA
:1040300001D0FB798DE1484804F0EEFB0346FB71AB
:10404000FEF7E3FF0346002B04D0FB79002B01D0E1
:10405000012300E00023002B01D0FB7979E13F48E8
:1040600004F0DAFB0346FB71FEF7CFFF0346002B9B
:1040700004D0FB79002B01D0012300E00023002BAA
:1040800001D0FB7965E1364804F0C6FB0346FB71BD
:10409000FEF7BBFF0346002B04D0FB79002B01D0B9
:1040A000012300E00023002B01D0FB7951E12D48D2
:1040B00004F0B2FB0346FB71FEF7A7FF0346002B9B
:1040C00004D0FB79002B01D0012300E00023002B5A
:1040D00001D0FB793DE1244804F09EFB0346FB71CF
:1040E000FEF793FF0346002B04D0FB79002B01D091
:1040F000012300E00023002B01D0FB7929E11B48BC
:1041000004F08AFB0346FB71FEF77FFF0346002B9A
:1041100004D0FB79002B01D0012300E00023002B09
:1041200026D0FB7915E100BF681700207C1700201E
:10413000A41700206C17002070170020D81700204B
:104140000C180020E4040020F4040020E4170020F0
:10415000E8170020E01700200004002004040020DD
:10416000080400200C040020100400201404002087
:104170007A4804F051FB0346FB71FEF746FF034605
:10418000002B04D0FB79002B01D0012300E0002399
:10419000002B01D0FB79DCE0714804F04DFB0346B5
:1041A000FB71FEF732FF0346002B04D0FB79002B96
:1041B00001D0012300E00023002B01D0FB79C8E0EF
:1041C000684804F049FB0346FB71FEF71EFF0346F7
:1041D000002B04D0FB79002B01D0012300E0002349
:1041E000002B01D0FB79B4E05F4804F045FB0346A7
:1041F000FB71FEF70AFF0346002B04D0FB79002B6E
:1042000001D0012300E00023002B01D0FB79A0E0C6
:10421000564804F041FB0346FB71FEF7F6FE0346E9
:10422000002B04D0FB79002B01D0012300E00023F8
:10423000002B01D0FB798CE04D4804F03DFB034698
:10424000FB71FEF7E2FE0346002B04D0FB79002B46
:1042500001D0012300E00023002B01D0FB7978E09E
:10426000444804F039FB0346FB71FEF7CEFE0346DB
:10427000002B04D0FB79002B01D0012300E00023A8
:10428000002B01D0FB7964E03B4804F035FB03468A
:10429000FB71FEF7BAFE0346002B04D0FB79002B1E
:1042A00001D0012300E00023002B01D0FB7950E076
:1042B000324804F031FB0346FB71FEF7A6FE0346CD
:1042C000002B04D0FB79002B01D0012300E0002358
:1042D000002B01D0FB793CE0294804F02DFB03467C
:1042E000FB71FEF792FE0346002B04D0FB79002BF6
:1042F00001D0012300E00023002B01D0FB7928E04E
:10430000204804F029FB0346FB71FEF77EFE0346BE
:10431000002B04D0FB79002B01D0012300E0002307
:10432000002B01D0FB7914E0174804F025FB03466D
:10433000FB71FEF76AFE0346002B04D0FB79002BCD
:1043400001D0012300E00023002B01D0FB7900E025
:10435000FB7918460837BD4680BD00BF1804002011
:10436000DC170020FC170020F417002000180020A4
:1043700008180020D4170020D0170020A81700200C
:1043800010180020141800201818002080B584B0E0
:1043900000AF78607968B24804F0FEFA0346FB7318
:1043A000FEF741FE0346002B04D0FB7B002B01D01F
:1043B000012300E00023002B01D0FB7B84E279681D
:1043C000A84804F0FBFA0346FB73FEF72CFE0346F5
:1043D000002B04D0FB7B002B01D0012300E0002345
:1043E000002B01D0FB7B6FE279689F4804F0F8FA5C
:1043F0000346FB73FEF717FE0346002B04D0FB7B3E
:10440000002B01D0012300E00023002B01D0FB7B17
:104410005AE27968954804F0F5FA0346FB73FEF713
:1044200002FE0346002B04D0FB7B002B01D00123AE
:1044300000E00023002B01D0FB7B45E279688C482B
:1044400004F0F2FA0346FB73FEF7EDFD0346002B82
:1044500004D0FB7B002B01D0012300E00023002BC4
:1044600001D0FB7B30E27968824804F0EFFA034622
:10447000FB73FEF7D8FD0346002B04D0FB7B002B1B
:1044800001D0012300E00023002B01D0FB7B1BE2C5
:104490007968794804F0ECFA0346FB73FEF7C3FD34
:1044A0000346002B04D0FB7B002B01D0012300E04E
:1044B0000023002B01D0FB7B06E279686F4804F0F3
:1044C000E9FA0346FB73FEF7AEFD0346002B04D06A
:1044D000FB7B002B01D0012300E00023002B01D047
:1044E000FB7BF1E17968664804F0E6FA0346FB736A
:1044F000FEF799FD0346002B04D0FB7B002B01D077
:10450000012300E00023002B01D0FB7BDCE1796874
:104510005C4804F0E3FA0346FB73FEF784FD0346B0
:10452000002B04D0FB7B002B01D0012300E00023F3
:10453000002B01D0FB7BC7E17968534804F0E0FA17
:104540000346FB73FEF76FFD0346002B04D0FB7B95
:10455000002B01D0012300E00023002B01D0FB7BC6
:10456000B2E17968494804F0DDFA0346FB73FEF7CF
:104570005AFD0346002B04D0FB7B002B01D0012306
:1045800000E00023002B01D0FB7B9DE179684048CF
:1045900004F0DAFA0346FB73FEF745FD0346002BF1
:1045A00004D0FB7B002B01D0012300E00023002B73
:1045B00001D0FB7B88E17968364804F0C5FA0346F0
:1045C000FB73FEF730FD0346002B04D0FB7B002B72
:1045D00001D0012300E00023002B01D0FB7B73E11D
:1045E00079682D4804F0B0FA0346FB73FEF71BFD13
:1045F0000346002B04D0FB7B002B01D0012300E0FD
:104600000023002B01D0FB7B5EE17968234804F096
:104610009BFA0346FB73FEF706FD0346002B04D00E
:10462000FB7B002B01D0012300E00023002B01D0F5
:10463000FB7B49E179681A4804F086FA0346FB736C
:10464000FEF7F1FC0346002B04D0FB7B002B01D0CE
:10465000012300E00023002B24D0FB7B34E100BFCA
:10466000681700207C170020A41700206C1700207A
:1046700070170020D81700200C180020E404002038
:10468000F4040020E4170020E8170020E0170020C1
:104690000004002004040020080400200C04002072
:1046A0001004002079688A4804F04EFA0346FB7330
:1046B000FEF7B9FC0346002B04D0FB7B002B01D096
:1046C000012300E00023002B01D0FB7BFCE0796894
:1046D000804804F039FA0346FB73FEF7A4FC034656
:1046E000002B04D0FB7B002B01D0012300E0002332
:1046F000002B01D0FB7BE7E07968774804F036FABD
:104700000346FB73FEF78FFC0346002B04D0FB7BB4
:10471000002B01D0012300E00023002B01D0FB7B04
:10472000D2E079686D4804F033FA0346FB73FEF774
:104730007AFC0346002B04D0FB7B002B01D0012325
:1047400000E00023002B01D0FB7BBDE079686448CA
:1047500004F030FA0346FB73FEF765FC0346002BBA
:1047600004D0FB7B002B01D0012300E00023002BB1
:1047700001D0FB7BA8E079685A4804F02DFA034683
:10478000FB73FEF750FC0346002B04D0FB7B002B91
:1047900001D0012300E00023002B01D0FB7B93E03C
:1047A0007968514804F02AFA0346FB73FEF73BFC94
:1047B0000346002B04D0FB7B002B01D0012300E03B
:1047C0000023002B01D0FB7B7EE07968474804F092
:1047D00027FA0346FB73FEF726FC0346002B04D0A2
:1047E000FB7B002B01D0012300E00023002B01D034
:1047F000FB7B69E079683E4804F024FA0346FB73CA
:10480000FEF711FC0346002B04D0FB7B002B01D0EC
:10481000012300E00023002B01D0FB7B54E07968EA
:10482000344804F021FA0346FB73FEF7FCFB034611
:10483000002B04D0FB7B002B01D0012300E00023E0
:10484000002B01D0FB7B3FE079682B4804F01EFA77
:104850000346FB73FEF7E7FB0346002B04D0FB7B0C
:10486000002B01D0012300E00023002B01D0FB7BB3
:104870002AE07968214804F01BFA0346FB73FEF72F
:10488000D2FB0346002B04D0FB7B002B01D001237D
:1048900000E00023002B01D0FB7B15E0796818486D
:1048A00004F018FA0346FB73FEF7BDFB0346002B2A
:1048B00004D0FB7B002B01D0012300E00023002B60
:1048C00001D0FB7B00E0FB7B18461037BD4680BD66
:1048D0001404002018040020DC170020FC1700201E
:1048E000F41700200018002008180020D41700201A
:1048F000D0170020A817002010180020141800203E
:104900001818002080B584B000AF78607968B2488C
:1049100004F0F2F90346FB73FEF798FB0346002B05
:1049200004D0FB7B002B01D0012300E00023002BEF
:1049300001D0FB7B84E27968A84804F0EFF90346D4
:10494000FB73FEF783FB0346002B04D0FB7B002B9D
:1049500001D0012300E00023002B01D0FB7B6FE29C
:1049600079689F4804F0ECF90346FB73FEF76EFB91
:104970000346002B04D0FB7B002B01D0012300E079
:104980000023002B01D0FB7B5AE27968954804F0A4
:10499000E9F90346FB73FEF759FB0346002B04D0ED
:1049A000FB7B002B01D0012300E00023002B01D072
:1049B000FB7B45E279688C4804F0E6F90346FB731B
:1049C000FEF744FB0346002B04D0FB7B002B01D0F9
:1049D000012300E00023002B01D0FB7B30E279684B
:1049E000824804F0E3F90346FB73FEF72FFB03460E
:1049F000002B04D0FB7B002B01D0012300E000231F
:104A0000002B01D0FB7B1BE27968794804F0E0F9C8
:104A10000346FB73FEF71AFB0346002B04D0FB7B17
:104A2000002B01D0012300E00023002B01D0FB7BF1
:104A300006E279686F4804F0DDF90346FB73FEF780
:104A400005FB0346002B04D0FB7B002B01D0012388
:104A500000E00023002B01D0FB7BF1E17968664880
:104A600004F0DAF90346FB73FEF7F0FA0346002B75
:104A700004D0FB7B002B01D0012300E00023002B9E
:104A800001D0FB7BDCE179685C4804F0D7F9034690
:104A9000FB73FEF7DBFA0346002B04D0FB7B002BF5
:104AA00001D0012300E00023002B01D0FB7BC7E1F4
:104AB0007968534804F0D4F90346FB73FEF7C6FA4D
:104AC0000346002B04D0FB7B002B01D0012300E028
:104AD0000023002B01D0FB7BB2E17968494804F048
:104AE000D1F90346FB73FEF7B1FA0346002B04D05D
:104AF000FB7B002B01D0012300E00023002B01D021
:104B0000FB7B9DE17968404804F0CEF90346FB73D6
:104B1000FEF79CFA0346002B04D0FB7B002B01D050
:104B2000012300E00023002B01D0FB7B88E17968A2
:104B3000364804F0B9F90346FB73FEF787FA0346DB
:104B4000002B04D0FB7B002B01D0012300E00023CD
:104B5000002B01D0FB7B73E179682D4804F0A4F9A8
:104B60000346FB73FEF772FA0346002B04D0FB7B6F
:104B7000002B01D0012300E00023002B01D0FB7BA0
:104B80005EE17968234804F08FF90346FB73FEF772
:104B90005DFA0346002B04D0FB7B002B01D00123E0
:104BA00000E00023002B01D0FB7B49E179681A4823
:104BB00004F07AF90346FB73FEF748FA0346002B2C
:104BC00004D0FB7B002B01D0012300E00023002B4D
:104BD00024D0FB7B34E100BF681700207C17002045
:104BE000A41700206C17002070170020D817002091
:104BF0000C180020E4040020F4040020E417002036
:104C0000E8170020E0170020000400200404002022
:104C1000080400200C0400201004002079688A4851
:104C200004F042F90346FB73FEF710FA0346002B2B
:104C300004D0FB7B002B01D0012300E00023002BDC
:104C400001D0FB7BFCE07968804804F02DF9034635
:104C5000FB73FEF7FBF90346002B04D0FB7B002B14
:104C600001D0012300E00023002B01D0FB7BE7E013
:104C70007968774804F02AF90346FB73FEF7E6F9F2
:104C80000346002B04D0FB7B002B01D0012300E066
:104C90000023002B01D0FB7BD2E079686D4804F043
:104CA00027F90346FB73FEF7D1F90346002B04D026
:104CB000FB7B002B01D0012300E00023002B01D05F
:104CC000FB7BBDE07968644804F024F90346FB737C
:104CD000FEF7BCF90346002B04D0FB7B002B01D070
:104CE000012300E00023002B01D0FB7BA8E07968C2
:104CF0005A4804F021F90346FB73FEF7A7F903466F
:104D0000002B04D0FB7B002B01D0012300E000230B
:104D1000002B01D0FB7B93E07968514804F01EF929
:104D20000346FB73FEF792F90346002B04D0FB7B8E
:104D3000002B01D0012300E00023002B01D0FB7BDE
:104D40007EE07968474804F01BF90346FB73FEF7E1
:104D50007DF90346002B04D0FB7B002B01D00123FF
:104D600000E00023002B01D0FB7B69E079683E481E
:104D700004F018F90346FB73FEF768F90346002BAD
:104D800004D0FB7B002B01D0012300E00023002B8B
:104D900001D0FB7B54E07968344804F015F90346F0
:104DA000FB73FEF753F90346002B04D0FB7B002B6B
:104DB00001D0012300E00023002B01D0FB7B3FE06A
:104DC00079682B4804F012F90346FB73FEF73EF9AD
:104DD0000346002B04D0FB7B002B01D0012300E015
:104DE0000023002B01D0FB7B2AE07968214804F0E6
:104DF0000FF90346FB73FEF729F90346002B04D095
:104E0000FB7B002B01D0012300E00023002B01D00D
:104E1000FB7B15E07968184804F00CF90346FB7336
:104E2000FEF714F90346002B04D0FB7B002B01D0C6
:104E3000012300E00023002B01D0FB7B00E0FB7B83
:104E400018461037BD4680BD140400201804002009
:104E5000DC170020FC170020F417002000180020A9
:104E600008180020D4170020D0170020A817002011
:104E700010180020141800201818002080B584B0E5
:104E800000AF78607968B24804F0E6F80346FB7337
:104E9000FEF7EFF80346002B04D0FB7B002B01D07C
:104EA000012300E00023002B01D0FB7B84E2796822
:104EB000A84804F0E3F80346FB73FEF7DAF803466C
:104EC000002B04D0FB7B002B01D0012300E000234A
:104ED000002B01D0FB7B6FE279689F4804F0E0F87B
:104EE0000346FB73FEF7C5F80346002B04D0FB7B9B
:104EF000002B01D0012300E00023002B01D0FB7B1D
:104F00005AE27968954804F0DDF80346FB73FEF732
:104F1000B0F80346002B04D0FB7B002B01D001230B
:104F200000E00023002B01D0FB7B45E279688C4830
:104F300004F0DAF80346FB73FEF79BF80346002BF8
:104F400004D0FB7B002B01D0012300E00023002BC9
:104F500001D0FB7B30E27968824804F0D7F8034641
:104F6000FB73FEF786F80346002B04D0FB7B002B77
:104F700001D0012300E00023002B01D0FB7B1BE2CA
:104F80007968794804F0D4F80346FB73FEF771F8AA
:104F90000346002B04D0FB7B002B01D0012300E053
:104FA0000023002B01D0FB7B06E279686F4804F0F8
:104FB000D1F80346FB73FEF75CF80346002B04D0E0
:104FC000FB7B002B01D0012300E00023002B01D04C
:104FD000FB7BF1E17968664804F0CEF80346FB7389
:104FE000FEF747F80346002B04D0FB7B002B01D0D3
:104FF000012300E00023002B01D0FB7BDCE179687A
:105000005C4804F0CBF80346FB73FEF732F8034626
:10501000002B04D0FB7B002B01D0012300E00023F8
:10502000002B01D0FB7BC7E17968534804F0C8F836
:105030000346FB73FEF71DF80346002B04D0FB7BF1
:10504000002B01D0012300E00023002B01D0FB7BCB
:10505000B2E17968494804F0C5F80346FB73FEF7EE
:1050600008F80346002B04D0FB7B002B01D0012362
:1050700000E00023002B01D0FB7B9DE179684048D4
:1050800004F0C2F80346FB73FDF7F3FF0346002B61
:1050900004D0FB7B002B01D0012300E00023002B78
:1050A00001D0FB7B88E17968364804F0ADF803460F
:1050B000FB73FDF7DEFF0346002B04D0FB7B002BC8
:1050C00001D0012300E00023002B01D0FB7B73E122
:1050D00079682D4804F098F80346FB73FDF7C9FF83
:1050E0000346002B04D0FB7B002B01D0012300E002
:1050F0000023002B01D0FB7B5EE17968234804F09C
:1051000083F80346FB73FDF7B4FF0346002B04D07E
:10511000FB7B002B01D0012300E00023002B01D0FA
:10512000FB7B49E179681A4804F06EF80346FB738B
:10513000FDF79FFF0346002B04D0FB7B002B01D023
:10514000012300E00023002B24D0FB7B34E100BFCF
:10515000681700207C170020A41700206C1700207F
:1051600070170020D81700200C180020E40400203D
:10517000F4040020E4170020E8170020E0170020C6
:105180000004002004040020080400200C04002077
:105190001004002079688A4804F036F80346FB734F
:1051A000FDF767FF0346002B04D0FB7B002B01D0EB
:1051B000012300E00023002B01D0FB7BFCE0796899
:1051C000804804F021F80346FB73FDF752FF0346C5
:1051D000002B04D0FB7B002B01D0012300E0002337
:1051E000002B01D0FB7BE7E07968774804F01EF8DC
:1051F0000346FB73FDF73DFF0346002B04D0FB7B0A
:10520000002B01D0012300E00023002B01D0FB7B09
:10521000D2E079686D4804F01BF80346FB73FDF794
:1052200028FF0346002B04D0FB7B002B01D0012379
:1052300000E00023002B01D0FB7BBDE079686448CF
:1052400004F018F80346FB73FDF713FF0346002B29
:1052500004D0FB7B002B01D0012300E00023002BB6
:1052600001D0FB7BA8E079685A4804F015F80346A2
:10527000FB73FDF7FEFE0346002B04D0FB7B002BE7
:1052800001D0012300E00023002B01D0FB7B93E041
:105290007968514804F012F80346FB73FDF7E9FE04
:1052A0000346002B04D0FB7B002B01D0012300E040
:1052B0000023002B01D0FB7B7EE07968474804F097
:1052C0000FF80346FB73FDF7D4FE0346002B04D012
:1052D000FB7B002B01D0012300E00023002B01D039
:1052E000FB7B69E079683E4804F00CF80346FB73E9
:1052F000FDF7BFFE0346002B04D0FB7B002B01D043
:10530000012300E00023002B01D0FB7B54E07968EF
:10531000344804F009F80346FB73FDF7AAFE034680
:10532000002B04D0FB7B002B01D0012300E00023E5
:10533000002B01D0FB7B3FE079682B4804F006F896
:105340000346FB73FDF795FE0346002B04D0FB7B61
:10535000002B01D0012300E00023002B01D0FB7BB8
:105360002AE07968214804F003F80346FB73FDF74F
:1053700080FE0346002B04D0FB7B002B01D00123D1
:1053800000E00023002B01D0FB7B15E07968184872
:1053900004F000F80346FB73FDF76BFE0346002B99
:1053A00004D0FB7B002B01D0012300E00023002B65
:1053B00001D0FB7B00E0FB7B18461037BD4680BD6B
:1053C0001404002018040020DC170020FC17002023
:1053D000F41700200018002008180020D41700201F
:1053E000D0170020A8170020101800201418002043
:1053F0001818002080B584B000AF78607968B24892
:1054000003F0DAFF0346FB73FDF747FE0346002B6C
:1054100004D0FB7B002B01D0012300E00023002BF4
:1054200001D0FB7B84E27968A84803F0D7FF0346EC
:10543000FB73FDF732FE0346002B04D0FB7B002BF1
:1054400001D0012300E00023002B01D0FB7B6FE2A1
:1054500079689F4803F0D4FF0346FB73FDF71DFEF8
:105460000346002B04D0FB7B002B01D0012300E07E
:105470000023002B01D0FB7B5AE27968954803F0AA
:10548000D1FF0346FB73FDF708FE0346002B04D053
:10549000FB7B002B01D0012300E00023002B01D077
:1054A000FB7B45E279688C4803F0CEFF0346FB7333
:1054B000FDF7F3FD0346002B04D0FB7B002B01D04E
:1054C000012300E00023002B01D0FB7B30E2796850
:1054D000824803F0CBFF0346FB73FDF7DEFD034676
:1054E000002B04D0FB7B002B01D0012300E0002324
:1054F000002B01D0FB7B1BE27968794803F0C8FFE1
:105500000346FB73FDF7C9FD0346002B04D0FB7B6C
:10551000002B01D0012300E00023002B01D0FB7BF6
:1055200006E279686F4803F0C5FF0346FB73FDF799
:10553000B4FD0346002B04D0FB7B002B01D00123DC
:1055400000E00023002B01D0FB7BF1E17968664885
:1055500003F0C2FF0346FB73FDF79FFD0346002BDC
:1055600004D0FB7B002B01D0012300E00023002BA3
:1055700001D0FB7BDCE179685C4803F0BFFF0346A8
:10558000FB73FDF78AFD0346002B04D0FB7B002B49
:1055900001D0012300E00023002B01D0FB7BC7E1F9
:1055A0007968534803F0BCFF0346FB73FDF775FDB4
:1055B0000346002B04D0FB7B002B01D0012300E02D
:1055C0000023002B01D0FB7BB2E17968494803F04E
:1055D000B9FF0346FB73FDF760FD0346002B04D0C3
:1055E000FB7B002B01D0012300E00023002B01D026
:1055F000FB7B9DE17968404803F0B6FF0346FB73EF
:10560000FDF74BFD0346002B04D0FB7B002B01D0A4
:10561000012300E00023002B01D0FB7B88E17968A7
:10562000364803F0A1FF0346FB73FDF736FD034642
:10563000002B04D0FB7B002B01D0012300E00023D2
:10564000002B01D0FB7B73E179682D4803F08CFFC0
:105650000346FB73FDF721FD0346002B04D0FB7BC3
:10566000002B01D0012300E00023002B01D0FB7BA5
:105670005EE17968234803F077FF0346FB73FDF78B
:105680000CFD0346002B04D0FB7B002B01D0012333
:1056900000E00023002B01D0FB7B49E179681A4828
:1056A00003F062FF0346FB73FDF7F7FC0346002B94
:1056B00004D0FB7B002B01D0012300E00023002B52
:1056C00024D0FB7B34E100BF681700207C1700204A
:1056D000A41700206C17002070170020D817002096
:1056E0000C180020E4040020F4040020E41700203B
:1056F000E8170020E0170020000400200404002028
:10570000080400200C0400201004002079688A4856
:1057100003F02AFF0346FB73FDF7BFFC0346002B93
:1057200004D0FB7B002B01D0012300E00023002BE1
:1057300001D0FB7BFCE07968804803F015FF03464D
:10574000FB73FDF7AAFC0346002B04D0FB7B002B68
:1057500001D0012300E00023002B01D0FB7BE7E018
:105760007968774803F012FF0346FB73FDF795FC59
:105770000346002B04D0FB7B002B01D0012300E06B
:105780000023002B01D0FB7BD2E079686D4803F049
:105790000FFF0346FB73FDF780FC0346002B04D08C
:1057A000FB7B002B01D0012300E00023002B01D064
:1057B000FB7BBDE07968644803F00CFF0346FB7394
:1057C000FDF76BFC0346002B04D0FB7B002B01D0C4
:1057D000012300E00023002B01D0FB7BA8E07968C7
:1057E0005A4803F009FF0346FB73FDF756FC0346D6
:1057F000002B04D0FB7B002B01D0012300E0002311
:10580000002B01D0FB7B93E07968514803F006FF41
:105810000346FB73FDF741FC0346002B04D0FB7BE2
:10582000002B01D0012300E00023002B01D0FB7BE3
:105830007EE07968474803F003FF0346FB73FDF7FA
:105840002CFC0346002B04D0FB7B002B01D0012352
:1058500000E00023002B01D0FB7B69E079683E4823
:1058600003F000FF0346FB73FDF717FC0346002B14
:1058700004D0FB7B002B01D0012300E00023002B90
:1058800001D0FB7B54E07968344803F0FDFE034609
:10589000FB73FDF702FC0346002B04D0FB7B002BBF
:1058A00001D0012300E00023002B01D0FB7B3FE06F
:1058B00079682B4803F0FAFE0346FB73FDF7EDFB16
:1058C0000346002B04D0FB7B002B01D0012300E01A
:1058D0000023002B01D0FB7B2AE07968214803F0EC
:1058E000F7FE0346FB73FDF7D8FB0346002B04D0FD
:1058F000FB7B002B01D0012300E00023002B01D013
:10590000FB7B15E07968184803F0F4FE0346FB734F
:10591000FDF7C3FB0346002B04D0FB7B002B01D01B
:10592000012300E00023002B01D0FB7B00E0FB7B88
:1059300018461037BD4680BD14040020180400200E
:10594000DC170020FC170020F417002000180020AE
:1059500008180020D4170020D0170020A817002016
:1059600010180020141800201818002080B582B0EC
:1059700000AFB44803F0D0FE0346FB71FDF7A1FB76
:105980000346002B04D0FB79002B01D0012300E05B
:105990000023002B01D0FB7969E2AB4803F0CCFE79
:1059A0000346FB71FDF78DFB0346002B04D0FB790A
:1059B000002B01D0012300E00023002B01D0FB7954
:1059C00055E2A24803F0C8FE0346FB71FDF779FBE0
:1059D0000346002B04D0FB79002B01D0012300E00B
:1059E0000023002B01D0FB7941E2994803F0C4FE6B
:1059F0000346FB71FDF765FB0346002B04D0FB79E2
:105A0000002B01D0012300E00023002B01D0FB7903
:105A10002DE2904803F0C0FE0346FB71FDF751FBF9
:105A20000346002B04D0FB79002B01D0012300E0BA
:105A30000023002B01D0FB7919E2874803F0BCFE5C
:105A40000346FB71FDF73DFB0346002B04D0FB79B9
:105A5000002B01D0012300E00023002B01D0FB79B3
:105A600005E27E4803F0B8FE0346FB71FDF729FB13
:105A70000346002B04D0FB79002B01D0012300E06A
:105A80000023002B01D0FB79F1E1754803F0B4FE4F
:105A90000346FB71FDF715FB0346002B04D0FB7991
:105AA000002B01D0012300E00023002B01D0FB7963
:105AB000DDE16C4803F0B0FE0346FB71FDF701FB2E
:105AC0000346002B04D0FB79002B01D0012300E01A
:105AD0000023002B01D0FB79C9E1634803F0ACFE41
:105AE0000346FB71FDF7EDFA0346002B04D0FB796A
:105AF000002B01D0012300E00023002B01D0FB7913
:105B0000B5E15A4803F0A8FE0346FB71FDF7D9FA48
