:100000000C9401020C9429020C9429020C942902EC
:100010000C9429020C9429020C9429020C942902B4
:100020000C9429020C9429020C948C1B0C94141A25
:100030000C9429020C9429020C9429020C94290294
:100040000C9429020C9429020C9429020C94290284
:100050000C9429020C9429020C9429020C945D142E
:100060000C9429020C9429020C9429020C94290264
:100070000C9429020C9429020C9429020C94290254
:100080000C9429020C9429020C9429020C94290244
:100090000C94F6090C9429020C9429020C94290260
:1000A0000C9429020C9429020C94290201190300D2
:1000B000E10300100400100400E103001204001228
:1000C00003000704000703000804000803000F04EE
:1000D000000F03002C04002C0264030027040027F7
:1000E00003001E04001E00FFFF1E001F0020002151
:1000F0000022000049E000E4000260230024002503
:1001000000260027000060350014001A00080015C2
:100110000017002B002A002C0028001C0018000CDF
:1001200000120013002E004B000400160007000907
:10013000000A002900E300E200E6000B000D000EBB
:10014000000F00330034004E001D001B0006001994
:100150000005004C44E100E5004C4411001000365D
:1001600000370038002D00FFFF3A003B003C003D07
:10017000003E000000E000E400B6423F00400041C5
:10018000004200430044002B00FFFF0150FFFF111D
:1001900050605029504C002800CD42FFFF2F0830FE
:1001A000082F00300045004A000450025008501249
:1001B0005025502A50E300E600B54250005100524D
:1001C000004F00FFFFFFFF4D00FFFFFFFFFFFF138A
:1001D000502650FFFFE100E500FFFFE242EA42E95E
:1001E00042FFFF31003108FFFFFFFFFFFFFFFFFF6E
:1001F000FFFFFFFFFFFFFFFFFFFFFFFFFF5F00604D
:100200000061005600FFFFFFFFFFFFFFFFFFFFFF42
:10021000FFFFFFFFFFFFFFFFFFFFFFFFFF5C005D32
:10022000005E005700FFFFFFFFFFFFFFFFFFFFFF24
:10023000FFFFFFFFFFFFFFFFFFFFFFFFFF59005A18
:10024000005B002E003400FFFFFFFFFFFFFFFFFFFA
:10025000FFFFFF2B44FFFFFFFF2B44FFFF62006304
:100260000055005400280005010902A10185070579
:100270000919012908150025019508750181020554
:10028000010930093116000026FF7F7510950281A3
:100290000209381581257F750895018106C0050C76
:1002A0000901A1018504150026FF0319002AFF0397
:1002B000950475108100C005010906A10185080596
:1002C0000719E029E71500250175019508810275D8
:1002D0000495018101190429311500250175019545
:1002E0002E81027501950181011933299B15002585
:1002F00001750195698102750195018101199D2999
:10030000DD15002501750195418102750295018178
:1003100001C005010902A10185010509190129088A
:100320001500250195087501810205010930093183
:1003300009381581257F750895038106C0050109D7
:1003400080A1018505150026FF00190029FF9501F0
:1003500075088100C003005304005300080B00021D
:10036000020201000904000001020200000524004D
:1003700010010524010101042402060524060001E0
:100380000705810310004009040100020A00000073
:100390000705020240000007058302400000120129
:1003A0000002EF02014009120123000101020301D2
:1003B00012010002000000400912012300010102A5
:1003C00003014B6579626F617264696F004D6F6400
:1003D000656C203031000403090465020904E70458
:1003E000000822091F0C8E0C1C0D870DEC0D990FB7
:1003F000B210B610CA11EC113712DC12FD135A16E6
:100400002C0911241FBECFEFDAE0DEBFCDBF12E012
:10041000A0E0B1E0E4E4F9E302C005900D92A43558
:10042000B107D9F726E0A4E5B2E001C01D92A338D8
:10043000B207E1F711E0C0E0D2E004C02197FE016D
:100440000E94881CCD3ED107C9F70E943E1C0C9427
:10045000951C0C94000081110BC061FF2FC060FD42
:100460002DC042E06091B5058091B6050C94A311B2
:10047000813069F461FF22C060FD20C06AE171E053
:100480008BE196E00E9464178CEA90E00895823038
:10049000A9F461FF13C060FD11C00E94A71424E2FB
:1004A00030E040E050E00E94661C6C5F87E595E01C
:1004B0000E94BC0C87E595E00E94AF0C80E090E0C4
:1004C00008958FE892E00C94150520E040E06CE37D
:1004D00082E792E00E94D71120E044E16CE38DE6D0
:1004E00092E00E94D71120E043E268E288E692E0C1
:1004F0000E94D71120E044E660E083E692E00E948B
:10050000D71124E64FE060E08EE592E00E94D7111B
:1005100024E640E060E089E592E00E94D7112CE3F8
:1005200040E066E484E592E00C94D71163E08FE844
:1005300092E00E94EB041F921F9287E792E09F9344
:100540008F9383EB95E09F938F938DEE95E09F9330
:100550008F9384EF95E09F938F9382E096E09F9333
:100560008F9382EF95E09F938F9384E592E09F9322
:100570008F9389E592E09F938F938EE592E09F930E
:100580008F9383E692E09F938F9388E692E09F9308
:100590008F938DE692E09F938F9382E792E09F93F3
:1005A0008F938BEE95E09F938F9387EB95E09F93CE
:1005B0008F938AE096E09F938F938FE892E09F93CA
:1005C0008F930E943D058DB79EB784960FB6F89421
:1005D0009EBF0FBE8DBF8BEE95E00C94E90FCF93BD
:1005E000903509F068C0C82F922F927084FF11C017
:1005F0008F7E2170992329F0211103C00E941804D5
:1006000051C0222309F44EC091114CC00E94200415
:1006100049C085FD32C0992309F444C020FD45C07E
:100620008091790290917A02A0917B02B0917C0234
:10063000892B8A2B8B2B51F40E94A714609379028B
:1006400070937A0280937B0290937C0280917D026A
:1006500090917E02A0917F02B0918002892B8A2B1B
:100660008B2B19F50E94A71460937D0270937E0274
:1006700080937F029093800218C0992399F020FD07
:1006800011C081FD02C090E001C094E0C6FB882744
:1006900080F9892BC3FD02C090E001C090E1892B55
:1006A0000E94490480E090E006C080918302C82B3C
:1006B000C0938302F7CFCF9108958FEE92E00E940E
:1006C0007F0585E693E00C94A905CF92DF92EF9227
:1006D000FF920F931F93882319F01092830292C008
:1006E00080918302811113C01092850210927902C9
:1006F00010927A0210927B0210927C0210927D027C
:1007000010927E0210927F02109280027BC00E94A3
:10071000A7140091790210917A0220917B02309106
:100720007C02AB01BC01401B510B620B730B80912F
:10073000810290918202A0E0B0E0481759076A0751
:100740007B0708F45FC00E94A7146093790270933E
:100750007A0280937B0290937C020E94A714A0915E
:10076000850200917D0210917E0220917F023091DE
:1007700080026B017C01C01AD10AE20AF30AEA2F57
:10078000F0E06091000170910101E69FA001E79FF8
:10079000500DF69F500D112460E070E0C416D50690
:1007A000E606F70668F0909102012FEF30E0291B72
:1007B0003109E217F30724F4892F8A0F8093850209
:1007C0008091830280FF04C060910301619506C09F
:1007D00081FF03C06091030101C060E082FF04C09B
:1007E00080910301819506C083FF03C080910301BE
:1007F00001C080E01F910F91FF90EF90DF90CF90AC
:100800000C94BB041F910F91FF90EF90DF90CF905D
:10081000089580E491E090937802809377020895A0
:1008200082E895E00E946F0D8EE295E00C941D0C1D
:10083000682F82E895E00E947C0D10928602089550
:10084000682F82E895E00C94810D56954795460FE8
:10085000571FB90176956795680F791F20E08EE2E2
:1008600095E00C94F10B109288021092870210927E
:100870008A02109289028FEF9FE790938E028093F5
:100880008D0290938C0280938B0281E0809386028C
:100890000895CF93DF931F92CDB7DEB79091860274
:1008A000911104C089830E943304898180FF06C0AE
:1008B000109286020F90DF91CF91089520918D02C2
:1008C00030918E023695279530938E0220938D02BB
:1008D00040918B0250918C025695479550938C0213
:1008E00040938B0281FD0CC082FF0AC06091890297
:1008F00070918A02640F751F70938A026093890257
:1009000083FD0CC084FF0AC0809187029091880209
:10091000820F931F909388028093870260918902CF
:1009200070918A0280918702909188020F90DF91E6
:10093000CF910C94250487FD8095282F220F229FAC
:10094000B0011124672F7727CB01880F991F860FDD
:10095000971F269FA001279F500D1124252F332775
:10096000220F331F821B930B969587958E5F8333DF
:1009700008F082E308950F931F93CF93DF93182F0E
:10098000062F882349F0809185020E949B04282F1E
:100990001203E001112402C0C0E0D0E0002349F0BE
:1009A000809185020E949B04282F0203A00111243C
:1009B00002C040E050E01092860220E06C2F82E8F6
:1009C00095E0DF91CF911F910F910C944E0D84E82B
:1009D00092E00C941004CF93C62F0FB6F894A8950C
:1009E00080916000886180936000109260000FBE6B
:1009F00064E670E080E090E00E94D81487E595E01E
:100A00000E94120D86ED93E00E940B0820E04FEF4C
:100A10006FEF80E090E00E9413066C2F86ED93E06C
:100A20000E942009CF910C94F8070F931F93CF9346
:100A3000DF9386ED93E00E941609C0E9D2E08E01B3
:100A4000D801ED91FD918D01309719F080E0099565
:100A5000F7CF87E595E00E94AF0C87E595E00E940F
:100A60000C0DE991F991309719F081E00995F9CFD2
:100A7000DF91CF911F910F9108950F931F93CF9303
:100A8000DF93CDB7DEB789859A85DC01ED91FC91C6
:100A90000190F081E02D0995FE013B968F010E5FDC
:100AA0001F4F80819181009749F0DC01ED91FC910D
:100AB0000190F081E02D0995F801F0CFDF91CF9101
:100AC0001F910F910895E0E1F3E020E030E04191C3
:100AD00051914817590741F4220F331FF901E05F84
:100AE000FC4F7183608308952F5F3F4F20343105A1
:100AF00071F70895BC0180E090E00C946305E0E19B
:100B0000F3E0219131912817390731F023E0E039E2
:100B1000F207B9F70C947A050895E0E9F2E020E0D5
:100B200030E0419151914817590741F4220F331F8A
:100B3000F901E057FD4F7183608308952F5F3F4FA8
:100B40002034310571F70895BC0180E090E00C94E9
:100B50008D05E0E9F2E0219131912817390731F054
:100B600023E0E031F207B9F70C94A4050895CF9380
:100B7000DF93D82FC92F93FF05C061EE87E595E07D
:100B80000E94BC0CC0FF05C060EE87E595E00E94A6
:100B9000BC0CC1FF05C062EE87E595E00E94BC0C6D
:100BA000C2FF05C066EE87E595E00E94BC0CC4FF5D
:100BB00005C063EE87E595E00E94BC0C6D2F87E5CC
:100BC00095E0DF91CF910C94BC0CCF93DF93D82F9D
:100BD000C92F93FF05C061EE87E595E00E94E30C05
:100BE000C0FF05C060EE87E595E00E94E30CC1FF01
:100BF00005C062EE87E595E00E94E30CC2FF05C0E8
:100C000066EE87E595E00E94E30CC4FF05C063EE45
:100C100087E595E00E94E30C6D2F87E595E0DF9175
:100C2000CF910C94E30CCF92DF92EF92FF921F933F
:100C3000CF93DF93D62F142FC22F27FD04C0642F2C
:100C40008D2F0E94780620E1E22E23E0F22ED701BC
:100C5000ED91FD917D012C2F412F6D2F309739F0B3
:100C60000995C12CD12C8C159D0589F739C00E949E
:100C7000C007BC010097A1F1982F76FF24C077FD33
:100C80002FC0C1FF2DC0C0FD2BC073FD29C071FF57
:100C90000DC0692F70E081E495E0DF91CF911F9145
:100CA000FF90EF90DF90CF900C947E0C70FF18C0F7
:100CB00081E995E0DF91CF911F91FF90EF90DF9058
:100CC000CF900C94E20DC1FF04C0CB010E94B70588
:100CD00007C0C0FF05C0C7FF03C0CB010E94E505E8
:100CE000DF91CF911F91FF90EF90DF90CF9008950B
:100CF00070E0FB0120E1829FE00DF11D1124E0571F
:100D0000FC4F908124E0929FF0011124E80FF11D27
:100D100084E0EE0FFF1F8A95E1F7E60FF71FEE0F55
:100D2000FF1FE951FF4F8591949108950F931F93F1
:100D30004091D1035091D2036091D3037091D403B9
:100D40008FE190E08A019B01082E04C0369527951B
:100D5000179507950A94D2F700FD03C0019790F705
:100D600080E01F910F9108950F931F934091D1033D
:100D70005091D2036091D3037091D4038A019B01F7
:100D800004C036952795179507958A95D2F7D9010E
:100D9000C80181701F910F9108958F929F92AF9219
:100DA000BF92CF92DF92EF92FF920F931F93CF9358
:100DB000DF93C091D503EC2EF12C40E450E0B70155
:100DC00080E993E00E948E1C81E090E002C0880FD1
:100DD000991FCA95E2F7092E000CAA0BBB0B409194
:100DE000D1035091D2036091D3037091D40348177B
:100DF00059076A077B0709F445C08090D00300E0DB
:100E000010E0A12CB12C680184E0CC0CDD1C8A958B
:100E1000E1F7982CC92D092C000CDD0BEC16FD0612
:100E200024F5892D0E94B4068823E9F0FE01EE0F17
:100E3000FF1FEE0FFF1FE00FF11F24E0EE0FFF1F5B
:100E40002A95E1F7EA0DFB1DEE0FFF1FE951FF4F59
:100E500085919491019639F0F601EA0DFB1DE0575A
:100E6000FC4F908202C09A94D5CF8FEFA81AB80A8F
:100E700020E1A216B10469F60F5F1F4F043011057F
:100E800009F0BFCFDF91CF911F910F91FF90EF90AD
:100E9000DF90CF90BF90AF909F908F9008950F9369
:100EA0001F9341E050E060E070E0082E04C0440F62
:100EB000551F661F771F0A94D2F70091D103109136
:100EC000D2032091D3033091D403402B512B622BBA
:100ED000732B4093D1035093D2036093D303709349
:100EE000D4039091D003981710F48093D0031F91EE
:100EF0000F910C94CD061092D1031092D203109250
:100F0000D3031092D4030C944F070F931F9341E027
:100F100050E060E070E0082E04C0440F551F661FCB
:100F2000771F0A94D2F7409550956095709500917F
:100F3000D1031091D2032091D3033091D4034023E5
:100F40005123622373234093D1035093D2036093C0
:100F5000D3037093D4039091D003891304C00E94EB
:100F600096068093D0031F910F910C94CD060E949A
:100F700096068F5F0C944F070E9496060C94850787
:100F8000CF93943499F5C82F922F92708A32D0F073
:100F900086ED8C0F2170992339F0211105C0823222
:100FA00071F0813201F506C02223C9F0911117C0FA
:100FB000823219F40E94BC0712C0813271F40E947F
:100FC000B7070DC0992359F020FD09C00E94B4064F
:100FD000882341F0CC2331F08C2F0E94850780E0DC
:100FE00090E004C08C2F0E944F07F9CFCF91089555
:100FF000CF93C82F0E947B07C093D503CF9108954C
:1010000080E00C94F8073F9A479A08956E9A769874
:1010100024982C980895CF93DF93EC010E94030845
:10102000CE010E940608188219821A821B821C8235
:101030001D821E821F828CE08093B800DF91CF91C9
:101040000895603250F470E0FB01EE0FFF1F6E0F49
:101050007F1FFB01E05BFB4F0DC0603470F470E05C
:1010600060527109FB01EE0FFF1F6E0F7F1FFB0126
:10107000EA51FC4F20833183428308950F931F93DD
:10108000542F422F980170E1679FF0011124E50F62
:10109000F11DEE5BFE4F60811F910F910C942108B2
:1010A00080E594E00E94B10B86EE93E00E94B10BC4
:1010B00080E594E00E94B10B86EE93E00E94B10BB4
:1010C00080E594E00E94B10B86EE93E00E94B10BA4
:1010D00080E594E00E94B10B86EE93E00C94B10B96
:1010E000CF93DF93EC0188819981AA81BB818887A6
:1010F0009987AA87BB878C819D81AE81BF818C87B0
:101100009D87AE87BF8780E594E00E943E0B8823D1
:1011100041F080E594E00E94710B688379838A83B3
:101120009B8386EE93E00E943E0B882341F086EE7F
:1011300093E00E94710B6C837D838E839F83DF918C
:10114000CF910895AF92BF92DF92EF92FF920F93EB
:101150001F93CF93DF931F92CDB7DEB75C0130E0D2
:10116000F12C87E0E82E0FE010E0D12ED30EF50130
:1011700080819181A281B3810D2C04C0B695A79581
:10118000979587950A94D2F78170282F220F808532
:101190009185A285B3850D2C04C0B695A79597952A
:1011A00087950A94D2F78170282B4E2D411B6F2D05
:1011B00080E090E039830E941306F5014481558157
:1011C000668177810D2C04C0769567955795479574
:1011D0000A94D2F74170242F220F448555856685E5
:1011E000778504C07695679557954795DA94D2F739
:1011F0004170242B402F411B6F2D80E090E00E9416
:1012000013061F5F3981183009F0AFCFF394385FB0
:10121000F4E0FF12A9CF0F90DF91CF911F910F91B2
:10122000FF90EF90DF90BF90AF900895CF93DF9342
:10123000EC010E947008CE01DF91CF910C94A208BE
:1012400080E0089560E080E594E00E94240B63E074
:1012500086EE93E00C94240B86EE93E00E94230B21
:1012600080E594E00C94230B1092270581E0809395
:10127000250510922405589A599AE9EBF0E08081EF
:101280008E7F808380818D7F808388E48093B80007
:1012900085E48093BC000895413208F043C09091EA
:1012A00027059111FCCF91E0909327052093250508
:1012B0002FEF2093BA041092FF04240F2093FE0412
:1012C0009093260590912605880F892B80932605FB
:1012D00080912405813061F41092240580912605C7
:1012E0008093BB008091BC0083FDF8CF85EC01C0EA
:1012F00085EE8093BC00809127058130E1F38091D9
:10130000FF04841710F44091FF0420E035E0FB0156
:10131000D9018A2F821B841718F48D918193F9CFFC
:10132000842F089580E008950F93413208F04AC059
:10133000909127059111FCCF32E03093270500935F
:1013400025053FEF3093BA041092FF044093FE044A
:10135000FB0160E075E0DB013A2F361B341718F40F
:1013600031913D93F9CF1092260530912605880FD3
:10137000832B8093260580912405813061F410929F
:101380002405809126058093BB008091BC0083FDDD
:10139000F8CF85EC01C085EE8093BC00222321F0BC
:1013A000809127058230D1F38091BA04803331F0E7
:1013B0008F3F49F0803221F492E005C093E003C0F2
:1013C00094E001C091E0892F0F91089585ED8093FD
:1013D000BC008091BC0084FDFCCF109227050895CD
:1013E00085EC8093BC001092270508951F920F9200
:1013F0000FB60F9211242F933F934F935F936F93E8
:101400007F938F939F93AF93BF93EF93FF938091BD
:10141000B900887F803609F49EC078F5883209F4D7
:101420005DC090F4803109F456C038F4882309F483
:10143000F5C0883009F44FC0F5C0883109F44EC0BA
:10144000803209F45FC0EEC0803409F46AC058F4F9
:10145000803309F457C0883309F0E4C08093BA049C
:101460000E94F009DFC0803509F44FC0883509F4C7
:101470005DC0883409F0D6C0D3C0883909F4C4C02F
:10148000A8F4883709F467C038F4883609F463C0D3
:10149000803709F460C0C6C0883809F4B5C0803907
:1014A00009F45FC0803809F0BDC05BC0803B09F41F
:1014B00083C038F4803A09F466C0883A09F47CC0E5
:1014C000B1C0803C09F4A4C0883C09F4A1C0883BA9
:1014D00009F487C0A7C08091260510C09091FF0431
:1014E0008091FE04981770F5E091FF0481E08E0F63
:1014F0008093FF04F0E0E050FB4F80818093BB00BD
:1015000085EC83C08093BA048BC0E091FF0481E036
:101510008E0F8093FF048091BB00F0E0E050FB4F02
:1015200080839091FF048091FE046BC0E091FF04E2
:1015300081E08E0F8093FF048091BB00F0E0E050CB
:10154000FB4F80838091250581116AC081E08093E3
:10155000240584EA5EC083E0809327051092BB04D3
:10156000CFCF8091BB04803208F04EC0E091BB0425
:1015700081E08E0F8093BB048091BB00F0E0E454C7
:10158000FB4F8083BDCF0E94F0098091BB04803265
:1015900030F4E091BB04F0E0E454FB4F1082609122
:1015A000BB0470E0E0912005F09121058CEB94E004
:1015B00009951092BB0436C084E0809327051092F1
:1015C000DD041092DC04E0912205F09123050995D9
:1015D0008091DC04811105C081E08093DC041092CD
:1015E000DE04E091DD0481E08E0F8093DD04F0E005
:1015F000E252FB4F80818093BB009091DD0480918B
:10160000DC04981708F47CCF85E88093BC000AC0FE
:1016100085EC8093BC001092270504C01092BA0498
:101620000E94E609FF91EF91BF91AF919F918F9139
:101630007F916F915F914F913F912F910F900FBECE
:101640000F901F9018950895FC01E859FF4F1082E4
:10165000319610823797262F30E0318320833297DE
:10166000686570E071836083809104019FEF980F3B
:101670009093040181110C94340908950F931F93E2
:10168000CF93DF9300D000D01F92CDB7DEB78C018F
:10169000FC01E05AFF4F21E045E0BE016F5F7F4F44
:1016A00080810E944C098981813081F4F801EC59D4
:1016B000FF4F8A81808331968B81808331968C8124
:1016C000808331968D81808381E001C080E00F901E
:1016D0000F900F900F900F90DF91CF911F910F916E
:1016E0000895FC01EC59FF4F6081718182819381E3
:1016F00008950F93CF93DF93CDB7DEB769970FB6F9
:10170000F894DEBF0FBECDBF20E8260F2983DE018F
:10171000129628E1629FB001112420E030E0F90127
:10172000E60FF71FE80FF91F40814D932F5F3F4FE2
:1017300028313105A1F7FC01E05AFF4F00E021E01C
:1017400049E1BE016F5F7F4F80810E9494096996D5
:101750000FB6F894DEBF0FBECDBFDF91CF910F91D2
:101760000895CF93DF93EC01C759DF4F688121E0E3
:10177000260F28830E94790B8881843009F418820F
:10178000DF91CF91089580913305811113C010929C
:1017900029051092280587E692E090932B05809307
:1017A0002A0587E390E090932D0580932C0581E036
:1017B000809333050E942C0F68E275E00C94BB0EF9
:1017C0000F931F93CF93DF93EB018A010E942C0F9D
:1017D0009801AE0167E0DF91CF911F910F910C94BA
:1017E000D80ECF93DF9300D000D000D0CDB7DEB7B6
:1017F000FC017183608353834283348139837B830B
:101800006A835D834C832E8346E050E0BE016F5FA8
:101810007F4F0E94E00B26960FB6F894DEBF0FBEF6
:10182000CDBFDF91CF910895FC0114824281538195
:101830006081718120E00C94F10B0C94140C8EE209
:1018400095E00C94C30B80914905811113C010924F
:101850003C0510923B058EE992E090933E05809303
:101860003D0589E190E09093400580933F0581E03C
:10187000809349050E942C0F6BE375E00C94BB0E1E
:101880000F931F93CF93DF93EB018A010E942C0FDC
:101890009801AE0164E0DF91CF911F910F910C94FC
:1018A000D80EFC0120E030E041915191452B41F4EC
:1018B000220F331FFC01E20FF31F7183608305C009
:1018C0002F5F3F4F2430310579F748E050E0BC01ED
:1018D0000C94400CFC019C01285F3F4F40815181DA
:1018E0004617570711F4118210823296E217F30758
:1018F000A9F748E050E0BC010C94400C0F931F93F3
:10190000CF93DF93EC018B010E94510CB801CE0103
:10191000DF91CF911F910F910C946A0C81E495E0B7
:101920000C94230C80917405811113C01092520500
:101930001092510587EB92E09093540580935305E4
:101940008BE590E0909356058093550581E0809358
:1019500074050E942C0F61E575E00C94BB0ECF93CB
:10196000DF93EC010E942C0F2DE130E0AE0168E026
:10197000DF91CF910C94D80E6E3D90F4262F2695D2
:1019800026952695FC01E20FF11D677081E090E03D
:1019900001C0880F6A95EAF79181892B81830DC078
:1019A000605E683068F421E030E001C0220F6A9583
:1019B000EAF7FC013081232B208381E090E0089539
:1019C00080E090E008956E3D98F4262F26952695A8
:1019D0002695FC01E20FF11D677081E090E001C0E7
:1019E000880F6A95EAF780959181892381830EC0DB
:1019F000605E683070F421E030E001C0220F6A952B
:101A0000EAF72095FC0130812323208381E090E0D8
:101A1000089580E090E008952DE1FC0111922A954F
:101A2000E9F70895CF93DF93EC010E940C0DCE01EE
:101A3000DF91CF910C94AF0C87E595E00C94920C5C
:101A400080918305811113C010927D0510927C0551
:101A500082E193E090937F0580937E058BE290E096
:101A6000909381058093800581E0809383050E9497
:101A70002C0F6CE775E00C94BB0E0F931F93CF9364
:101A8000DF93EB018A010E942C0F9801AE0161E007
:101A9000DF91CF911F910F910C94D80ECF93DF93CC
:101AA00000D000D0CDB7DEB7FC01308139836A8326
:101AB0004B832C8344E050E0BE016F5F7F4F0E9458
:101AC0003D0D0F900F900F900F90DF91CF910895E3
:101AD000FC01108220E040E060E00C944E0D0C947C
:101AE000680DFC012081621731F0608320E040E046
:101AF00060E00C944E0D0895FC012081622B0C9443
:101B0000710D6095FC01208162230C94710D82E8B7
:101B100095E00C94200D80919205811113C01092D4
:101B20008C0510928B058DE393E090938E05809346
:101B30008D0588E190E09093900580938F0581E07A
:101B4000809392050E942C0F6BE875E00C94BB0EFD
:101B50000F931F93CF93DF93EB018A010E942C0F09
:101B60009801AE0165E0DF91CF911F910F910C9428
:101B7000D80ECF93DF931F92CDB7DEB7198241E025
:101B800050E0BE016F5F7F4F0E94A80D0F90DF9164
:101B9000CF910895CF93DF931F92CDB7DEB76983BE
:101BA000633829F488E796E00E94211C07C041E0D1
:101BB00050E0BE016F5F7F4F0E94A80D0F90DF9134
:101BC000CF910895CF93DF93EC010E94CA0DCE010F
:101BD000DF91CF910C94B90D81E995E00C948B0DB8
:101BE000DC01FB0188E4808389E4818384E48283CF
:101BF0001D969C911D979F709F5B93831D968D9161
:101C00009C911E9724E0969587952A95E1F78F7011
:101C10008F5B848385E00895CF93DF93CDB7DEB7E4
:101C200069970FB6F894DEBF0FBECDBFFC01DB0194
:101C30008C918F5F8C93BE016F5F7F4F89E1DB01D9
:101C40001D928A95E9F729E0298384E08A8391E04F
:101C50009D8383E08E832A8721E22B879C879D8743
:101C60009F8722E2288B27E02B8B25E02C8B8E8B05
:101C700020E430E0388F2F8B998F82818B8395857C
:101C80008685998B8A8B838180688D8B49E150E0B2
:101C900080E00E94C21969960FB6F894DEBF0FBEAD
:101CA000CDBFDF91CF910895DC01FB0112968C919D
:101CB000129790E02481358182179307D1F49181A6
:101CC0008081813A31F481E0913091F0933089F450
:101CD00011C0813271F49B3021F482811F968C9364
:101CE00005C09A3031F4828150968C9381E008953A
:101CF000089580E00895EF92FF920F931F93CF9382
:101D0000DF93FB012081213851F52381223239F5FF
:101D1000DC0112962C9130E0448155814217530723
:101D2000F1F4EC010B851C85E12CF12C011511055A
:101D300091F0F801448155816281738180E80E94AD
:101D4000C2198F3FFFEF9F0769F0E80EF91ED80117
:101D50000D911C91EBCF81E08F87C70105C080E01A
:101D600090E002C08FEF9FEFDF91CF911F910F9115
:101D7000FF90EF900895FC01A385B485109719F4A6
:101D80007487638709C08D919C911197009711F01A
:101D9000DC01F9CF6D937C9325853685DB011496A4
:101DA0008D919C911597820F931F96878587089533
:101DB000AF92BF92CF92DF92EF92FF920F931F9359
:101DC000CF93DF931F92CDB7DEB77C0169836A01A1
:101DD000590141E050E0BE016F5F7F4FFC018381FC
:101DE0000E9422198C0197FD0BC0F7018381A50188
:101DF000B60180640E94221997FD02C0800F911FD6
:101E00000F90DF91CF911F910F91FF90EF90DF9096
:101E1000CF90BF90AF900895CF93DF93EC0181E016
:101E20008C838D839E01265F3F4F3F832E831986CF
:101E3000188626E831E0398328831C861B861E8697
:101E40001D868F87888B81EC8A870E943B17BE0195
:101E5000DF91CF910C94F4168091AB05811107C0EE
:101E60008AE995E00E940C0F81E08093AB058AE936
:101E700095E0089584E89FE00C947F051F93CF932D
:101E8000DF93EB01209709F43BC010E0BE016F5FC8
:101E90007F4FFE0184918230A1F038F4813009F047
:101EA0002FC02296FB01149124C0833099F0843016
:101EB00039F5FB019491FE0132968491239621E835
:101EC00010C02296FB01649170E080E090E00E94D7
:101ED000D8140FC0FB019491FE0132968491239691
:101EE00022E84FEF6FEF0E94130687E595E00E940E
:101EF000AF0C612F70E080E090E00E94D814C6CF54
:101F0000DF91CF911F910895903691F421FF0EC07B
:101F100020FD0CC06093B6054093B505622F0E946A
:101F20002B02BC0183EB95E00E943E0F80E090E025
:101F3000089582E991E09093B4058093B3050895E4
:101F400008950895089528E931E0DC012D933C932C
:101F50001092BA051092B90580E3EBEBF5E0DF01D2
:101F60001D928A95E9F70895E091B905EF5FE09336
:101F7000B905E83118F01092B9050895F0E0EE0FB8
:101F8000FF1FE554FA4F80819181892BA1F30895B9
:101F9000993439F421FF03C020FF0E94B40F80E080
:101FA00090E00895883110F48093B90508958091E8
:101FB000B90508959C01EBEBF5E080E0419151916A
:101FC0004217530711F40C94D20F8F5F8831B1F789
:101FD00008950C94DA0FEBEBF5E020E030E041914E
:101FE0005191452B49F4F901EE0FFF1FE554FA4FCB
:101FF00091838083822F08952F5F3F4F28313105D1
:1020000071F78FEF0895CF93DF9300D0CDB7DEB790
:102010001F921F9227EB35E03F932F932FE832E07A
:102020003F932F9389839A830E943D050F900F90D1
:102030000F900F900F900F9089819A810F900F90C1
:10204000DF91CF910C94EB0F9A01462F682F86ED0C
:1020500093E00C942108CF92DF92EF92CF936B0123
:10206000E82EC0E06E2DA6018C2F0E942410CF5FB9
:10207000C034C1F7CF91EF90DF90CF900895909149
:10208000BA058091B9059817B9F060E070E080E07A
:102090000E942B10E091B905F0E0EE0FFF1FE55410
:1020A000FA4F80819181009739F0DC01ED91FC912C
:1020B0000480F581E02D0995E091B905F0E0EE0F7F
:1020C000FF1FE554FA4F80819181009739F0DC01C0
:1020D000ED91FC910680F781E02D09958091B9057D
:1020E0008093BA050895762F642F0E942B100895CF
:1020F000CF93DF9360E070E080E00E942B10CBEB89
:10210000D5E089919991009739F0DC01ED91FC912E
:102110000280F381E02D0995B5E0CB3EDB0789F71E
:1021200088EC9FE00E947F058BEA90E1DF91CF91E0
:102130000C94A9050F931F938901242F462F682F14
:1021400086ED93E00E943E081F910F91089586ED61
:1021500093E00C945008811104C00E94A7100C94C5
:102160003F10089587EB95E00C94A30F8EE991E062
:102170009093EC058093EB0508950E94A714CB0182
:102180006CE070E00E94521C862F67FD8095880FDE
:10219000889FA0011124452F5527BA01660F771F8C
:1021A000640F751F849F9001859F300D1124832F2C
:1021B0009927880F991F681B790B769567956E5F35
:1021C00021EB629FC001112470E0892F08950F93C5
:1021D0001F93CF93DF936115710521F4642F742F42
:1021E000842F61C026E0289FD001299FB00D1124C3
:1021F0008B2F9927AE7FBB27EFEFF0E0EF01C61BD7
:10220000D70BC49F9001C59F300DD49F300D112472
:10221000A69FE001A79FD00DB69FD00D1124CD2F12
:10222000DD278F010C1B1D0B049FE001059FD00DC6
:10223000149FD00D11248F010A1B1B0B069FD00188
:10224000079FB00D169FB00D11246B2F7727E61B4B
:10225000F70BE49FD001E59FB00DF49FB00D112462
:1022600082309105A1F038F4009769F00197B1F43C
:102270009D2F742F0AC08330910569F0049771F483
:102280009B2F732F0EC0942F7B2F432F0AC0932FA9
:10229000742F4B2F06C0932F7D2F03C0942F732FC5
:1022A0004D2F642F892FDF91CF911F910F910895AA
:1022B0000E94EB0F8093F00508958091EF05811146
:1022C00002C00C94B40F0895EF92FF920F931F93E6
:1022D000CF93DF93C0E0D0E06D2F8C2F0E94780663
:1022E00023E5E22EF12C8E159F0528F003E610E081
:1022F00008171907C8F4DF5FD03171F7CF5FC4301A
:1023000051F7809106018530B8F480910501813143
:1023100098F40E94BD109B01482F609105018091A7
:1023200006010E949A1008C02FEF30E040E06D2FA8
:102330008C2F0E949A10DFCFDF91CF911F910F91C8
:10234000FF90EF900895CF93C42F80930601609380
:102350000501842F0E94B406882351F01092EF05E6
:102360008091F1050E94D20F8C2F0E9485070EC02C
:1023700081E08093EF050E94D70F8093F105809153
:10238000F0050E94D20F8C2F0E944F0785E593E045
:10239000CF9108958CEA91E09093EE058093ED053E
:1023A0000895FC014481638182810C947310EAEBEF
:1023B000F1E0DC011196FC93EE9312966C93129768
:1023C00013964C93139714962C930C94EB0F0E9436
:1023D000BD100E942B10089588EC91E09093F305B6
:1023E0008093F2050895CF93DF93EC019D819431A2
:1023F00018F49F5F9D832CC01D822B819C818A8154
:1024000040E050E060E0299F801911240E942410D0
:1024100040E050E060E08A810E9424109B818A8124
:10242000890F8A832FEF280F2F3310F091959B830C
:1024300040E050E06FEF0E9424102B819C818A8144
:102440004FEF50E060E0299F801911240E94241072
:10245000DF91CF910895FC0186ED91E09183808317
:10246000128281E0838385E084831582089584EF5E
:1024700095E00C942B12CF92DF92EF92CF93DF93E3
:10248000EC018C819D81AE81BF818A309105A105CF
:10249000B10544F40196A11DB11D8C839D83AE83CB
:1024A000BF8321C01C821D821E821F8242E350E036
:1024B0006FEF70E08A819B810E94E7106B01E82E2C
:1024C0008A819B819C012F5F3F4F2F3F310518F47C
:1024D0003B832A8304C08E5F91099B838A838E2D60
:1024E000B6010E942B10DF91CF91EF90DF90CF903B
:1024F00008951F93CF93DF93EC014C815D816E8132
:102500007F814A305105610571054CF44F5F5F4F83
:102510006F4F7F4F4C835D836E837F8331C01C82FE
:102520001D821E821F8210E08A819B81212F2695A9
:10253000269530E1239F800D911D11248F3F910539
:1025400010F08F5F910942E350E06FEF70E00E945E
:10255000E710AB01682F812F0E9424101F5F1034F9
:1025600019F78A819B819C012F5F3F4F2F3F3105D7
:1025700018F43B832A8304C08E5F91099B838A836E
:10258000DF91CF911F910895FC0184EE91E091833A
:102590008083138212821482158216821782089514
:1025A000FC0182EF91E09183808313821282148276
:1025B000158216821782089582E096E00E94C41266
:1025C0008AEF95E00C94D01285E6809311068093F3
:1025D0000C068BE494E10C94A90569E170E080E0BD
:1025E00090E00E94D81486ED93E00E9470088091DC
:1025F000D6039091D703A091D803B091D903009747
:10260000A105B24081F78091DE039091DF03A09194
:10261000E003B091E103892B8A2B8B2B21F70895DE
:102620000E9473100E94A7100C94ED12DF92EF929B
:10263000FF920F931F93CF93DF9340E060E082E31C
:102640000E94731086ED93E00E9470088091D6037B
:102650009091D703A091D803B091D9038238910506
:10266000A105B24009F4C1C0E12CD0E0C7E087E089
:10267000D82EDE0CFD2CFC1A8091D6039091D70346
:10268000A091D803B091D9030F2C04C0B695A7959B
:10269000979587950A94D2F78170282F220F809101
:1026A000DE039091DF03A091E003B091E1030F2CD2
:1026B00004C0B695A795979587950A94D2F781702F
:1026C000822B833009F56CEF71E08BE196E00E947C
:1026D00064174AE050E06F2D8BE196E00E94D2171C
:1026E00063E072E08BE196E00E9464174AE050E0FC
:1026F00063E08BE196E00E94D91700910F061091DC
:1027000010062091110608C0813061F400910C067A
:1027100010910D0620910E064C2F6D2F86ED93E043
:102720000E943E088091DA039091DB03A091DC03C4
:10273000B091DD030F2C04C0B695A79597958795AA
:102740000A94D2F78170282F220F8091E203909192
:10275000E303A091E403B091E5030F2C04C0B69508
:10276000A795979587950A94D2F78170822B83302D
:1027700009F56CEF71E08BE196E00E9464174AE086
:1027800050E06F2D8BE196E00E94D21763E072E07B
:102790008BE196E00E9464174AE050E063E08BE131
:1027A00096E00E94D91700910F0610911006209113
:1027B000110608C0813069F400910C0610910D06D5
:1027C00020910E0648E04C0F6D2F86ED93E00E949D
:1027D0003E08C15008F04ECFDF5F88E0E80ED430ED
:1027E00009F044CF0E94A7102DCFDF91CF911F9108
:1027F0000F91FF90EF90DF90089580E392E0909327
:102800000B0680930A060895CF93DF9340E060E0C3
:1028100082E30E94101340E062E380E00E94101304
:1028200042E360E080E00E94101342E362E382E34F
:102830000E94101340E060E088EC0E94101340E01A
:1028400068EC80E00E94101348EC60E080E00E9499
:10285000101340EA60EA80EA0E941013C8EED3E049
:1028600082E096E00E943B120E94A7102197C1F7D8
:10287000DF91CF9108956BE072E08BE196E00E94CA
:102880006A170E9404140E94161369E172E08BE13A
:1028900096E00C946A1781110FC08091D603909135
:1028A000D703A091D803B091D90382389105A1052F
:1028B000B24011F40C943B1408951F920F920FB67E
:1028C0000F9211242F933F938F939F93AF93BF93B6
:1028D0008091130690911406A0911506B0911606EA
:1028E0003091120623E0230F2D3720F40196A11D0D
:1028F000B11D05C026E8230F0296A11DB11D20932E
:1029000012068093130690931406A0931506B093B5
:1029100016068091170690911806A0911906B0919D
:102920001A060196A11DB11D8093170690931806F3
:10293000A0931906B0931A06BF91AF919F918F9102
:102940003F912F910F900FBE0F901F9018952FB7AA
:10295000F894609113067091140680911506909179
:1029600016062FBF08953FB7F894809117069091EF
:102970001806A0911906B0911A0626B5A89B05C0A5
:102980002F3F19F00196A11DB11D3FBFBA2FA92FEE
:10299000982F8827820F911DA11DB11DBC01CD016B
:1029A00042E0660F771F881F991F4A95D1F7089557
:1029B0008F929F92AF92BF92CF92DF92EF92FF924F
:1029C0006B017C010E94B3144B015C01C114D10462
:1029D000E104F10401F10E94511C0E94B314DC01D6
:1029E000CB0188199909AA09BB09883E9340A10522
:1029F000B10560F321E0C21AD108E108F10888EEC0
:102A0000880E83E0981EA11CB11CC114D104E104FE
:102A1000F10419F7DBCFFF90EF90DF90CF90BF90DC
:102A2000AF909F908F900895789484B5826084BD14
:102A300084B5816084BD85B5826085BD85B58160C2
:102A400085BDEEE6F0E0808181608083E1E8F0E022
:102A50001082808182608083808181608083E0E851
:102A6000F0E0808181608083E1E9F0E08081826034
:102A70008083808181608083E0E9F0E080818160F3
:102A80008083E1ECF0E080818460808380818260DB
:102A90008083808181608083E3ECF0E080818160CD
:102AA0008083E0ECF0E0808182608083E2ECF0E003
:102AB000808181608083EAE7F0E0808184608083A8
:102AC0008081826080838081816080838081806852
:102AD00080830895CF93DF931F92CDB7DEB76983CC
:102AE000DC01ED91FC910280F381E02D41E050E0AA
:102AF000BE016F5F7F4F09950F90DF91CF910895D1
:102B0000CF93DF93EC018C859D8597FF05C082E014
:102B10000E94F1189D878C878C859D85DF91CF91D0
:102B2000089583E00C94821BFC018485958597FDB4
:102B300006C082E00E949C1890E00196089582E011
:102B40000E949C1890E00895FC018485958597FD6E
:102B500005C02FEF3FEF35872487089582E00C945E
:102B6000F118CF93DF93EC0180911201882331F0AB
:102B700083E00E9422191816190634F081E090E0D3
:102B80009B838A8380E090E0DF91CF910895FC01E0
:102B900090819E5F908342E450E06CE573E080E8B2
:102BA0000C94C219FC0181819081913A59F48132CF
:102BB00009F048C047E050E06BE071E080E00E941F
:102BC000C21976C09132F1F5833291F49381892F45
:102BD00090E0982F88272281822BA0E0B0E080939C
:102BE000070190930801A0930901B0930A0160C006
:102BF000803239F467E070E08BE091E00E94E919DF
:102C000006C0823209F054C0828180931201809103
:102C10006B06882319F0EEEFFAE002C0E0E0F8E07E
:102C200080910B0190910C01A0910D01B0910E01CA
:102C3000803B9440A105B10539F48091120180FFD9
:102C40001FC002C080E008950FB6F894A895809147
:102C50006000886180936000109260000FBEA895AC
:102C6000EE3F8AE0F80739F08091FE0A9091FF0A62
:102C7000918380831DC01092FF0A1092FE0A18C033
:102C8000EE3F2AE0F20731F0808191819093FF0AB4
:102C90008093FE0A87E797E7918380839BE088E132
:102CA0000FB6F894A895809360000FBE90936000D3
:102CB00081E00895EBE1F6E01382128288EE93E062
:102CC000A0E0B0E084839583A683B78386E392E097
:102CD000918380838FEF9FEF958784870895EF928C
:102CE000FF920F931F93CF93DF937B01FC01C2816F
:102CF000D38100E010E0209781F0E881F981028023
:102D0000F381E02DB701CE01099597FD08C0080FAA
:102D1000191F0884D985C02DEECFC80102C08FEFDE
:102D20009FEFDF91CF911F910F91FF90EF9008954A
:102D30000F931F93CF93DF938B01FC01C281D3814B
:102D4000209771F0E881F9810480F581E02DB801C8
:102D5000CE010995009731F40884D985C02DF0CFB4
:102D600080E090E0DF91CF911F910F9108950F9334
:102D70001F93CF93DF938B01FC01C281D3812097F6
:102D800071F0E881F9810680F781E02DB801CE016C
:102D90000995080F111D0884D985C02DF0CFF801C1
:102DA0001082DF91CF911F910F9108950F931F9380
:102DB000CF93DF938B01FC01C281D381209771F007
:102DC000E881F9810190F081E02DB801CE010995EB
:102DD000811105C00884D985C02DF0CF80E0DF9136
:102DE000CF911F910F910895CF93DF93FC01DB01E9
:102DF000218114968C91149790E0820F911D089771
:102E0000B4F5C281D381209719F47383628308C01B
:102E100088859985009711F0EC01FACFB987A887CA
:102E2000808112968C931297818113968C931397BD
:102E3000908115968C911597890F808380E0149668
:102E40009C911497891788F41696CD91DC91179769
:102E5000C80FD11D9881C181D0E0CD5EDE4F98832F
:102E600091819F5F91838F5FEACF81E001C080E015
:102E7000DF91CF9108958091700681110DC082E09D
:102E800080936C0684E080936D0610926F0610921A
:102E90006E0681E0809370068CE696E008956115D9
:102EA000710579F0FB0101900020E9F73197AF013E
:102EB000461B570BDC01ED91FC910280F381E02D64
:102EC000099480E090E008950C944F1762E472E05A
:102ED0000C944F170F931F93CF93DF93EC010E9435
:102EE0004F178C01CE010E946617800F911FDF9152
:102EF000CF911F910F9108954F925F926F927F92A1
:102F0000EF92FF920F931F93CF93DF93CDB7DEB76E
:102F1000A1970FB6F894DEBF0FBECDBF7C01FA01BA
:102F2000CB0119A2223008F42AE08E010F5D1F4F59
:102F3000422E512C612C712CBF01A30192010E94E1
:102F4000661CF901CA01015011096A3014F4605D70
:102F500001C0695CD8016C93232B242B252B61F7CE
:102F6000B801C7010E944F17A1960FB6F894DEBFB3
:102F70000FBECDBFDF91CF911F910F91FF90EF90CA
:102F80007F906F905F904F9008952115310541F427
:102F9000DC01ED91FC910190F081E02D642F09940A
:102FA0000C947C179A01462F50E060E070E00C947E
:102FB000C5170F931F93CF93DF93EC019A01462F10
:102FC00050E060E070E00E94C5178C01CE010E94C5
:102FD0006617800F911FDF91CF911F910F91089578
:102FE00040917C0650917D0620917A0630917B06B7
:102FF00042175307B4F49091E8009570E1F3909173
:10300000E80092FD19C08093F10080917C069091B8
:103010007D0601968F739927892B19F48EEF809383
:10302000E80080917C0690917D06019690937D0644
:1030300080937C0681E0089580E00895CF92DF922E
:10304000EF92FF920F931F93CF93DF931F92CDB711
:10305000DEB7182F062FE42E862F880F8E5F9983F8
:103060000E94F01783E00E94F017F12EC12E998183
:10307000D92E8C2D8F19801798F4F601E7FE02C027
:10308000849101C080810E94F017182F80E00E9477
:10309000F0178123FFEFCF1ADF0A8111EACF01C0B9
:1030A00081E00F90DF91CF911F910F91FF90EF90F2
:1030B000DF90CF9008958091D70081608093D700F2
:1030C00080EA8093D80089B5806189BD89B5826026
:1030D00089BD09B400FEFDCF61E070E080E090E0C2
:1030E0000E94D8148091D8008F7C80618093D80092
:1030F0008091E000807F8093E0000895CF93DF937C
:103100001F92CDB7DEB71982CE0101960E94C71576
:103110000E943B17BE016F5F7F4F0E946F1689812F
:103120000F90DF91CF9108952FB7FC012083F89481
:1031300067706093E9000895CF93DF931F92CDB736
:10314000DEB7682FCE0101960E9494188091F2009C
:1031500099819FBF0F90DF91CF910895EF92FF92D9
:103160000F931F93CF93DF931F92CDB7DEB790914C
:103170008006992311F057FF03C08FEF9FEF29C0FE
:103180008A017B01682FCE0101960E9494188091DC
:10319000F20090E0A801801791070CF4AC01842F95
:1031A000F70194E6815030F0909381062091F10070
:1031B0002193F8CF4115510521F08091F200882329
:1031C00021F089818FBFCA0104C08BE68093E8009B
:1031D000F8CF0F90DF91CF911F910F91FF90EF905B
:1031E0000895CF93DF931F92CDB7DEB741E050E053
:1031F000BE016F5F7F4F0E94AE18019719F489815D
:1032000090E002C08FEF9FEF0F90DF91CF91089574
:10321000CF93DF931F92CDB7DEB7682FCE01019613
:103220000E9494189091E800892F807295FF04C045
:103230009091F2008FE3891B99819FBF0F90DF91DE
:10324000CF9108956F927F928F929F92AF92BF928B
:10325000CF92DF92EF92FF920F931F93CF93DF9362
:103260001F92CDB7DEB7A82E6B01B42E052F80912B
:103270008006811103C08FEF9FEF69C080917E06A9
:1032800080FF05C08091E00082608093E000EB2C1D
:10329000F02E8AEF982E8A2D8072782E9AE3892E4E
:1032A0008A2D8074682EE114F10409F447C08A2D38
:1032B0000E940819182F81110AC09A949920D9F2F6
:1032C00061E070E080E090E00E94D814ECCF90E0E4
:1032D000E816F9060CF41E2D6A2DCE0101960E9407
:1032E00094188091E80085FF26C0812F90E0E81AAD
:1032F000F90A772029F01150A8F01092F100FBCFC5
:10330000F601A7FE07C0115058F024912093F10058
:103310003196F9CF115020F021912093F100FACF8E
:10332000C80ED91E8091E80085FF0EC0E114F1049B
:1033300011F4611009C089818FBFB5CF84E68093F5
:1033400082068B2D902F03C08092E800F4CF0F905F
:10335000DF91CF911F910F91FF90EF90DF90CF9071
:10336000BF90AF909F908F907F906F900895109234
:10337000E90010927D0610927C0690937B06809364
:103380007A060895DF92EF92FF920F931F93CF93E7
:10339000DF93D82E8A017B01E40EF51EEB01CE15DA
:1033A000DF0571F0D7FE03C0FE01849101C0888162
:1033B0000E94F01721968111F2CF8FEF9FEF01C08D
:1033C000C801DF91CF911F910F91FF90EF90DF9097
:1033D0000895CF93DF93DC019B0184E6CBEF2115A9
:1033E0003105F1F0A9012134310514F040E450E039
:1033F0009091E80092FFFCCF942FFB01E21BF30BAE
:10340000EA0FFB1F915028F0D091F100D083319644
:10341000F9CF80938106C093E800241B350BDFCFE2
:10342000CB01DF91CF9108951F920F920FB60F92AB
:103430001124CF92DF92EF92FF920F931F932F935D
:103440003F934F935F936F937F938F939F93AF932C
:10345000BF93EF93FF93CF93DF93CDB7DEB76C9716
:10346000DEBFCDBF1092E9008091E80083FF2BC141
:10347000FE017596FE2E0F2F88E08E0F8E1729F015
:103480009091F10090833196F9CF84E68093810684
:1034900082EF8093E8002D8927FF05C08091E80026
:1034A00080FFFCCF03C08EEF8093E800822F8076F0
:1034B00009F0EEC03E894F89188D31110CC02038BB
:1034C00029F480917F068093F10002C01092F100F0
:1034D0001092F100F1C0E42FF0E0F12B313049F40B
:1034E0002111EAC0319709F0E7C080917F068D7FF6
:1034F0000AC0333059F42111DFC0319709F0DCC024
:1035000080917F06826080937F06D6C0353041F47B
:103510008091E80080FFFCCF40684093E300CCC07E
:10352000363009F08BC0CB8CDC8C123069F580E032
:1035300090E00E94B7190E947E1899E09E012F5FCB
:103540003F4F7901F901292F11922A95E9F79983C3
:103550001A8391E09E8390EA98879AEF9987209149
:103560007C0630917D06275F3F4F3C832B838D8304
:10357000C6010E94B71949E050E0B70180E00E94FF
:10358000C2190E947E1898C0C6010E94B7190E94F5
:103590003B176F2D702F0E949816009719F00CF0B2
:1035A0008BC08EC0113071F48B8D9C8D089719F4EF
:1035B00081E0809379068091790681112FC060EBBC
:1035C00073E031C0133009F07BC08F89882349F143
:1035D000823029F440E868E08DEC93E01CC0813033
:1035E00029F440E86AE082EC93E015C0833009F0EA
:1035F00067C00E943B178E010F5F1F4FB8010E94EA
:10360000B716F80101900020E9F73197BF01601B60
:10361000710B40E0C8010E941E184CC06EE973E0B7
:1036200002C066ED73E06115710509F449C0FB0144
:10363000449150E080E80E94C2193EC0373009F43E
:103640003FC0383021F481E08093F10035C039303B
:1036500099F52370A9F5E4E1F1E081E021E036E39A
:103660009081992361F08093E9002093EB00919180
:103670009093EC003093ED008F5F873089F78EE7F1
:103680008093EA001092EA008F898093800614C02C
:103690008B8D9C8D0E94B719898D811105C08F2D4E
:1036A000902F0E94D21506C00E943B176F2D702FDD
:1036B0000E94D616882321F08EEF8093E80003C085
:1036C00081E28093EB006C960FB6F894DEBF0FBEDC
:1036D000CDBFDF91CF91FF91EF91BF91AF919F91BE
:1036E0008F917F916F915F914F913F912F911F919A
:1036F0000F91FF90EF90DF90CF900F900FBE0F9043
:103700001F9018958093E9008091F200882319F0AA
:103710008AE38093E80008951F920F920FB60F92EC
:1037200011242F933F934F935F936F937F938F93C6
:103730009F93AF93BF93CF93EF93FF93C091E1001B
:103740008091E100837F8093E100C3FF0FC010925E
:10375000E90081E08093EB001092EC0082E380931B
:10376000ED001092800688E08093F000C2FF15C043
:1037700083E00E94821B80918206882329F0809139
:10378000820681508093820680918106882329F0E9
:1037900080918106815080938106C4FF10C0809182
:1037A000E2008E7E81608093E2008091E1008F7E56
:1037B0008093E10080917E068E7E806111C0C0FF03
:1037C00011C08091E2008E7E80618093E200809142
:1037D000E1008E7E8093E10080917E068E7E816086
:1037E00080937E06FF91EF91CF91BF91AF919F9112
:1037F0008F917F916F915F914F913F912F910F909A
:103800000FBE0F901F9018951092800610927F06A1
:1038100010927E060E945B188091E1008E7E80935C
:10382000E1008DE08093E200559A209AEEEFFFE7E9
:10383000859194918B3F9C4D19F481E080936B06A8
:1038400008958091E0008D7F8093E0008091E000FA
:1038500081FD08C080917E0680FF04C080917F06B4
:1038600081FD02C080E008950E945B188091E00015
:1038700082608093E00081E0089508950E9414150D
:103880000E943D1C88E796E00E94041C0E9496025C
:10389000C0E0D0E00E9461022097E1F30E940000A6
:1038A000F9CF0895AA1BBB1B51E107C0AA1FBB1F7C
:1038B000A617B70710F0A61BB70B881F991F5A95BC
:1038C000A9F780959095BC01CD010895A1E21A2E2B
:1038D000AA1BBB1BFD010DC0AA1FBB1FEE1FFF1FB4
:1038E000A217B307E407F50720F0A21BB30BE40B04
:1038F000F50B661F771F881F991F1A9469F760954B
:103900007095809590959B01AC01BD01CF01089504
:10391000EE0FFF1F0590F491E02D0994DC0101C02A
:103920006D9341505040E0F7089512E0C0E0D2E0BE
:1039300004C0FE010E94881C2196C130D107C9F73E
:04394000F894FFCF29
:103944003200010101FFFFFFFFFFFF00E100000063
:1039540000000000C180810000004B6579626F6146
:1039640072642E494F206B6579626F6172642064C2
:1039740072697665722076302E30300000000000C7
:103984005D0303040B0C13141A1B24252B2C333452
:103994003B3C02050A0D1215191C23262A2D32352B
:1039A4003A3D0106090E1116181D2227292E31361B
:1039B400393E0007080F10171F1E2120282F30370B
:1039C400383F00000000540E0C0E7B0EF00D00007A
:1039D40000003A0F000000007810000000000310FF
:1039E400A00FA10FA20FE90F000000005811A00FB3
:1039F4005D116411E90F000000000310A00FD11144
:103A0400A20FE90F000000000310A00FA10FE7119F
:103A1400E90F000000000310A00FA10FF311E90F3C
:103A2400000000000310A00FA10F3B12E90F0000DB
:103A340000000310A00FA10F7912E90F204B657944
:103A44003A20002076616C7565200052756E6E69AF
:103A54006E6720746573747300446F6E65207275AD
:103A64006E6E696E672074657374730000000000E5
:103A7400E412000000006A15B1159415A415801510
:103A840091150D0A006E616E00696E66006F7666B0
:043A9400002E000000
:107000005FC0000078C0000076C0000074C00000BF
:1070100072C0000070C000006EC000006CC00000B4
:107020006AC0000068C0000013C5000064C0000012
:1070300062C0000060C000005EC000005CC00000D4
:107040005AC00000F7C0000056C0000054C0000045
:1070500052C0000050C000004EC000004CC00000F4
:107060004AC0000048C0000046C0000044C0000004
:1070700042C0000040C000003EC000003CC0000014
:107080003AC0000038C0000036C0000034C0000024
:1070900032C0000030C000002EC000002CC0000034
:1070A0002AC0000028C0000026C00000973EB03E65
:1070B000573FB03E573FE83E0A3F573F2A3F3C3FCD
:1070C00011241FBECFEFDAE0DEBFCDBF11E0A0E09C
:1070D000B1E0E8E3FFE702C005900D92A63CB107DE
:1070E000D9F711E0A6ECB1E001C01D92A63DB107B1
:1070F000E1F754D31FC784CF84E08093E9008091E7
:10710000E80085FD0DC08091E8008B778093E80052
:107110008091E80082FDF3CF8EB38111F9CF02C0D8
:107120008091F100089593E09093E9009091E80038
:1071300095FF03C08093F10008959091E8009E7739
:107140009093E8009091E80090FDF4CF9EB39111E8
:10715000F9CF0895F89410926F0010928100109268
:1071600085001092840081E085BF15BE0C9400005C
:1071700008953E9A46988198809A899A8898000046
:10718000799B0AC08FE19EE40197F1F700C00000EF
:10719000799B02C03E98DEDF3E9808953F9A479A59
:1071A0004BD38FE99FE00197F1F700C0000044E066
:1071B0006EE071E080EB47D38FE99FE00197F1F734
:1071C00000C0000045E064E071E080EB3CD38FE953
:1071D0009FE00197F1F700C0000042E062E071E03B
:1071E00080EB31C384B7877F84BF88E10FB6F89402
:1071F00080936000109260000FBE90E880E00FB6B0
:10720000F89490936100809361000FBE81E085BF88
:1072100082E085BFE1E6F0E0908310821092890061
:107220009AEF9093880080936F0083E080938100B1
:10723000B5DFF6C31F920F920FB60F9211242F9352
:107240008F939F93EF93FF93109285001092840089
:10725000E0E0F0E085919491019649F08091C601BB
:107260009091C70101969093C7018093C601FF9149
:10727000EF919F918F912F910F900FBE0F901F90C4
:10728000189542E061EC82E060D342E161E883E07E
:107290005CD342E160E884E058C38091CE01982F2E
:1072A0009F77913239F59091CF01903291F09132E0
:1072B00009F5813AF9F48091E800877F8093E8002E
:1072C00067E070E083E191E074D48091E8008B770F
:1072D0000FC0813279F48091E800877F8093E800C5
:1072E00067E070E083E191E0C1D48091E8008E779F
:1072F0008093E80008956F927F928F929F92AF9251
:10730000BF92CF92DF92EF92FF920F931F93CF9392
:10731000DF9384E08093E9008091E80082FF2FC230
:10732000EBDEC82F45E064E071E080EB8CD2C53421
:1073300081F48CE49DE19093C7018093C60107B668
:1073400000FCFDCFF999FECF81E180935700E895CD
:1073500003C0C43521F4D0DE8DE0E5DEE2C1CC34DB
:10736000D9F3C035C9F3C43721F484E4DCDE80E00E
:10737000F4CFC13611F489E5F0CFC13491F4BCDE0D
:10738000C82FBADE90E0880F991F2C2F30E0322FE3
:107390002227330F822B932BAA2797FDA095BA2F74
:1073A00094C1C03711F483E5D8CFC33549F4CCEB91
:1073B000D1E01C2F195F8991B6DE1C13FCCFB1C13F
:1073C000C63521F481E3AFDE80E3C7CFC33731F4A4
:1073D00087E8A9DE85E9A7DE8EE1BFCFC536B9F41F
:1073E000E0E0F0E083E095E080935700E89507B691
:1073F00000FCFDCF90935700E89507B600FCFDCF49
:10740000E058FF4FE11520E7F20771F7A5CFC2372B
:1074100019F4E1E0F0E00EC0C63419F4E0E0F0E069
:1074200009C0CE3419F4E3E0F0E004C0C13539F40A
:10743000E2E0F0E089E08093570084918ECFC2367D
:1074400031F489E570DE80E06EDE80E886CFC234FC
:1074500019F0C73609F0D1C01092C7011092C601C9
:107460004BDE082F49DED82F47DE182F8BEB810F1C
:10747000823010F08FE371CF2D2F30E0302B10923F
:107480006F00C73609F043C081E180935700E8954B
:10749000E90100E0BB24B394209709F4AAC0C0908E
:1074A000C801D090C901E090CA01F090CB01163418
:1074B000B9F4E02FF0E0EC29FD29849134DE0023BB
:1074C00069F082E0C80ED11CE11CF11CC092C80119
:1074D000D092C901E092CA01F092CB010B2515C0F0
:1074E000D701C601B695A795979587950DD51BDE53
:1074F000E2E0CE0ED11CE11CF11CC092C801D0927A
:10750000C901E092CA01F092CB012197C5CF8090CA
:10751000C8019090C901A090CA01B090CB01163467
:1075200041F483E0F40180935700E89507B600FC2E
:10753000FDCFE901712C00E066246394209709F4E3
:107540004CC0163431F5002301F1C090C801D09031
:10755000C901E090CA01F090CB01CEDD272D30E0CB
:10756000382BF601090160925700E8951124F2E0EA
:10757000CF0ED11CE11CF11CC092C801D092C901F0
:10758000E092CA01F092CB0102C0B6DD782E06254A
:1075900022C0B2DD682F8091C8019091C901A091ED
:1075A000CA01B091CB01B695A79597958795B4D4AC
:1075B0008091C8019091C901A091CA01B091CB01FD
:1075C0000296A11DB11D8093C8019093C901A0939B
:1075D000CA01B093CB012197B1CF163441F485E0B5
:1075E000F40180935700E89507B600FCFDCF8DE0CD
:1075F0009ADD82E080936F0094C0C33471F4C0912F
:10760000C801D091C90178DD90E021E0FE010C01B4
:1076100020935700E89511249FCEC33601F5C09002
:10762000C801D090C901E090CA01F090CB0164DD9F
:10763000F601E16090E021E00C0120935700E8950D
:107640001124F2E0CF0ED11CE11CF11CC092C80144
:10765000D092C901E092CA01F092CB017DCECD3625
:1076600061F4E091C801F091C90185E08093570071
:10767000E89507B600FCFDCF6FCEC23551F4E0911E
:10768000C801F091C901C591D4918D2F4CDD8C2F8B
:1076900064CEC43419F530DD682F8091C801909113
:1076A000C901A091CA01B091CB01B695A795979554
:1076B000879532D48091C8019091C901A091CA01E7
:1076C000B091CB010296A11DB11D8093C80190938A
:1076D000C901A093CA01B093CB013ECEC436F1F4E8
:1076E000C090C801D090C901E090CA01F090CB01D0
:1076F000D701C601B695A7959795879505D413DD53
:1077000022E0C20ED11CE11CF11CC092C801D09233
:10771000C901E092CA01F092CB0103C0CB3109F05C
:10772000A9CE45E069E071E080EB8DD083E08093E5
:10773000E9009091E8008091E8008E778093E8005E
:1077400095FD11C08091E80080FD04C08EB38111C9
:10775000F9CF15C08091E8008E778093E80003C0D0
:107760008EB3882361F08091E80080FFF9CF84E038
:107770008093E9008091E8008B778093E800DF91A7
:10778000CF911F910F91FF90EF90DF90CF90BF901E
:10779000AF909F908F907F906F90089520910008F8
:1077A00030910108109201081092000884B714BEAD
:1077B00098E10FB6F89490936000109260000FBEAD
:1077C00080FF09C0E0E0F0E0459154914F3F5F4FEA
:1077D00011F0C0DC12C081FD10C083FF0DC080918C
:1077E0000001909101012817390731F0E0E0F0E045
:1077F00085919491019669F7BCDCF4DC7894109241
:10780000C7011092C60180911201882361F073DDD7
:1078100064D38091C6019091C70181349F4198F350
:1078200010921201F0CF8091E00081608093E0001F
:1078300091DC80E090E0089584E08093BC0080E1DA
:107840008093B800089594EA9093BC009091BC0096
:1078500097FFFCCF9091B9009830C9F58E7F809347
:10786000BB0084E88093BC008091BC0087FFFCCF04
:107870008091B900883159F550E0FB0184E841302E
:10788000510581F091919093BB008093BC00909141
:10789000BC0097FFFCCF9091B9004150510998323C
:1078A00071F315C080818093BB0084E88093BC0095
:1078B0008091BC0087FFFCCF8091B900803339F400
:1078C00084E98093BC0090E081E08927089584E9F1
:1078D0008093BC0091E0F8CF292F30E022303105B1
:1078E00059F02330310569F02130310531F582E15D
:1078F00090E02AEA31E025C08EE390E02CE631E00A
:1079000020C0882359F0813071F0823089F08330B3
:10791000A1F48EE090E02AE131E013C084E090E031
:1079200028E631E00EC082E290E024E431E009C0B4
:1079300088E190E02AE231E004C080E090E020E0BD
:1079400030E0FA013183208308958093E900EBEE63
:10795000F0E0808181608083EDEEF0E01082609342
:10796000EC0040838091EE00881F8827881F0895CF
:107970008091CE0187FF0FC08091E80082FD04C096
:107980008EB38111F9CF10C08091E8008B770AC0C7
:107990008EB3882349F08091E80080FFF9CF809171
:1079A000E8008E778093E80008950F931F93CF939C
:1079B000DF9341D048D0C8EDD0E088818F778883AD
:1079C00088818068888388818F7D888319BC1EBAEE
:1079D0001092CC0100EE10E0F80180818B7F808353
:1079E00088818160888342E060E080E0AEDFE1EE84
:1079F000F0E080818E7F8083E2EEF0E08081816024
:107A00008083808188608083F80180818E7F80837D
:107A1000888180618883DF91CF911F910F910895B4
:107A2000E7EDF0E08081816080838AE482BF81E0BD
:107A30008093CD01BACFE8EDF0E080818E7F808326
:107A40001092E20008951092DA001092E100089579
:107A50001F920F920FB60F9211242F933F934F93C3
:107A60005F936F937F938F939F93AF93BF93EF93A6
:107A7000FF938091DA0080FF1BC08091D80080FFC7
:107A800017C08091DA008E7F8093DA008091D90050
:107A900080FF0BC080E189BD82E189BD09B400FE91
:107AA000FDCF81E08EBB18D203C019BC1EBA14D220
:107AB0008091E10080FF17C08091E20080FF13C039
:107AC0008091E2008E7F8093E2008091E2008061ED
:107AD0008093E2008091D80080628093D80019BC26
:107AE00085E08EBBF9D18091E10084FF2CC08091AC
:107AF000E20084FF28C080E189BD82E189BD09B42C
:107B000000FEFDCF8091D8008F7D8093D8008091BA
:107B1000E1008F7E8093E1008091E2008F7E809370
:107B2000E2008091E20081608093E2008091CC01CC
:107B3000811106C08091E30087FD02C081E001C091
:107B400084E08EBBC9D18091E10083FF21C0809188
:107B5000E20083FF1DC08091E100877F8093E100F8
:107B600082E08EBB1092CC018091E1008E7F8093E9
:107B7000E1008091E2008E7F8093E2008091E2003C
:107B800080618093E20042E060E080E0DEDEA4D12C
:107B9000FF91EF91BF91AF919F918F917F916F91E5
:107BA0005F914F913F912F910F900FBE0F901F90BB
:107BB00018952091D4013091D5012617370748F048
:107BC0006115710539F42091E8002E772093E800C3
:107BD00001C0B90140E061157105A1F12EB3222366
:107BE00009F440C0253009F43FC02091E80023FD8E
:107BF00037C02091E80022FD2DC02091E80020FF31
:107C0000EACF4091F3002091F20030E0342BFC01E8
:107C1000CF016115710559F02830310540F481918B
:107C20008093F100615071092F5F3F4FF1CF41E028
:107C30002830310509F040E02091E8002E772093AC
:107C4000E800C9CF4111CACF05C08EB3882351F0D7
:107C5000853051F08091E80082FFF7CF80E00895F1
:107C600081E0089582E0089583E00895611571052B
:107C700029F42091E8002B772093E800FC0161159E
:107C8000710531F18EB3882359F1853059F1809116
:107C9000E80083FD23C08091E80082FFF0CF2091AF
:107CA000F3008091F20090E0922B892B31F08091CB
:107CB000F10081936150710991F78091E8008B7711
:107CC0008093E800DCCF8EB3882351F0853051F0EB
:107CD0008091E80080FFF7CF80E0089581E008956B
:107CE00082E0089583E008950F931F93CF93DF936D
:107CF00000D0CDB7DEB7EEECF1E088E08E0F9091CA
:107D0000F10091938E13FBCFC8DA8091E80083FFD6
:107D1000CEC08091CE019091CF01492F50E04A30E2
:107D2000510508F0C4C0FA01EA5AF74CE7C082389E
:107D300009F0BDC08091D20187708093E9008091E5
:107D4000EB001092E9009091E800977F9093E80093
:107D500085FB882780F98093F1001092F10085C09F
:107D6000282F2D7F09F0A3C0823009F0A0C0809198
:107D7000D001811127C08091D201877009F497C08A
:107D80008093E9002091EB0020FF1CC0933021F488
:107D90008091EB00806214C09091EB009061909311
:107DA000EB0021E030E0A90102C0440F551F8A9585
:107DB000E2F74093EA001092EA008091EB008860BD
:107DC0008093EB001092E9008091E800877F50C01B
:107DD00081116DC01091D0011F770FB7F894809179
:107DE000E800877F8093E800C3DD8091E80080FF92
:107DF000FCCF8091E3008078812B8093E300806842
:107E00008093E300111102C082E001C083E08EBBC9
:107E10000FBF4DC08058823008F049C0AE014F5F9F
:107E20005F4F6091D2018091D0019091D10154DDDA
:107E3000BC01892B09F43BC09091E800977F909397
:107E4000E80089819A81B5DE8091E8008B77809384
:107E5000E8002DC0803859F58091E800877F809335
:107E6000E8008091CC018093F1008091E8008E774A
:107E70008093E8007DDD1BC0811119C09091D00175
:107E80009230A8F48091E800877F8093E800909377
:107E9000CC016EDD8091CC01811106C08091E300A0
:107EA00087FD02C081E001C084E08EBBEAD98091E9
:107EB000E80083FF0AC08091EB0080628093EB00B2
:107EC0008091E800877F8093E8000F900F90DF910A
:107ED000CF911F910F9108950895CF938EB388236A
:107EE00059F0C091E900C7701092E9008091E80054
:107EF00083FDFADEC093E900CF910895EE0FFF1FD6
:107F00000590F491E02D0994F999FECF92BD81BDC1
:107F1000F89A992780B50895262FF999FECF1FBAB0
:107F200092BD81BD20BD0FB6F894FA9AF99A0FBEA2
:087F300001960895F894FFCFBB
:107F38007777060504030000FF0403FF0000030031
:107F4800000001000000000000080E036B00620042
:107F580069006F0030003100000018034B00650015
:107F6800790062006F0061007200640069006F00B0
:107F78002000000022034D006F00640065006C00C3
:107F880020003000310020002000200020002000C8
:107F980020002000200000000403090409023E001C
:107FA80002010080320904000001020201000524D8
:107FB80000100104240204052406000107058203B9
:107FC8000800FF09040100020A0000000705040276
:107FD80010000107058302100001120110010200C0
:107FE800000809120023010002010301434154451E
:067FF80052494E41000059
:040000030000700089
:00000001FF
