:100000000C94E5000C940D010C940D010C940D0161
:100010000C940D010C940D010C940D010C940D0128
:100020000C940D010C940D010C94D8090C946708E4
:100030000C940D010C940D010C940D010C940D0108
:100040000C940D010C940D010C940D010C940D01F8
:100050000C940D010C940D010C940D010C946D0485
:100060000C940D010C940D010C940D010C940D01D8
:100070000C940D010C940D010C940D010C940D01C8
:100080000C940D010C940D010C940D010C940D01B8
:100090000C94DA020C940D010C940D010C940D01DA
:1000A0000C940D010C940D010C940D01860589052D
:1000B00078057C058205AA05AA05AA058D05910586
:1000C00095059B059F05AA05A505000000020009EE
:1000D0000F0000030401000C0000000000000000FD
:1000E0000000000000000000000408020110408031
:1000F000401020408040800802040180402010020F
:10010000011080102040402004040404040304056E
:1001100002020202040302020202060606060606A4
:100120000404020202040400000000250028002B41
:10013000002E00310000000000240027002A002DBE
:1001400000300012010002EF0201400912012300F9
:100150000101020301120100020000004009120126
:10016000230001010203014B6579626F61726469CA
:100170006F004D6F64656C20303100040309040882
:100180000B0002020201000904000001020200004B
:1001900005240010010524010101042402060524A0
:1001A0000600010705810310004009040100020A4E
:1001B000000000070502024000000705830240001E
:1001C000000064013402660B690111241FBECFEFE9
:1001D000DAE0DEBFCDBF11E0A0E0B1E0EEE4F8E18F
:1001E00002C005900D92A433B107D9F722E0A4E331
:1001F000B1E001C01D92AB3DB207E1F710E0C4EEE3
:10020000D0E004C02197FE010E94140CC13ED1072A
:10021000C9F70E9418060C941A0C0C94000061E0B7
:100220008DE00E94AB0561E08DE00E94E70561E092
:1002300087E00E94AB0560E087E00E94E7058FEF52
:1002400080933A0180933F01E7E3F1E0108211824D
:100250001282E4E3F1E086E48083818382838AEA88
:1002600091E00E94080264E670E080E090E00E9465
:10027000DC0466E080E491E00E94200464E670E023
:1002800080E090E00C94DC04409134015091350101
:100290006091360180E491E00E943B0464E670E0E6
:1002A00080E090E00E94DC044091370150913801D9
:1002B0006091390180E491E00E943B0464E670E0C3
:1002C00080E090E00C94DC0460E080E491E00C9429
:1002D0000F0480E491E00C940E048091DA0190E028
:1002E0002091DB01821B910908959091DB0180919F
:1002F000DA01981750F4E92FF0E0E452FE4F208124
:1003000030E09F5F9093DB0102C02FEF3FEFC90108
:100310000895E091DB018091DA01E81730F4F0E014
:10032000E452FE4F808190E008958FEF9FEF089593
:100330000895CF92DF92EF92FF920F931F93CF9386
:10034000DF937C01262F972F8A018091B6018823A5
:1003500091F0C62FD72F6E01C40ED51ECC15DD052A
:1003600071F06991D701ED91FC910190F081E02D40
:10037000C7010995F3CF642F822F0E94A202C80102
:10038000DF91CF911F910F91FF90EF90DF90CF9071
:100390000895CF93DF931F92CDB7DEB76983209185
:1003A000B6012223D1F02091B701203240F021E0A4
:1003B00030E0FC013383228380E090E015C080911F
:1003C000B801E82FF0E0E754FE4F998190838F5FEA
:1003D0008093B8018093B70105C061E0CE0101961A
:1003E0000E94A20281E090E00F90DF91CF910895EA
:1003F000FC011382128288EE93E0A0E0B0E08483D7
:100400009583A683B78387E191E0918380830895E4
:100410001092DB011092DA011092B8011092B7012C
:100420000C94380281E08093B6016093D901109258
:10043000B8011092B70108950C9412020F93062F81
:1004400021E04091B70169EB71E08091D9010E94F0
:1004500050021092B8011092B7011092B6010F919C
:10046000089561E00C941E028AEA91E00C94F80170
:100470001092690281E08093670210926602589A96
:10048000599AE9EBF0E080818E7F808380818D7FB7
:10049000808388E48093B80085E48093BC0008954D
:1004A0000F93413208F04AC0909169029111FCCF3C
:1004B00032E030936902009367023FEF3093FC0112
:1004C0001092410240934002FB0162E472E0DB01C2
:1004D0003A2F361B341718F431913D93F9CF10920F
:1004E000680230916802880F832B809368028091A4
:1004F0006602813061F410926602809168028093F6
:10050000BB008091BC0083FDF8CF85EC01C085EE77
:100510008093BC00222321F0809169028230D1F3C4
:100520008091FC01803331F08F3F49F0803221F41B
:1005300092E005C093E003C094E001C091E0892FF0
:100540000F91089540911E02262F30E0240F311D97
:1005500021323105DCF4209169022430C9F4FC0118
:1005600080E090E0861758F430911E022191DC0162
:10057000A05EBD4FA30FB11D2C930196F3CF8091C8
:100580001E02680F60931E0280E0089581E00895C6
:1005900082E0089585ED8093BC008091BC0084FDCD
:1005A000FCCF10926902089585EC8093BC001092F4
:1005B000690208951F920F920FB60F9211242F9384
:1005C0003F934F935F936F937F938F939F93AF93DB
:1005D000BF93EF93FF938091B900887F803609F431
:1005E0009EC078F5883209F45DC090F4803109F43A
:1005F00056C038F4882309F4F5C0883009F44FC098
:10060000F5C0883109F44EC0803209F45FC0EEC0F5
:10061000803409F46AC058F4803309F457C0883331
:1006200009F0E4C08093FC010E94D402DFC0803551
:1006300009F44FC0883509F45DC0883409F0D6C08C
:10064000D3C0883909F4C4C0A8F4883709F467C056
:1006500038F4883609F463C0803709F460C0C6C036
:10066000883809F4B5C0803909F45FC0803809F0D2
:10067000BDC05BC0803B09F483C038F4803A09F404
:1006800066C0883A09F47CC0B1C0803C09F4A4C0BB
:10069000883C09F4A1C0883B09F487C0A7C08091B9
:1006A000680210C09091410280914002981770F545
:1006B000E091410281E08E0F80934102F0E0EE5B19
:1006C000FD4F80818093BB0085EC83C08093FC014B
:1006D0008BC0E091410281E08E0F809341028091B6
:1006E000BB00F0E0EE5BFD4F808390914102809172
:1006F00040026BC0E091410281E08E0F8093410285
:100700008091BB00F0E0EE5BFD4F8083809167023B
:1007100081116AC081E08093660284EA5EC083E052
:10072000809369021092FD01CFCF8091FD0180324C
:1007300008F04EC0E091FD0181E08E0F8093FD0135
:100740008091BB00F0E0E250FE4F8083BDCF0E945D
:10075000D4028091FD01803230F4E091FD01F0E09F
:10076000E250FE4F10826091FD0170E0E091620264
:10077000F09163028EEF91E009951092FD0136C071
:1007800084E08093690210921F0210921E02E09191
:100790006402F0916502099580911E02811105C0E5
:1007A00081E080931E0210922002E0911F0281E0FE
:1007B0008E0F80931F02F0E0E05EFD4F80818093FA
:1007C000BB0090911F0280911E02981708F47CCF05
:1007D00085E88093BC000AC085EC8093BC00109231
:1007E000690204C01092FC010E94CA02FF91EF91BD
:1007F000BF91AF919F918F917F916F915F914F9139
:100800003F912F910F900FBE0F901F901895DC0114
:10081000ED91FC910190F081E02D09940895FC0187
:10082000E859FF4F1082319610823797262F30E01B
:10083000318320833297686570E071836083089507
:10084000CF93C62FFC01E05AFF4F608171818AEA85
:1008500091E00E941C0266E070E08AEA91E00E944A
:1008600007046C2F8AEA91E00E94C9018AEA91E0AC
:10087000CF910C9431021F93CF93DF9300D0CDB76B
:10088000DEB7162FFC01E05AFF4F608171818AEAC2
:1008900091E04A8359830E941C0263E070E08AEA77
:1008A00091E00E940704612F8AEA91E00E94C90149
:1008B0005981652F8AEA91E00E94C9014A81642F1B
:1008C0008AEA91E00E94C9018AEA91E00F900F90B4
:1008D000DF91CF911F910C9431021F920F920FB6AE
:1008E0000F9211242F933F938F939F93AF93BF93B6
:1008F00080916B0290916C02A0916D02B0916E029A
:1009000030916A0223E0230F2D3720F40196A11DB8
:10091000B11D05C026E8230F0296A11DB11D20932D
:100920006A0280936B0290936C02A0936D02B09365
:100930006E0280916F0290917002A0917102B0914D
:1009400072020196A11DB11D80936F0290937002F7
:10095000A0937102B0937202BF91AF919F918F915A
:100960003F912F910F900FBE0F901F9018953FB79A
:10097000F89480916F0290917002A0917102B091F1
:10098000720226B5A89B05C02F3F19F00196A11D44
:10099000B11D3FBFBA2FA92F982F8827820F911D15
:1009A000A11DB11DBC01CD0142E0660F771F881F5C
:1009B000991F4A95D1F708958F929F92AF92BF9257
:1009C000CF92DF92EF92FF926B017C010E94B704FD
:1009D0004B015C01C114D104E104F10401F10E9456
:1009E0002B060E94B704DC01CB0188199909AA09DA
:1009F000BB09883E9340A105B10560F321E0C21A0E
:100A0000D108E108F10888EE880E83E0981EA11C49
:100A1000B11CC114D104E104F10419F7DBCFFF903C
:100A2000EF90DF90CF90BF90AF909F908F90089500
:100A3000789484B5826084BD84B5816084BD85B5B9
:100A4000826085BD85B5816085BDEEE6F0E0808180
:100A500081608083E1E8F0E01082808182608083A1
:100A6000808181608083E0E8F0E080818160808324
:100A7000E1E9F0E080818260808380818160808311
:100A8000E0E9F0E0808181608083E1ECF0E080814A
:100A900084608083808182608083808181608083A4
:100AA000E3ECF0E0808181608083E0ECF0E0808125
:100AB00082608083E2ECF0E0808181608083EAE7FD
:100AC000F0E0808184608083808182608083808187
:100AD00081608083808180688083089590E0FC013C
:100AE0003197EF30F105B0F5EA5AFF4F0C94140C32
:100AF000809180008F7703C0809180008F7D8093EC
:100B00008000089580918000877FF9CF84B58F772A
:100B100002C084B58F7D84BD0895809190008F7749
:100B200007C0809190008F7D03C080919000877FE7
:100B30008093900008958091C0008F7703C08091CA
:100B4000C0008F7D8093C00008958091C200877F90
:100B50008093C2000895CF93DF9390E0FC01E751AA
:100B6000FF4F2491FC01E85FFE4F8491882361F1DF
:100B700090E0880F991FFC01EB5CFE4FC591D4916A
:100B8000FC01E95DFE4FA591B491611109C09FB7C9
:100B9000F8948881209582238883EC912E230BC0C2
:100BA000623061F49FB7F8943881822F8095832357
:100BB0008883EC912E2B2C939FBF06C08FB7F8949F
:100BC000E8812E2B28838FBFDF91CF9108951F934B
:100BD000CF93DF93282F30E0F901E653FF4F849144
:100BE000F901E751FF4FD491F901E85FFE4FC4913D
:100BF000CC23C9F0162F81110E946E05EC2FF0E076
:100C0000EE0FFF1FE95DFE4FA591B4918FB7F894E9
:100C1000111105C09C91ED2FE095E92302C0EC91E4
:100C2000ED2BEC938FBFDF91CF911F910895089525
:100C30000E9418050E94170683E792E00E94590A55
:100C40000E940F01C0E0D0E00E9444012097E1F330
:100C50000E940000F9CF0895615030F02091F1001A
:100C6000FC0120830196F8CF289884E680937C02CB
:100C70000895409177025091780220917502309149
:100C8000760242175307B4F49091E8009570E1F3AF
:100C90009091E80092FD19C08093F1008091770255
:100CA0009091780201968F739927892B19F48EEF12
:100CB0008093E8008091770290917802019690935A
:100CC00078028093770281E0089580E00895CF92C2
:100CD000DF92EF92FF920F931F93CF93DF931F92B8
:100CE000CDB7DEB7182F062FE42E862F880F8E5F24
:100CF00099830E94390683E00E943906F12EC12EA5
:100D00009981D92E8C2D8F19801798F4F601E7FE62
:100D100002C0849101C080810E943906182F80E0B2
:100D20000E9439068123FFEFCF1ADF0A8111EACF33
:100D300001C081E00F90DF91CF911F910F91FF9043
:100D4000EF90DF90CF9008958091D70081608093DD
:100D5000D70080EA8093D80089B5806189BD89B5C4
:100D6000826089BD09B400FEFDCF61E070E080E0E3
:100D700090E00E94DC048091D8008F7C8061809399
:100D8000D8008091E000807F8093E0000895CF93A9
:100D9000DF931F92CDB7DEB71982CE0101960E9474
:100DA000D30A0E94000CBE016F5F7F4F0E947B0B35
:100DB00089810F90DF91CF9108952FB7FC01208397
:100DC000F89467706093E9000895CF93DF931F92C2
:100DD000CDB7DEB7682FCE0101960E94DD06809167
:100DE000F20099819FBF0F90DF91CF910895EF920C
:100DF000FF920F931F93CF93DF931F92CDB7DEB770
:100E000090917B02992311F057FF03C08FEF9FEF62
:100E10002AC08A017B01682FCE0101960E94DD065F
:100E20008091F20090E0A801801791070CF4AC01CA
:100E3000842FF70194E6815038F0289890937C0233
:100E40002091F1002193F7CF4115510521F08091B8
:100E5000F200882321F089818FBFCA0104C08BE68C
:100E60008093E800F8CF0F90DF91CF911F910F9101
:100E7000FF90EF900895CF93DF931F92CDB7DEB729
:100E800041E050E0BE016F5F7F4F0E94F70601977F
:100E900019F4898190E002C08FEF9FEF0F90DF91EE
:100EA000CF910895CF93DF931F92CDB7DEB7682F10
:100EB000CE0101960E94DD069091E800892F807294
:100EC00095FF04C09091F2008FE3891B99819FBF29
:100ED0000F90DF91CF9108956F927F928F929F92A2
:100EE000AF92BF92CF92DF92EF92FF920F931F9338
:100EF000CF93DF931F92CDB7DEB7A82E6B01B42E30
:100F0000052F80917B02811103C08FEF9FEF6AC094
:100F10008091790280FF05C08091E000826080931B
:100F2000E000EB2CF02E8AEF982E8A2D8072782E1E
:100F30009AE3892E8A2D8074682EE114F10409F455
:100F400047C08A2D0E945207182F81110AC09A9417
:100F50009920D9F261E070E080E090E00E94DC042A
:100F6000ECCF90E0E816F9060CF41E2D6A2DCE01A8
:100F700001960E94DD068091E80085FF26C0812F42
:100F800090E0E81AF90A772029F01150A8F01092A1
:100F9000F100FBCFF601A7FE07C0115058F02491D5
:100FA0002093F1003196F9CF115020F02191209338
:100FB000F100FACFC80ED91E8091E80085FF0FC05E
:100FC000E114F10411F461100AC089818FBFB5CF1B
:100FD0005D9884E680937D028B2D902F03C08092D4
:100FE000E800F3CF0F90DF91CF911F910F91FF9009
:100FF000EF90DF90CF90BF90AF909F908F907F90B9
:101000006F9008951092E900109278021092770282
:1010100090937602809375020895DF92EF92FF928B
:101020000F931F93CF93DF93D82E8A017B01E40E99
:10103000F51EEB01CE15DF0571F0D7FE03C0FE01F2
:10104000849101C088810E94390621968111F2CFD6
:101050008FEF9FEF01C0C801DF91CF911F910F91DA
:10106000FF90EF90DF900895BF92CF92DF92EF92C2
:10107000FF920F931F93CF93DF936C018B01EB01D2
:101080009BEFB92E2097C1F07E01C134D1051CF031
:1010900080E4E82EF12C8091E80082FFFCCFC801AB
:1010A0008C1B9D0B6E2D8C0D9D1D0E942C06B092ED
:1010B000E800CE19DF09E6CFC801DF91CF911F917B
:1010C0000F91FF90EF90DF90CF90BF9008951F9207
:1010D0000F920FB60F921124CF92DF92EF92FF92F0
:1010E0000F931F932F933F934F935F936F937F9330
:1010F0008F939F93AF93BF93EF93FF93CF93DF9320
:10110000CDB7DEB76C97DEBFCDBF1092E9008091FE
:10111000E80083FF24C168E0CE0145960E942C06BA
:1011200082EF8093E8008D8987FF05C09091E800E9
:1011300090FFFCCF03C09EEF9093E800982F90762D
:1011400009F0F1C09E892F89188D91110CC080384B
:1011500029F480917A028093F10002C01092F1008C
:101160001092F100F5C0422F50E0512B913051F414
:101170008111EEC04130510509F0EAC080917A0238
:101180008D7F0BC0933061F48111E2C04130510575
:1011900009F0DEC080917A02826080937A02D8C022
:1011A000953041F48091E80080FFFCCF20682093C7
:1011B000E300CEC0963009F08CC0EB8CFC8C123072
:1011C00069F580E090E00E9402080E94C70699E05D
:1011D0009E012F5F3F4F6901F901292F11922A9536
:1011E000E9F799831A8391E09E8390EA98879AEFB2
:1011F00099872091770230917802275F3F4F3C8397
:101200002B838D83C7010E94020849E050E0B6019C
:1012100080E00E940D080E94C7069AC0C7010E9484
:1012200002080E94000CBE016B5E7F4F0E94A40B5F
:10123000009719F00CF08CC08FC0113071F48B8DB9
:101240009C8D089719F481E0809374028091740258
:1012500081112FC065E571E031C0133009F07CC009
:101260008F89882349F1823029F440E868E082E7D9
:1012700091E006C0813039F440E86AE087E691E009
:101280000E94670663C0833009F066C00E94000CAC
:101290008E010F5F1F4FB8010E94C30BF801019030
:1012A0000020E9F73197BF01601B710B40E0C801D6
:1012B000E7CF63E471E002C06BE771E0611571058F
:1012C00009F44AC0FB01449150E080E80E940D08F7
:1012D0003FC0973009F440C0983021F481E08093FA
:1012E000F10036C09930A1F58370B1F5E1E0F1E08D
:1012F00081E021E036E39081992361F08093E90059
:101300002093EB0091919093EC003093ED008F5F70
:10131000873089F78EE78093EA001092EA008F8980
:1013200080937B0215C08B8D9C8D0E940208898D55
:10133000811105C0CE0145960E94DE0A07C00E94B9
:10134000000CBE016B5E7F4F0E94E20B882321F0F0
:101350008EEF8093E80003C081E28093EB006C96EF
:101360000FB6F894DEBF0FBECDBFDF91CF91FF91D6
:10137000EF91BF91AF919F918F917F916F915F910D
:101380004F913F912F911F910F91FF90EF90DF9020
:10139000CF900F900FBE0F901F9018958093E9008B
:1013A0008091F200882319F08AE38093E800089581
:1013B0001F920F920FB60F9211242F933F934F93CA
:1013C0005F936F937F938F939F93AF93BF93CF93CD
:1013D000EF93FF93C091E1008091E100837F8093C0
:1013E000E100C3FF0FC01092E90081E08093EB00A1
:1013F0001092EC0082E38093ED0010927B0288E073
:101400008093F000C2FF19C083E00E94CE09809152
:101410007D02882339F080917D02815080937D0286
:10142000882389F180917C02882339F080917C02A5
:10143000815080937C02882341F1C4FF10C08091C9
:10144000E2008E7E81608093E2008091E1008F7ED9
:101450008093E100809179028E7E806111C0C0FF8F
:1014600016C08091E2008E7E80618093E2008091C0
:10147000E1008E7E8093E100809179028E7E816012
:101480008093790204C05D9ACDCF289AD6CFFF9180
:10149000EF91CF91BF91AF919F918F917F916F917C
:1014A0005F914F913F912F910F900FBE0F901F9022
:1014B000189510927B0210927A02109279020E9483
:1014C000A4068091E1008E7E8093E1008DE0809300
:1014D000E200559A209AEEEFFFE7859194918B3FB9
:1014E0009C4D19F481E08093CE020895CF93DF9351
:1014F0001F92CDB7DEB76983DC01ED91FC910280CC
:10150000F381E02D41E050E0BE016F5F7F4F099510
:101510000F90DF91CF910895CF93DF93EC018C85ED
:101520009D8597FF05C082E00E943B079D878C87C1
:101530008C859D85DF91CF91089583E00C94CE0931
:10154000FC018485958597FD06C082E00E94E50632
:1015500090E00196089582E00E94E50690E00895EB
:10156000FC018485958597FD05C02FEF3FEF3587FA
:101570002487089582E00C943B07CF93DF93EC011E
:1015800080911201882331F083E00E946C071816C5
:10159000190634F081E090E09B838A8380E090E03C
:1015A000DF91CF910895FC0190819E5F908342E48A
:1015B00050E06FE771E080E80C940D08FC01818138
:1015C0009081913A59F4813209F048C047E050E0E7
:1015D0006BE071E080E00E940D0876C09132F1F579
:1015E000833291F49381892F90E0982F882722816C
:1015F000822BA0E0B0E08093070190930801A093B4
:101600000901B0930A0160C0803239F467E070E0EC
:101610008BE091E00E94340806C0823209F054C089
:101620008281809312018091CE02882319F0EEEF1F
:10163000FAE002C0E0E0F8E080910B0190910C012B
:10164000A0910D01B0910E01803B9440A105B10520
:1016500039F48091120180FF1FC002C080E008951C
:101660000FB6F894A895809160008861809360001F
:10167000109260000FBEA895EE3F8AE0F80739F09F
:101680008091FE0A9091FF0A918380831DC0109281
:10169000FF0A1092FE0A18C0EE3F2AE0F20731F06E
:1016A000808191819093FF0A8093FE0A87E797E7F4
:1016B000918380839BE088E10FB6F894A89580938E
:1016C00060000FBE9093600081E00895EEE7F2E0C5
:1016D0001382128288EE93E0A0E0B0E084839583C9
:1016E000A683B78387E291E0918380838FEF9FEF9A
:1016F000958784870895EF92FF920F931F93CF935E
:10170000DF937B01FC01C281D38100E010E02097D0
:1017100081F0E881F9810280F381E02DB701CE01EB
:10172000099597FD08C0080F191F0884D985C02D99
:10173000EECFC80102C08FEF9FEFDF91CF911F91D5
:101740000F91FF90EF9008950F931F93CF93DF9326
:101750008B01FC01C281D381209771F0E881F9816E
:101760000480F581E02DB801CE010995009731F490
:101770000884D985C02DF0CF80E090E0DF91CF9133
:101780001F910F9108950F931F93CF93DF938B01B8
:10179000FC01C281D381209771F0E881F981068034
:1017A000F781E02DB801CE010995080F111D0884BD
:1017B000D985C02DF0CFF8011082DF91CF911F9114
:1017C0000F9108950F931F93CF93DF938B01FC012B
:1017D000C281D381209771F0E881F9810190F08175
:1017E000E02DB801CE010995811105C00884D98585
:1017F000C02DF0CF80E0DF91CF911F910F91089520
:101800008091D30281110DC082E08093CF0284E0E9
:101810008093D0021092D2021092D10281E0809384
:10182000D3028FEC92E00895EE0FFF1F0590F49124
:10183000E02D099410E0C4EED0E004C0FE010E9447
:0E184000140C2196C53ED107C9F7F894FFCFCE
:10184E0000C18081000000FFFFFFFF00E1000000EB
:10185E0000000000000000C90199016D01750189A9
:10186E0001980100000000760ABD0AA00AB00A8C99
:04187E000A9D0A00B5
:00000001FF
