:10000000ffcd34c033c032c031c030c02fc02ec08d
:100010002dc0e7c12bc02ac029c028c027c07fc17e
:1000200025c024c023c0ecc1d8c0e3c0e2c0d5c005
:10003000e0c0d3c0dec011241fbecfefd2e0debfd0
:10004000cdbf11e0a0e0b1e0e0e8f9e002c005902a
:100050000d92a430b107d9f722e0a4e0b1e001c0cd
:100060001d92ac34b207e1f78dd288c4c9cffc0130
:10007000db018c918823b1f021e02c939091e80171
:10008000923009f44cc038f4992369f0913041f46e
:1000900074e070830895963009f447c09f30c1f32f
:1000a00061e0608308953091a701332309f441c0d2
:1000b00020834091a601a42fb0e0aa55be4f12960e
:1000c0005c9151834f5f4f73a42fb0e0aa55be4f90
:1000d0001296bc91b2834f5f4f73a42fb0e0aa5524
:1000e000be4f1296ac91a3834f5f4f73df011496fe
:1000f000313021f0323011f03330e9f0e42ff0e00c
:10010000ea55fe4ff281fc9334503093a7014f5fc4
:100110004f734093a60185e0fb0180830895809191
:1001200088009091890080830895209100012083a8
:100130000895108208951482e1cfcf93df93fc01dc
:100140009081892f807f803809f5bcb5bf77bcbd11
:100150009f70a92fb0e0a90fb11da90fb11daa0f63
:10016000bb1faa0fbb1faa0fbb1fa751be4f3196c3
:1001700048e101900d924a95e1f7e1e0e093030137
:10018000fcb5f068fcbddf91cf910895623008f4b2
:1001900084c01092e801943009f48ec070f1973059
:1001a000b9f0983009f47cc0963069f7623059f79d
:1001b000b181b0930001d0e5dcbd4b2f50e0415040
:1001c00051094730510568f4fa01ec5eff4f09947c
:1001d0007181706e70930201d0cffdb5a1e0af27a1
:1001e000adbdb33008f08bc0b13008f091c01cbc7d
:1001f000cacfcdb5c160cdbdf4cf923009f475c082
:10020000933009f6643009f0becf31962cb52f77c4
:100210002cbda6e4b2e04081518111965c934e93cf
:10022000328112963c931297ed0123976081718180
:100230007983688352815a8323978081918199833e
:10024000888372817a83239720813181398328833f
:1002500092819a83239740815181598348833281c7
:100260003a832397608171817983688352815a83ad
:100270002397808191819983888372817a832397e0
:10028000208131813983288392819a83589781e034
:10029000a63eb80709f0bfcf70cf9093e8017bcf9f
:1002a0005cb55f775cbd3196a9eeb1e080e6019068
:1002b0000d928a95e1f761cf653009f064cf218115
:1002c0009cb59f779cbd822f90e0820f911d820f7d
:1002d000911ddc01a751be4fc281d3811196dc93e1
:1002e000ce93d4811296dc9348cf623009f04bcf85
:1002f000818190e0909389008093880044cfb3304f
:1003000051f0b63008f03fcf3cb531603cbd3bcf3b
:100310004cb541604cbd6cb562606cbd34cf1f9272
:100320000f920fb60f9211248f93ef93ff9380914a
:100330004b02813019f190f0823041f41ebce09103
:100340004a02ef5fe0934a02e630d9f1ff91ef9164
:100350008f910f900fbe0f901f9018951ebce091cb
:100360004a02ef5fe0934a02e43081f7f1e0f09354
:100370004b0210924a0210920301e8cf8091490289
:100380008f5f80934902813041f1e0914a0281e020
:100390008e0f80934a02f0e0e751fe4fe081eebd00
:1003a000f0914902f370f0934902e0914a02e0367d
:1003b00069f6f2e0f0934b0210924a021092490261
:1003c000c5cf10924b0210924a02f0910301f11135
:1003d000bdcf8cb58f778cbdb9cf809102018ebd1a
:1003e000e4cf1f920f920fb60f9211248f9381e0ea
:1003f000809301018f910f900fbe0f901f90189561
:100400001f920f920fb60f9211242f933f934f9389
:100410005f936f937f938f939f93af93bf93ef936c
:10042000ff938091b900883909f477c0c8f1883bff
:1004300009f483c070f5883a09f446c0803b09f49a
:1004400043c0803ac9f565ed6093bc007091bc0073
:1004500074fdfccfe0912001f0912101309729f04b
:100460006091a50182e291e0099565ec6093bc0082
:10047000ff91ef91bf91af919f918f917f916f917c
:100480005f914f913f912f910f900fbe0f901f9052
:100490001895883c51f3883f59f3803c69f4e5cfc7
:1004a000883709f444c0e8f18838b9f1803909f493
:1004b0004ac0803809f447c0f5edf093bc002091a4
:1004c000bc0024fdfccfd4cf1092a501e091a30184
:1004d000f091a401309709f448c090e89093a201ec
:1004e00062ea71e082e291e00995b091a201e091a7
:1004f000a501bb2309f442c0a1e0ae0ff0e0a09338
:10050000a501ee5dfe4f30813093bb004091a50107
:100510005091a201451708f4a8cf75e87093bc006c
:10052000a7cf883621f0803711f0803629f6109257
:10053000a50155ec5093bc009bcfe091a501a1e033
:10054000ae0ff0e0dccfe091a501e7fde6cf21e0c2
:100550002e0f2093a5013091bb00f0e0ee5dfe4f21
:10056000308345ec4093bc0083cfe0e0f0e0a1e0b5
:1005700081e08093a20110922201c1cfa1e0ae0fd1
:10058000f0e0f6cfcf93df9300d000d01f92cdb72d
:10059000deb78ce284b905b1037d05b915e010938f
:1005a000000120e52cbd3db531603dbd4cb541603d
:1005b0004cbd5cb55f775cbd1ebc63e00db407fe4f
:1005c000fdcf1ebc6150d1f770e290ee0db407fe76
:1005d000fdcf9ebd0db407fefdcf1ebc0db407fec2
:1005e000fdcf1ebc0db407fefdcf1ebc715071f7d0
:1005f000a6e00db407fefdcf1ebca150d1f70db48f
:1006000007fefdcfb0910001b43061f0e4e0e0936b
:100610000001f0e5fcbd2db481e082258dbd0cb557
:1006200001600cbd11e0109303012cb520682cbdb6
:1006300037b13f6037b948b14f6048b98ab11ab88d
:100640008bb15fef5bb964e071e09ce1db011d926f
:100650009a95e9f7709181007c6070938100109207
:10066000850010928400eee0f0e0f0938900e093c2
:100670008800b0916f00b260b0936f007894479a91
:100680003f9a8de990e0909321018093200107e348
:1006900010e01093a4010093a301f3b113b1f17022
:1006a00012701f2b1865110f1093ba005093bb00e6
:1006b0002091b9002e7f2093b9003091b9003d7f81
:1006c0003093b90045ec4093bc00789450900a01f7
:1006d00080910901309005013b8290900601a09025
:1006e0000701e09108016090110150911001b09054
:1006f0000b01b0910c01c0900d01d0900e017091d2
:100700000f017090180140901701e0901201a09124
:100710001301f09014010091150160911601809071
:100720001f0190911e0110911901f0911a01209062
:100730001b012c8220911c01298330911d013a83d9
:10074000409101014423e1f31092010149b1409a23
:100750004198409545258095482320910401209596
:1007600024232093040120958b81822784238b836b
:1007700080930501382f309532239326942290924e
:100780000601392c30943321a326a422a09207011c
:100790002a2c20943221e327e423e0930801282324
:1007a000822f832182218e2384238093090158265e
:1007b00050920a0129b1419a4298509520952625d8
:1007c0002523b094b222b0920b015b2d5095b52732
:1007d000b223b0930c014b2f40954523c426c2226f
:1007e000c0920d013c2d30954323d426d222d092c5
:1007f0000e013d2c309443217427722370930f0116
:100800005b23532353215723522350931001652612
:1008100060921101382e352a29b1429a43984094aa
:10082000209527252421e094e222e09212012e2c2b
:100830002094a225a223a09313013a2f30953221b0
:10084000f326f222f09214014f2c40943421032716
:10085000022300931501402f409534236327622320
:10086000609316012a2242204422462242224092cc
:10087000170174247092180134283d8229b1439adb
:1008800040989095209528252923109512231093a0
:100890001901212e2094f225f223f0931a013f2f03
:1008a000309532219c81932792239c8390931b0146
:1008b00090953923498143274223498340931c0162
:1008c000409534233a80332532233a8330931d01f7
:1008d0002f22922194239323922390931e01892601
:1008e00080921f012d81292b09f42acf5fb6f8943d
:1008f00090900a01b091a701b034f0f58091a60163
:1009000090e071e07b0f7093a701fc01eb0ff11dec
:10091000ef73ff27ea55fe4f9282a09011017034c9
:1009200059f1a2e0ab0fa093a701fc01e70ff11d65
:10093000ef73ff27ea55fe4fa282a034e9f06090e2
:10094000180103e00b0f0093a701fc01ea0ff11d52
:10095000ef73ff27ea55fe4f6282b0901f0100340b
:1009600059f0bc5fb093a701fc01e00ff11def73dc
:10097000ff27ea55fe4fb2825fbea8cef894ffcfa4
:040980000401ff016e
:101c000013c022c021c020c01fc01ec01dc01cc0e8
:101c10001bc01ac019c018c017c016c015c014c008
:101c200013c012c011c010c011241fbecfefd2e0ec
:101c3000debfcdbf21e0a0e0b1e001c01d92a33422
:101c4000b207e1f7e1d0c9c1dbcfe3e0f0e0849176
:101c5000df01af5fbe4f8c933197c8f7089540e026
:101c600050e061e0fa01ef5ffe4f218130e0322f5a
:101c700022277081272b07b600fcfdcffa01e80f61
:101c8000f91f090160935700e89511244e5f5f4fdb
:101c90004034510539f707b600fcfdcf25e0fc01c3
:101ca00020935700e8950895fc01603811f094e8fe
:101cb00001c094ec9093bc008091bc0087fffccfe6
:101cc000a8958091b900861729f084e98093bc001b
:101cd00080e008958091bb008083683819f484e81f
:101ce0008093bc0081e00895cf93df9300d0cdb7ff
:101cf000deb760e8ce010296d7df60e8ce0101963c
:101d0000d3df898190e0982f88272a81822b0f903a
:101d10000f90df91cf9108958093bb0084ec809366
:101d2000bc008091bc0087fffccfa8958091b900d2
:101d3000883b19f084e98093bc00089587b18c7cbe
:101d400087b988b18f7c88b93f9a479a83b193b19c
:101d5000282f2170892f8270822b8065880f8093b5
:101d6000ba0084e48093bc0008958627682f6295aa
:101d70006827062e669566956025062e6695602571
:101d80006770082e892f669507946795902d862792
:101d900006946795902586270895cf92df92ef925b
:101da000ff921f93cf93df9310910001c12fd0e0da
:101db00084e0cc0fdd1f8a95e1f7cf5fde4f6e0127
:101dc00080e1c80ed11cee24ea94fe2c60e8ce011e
:101dd0006bdf811102c080e00fc06991c701c5dfd0
:101de0007c01cc15dd0591f77fdfe816f90699f740
:101df0001f5f1093000181e0df91cf911f91ff9051
:101e0000ef90df90cf900895cf93df9300d0cdb7c0
:101e1000deb704b600fc03c004b601fed0c014be99
:101e20008ddf9ae088e10fb6f894a8958093600062
:101e30000fbe9093600084ec882e98e1592eee241a
:101e4000ea9481e091e020e4f22ef80e33e0932e44
:101e5000c12cd12caa24aa94ba2c8092bc008091c7
:101e6000bc0087fffccfa89589e20fb6f894a8952f
:101e7000509260000fbe809360008091b900803660
:101e800069f0883a09f097c081e046df809141010e
:101e900043df8091420140df51dfdfcf60e8ce01b8
:101ea000029602df8823c9f28a81833009f444c094
:101eb00028f48130a1f08230f9f07dc0843009f43b
:101ec00046c0863009f077c00fdf8c010ddfb0927d
:101ed0004201a09241013c01600e711e5ac0109255
:101ee0000001e1e0f1e0e192fe12fdcffdde909312
:101ef000420180934101b1cf81e491e04edf811135
:101f000002c060e815c080910001843081f4009126
:101f1000410110914201007c0115110511f495de7b
:101f200004c001158ce1180710f4c80198de68e8b8
:101f3000ce010196b9de91cf98e088e10fb6f89412
:101f4000a895809360000fbe90936000ffcfe1e002
:101f5000f1e0e192fe12fdcf78de07b600fcfdcf86
:101f6000f60190925700e89580e090e078de80e4fa
:101f700090e075dee0e4f0e007b600fcfdcf909263
:101f80005700e895e05cff4fe1158ce1f807a1f7f9
:101f900064cf0615170508f060cff80164918091b1
:101fa000410190914201e1de909342018093410111
:101fb0000f5f1f4feecf84e98093bc004ecf14be5d
:101fc0000fb6f894a89580916000886180936000b6
:0e1fd000109260000fbe30c0ffcff894ffcf1c
:00000001ff
