:10000000ffcd34c033c032c031c030c02fc02ec08d
:100010002dc0d6c12bc02ac029c028c027c06ec1a0
:1000200025c024c023c0dbc130c041c040c02dc0aa
:100030003ec02bc03cc011241fbecfefd2e0debfbc
:10004000cdbf11e0a0e0b1e0eae0f8e002c0059029
:100050000d92a430b107d9f722e0a4e0b1e001c0cd
:100060001d92ac34b207e1f77cd2cdc3c9cf8093e7
:10007000010190e59cbd482f50e0fa013197e7302f
:10008000f10538f4ec5eff4f09942db531e03227cd
:100090003dbd833020f4813070f41cbc0895833062
:1000a00069f0863078f45cb551605cbd08954db55b
:1000b00041604dbdeecf8cb581608cbd6cb562608a
:1000c0006cbd08950895fc01db018c918823b1f08b
:1000d00021e02c939091e801923009f444c038f467
:1000e000992369f0913041f474e07083089596305b
:1000f00009f43fc09f30c1f361e0608308953091ff
:10010000a7013323d1f120834091a601a42fb0e0b1
:10011000aa55be4f12965c9151834f5f4f73a42f27
:10012000b0e0aa55be4f1296bc91b2834f5f4f7399
:10013000a42fb0e0aa55be4f1296ac91a3834f5f97
:100140004f73a42fb0e0aa55be4f12968c918483b2
:1001500034503093a7014f5f4f734093a60125e0c1
:10016000fb0120830895809188009091890080830d
:100170000895909101019083089510820895cf937e
:10018000df93fc019081892f807f803809f58cb541
:100190008f778cbd9f70a92fb0e0a90fb11da90f5b
:1001a000b11daa0fbb1faa0fbb1faa0fbb1fa751d0
:1001b000be4f319698e101900d929a95e1f7e1e0fa
:1001c000e0930301fcb5f068fcbddf91cf91089589
:1001d000623008f463c01092e801943009f46dc0f5
:1001e00090f0973059f0983009f45bc0963069f779
:1001f000623059f78181df91cf9139cf7181706e73
:1002000070930201dccf923009f46ec09330e9f6ae
:100210006430d9f62cb52f772cbda9e4b2e0ed01fe
:100220002397418152816381488359836a8323974d
:10023000618172818381688379838a832397218195
:1002400032814381288339834a83239741815281b4
:100250006381488359836a83239761817281838193
:10026000688379838a83239721813281438128831c
:1002700039834a832397418152816381488359831b
:100280006a8358976181728183816d937d938c938a
:10029000129781e0a93eb80711f691cf9093e8013b
:1002a0009ccf3cb53f773cbd3196a9eeb1e050e61e
:1002b00001900d925a95e1f782cf653009f085cf14
:1002c000b181dcb5df77dcbd8b2f90e08b0f911d0a
:1002d0008b0f911ddc01a751be4fc281d381e481f8
:1002e000cd93dd93ec936bcf623009f06ecf8181bb
:1002f00090e0909389008093880067cf1f920f92bf
:100300000fb60f9211248f93ef93ff9380914b02be
:10031000813019f190f0823041f41ebce0914a0224
:10032000ef5fe0934a02e630d9f1ff91ef918f91b0
:100330000f900fbe0f901f9018951ebce0914a02bf
:10034000ef5fe0934a02e43081f7f1e0f0934b0273
:1003500010924a0210920301e8cf809149028f5f08
:1003600080934902813041f1e0914a02f1e0fe0fb1
:10037000f0934a02f0e0e751fe4f80818ebde0919c
:100380004902e370e093490280914a02803669f69f
:10039000e2e0e0934b0210924a0210924902c5cf6c
:1003a00010924b0210924a02f0910301f111bdcf5d
:1003b0008cb58f778cbdb9cff0910201febde4cf33
:1003c0001f920f920fb60f9211248f9381e08093aa
:1003d00000018f910f900fbe0f901f9018951f92e4
:1003e0000f920fb60f9211242f933f934f935f9369
:1003f0006f937f938f939f93af93bf93ef93ff93ed
:100400008091b900883909f477c0c8f1883b09f4b4
:1004100083c070f5883a09f446c0803b09f443c0b4
:10042000803ac9f565ed6093bc007091bc0074fd25
:10043000fccfe0912001f0912101309729f06091eb
:10044000a50182e291e0099565ec6093bc00ff9103
:10045000ef91bf91af919f918f917f916f915f913c
:100460004f913f912f910f900fbe0f901f901895b5
:10047000883c51f3883f59f3803c69f4e5cf8837d5
:1004800009f444c0e8f18838b9f1803909f44ac068
:10049000803809f447c0f5edf093bc002091bc0012
:1004a00024fdfccfd4cf1092a501e091a301f091df
:1004b000a401309709f448c090e89093a20162ea41
:1004c00071e082e291e00995b091a201e091a5016d
:1004d000bb2309f442c0a1e0ae0ff0e0a093a50158
:1004e000ee5dfe4f30813093bb004091a5015091ed
:1004f000a201451708f4a8cf75e87093bc00a7cff8
:10050000883621f0803711f0803629f61092a50147
:1005100055ec5093bc009bcfe091a501a1e0ae0f3c
:10052000f0e0dccfe091a501e7fde6cf21e02e0f62
:100530002093a5013091bb00f0e0ee5dfe4f3083cb
:1005400045ec4093bc0083cfe0e0f0e0a1e081e027
:100550008093a20110922201c1cfa1e0ae0ff0e082
:10056000f6cf8ce284b905b1037d05b985e07fdd66
:100570001cb51f771cbd1ebc23e00db407fefdcfcc
:100580001ebc2150d1f730e290ee0db407fefdcf36
:100590009ebd0db407fefdcf1ebc0db407fefdcf02
:1005a0001ebc0db407fefdcf1ebc315071f746e0f6
:1005b0000db407fefdcf1ebc4150d1f70db407feb0
:1005c000fdcf50910101543011f084e050dd61e025
:1005d000609303017cb570687cbda7b1af60a7b91b
:1005e000b8b1bf60b8b98ab11ab88bb1cfefcbb987
:1005f000e4e0f1e0dce1df011d92da95e9f7f0914a
:100600008100fc60f09381001092850010928400bc
:100610008ee090e0909389008093880000916f00b5
:10062000026000936f007894479a3f9a2feb30e076
:10063000309321012093200143e650e05093a40120
:100640004093a30113b133b111703270312b38656f
:10065000330f3093ba00c093bb009091b9009e7fd6
:100660009093b9005091b9005d7f5093b90065ec4b
:100670006093bc007894cc24c394d12c20900001ca
:100680002220e1f3109200018ae0e82e81e0f82eaa
:1006900004e011e069e071e045e051e0c6e0d1e03e
:1006a000a7e0b1e098e0292e91e0392e20e030e07b
:1006b000712c69b058b05601022e01c0aa0c0a94e0
:1006c000eaf7a528a8b8f8b12f5f3f4f4901e3e04a
:1006d0008e229924560101c0aa0c8a94eaf7a094ac
:1006e000af22a8b8f7018080962c9094a82ca9245a
:1006f000fb01808180958a21f80190819095982353
:1007000090839095fa016080692668226082962c19
:1007100090949922a880a924a822a882a0949a2023
:10072000bc90b924b822bc92b0949b20f1015080b7
:1007300095249822908296219a21b9229b20892182
:10074000fb0180838826f7018082782af7e0ef0e8c
:10075000f11c095f1f4f695f7f4f495f5f4f27960d
:10076000179687e0280e311c2430310509f0a1cfff
:10077000772009f483cf3fb6f894f0900a01709186
:10078000a7017034f0f58091a60190e0b1e0b70fb9
:10079000b093a701ec01c70fd11dcf73dd27ca5558
:1007a000de4ffa82d0911101b03459f122e0270fc7
:1007b0002093a701fc01eb0ff11def73ff27ea5512
:1007c000fe4fd283109118012034d9f033e0370f57
:1007d0003093a701ec01c20fd11dcf73dd27ca559d
:1007e000de4f1a8350911f01303459f07c5f7093b3
:1007f000a701fc01e30ff11def73ff27ea55fe4f40
:0a08000052833fbe3bcff894ffcfb8
:04080a000104ff01e5
:101c000013c022c021c020c01fc01ec01dc01cc0e8
:101c10001bc01ac019c018c017c016c015c014c008
:101c200013c012c011c010c011241fbecfefd2e0ec
:101c3000debfcdbf21e0a0e0b1e001c01d92a33422
:101c4000b207e1f7e1d0c9c1dbcfe3e0f0e0849176
:101c5000df01af5fbe4f8c933197c8f7089540e026
:101c600050e061e0fa01ef5ffe4f218130e0322f5a
:101c700022277081272b07b600fcfdcffa01e80f61
:101c8000f91f090160935700e89511244e5f5f4fdb
:101c90004034510539f707b600fcfdcf25e0fc01c3
:101ca00020935700e8950895fc01603811f094e8fe
:101cb00001c094ec9093bc008091bc0087fffccfe6
:101cc000a8958091b900861729f084e98093bc001b
:101cd00080e008958091bb008083683819f484e81f
:101ce0008093bc0081e00895cf93df9300d0cdb7ff
:101cf000deb760e8ce010296d7df60e8ce0101963c
:101d0000d3df898190e0982f88272a81822b0f903a
:101d10000f90df91cf9108958093bb0084ec809366
:101d2000bc008091bc0087fffccfa8958091b900d2
:101d3000883b19f084e98093bc00089587b18c7cbe
:101d400087b988b18f7c88b93f9a479a83b193b19c
:101d5000282f2170892f8270822b8065880f8093b5
:101d6000ba0084e48093bc0008958627682f6295aa
:101d70006827062e669566956025062e6695602571
:101d80006770082e892f669507946795902d862792
:101d900006946795902586270895cf92df92ef925b
:101da000ff921f93cf93df9310910001c12fd0e0da
:101db00084e0cc0fdd1f8a95e1f7cf5fde4f6e0127
:101dc00080e1c80ed11cee24ea94fe2c60e8ce011e
:101dd0006bdf811102c080e00fc06991c701c5dfd0
:101de0007c01cc15dd0591f77fdfe816f90699f740
:101df0001f5f1093000181e0df91cf911f91ff9051
:101e0000ef90df90cf900895cf93df9300d0cdb7c0
:101e1000deb704b600fc03c004b601fed0c014be99
:101e20008ddf9ae088e10fb6f894a8958093600062
:101e30000fbe9093600084ec882e98e1592eee241a
:101e4000ea9481e091e020e4f22ef80e33e0932e44
:101e5000c12cd12caa24aa94ba2c8092bc008091c7
:101e6000bc0087fffccfa89589e20fb6f894a8952f
:101e7000509260000fbe809360008091b900803660
:101e800069f0883a09f097c081e046df809141010e
:101e900043df8091420140df51dfdfcf60e8ce01b8
:101ea000029602df8823c9f28a81833009f444c094
:101eb00028f48130a1f08230f9f07dc0843009f43b
:101ec00046c0863009f077c00fdf8c010ddfb0927d
:101ed0004201a09241013c01600e711e5ac0109255
:101ee0000001e1e0f1e0e192fe12fdcffdde909312
:101ef000420180934101b1cf81e491e04edf811135
:101f000002c060e815c080910001843081f4009126
:101f1000410110914201007c0115110511f495de7b
:101f200004c001158ce1180710f4c80198de68e8b8
:101f3000ce010196b9de91cf98e088e10fb6f89412
:101f4000a895809360000fbe90936000ffcfe1e002
:101f5000f1e0e192fe12fdcf78de07b600fcfdcf86
:101f6000f60190925700e89580e090e078de80e4fa
:101f700090e075dee0e4f0e007b600fcfdcf909263
:101f80005700e895e05cff4fe1158ce1f807a1f7f9
:101f900064cf0615170508f060cff80164918091b1
:101fa000410190914201e1de909342018093410111
:101fb0000f5f1f4feecf84e98093bc004ecf14be5d
:101fc0000fb6f894a89580916000886180936000b6
:0e1fd000109260000fbe30c0ffcff894ffcf1c
:00000001ff
