:10000000ffcd34c033c032c031c030c02fc02ec08d
:100010002dc03fc22bc02ac029c028c027c0c2c1e2
:1000200025c024c023c044c230c041c040c02dc040
:100030003ec02bc03cc011241fbecfefd2e0debfbc
:10004000cdbf11e0a0e0b1e0e0ecf9e002c0059026
:100050000d92a034b107d9f722e0a0e4b1e001c0cd
:100060001d92a139b207e1f7e5d2a8c4c9cf8093a8
:100070003d0190ed9cbd482f50e0fa013197e730eb
:10008000f10538f4ec5eff4f09942db531e03227cd
:100090003dbd833020f4813070f41cbc0895833062
:1000a00069f0863078f45cb551605cbd08954db55b
:1000b00041604dbdeecf8cb581608cbd6cb562608a
:1000c0006cbd08950895fc01db018c918823a9f093
:1000d00021e02c9390912c02923009f44ac038f41c
:1000e000992399f0913039f433e0308308959630b4
:1000f00041f0983019f061e06083089574e07083f6
:10010000089530913d01308308954091eb014423df
:10011000b1f120835091ea01a52fb0e0a651be4f66
:100120001296bc91b1835f5f5f73a52fb0e0a651bb
:10013000be4f1296ac91a2835f5f5f73a52fb0e0b4
:10014000a651be4f12968c9183835f5f5f73a52f7c
:10015000b0e0a651be4f12962c9124834450409398
:10016000eb015f5f5f735093ea0195e0fb019083c1
:10017000089580918800909189008083089510826d
:100180000895cf92df92ef92fc019081892f807fba
:10019000803811f5f8949f70a92fb0e0a90fb11d18
:1001a000a90fb11daa0fbb1faa0fbb1faa0fbb1f10
:1001b000a35dbd4f319638e101900d923a95e1f77c
:1001c0007894e0913f01e230d0f09cb590689cbdfe
:1001d000ef90df90cf900895623008f4bbc010928a
:1001e0002c02943009f4b9c0e0f0973071f45181d9
:1001f000506e50933e0170913f01723030f7f09194
:100200003f01ff5ff0933f01e0cf993709f4c4c08d
:100210009630f1f66230e1f68181ef90df90cf9079
:1002200026cf923009f4aec0933091f6643081f657
:10023000f8948fe190e0dc01aa0fbb1fa80fb91f53
:10024000a35dbd4f2181328143812d933d934c931a
:10025000bc0161507109db01aa0fbb1fa60fb71fbc
:10026000a35dbd4fc180d280e380cd92dd92ec9240
:10027000615071099b01220f331f620f731fdb0155
:10028000a35dbd4f4181528163814d935d936c931a
:100290009c01235031096901cc0cdd1c2c0d3d1d46
:1002a000d901a35dbd4f4181528163814d935d931f
:1002b0006c939c01245031096901cc0cdd1c2c0d80
:1002c0003d1dd901a35dbd4f4181528163814d9395
:1002d0005d936c93bc01655071099b01220f331f24
:1002e000620f731fdb01a35dbd4fc180d280e3802d
:1002f000cd92dd92ec92bc01665071099b01220ff8
:10030000331f620f731fdb01a35dbd4f418152811b
:1003100063814d935d936c939c0127503109690172
:10032000cc0cdd1c2c0d3d1dd901a35dbd4f4181c1
:10033000528163814d935d936c9308978f3f2fefac
:10034000920709f078cf7894b0913f01b23008f06d
:100350003ccf55cf90932c0244cf653009f038cf75
:10036000d180f8948d2d90e08d0d911d8d0d911df6
:10037000dc01a35dbd4f6281738184816d937d93a8
:100380008c93e1cf623009f023cf818190e090938c
:100390008900809388001ccff8943196ade2b2e0da
:1003a00030e60acf1f920f920fb60f9211248f934f
:1003b0009f93ef93ff9380918f02909190028130f1
:1003c000910579f1a0f0029749f41ebc90918e023c
:1003d0009f5f90938e02983009f449c0ff91ef918e
:1003e0009f918f910f900fbe0f901f9018951ebc7c
:1003f00080918e028f5f80938e02883079f7e1e0e2
:10040000f0e0f0939002e0938f0210928e029091b0
:100410003f01992319f3f0913f01f150f0933f010f
:10042000ddcf80918d028f5f80938d02813069f1e5
:10043000e0918e0291e09e0f90938e02f0e0e35dda
:10044000fd4ff081febd80918d02837080938d02ff
:1004500090918e02903611f682e090e09093900297
:1004600080938f0210928e0210928d02b7cf10925d
:10047000900210928f0210928e02e0913f01e111e2
:10048000adcffcb5ff77fcbda9cfe0913e01eebd3d
:10049000dfcf1f920f920fb60f9211248f9381e03e
:1004a00080933c018f910f900fbe0f901f90189575
:1004b0001f920f920fb60f9211242f933f934f93d9
:1004c0005f936f937f938f939f93af93bf93ef93bc
:1004d000ff938091b900883909f477c0c8f1883b4f
:1004e00009f483c070f5883a09f446c0803b09f4ea
:1004f00043c0803ac9f565ed6093bc007091bc00c3
:1005000074fdfccfe0918401f0918501309729f0d2
:100510006091e90186e891e0099565ec6093bc0083
:10052000ff91ef91bf91af919f918f917f916f91cb
:100530005f914f913f912f910f900fbe0f901f90a1
:100540001895883c51f3883f59f3803c69f4e5cf16
:10055000883709f444c0e8f18838b9f1803909f4e2
:100560004ac0803809f447c0f5edf093bc002091f3
:10057000bc0024fdfccfd4cf1092e901e091e7014b
:10058000f091e801309709f448c090e69093e601b5
:1005900066ee71e086e891e00995b091e601e091a0
:1005a000e901bb2309f442c0a1e0ae0ff0e0a09343
:1005b000e901ea57fe4f30813093bb004091e901d9
:1005c0005091e601451708f4a8cf75e87093bc0078
:1005d000a7cf883621f0803711f0803629f61092a7
:1005e000e90155ec5093bc009bcfe091e901a1e0fb
:1005f000ae0ff0e0dccfe091e901e03630f721e02a
:100600002e0f2093e9013091bb00f0e0ea57fe4f36
:10061000308345ec4093bc0083cfe0e0f0e0a1e004
:1006200081e08093e60110928601c1cfa1e0ae0f78
:10063000f0e0f6cf80e6ede2f2e0df011d928a9570
:10064000e9f700913f01023028f410913f011f5f4c
:1006500010933f012cb520682cbd3ce234b945b164
:10066000437d45b980913d0102dd109290021092c8
:100670008f0251e050933f011ebc50938e021092a6
:100680008d0267b16f6067b978b17f6078b98ab160
:100690001ab88bb1cfefcbb9e0e4f1e094e4df011d
:1006a0001d929a95e9f7b0918100bc60b0938100ea
:1006b00010928500109284008ee090e09093890063
:1006c00080938800d0916f00d260d0936f007894af
:1006d000479a3f9a01ec10e0109385010093840142
:1006e00023e630e03093e8012093e701f3b113b142
:1006f000f17012701f2b1865110f1093ba00c09380
:10070000bb003091b9003e7f3093b9004091b900f1
:100710004d7f4093b90055ec5093bc00789444242d
:100720004394512c60903c016620e1f310923c010f
:1007300040e551e060e070e0e12c78b0c201062ea7
:1007400001c0880f0a94eaf7882e8094872088b821
:10075000000029b198b0892988b9209530e0da01e4
:100760005097fa013f9780e090e0f12c52c0961428
:1007700009f46ec06c92c62dd0e06e01cc0cdd1c6d
:10078000cc0cdd1ccc0ddd1dc050df4fdc81d083d7
:100790000196ed012296329612969c90a92db0e01a
:1007a0005d01aa0cbb1caa0cbb1caa0dbb1da05052
:1007b000bf4f0c9112967c901297882e6901082edb
:1007c00002c0d594c7940a94e2f711e0c122dd2457
:1007d0001196ac90b12cca14db0409f464c09714d0
:1007e00009f461c07882a72db0e05d01aa0cbb1ca2
:1007f000aa0cbb1caa0dbb1da050bf4f1496dc90c9
:10080000d0820196de01129632968830910509f465
:100810007ec09c90c92dd0e06e01cc0cdd1ccc0cb0
:10082000dd1ccc0ddd1dc050df4f08816a80782ea5
:100830006901082e02c0d594c7940a94e2f711e02a
:10084000c122dd24a980b12cca14db0409f08fcfaa
:10085000c081c150c083c1119bcfac900a1509f46f
:1008600097cf0c93c02fd0e04e01880c991c880cb8
:10087000991cc80dd91dc050df4fbc80b0826201e9
:1008800001c0cc0c7a94eaf7cc91d0e03e01660c22
:10089000771c660c771cc60dd71dc050df4fdb8060
:1008a000cd20fc2875cfa081a150a083a111a9cf94
:1008b000b8810b1709f4a5cf0883a02fb0e03d0144
:1008c000660c771c660c771ca60db71da050bf4f99
:1008d00014961c911083520101c0aa0c8a94eaf765
:1008e000a881b0e04d01880c991c880c991ca80dba
:1008f000b91da050bf4f1396bc90ab20fa280196ab
:10090000de01129632968830910509f082cffa0105
:1009100090819f259083ef0c6f5f7f4f4f5e5f4ffd
:100920006430710509f009cfee2009f4fbcef8948c
:10093000609150017091eb017034f0f58091ea0103
:1009400090e021e0270f2093eb01ec01c70fd11db0
:10095000cf73dd27c651de4f6a83309161012034a9
:1009600059f1d2e0d70fd093eb01fc01e20ff11d5a
:10097000ef73ff27e651fe4f328350917201d0345e
:10098000d9f003e0070f0093eb01fc01ed0ff11d1f
:10099000ef73ff27e651fe4f5283f090830100343e
:1009a00059f07c5f7093eb01ec01c00fd11dcf7348
:1009b000dd27c651de4ffa827894b4cef894ffcf8b
:1009c00000000100010201000001030108ff0a0309
:1009d000010400010500090010000005ff010600e8
:1009e0000700010801060001090108ff6409010a66
:1009f00000010b0009003b06000bff010105ff0190
:101c000013c022c021c020c01fc01ec01dc01cc0e8
:101c10001bc01ac019c018c017c016c015c014c008
:101c200013c012c011c010c011241fbecfefd2e0ec
:101c3000debfcdbf21e0a0e0b1e001c01d92a33422
:101c4000b207e1f7e1d0c9c1dbcfe3e0f0e0849176
:101c5000df01af5fbe4f8c933197c8f7089540e026
:101c600050e061e0fa01ef5ffe4f218130e0322f5a
:101c700022277081272b07b600fcfdcffa01e80f61
:101c8000f91f090160935700e89511244e5f5f4fdb
:101c90004034510539f707b600fcfdcf25e0fc01c3
:101ca00020935700e8950895fc01603811f094e8fe
:101cb00001c094ec9093bc008091bc0087fffccfe6
:101cc000a8958091b900861729f084e98093bc001b
:101cd00080e008958091bb008083683819f484e81f
:101ce0008093bc0081e00895cf93df9300d0cdb7ff
:101cf000deb760e8ce010296d7df60e8ce0101963c
:101d0000d3df898190e0982f88272a81822b0f903a
:101d10000f90df91cf9108958093bb0084ec809366
:101d2000bc008091bc0087fffccfa8958091b900d2
:101d3000883b19f084e98093bc00089587b18c7cbe
:101d400087b988b18f7c88b93f9a479a83b193b19c
:101d5000282f2170892f8270822b8065880f8093b5
:101d6000ba0084e48093bc0008958627682f6295aa
:101d70006827062e669566956025062e6695602571
:101d80006770082e892f669507946795902d862792
:101d900006946795902586270895cf92df92ef925b
:101da000ff921f93cf93df9310910001c12fd0e0da
:101db00084e0cc0fdd1f8a95e1f7cf5fde4f6e0127
:101dc00080e1c80ed11cee24ea94fe2c60e8ce011e
:101dd0006bdf811102c080e00fc06991c701c5dfd0
:101de0007c01cc15dd0591f77fdfe816f90699f740
:101df0001f5f1093000181e0df91cf911f91ff9051
:101e0000ef90df90cf900895cf93df9300d0cdb7c0
:101e1000deb704b600fc03c004b601fed0c014be99
:101e20008ddf9ae088e10fb6f894a8958093600062
:101e30000fbe9093600084ec882e98e1592eee241a
:101e4000ea9481e091e020e4f22ef80e33e0932e44
:101e5000c12cd12caa24aa94ba2c8092bc008091c7
:101e6000bc0087fffccfa89589e20fb6f894a8952f
:101e7000509260000fbe809360008091b900803660
:101e800069f0883a09f097c081e046df809141010e
:101e900043df8091420140df51dfdfcf60e8ce01b8
:101ea000029602df8823c9f28a81833009f444c094
:101eb00028f48130a1f08230f9f07dc0843009f43b
:101ec00046c0863009f077c00fdf8c010ddfb0927d
:101ed0004201a09241013c01600e711e5ac0109255
:101ee0000001e1e0f1e0e192fe12fdcffdde909312
:101ef000420180934101b1cf81e491e04edf811135
:101f000002c060e815c080910001843081f4009126
:101f1000410110914201007c0115110511f495de7b
:101f200004c001158ce1180710f4c80198de68e8b8
:101f3000ce010196b9de91cf98e088e10fb6f89412
:101f4000a895809360000fbe90936000ffcfe1e002
:101f5000f1e0e192fe12fdcf78de07b600fcfdcf86
:101f6000f60190925700e89580e090e078de80e4fa
:101f700090e075dee0e4f0e007b600fcfdcf909263
:101f80005700e895e05cff4fe1158ce1f807a1f7f9
:101f900064cf0615170508f060cff80164918091b1
:101fa000410190914201e1de909342018093410111
:101fb0000f5f1f4feecf84e98093bc004ecf14be5d
:101fc0000fb6f894a89580916000886180936000b6
:0e1fd000109260000fbe30c0ffcff894ffcf1c
:00000001ff
