:100000000C94D7020C94FF020C94FF020C94FF0294
:100010000C94FF020C94FF020C94FF020C94FF025C
:100020000C94FF020C94FF020C94FF250C94932473
:100030000C94FF020C94FF020C94FF020C94FF023C
:100040000C94FF020C94FF020C94FF020C94FF022C
:100050000C94FF020C94FF020C94FF020C94BA263D
:100060000C94FF020C94FF020C94FF020C94FF020C
:100070000C94FF020C94FF020C94FF020C94FF02FC
:100080000C94FF020C94FF020C94FF020C94FF02EC
:100090000C94630C0C94FF020C94FF020C94FF026E
:1000A0000C94FF020C94FF020C94FF0231163516DB
:1000B0003E16431648164E16511654166C6F636161
:1000C0006C6C79206275696C74004B6579626F6144
:1000D0007264696F204D6F64656C203031202D2073
:1000E0004B616C6569646F73636F70652000010319
:1000F000372738000000FFFF1E001F0020002100EE
:1001000022000043E000E4000160230024002500F9
:10011000260027000144350014001A0008001500CD
:1001200017002B002A002C0028001C0018000C00CF
:10013000120013002E004B000400160007000900F7
:100140000A002900E300E200E6000B000D000E00AB
:100150000F00330034004E001D001B000600190084
:1001600005002C44E100E5002C441100100036008D
:10017000370038002D00FFFFFFFFFFFFFFFFFFFFED
:10018000FFFFFFFFFFFFFFFF0060FFFF5F0060005A
:1001900061005600FFFFFFFFFFFFFFFFFFFFFFFFB4
:1001A000FFFFFFFFFFFFFFFFFFFFFFFF5C005D00A2
:1001B0005E005700FFFFFFFFFFFFFFFFFFFFFFFF96
:1001C000FFFFFFFFFFFFFFFFFFFFFFFF59005A0088
:1001D0005B002E00FFFFFFFFFFFFFFFFFFFFFFFFA2
:1001E000FFFFFFFFFFFFFFFFFFFFFFFF6200630056
:1001F000550054002800FFFF3A003B003C003D0042
:100200003E003900FFFFFFFFB6583F0040004100AD
:100210004200430044002B00FFFF0150FFFF42500B
:10022000605029504C002800CD58B5582F08300890
:100230002F00300045004A00045002500850415041
:1002400025502A50FFFFFFFF65005000510052006B
:100250004F00FFFFFFFF4D0046004900FFFF4450E5
:100260002650FFFFFFFFFFFFFFFFE24CEA5CE95C67
:10027000FFFF310031080000000000000000000016
:10028000000000000000000000000000000000006E
:10029000000001010101010101010101010101024F
:1002A0000202020202020203030303030303040423
:1002B00004040405050505060606060707070708E2
:1002C00008080909090A0A0A0B0B0B0C0C0D0D0D85
:1002D0000E0E0F0F10101111121213131414151506
:1002E000161617181819191A1B1B1C1D1D1E1F2066
:1002F0002021222323242526272728292A2B2C2D99
:100300002E2F303132323334363738393A3B3C3D98
:100310003E3F40424344454648494A4B4D4E4F516B
:100320005253555657595A5C5D5F60626365666803
:10033000696B6D6E7072737577787A7C7E7F81835E
:100340008587898A8C8E90929496989A9C9EA0A27A
:10035000A4A7A9ABADAFB1B4B6B8BABDBFC1C4C64E
:10036000C8CBCDD0D2D5D7DADCDFE1E4E7E9ECEFDA
:10037000F1F4F7F9FCFF05010906A101050719E0F1
:1003800029E7150025017501950881029501750879
:10039000810195057501050819012905910295014D
:1003A0007503910195067508150025FF05071900CD
:1003B00029FF8100C0050C0901A101850415002653
:1003C000FF0319002AFF03950475108100C0050181
:1003D0000906A1018508050719E029E7150025018F
:1003E000750195088102050819012908950875010C
:1003F00091020507750495018101190429DD150095
:100400002501750195D98102750395018101C0050A
:10041000010902A101850105091901290815002515
:100420000195087501810205010930093109381566
:1004300081257F750895038106050C0A3802158110
:10044000257F750895018106C005010980A10185F8
:1004500005150026FF00190029FF95017508810088
:10046000C005010902A10105091901290815002586
:100470000195087501810205010930093116000056
:1004800026FF7F75109502810209381581257F7539
:100490000895018106C01E0834082008210822089A
:1004A000240834002608270825082E0836002D00C9
:1004B0003700380027003308330036082E0037088D
:1004C00038081F082F003100300023082D083500A0
:1004D0002F083108300835089F9FDFFB1FF19779FF
:1004E0003FF11F1717F9F9996FF68F6939D311F199
:1004F000FD9BB99D9FF99F1F9FFD9FD73FFC6F6696
:1005000099F99969D9DF6996F966CFF356F496B4EB
:10051000CFF8F9881FFE16FF8F24D7EB9F8F9669BF
:10052000080B00020202010009040000010202009F
:100530000005240010010524010101042402060520
:100540002406000107058103100040090401000290
:100550000A00000007050202400000070583024070
:10056000000012010002EF02014009120123000104
:10057000010203014B6579626F617264696F004D1E
:100580006F64656C2030310004030904850423077F
:100590000409750EE60ED60FB2106E119A18B01837
:1005A000FE1A411BC21BD21CB21D74210E0911245C
:1005B0001FBECFEFDAE0DEBFCDBF12E0A0E0B1E0BA
:1005C000E6EBF0E502C005900D92A632B107D9F72F
:1005D00026E0A6E2B2E001C01D92A837B207E1F71B
:1005E00012E0C6EDD2E004C02197FE010E9412285D
:1005F000C63CD107C9F70E94A7260C944E280C943C
:10060000000087E096E00C945120882319F0813097
:1006100091F027C061FF25C060FD23C06AEC70E047
:100620008EE295E00E94AF166CEB70E08EE295E0F2
:100630000E94AF1616C061FF14C060FD0BC00E947F
:10064000042724E230E040E050E00E94F0276C5F95
:100650006093280261E080912802909129020E9413
:10066000800980E090E00895009719F0029759F012
:10067000089581E080934B0560E070E080E00E9487
:1006800080170C94111810924B0560E070E080E028
:100690000E948017E0914E05F0E0EE0FFF1FE15B36
:1006A000FA4F80819181009739F0DC01ED91FC9146
:1006B0000280F381E02D099408950C94340380E0C6
:1006C00096E00E94AE1F80E090E008958FEF95E0E5
:1006D0000E948E1F8AE495E00E9460188EE295E0E9
:1006E0000E94061784E195E00E94231382E096E0C1
:1006F0000E94D31F80E090E0089585E895E00E9475
:100700008A1A81E895E00E94231A8EE295E00E9401
:10071000011784E195E00E941A1380E090E00895AB
:10072000CF9385E592E00E94B604C1E0C0938405B2
:1007300010922401109225018FEF8093260166E923
:1007400080EA95E00E94BC1B66E985E995E00E947D
:10075000BF1B80912A02811106C086E292E00E94AE
:10076000CC1CC0932A0286E292E09093B00580935D
:10077000AF058FE795E0CF910C94FD1785E592E0EA
:100780000C94DC048AE495E00E9415188FE795E04C
:100790000E94681780EA95E00E94681785E995E055
:1007A0000E9468178FE895E00E94681780E592E044
:1007B0000E9468178BE492E00E94681786E492E03A
:1007C0000E94681781E492E00E9468178CE392E02F
:1007D0000E94681787E392E00E94681782E392E024
:1007E0000E9468178BE895E00E94681781EF95E0FA
:1007F0000E9468178BEA95E00E94681781E895E0EF
:100800000E945D1984E195E00E94751480E090E0FB
:1008100008950C94C203AF92BF92CF92DF92EF92F1
:10082000FF920F93CF93DF93EC017B016A01590193
:10083000F9010081FA012081FB014081BC018AE4B9
:1008400095E00E943E18019719F481E090E039C0CC
:10085000F5010081F6012081F7014081BE0181EFA1
:1008600095E00E94401D019781F3F5010081F6019A
:100870002081F7014081BE018BEA95E00E94B71C00
:10088000019719F3F5010081F6012081F7014081FC
:10089000BE018EE295E00E94DC160197B1F2F501EF
:1008A0000081F6012081F7014081BE0184E195E0DD
:1008B0000E94B41331E020E0019709F030E0832F6B
:1008C000922FDF91CF910F91FF90EF90DF90CF901B
:1008D000BF90AF900895CF93DF9300D01F92CDB714
:1008E000DEB769834A832B839E012D5F3F4FAE01A4
:1008F0004E5F5F4FBE016F5F7F4F0E940B040F90F2
:100900000F900F90DF91CF91089520E040E060EAD2
:1009100080E592E00E94ED1A20E046E46CE88BE46A
:1009200092E00E94ED1A20E044E662E886E492E05C
:100930000E94ED1A20E040EA60E081E492E00E942B
:10094000ED1A22E846E460E08CE392E00E94ED1AA2
:100950002AEA40E060E087E392E00E94ED1A28E78F
:1009600040E062E882E392E00C94ED1ACF93DF93CB
:100970000E94090480E293E00E942E070E9443092E
:100980000E945F0A0E94690A20E04FEF6FEF80E04B
:1009900090E00E94F4040E94FE05C0E0D0E06D2FBC
:1009A0008C2F0E949D05DF5FD031C9F7CF5FC43027
:1009B000A9F7DF91CF9108950E9404276093560212
:1009C0007093570280935802909359020E945F03DC
:1009D00080E293E00E9476080E9466030E94200A4B
:1009E0000E94C2090C947D03EF92FF920F931F9314
:1009F000CF93DF9300D0CDB7DEB79A838983062FDC
:100A0000F42E122F643090F58FE0841778F1822F46
:100A10008270E82E21FF06C020FD04C0642F802FC5
:100A20000E949D054F2D602F80E293E00E949B085D
:100A3000882351F010FF63C0E11061C04F2D602F7B
:100A400080E293E00E94800889819A81892B71F469
:100A500080E1089FF0011124EF0DF11DEE0FFF1F43
:100A6000E656FD4F808191819A838983212F4F2DF6
:100A7000602FCE0101960E946B04892B09F03FC0C4
:100A8000212F4F2D602F89819A810E94D2069A834F
:100A90008983892BA1F1F9800A8106FF1AC007FD1D
:100AA0002EC003FF07C011FF2AC08F2D902F0E9478
:100AB000630A25C000FF23C011FD21C010FF1FC025
:100AC0008F2D902F0E946D0A8F2D902F0E94720AF9
:100AD00016C0812F817011FF0AC0811102C061E030
:100AE00001C060E08F2D902F0E94800908C08823EC
:100AF00031F017FF04C08F2D902F0E94D2090F9064
:100B00000F90DF91CF911F910F91FF90EF9008957B
:100B100070E0FB0194E0899FE00DF11D112484E059
:100B2000EE0FFF1F8A95E1F7E40FF11DEE0FFF1F97
:100B3000EA50FF4F859194910895CF93DF93462F0C
:100B4000262F30E090E1899FF0011124EF01C20FC0
:100B5000D31FCC0FDD1FC656DD4FE65AFD4FDF0118
:100B6000A20FB31FE0910101F0910201682F8C9157
:100B7000099599838883DF91CF9108950F931F93EF
:100B800080910001815090911F0340911B0350916F
:100B90001C0360911D0370911E03981788F48A014D
:100BA0009B01082E04C036952795179507950A9442
:100BB000D2F700FF03C080931A0304C08150EDCF29
:100BC00090931A031F910F9108950F931F934091D3
:100BD0001B0350911C0360911D0370911E038A0139
:100BE0009B0104C036952795179507958A95D2F7EE
:100BF000D901C80181701F910F910895DF92EF9282
:100C0000FF920F931F93CF93DF9360911F0370E0C8
:100C100040E450E08AE592E00E9447288AE5E82E09
:100C200082E0F82ED0E000E010E0D02EC0911A0350
:100C300080911F0390E02C2F0C2E000C330B821799
:100C40009307B4F48C2F0E94E505882379F0E09196
:100C50000101F09102014D2D6D2F8C2F0995019608
:100C600029F0F701E00FF11FC08302C0C150E0CFAF
:100C70000F5F1F4F00311105C1F6DF5F80E1E80E05
:100C8000F11CD43081F6DF91CF911F910F91FF902D
:100C9000EF90DF9008950F931F9300911B03109125
:100CA0001C0320911D0330911E03B901A801082ED9
:100CB00004C076956795579547950A94D2F740FFFB
:100CC00026C041E050E060E070E0082E04C0440F10
:100CD000551F661F771F0A94D2F74095509560956F
:100CE0007095402351236223732340931B03509339
:100CF0001C0360931D0370931E0390911A038913C4
:100D000002C00E94BE051F910F910C94FE051F9119
:100D10000F910895CF9390910001891770F5C82F16
:100D20000E94E505811129C081E090E0A0E0B0E0DB
:100D30000C2E04C0880F991FAA1FBB1F0A94D2F75C
:100D400040911B0350911C0360911D0370911E0381
:100D5000842B952BA62BB72B80931B0390931C03FE
:100D6000A0931D03B0931E0380911A038C1710F4F7
:100D70000E94BE05CF910C94FE05CF91089510926C
:100D80001B0310921C0310921D0310921E030C945F
:100D90008A0680911A038F5F0C948A0680911A0349
:100DA0000C944B06CF93943409F043C0C82F822F84
:100DB0008270CA3248F1CA52C13289F0C232C9F4D3
:100DC0002170882329F0211103C00E94C9062AC07E
:100DD000222341F1811126C00E94CE0623C021703A
:100DE000882311F02223C1F32223E1F081111AC0DC
:100DF000ECCF882331F08C2F0E94E505811112C0C1
:100E000014C020FD0CC00EC0882361F020FD0AC074
:100E10008C2F0E94E505882341F0CC2331F08C2FE4
:100E20000E944B0680E090E004C08C2F0E948A064E
:100E3000F9CFCF910895CF93C82F0E94BF06C093DA
:100E40001F03CF91089580E00C941B073F9A479AA7
:100E500008956E9A769824982C980895CF93DF93EE
:100E6000EC010FB6F894A89580916000886180939A
:100E70006000109260000FBE64E670E080E090E0D9
:100E80000E943527CE010E942607CE010E94290725
:100E9000188219821A821B821C821D821E821F8266
:100EA0008CE08093B800DF91CF910895603250F4C8
:100EB00070E0FB01EE0FFF1F6E0F7F1FFB01EF5570
:100EC000FC4F0CC0603470F470E060527109FB019B
:100ED000EE0FFF1FE60FF71FE85CFC4F608171818A
:100EE0008281089560E070E080E008950F931F9381
:100EF000CF93DF93C62F8901D42F6032D8F40E949C
:100F00005607D81307C081E0171305C0061303C0A6
:100F100080E001C081E090910301892B809303015F
:100F20006C2F70E0FB01EE0FFF1FE60FF71FEF5570
:100F3000FC4F1DC06034F0F40E945607D81307C060
:100F400081E0171305C0061303C080E001C081E0F3
:100F500090910301892B80930301EC2FF0E0B0976F
:100F6000CF01880F991FE80FF91FE85CFC4F008341
:100F70001183D283DF91CF911F910F9108950F9329
:100F80001F93542F422F980170E1679FF0011124A5
:100F9000EF5BFE4FE50FF11D60811F910F910C94E7
:100FA000760780910301882311F181EA93E00E9482
:100FB0008F0B88E393E00E948F0B81EA93E00E94FD
:100FC0008F0B88E393E00E948F0B81EA93E00E94ED
:100FD0008F0B88E393E00E948F0B81EA93E00E94DD
:100FE0008F0B88E393E00E948F0B1092030108950A
:100FF000CF93DF93EC0188819981AA81BB81888797
:101000009987AA87BB878C819D81AE81BF818C87A0
:101010009D87AE87BF8781EA93E00E94180B8823E3
:1010200041F081EA93E00E944B0B688379838A83C5
:101030009B8388E393E00E94180B882341F088E3A8
:1010400093E00E944B0B6C837D838E839F83DF91A3
:10105000CF910895DF92EF92FF920F931F93CF935A
:10106000DF93082FC62FD42FD22E641303C066231C
:10107000C9F0D62F10E0C0FBEE24E0F8F12CC70138
:10108000880F991F2D2F2170282B39F04D2D411BD2
:10109000602F80E090E00E94F404C695D6951F5F13
:1010A000183049F7DF91CF911F910F91FF90EF908A
:1010B000DF9008950F931F93CF938C01C0E0F80148
:1010C0000F5F1F4F27E0408560818C2F0E942A0808
:1010D0002FE0F801438563818C2F0E942A08CF5F9F
:1010E000C43069F7CF911F910F910895CF93DF938B
:1010F000EC010E94F807CE01DF91CF910C945A08C1
:101100006430C0F44031B0F4E62FF0E0242F2770B3
:1011100043FF03C0E05DFC4F02C0EC5CFC4F80E885
:1011200090E002C0959587952A95E2F78095908189
:101130008923808308956430D8F44031C8F4842F23
:10114000877070E020E830E002C0359527958A95D9
:10115000E2F7FB0143FF03C0E05DFC4F02C0EC5C23
:10116000FC4F808190E02823392381E0232B09F470
:1011700080E00895CF93C62F81EA93E00E94FD0A94
:101180006C2F88E393E0CF910C94FD0AE0EEF0E041
:101190008081816080830895E0EEF0E080818E7F21
:1011A0008083089570E0E42FF0E0DC01A60FB71F04
:1011B000483028F48C9190E027E030E005C0149688
:1011C0008C9190E02FE030E02E1B3F0B02C09595F4
:1011D00087952A95E2F7817008956150462F4F70E8
:1011E00062956F700C94D208FC01608171818281DC
:1011F00093810E941828282F6481758186819781A8
:101200000E941828820F089560E081EA93E00E940E
:10121000E50A63E088E393E00C94E50A88E393E051
:101220000E94E40A81EA93E00C94E40ACF93DF93EE
:1012300000D000D000D0CDB7DEB7DC0113967C9390
:101240006E93129715965C934E93149716963C9155
:10125000169739837B836A835D834C832E83ED915C
:10126000FC910190F081E02D46E050E0BE016F5FFF
:101270007F4F099526960FB6F894DEBF0FBECDBFFF
:10128000DF91CF91089587E794E00E94D40F84E323
:1012900094E00C94650ECF93C82F84E394E00E94F1
:1012A000CB0D6C2F811105C084E394E0CF910C9499
:1012B000FF0D87E794E0CF910C94740FCF93C82F64
:1012C00083FF04C081EE90E00E944B09C0FF04C080
:1012D00080EE90E00E944B09C1FF04C082EE90E0D6
:1012E0000E944B09C2FF04C086EE90E00E944B09A9
:1012F000C4FF04C083EE90E00E944B09CF91089593
:10130000CF93DF93D82FC92F907C662399F08091DB
:101310000A04811102C010920C0480910C048C2BE1
:1013200080930C04911104C080E28D0F883020F06E
:10133000D0930A04911108C080E28D0F883020F408
:101340008C2F0E945E0905C080910B048C2B80932A
:101350000B048D2F9C2FDF91CF910C944B09CF93D1
:10136000C82F84E394E00E94CB0D6C2F811105C03F
:1013700084E394E0CF910C94270E87E794E0CF911B
:101380000C949B0F84E394E00E945E0E10920A047A
:1013900010920B0487E794E00E94C40F89E594E063
:1013A0000C94AB0ECF93DF93D82FC92F80910C04F0
:1013B000892780930C04892F807C21F480E28D0F93
:1013C000883058F080910A048D1302C010920A04EC
:1013D00080910B048C2780930B04C3FF04C081EE23
:1013E00090E00E94AF09C0FF04C080EE90E00E9430
:1013F000AF09C1FF04C082EE90E00E94AF09C2FFB6
:1014000004C086EE90E00E94AF09C4FF04C083EEE2
:1014100090E00E94AF098D2F9C2FDF91CF910C940B
:10142000AF0984E394E00E94CB0D811104C084E3F2
:1014300094E00C94C80D0E94C212FC0182890895A8
:1014400090910B0480910C0489230E945E0984E32F
:1014500094E00E94CB0D60910A04811116C06623AE
:1014600081F084E394E00E94270E84E394E00E94DC
:10147000D10D60910A0484E394E00E94FF0D109264
:101480000A0484E394E00C94D10D662381F087E78D
:1014900094E00E949B0F87E794E00E94140F6091F4
:1014A0000A0487E794E00E94740F10920A0487E709
:1014B00094E00E94140F89E594E00C94BE0E89E537
:1014C00094E00C94E40EBC01737089E594E00C94F4
:1014D000960E8CED94E00C949810682F8CED94E0AF
:1014E0000C949A108CED94E00C94961084EC94E09B
:1014F0000C9432100F93022F242F462F682F84EC68
:1015000094E00E94DA0F0F910895FF920F931F93BA
:10151000CF93DF9300D000D01F92CDB7DEB7F62E69
:10152000142F722F95E0E4ECF4E0DE0111960190A7
:101530000D929A95E1F79A813B815C810D81882318
:1015400011F060E001C0692FFF2011F040E001C000
:10155000432F112311F020E001C0252F711100E06D
:1015600084EC94E00E94DA0F0F900F900F900F9090
:101570000F90DF91CF911F910F91FF900895682FE9
:1015800084EC94E00C94E80F682F84EC94E00C94C5
:10159000ED0F84EC94E00C94E20F84EC94E00C9456
:1015A0000010E5EEF4E0108A468557856485758560
:1015B00020E08FEE94E00C941609242FAB01BC01BF
:1015C0008FEE94E00C9416090895FC01E859FF4F42
:1015D00010823697262F30E031832083329768655A
:1015E00070E071836083809104019FEF980F909366
:1015F000040181110C94A10B08950F93CF93DF93F5
:1016000000D0CDB7DEB722E029836A83805A9F4F8E
:1016100000E021E042E0BE016F5F7F4FFC0180816E
:101620000E94010C0F900F90DF91CF910F910895C0
:101630000F931F93CF93DF9300D000D01F92CDB7AD
:10164000DEB78C01FC01E05AFF4F21E045E0BE010E
:101650006F5F7F4F80810E94B90B8981813081F457
:10166000F801EC59FF4F8A81808331968B8180830A
:1016700031968C81808331968D81808381E001C099
:1016800080E00F900F900F900F900F90DF91CF910F
:101690001F910F9108958C599F4FFC0160817181BA
:1016A0008281938108950F93CF93DF93CDB7DEB7F7
:1016B00069970FB6F894DEBF0FBECDBF20E8260FA6
:1016C0002983DE01129628E1629FB001112420E0F7
:1016D00030E0F901E60FF71FE80FF91FE081F0E0B5
:1016E000EA58FD4FE491ED932F5F3F4F28313105CC
:1016F00081F7FC01E05AFF4F00E021E049E1BE0123
:101700006F5F7F4F80810E94010C69960FB6F8943D
:10171000DEBF0FBECDBFDF91CF910F910895CF9364
:10172000DF93EC01C859DF4F688121E0260F288341
:101730000E94530B8881843009F41882DF91CF9185
:1017400008951092330481E08093310410923004A4
:10175000589A599AE9EBF0E080818E7F80838081EE
:101760008D7F808388E48093B80085E48093BC00FB
:101770000895413208F043C0909133049111FCCF99
:1017800091E090933304209331042FEF20930D04C4
:1017900010920F04240F20930E0490933204909122
:1017A0003204880F892B8093320480913004813079
:1017B00061F410923004809132048093BB008091D8
:1017C000BC0083FDF8CF85EC01C085EE8093BC00A2
:1017D000809133048130E1F380910F04841710F479
:1017E00040910F04A0E1B4E0962FFB018E2F891BDE
:1017F000841718F48D918193F9CF842F089580E098
:1018000008950F93413208F04AC09091330491112A
:10181000FCCF32E030933304009331043FEF309338
:101820000D0410920F0440930E04562FA0E1B4E073
:10183000FB013E2F351B341718F431913D93F9CF3E
:101840001092320430913204880F832B809332043B
:1018500080913004813061F4109230048091320420
:101860008093BB008091BC0083FDF8CF85EC01C064
:1018700085EE8093BC00222321F0809133048230D6
:10188000D1F380910D04803331F08F3F49F08032E5
:1018900021F492E005C093E003C094E001C091E020
:1018A000892F0F91089585ED8093BC008091BC0035
:1018B00084FDFCCF10923304089585EC8093BC0026
:1018C0001092330408951F920F920FB60F921124B5
:1018D0002F933F934F935F936F937F938F939F9338
:1018E000AF93BF93EF93FF938091B900887F8832C5
:1018F00039F170F4803109F130F4882309F466C0BD
:101900008830D9F067C08831D9F0803279F162C06F
:101910008034D9F150F4803349F1883309F05AC04A
:1019200080930D040E945D0C55C0803511F18835FF
:10193000A1F1883409F04EC04BC08091320410C030
:1019400090910F0480910E04981798F5E0910F0480
:1019500081E08E0F80930F04F0E0E05FFB4F808109
:101960008093BB0085EC8093BC0034C080930D0451
:101970002FC0E0910F0481E08E0F80930F048091BF
:10198000BB00F0E0E05FFB4F808390910F048091FB
:101990000E04981738F385E8E6CFE0910F0481E054
:1019A0008E0F80930F048091BB00F0E0E05FFB4F4F
:1019B00080838091310481110BC081E080933004D9
:1019C00084EA8093BC001092330404C010920D048A
:1019D0000E94530CFF91EF91BF91AF919F918F9116
:1019E0007F916F915F914F913F912F910F900FBE1B
:1019F0000F901F901895FC0182818F5BFB01808303
:101A000081E00895CF93DF93CDB7DEB769970FB626
:101A1000F894DEBF0FBECDBFFC01DB019C919F5F40
:101A20009C93BE016F5F7F4F89E1DB011D928A9518
:101A3000E9F729E0298384E08A8391E09D8383E0AC
:101A40008E839F8398872A8721E22B879C879D8797
:101A50009F8722E2288B2FE3298B27E02B8B25E021
:101A60002C8B8E8B20E430E0388F2F8B998F8281E6
:101A70008B83838180688D8B49E150E080E00E94F8
:101A8000412469960FB6F894DEBF0FBECDBFDF913B
:101A9000CF910895FC01DB01828190E014962D9195
:101AA0003C91159782179307E1F511968C91119748
:101AB0009C91913A61F4813091F1833011F4848DDD
:101AC00003C0823071F5858D8093F10028C091327A
:101AD00041F58B3021F412968C91848F20C08A308E
:101AE00011F4158E1CC08930E1F4CF0116962D91AA
:101AF0003C91179713964C91423039F421303105BF
:101B000081F461E070E04E9608C0413051F4283015
:101B1000310539F468E070E00B960E94682481E09A
:101B2000089580E00895FC01DB018C918138B9F4BF
:101B300013968C911397823291F4828190E01496DF
:101B40002D913C9115972817390749F48285848F88
:101B50004FE350E066E773E080E80C94412480E0B6
:101B600090E00895FC0181E0848385839F01255ED8
:101B70003F4F378326831186108625E831E0318375
:101B800020838287848F858F168E81EC838F0895C2
:101B9000FC01868D0895FC01848D0895FC01648FFD
:101BA0000895EF92FF920F931F93CF93DF938C01D1
:101BB000EC012B967C0183E1E80EF11C48E050E03B
:101BC000BE01C7010E943A28892B81F0F801838168
:101BD00048E050E0BE0180640E94922328E0FE01AC
:101BE000D70101900D922A95E1F702C08FEF9FEF88
:101BF000DF91CF911F910F91FF90EF90089520E218
:101C0000260F283058F441E050E001C0440F2A95D7
:101C1000EAF7FC012385422B438716C0FC013D9661
:101C200020E030E04191641779F0411105C0FC01DA
:101C3000E20FF31F658708C02F5F3F4F2630310545
:101C400089F780E090E0089581E090E0089520E237
:101C5000260F283068F4622F21E030E001C0220F07
:101C60006A95EAF72095FC0133852323238723C057
:101C7000FC01AC014A5F5F4FDC011D962C911D9762
:101C8000621303C01D961C921D9711964A175B079D
:101C9000A1F720E03585332351F0DC01A20FB11DFF
:101CA0001D966C911D971D963C9365872F5F31960D
:101CB000E417F50779F781E090E008950B9628E0A6
:101CC000FC0111922A95E9F70895CF93DF93EC0177
:101CD0000E945522BE010E940E22CE010E945E0E7D
:101CE000CE01DF91CF910C94D10D84E394E00C945C
:101CF000B20D80916904811113C0109254041092A6
:101D0000530485EB93E0909356048093550489E146
:101D100090E0909358048093570481E08093690485
:101D20000E94C21263E574E00C944F12DC0120E0C3
:101D300030E04D915D91452B41F4220F331FFC01A2
:101D4000E20FF31F7183608308952F5F3F4F2430AC
:101D5000310579F7089528E0FC0111922A95E9F7F9
:101D60000895CF93DF93EC010E94C21228E030E087
:101D7000AE0164E0DF91CF910C946C120F931F932E
:101D8000CF93DF93EC018C01085F1F4F48E050E0D8
:101D9000BC01C8010E943A28892B51F0CE010E9453
:101DA000B10E88E0FE01D80101900D928A95E1F70D
:101DB000DF91CF911F910F91089528E0FC011192BE
:101DC0002A95E9F70C94BE0E0C94DD0E89E594E09B
:101DD0000C94790E8091B104811113C01092720499
:101DE000109271048EEC93E09093740480937304CA
:101DF00081E490E0909376048093750481E0809371
:101E0000B1040E94C21261E774E00C944F12CF93A8
:101E1000DF93EC010E94C2122DE130E0AE0168E0D8
:101E2000DF91CF910C946C12EF92FF920F931F935E
:101E3000CF93DF93EC017C018DE1E80EF11C4DE1C5
:101E400050E0BE01C7010E943A28892B09F443C023
:101E50000D8D1881802F80958123B1F04CE150E0E9
:101E6000BE016F5F7F4FCE014E960E943A28892BAC
:101E700059F01D8F0E94C2122DE130E0A70168E0E9
:101E80000E946C120D8F19C0812F80958023A9F0BC
:101E90004CE150E0BE016F5F7F4FCE014E960E9435
:101EA0003A28892B51F008830E94C2122DE130E0BC
:101EB000AE0168E00E946C121883CE010E94070FE9
:101EC0001816190654F42DE1FE01D70101900D9268
:101ED0002A95E1F702C08FEF9FEFDF91CF911F911D
:101EE0000F91FF90EF9008956E3D90F4262F269568
:101EF00026952695FC01E20FF11D677081E090E0C8
:101F000001C0880F6A95EAF79181892B81830DC002
:101F1000605E683068F421E030E001C0220F6A950D
:101F2000EAF7FC013081232B208381E090E00895C3
:101F300080E090E008956E3D98F4262F2695269532
:101F40002695FC01E20FF11D677081E090E001C071
:101F5000880F6A95EAF780959181892381830EC065
:101F6000605E683070F421E030E001C0220F6A95B5
:101F7000EAF72095FC0130812323208381E090E063
:101F8000089580E090E008952DE1FC0111922A95DA
:101F9000E9F70895CF93DF93EC010E94C40FCE01BF
:101FA000DF91CF910C94070F0C94CA0F87E794E050
:101FB0000C94EA0E0F93FC01618342832383048314
:101FC0000F91089525E0FC0111922A95E9F70895F3
:101FD000FC012081622B608308956095FC012081C3
:101FE000622360830895CF93DF93EC010E94C212B5
:101FF00025E030E0AE0161E0DF91CF910C946C12EE
:102000000F931F93CF93DF93EC018C010B5F1F4F56
:1020100045E050E0BC01C8010E943A28892B49F4F0
:1020200045E050E069EB74E0CE010E943A28892B2C
:1020300051F0CE010E94F30F85E0FE01D80101901E
:102040000D928A95E1F7DF91CF911F910F9108953D
:10205000CF93DF93EC010E94E20FCE01DF91CF918D
:102060000C940010CF93DF93EC018091CE0481118A
:1020700013C01092BF041092BE048FE094E09093BE
:10208000C1048093C0048AE390E09093C3048093DA
:10209000C20481E08093CE040E94C2126EEB74E011
:1020A0000E944F12CE01DF91CF910C9428108091A5
:1020B000DD04811113C01092D7041092D60489E474
:1020C00094E09093D9048093D80488E190E09093B1
:1020D000DB048093DA0481E08093DD040E94C21265
:1020E00066ED74E00C944F120F931F93CF93DF9320
:1020F000EB018A010E94C2129801AE0165E0DF91F6
:10210000CF911F910F910C946C12CF93DF931F927C
:10211000CDB7DEB7198241E050E0BE016F5F7F4F5F
:102120000E9474100F90DF91CF9108950C94851048
:102130000C948510CF93DF931F92CDB7DEB76983E0
:10214000633829F485E696E00E948A2607C041E0BC
:1021500050E0BE016F5F7F4F0E9474100F90DF91BF
:10216000CF9108958CED94E00C945710CF93DF93AA
:10217000CDB7DEB769970FB6F894DEBF0FBECDBFFF
:10218000FC01DB019C919F5F9C93BE016F5F7F4FC1
:1021900089E1DB011D928A95E9F729E0298384E032
:1021A0008A8391E09D8383E08E832A8721E22B87B7
:1021B0009C879D879F8722E2288B25E3298B27E038
:1021C0002B8B25E02C8B8E8B20E430E0388F2F8BEF
:1021D000998F82818B83838180688D8B49E150E068
:1021E00080E00E94412469960FB6F894DEBF0FBECE
:1021F000CDBFDF91CF910895FC01838180640C9461
:1022000092230A970C94FC10FB0120812138B9F429
:1022100023812232A1F4DC0112962C91129730E036
:10222000448155814217530751F421E052962C9373
:1022300045E350E061E674E080E80C94412480E0DE
:1022400090E00895DC01FB0112968C91129790E0CA
:102250002481358182179307D1F491818081813A5D
:1022600031F481E0913091F0933089F411C08132E2
:1022700071F49B3021F4828152968C9305C09A3080
:1022800031F4828153968C9381E00895089580E023
:102290000895CF93DF93EC0181E08C838D839E01C1
:1022A0002F5E3F4F3F832E83198618861D861C861E
:1022B0001F861E86188A21E931E0398328832FE999
:1022C00031E03B872A878A8B8B8B81EC898B0E943C
:1022D0005522BE01DF91CF910C940E2285EE94E041
:1022E0000C944911FB018BE6808382E6818389E6A9
:1022F00082838FE6838380E3848381E3858386E022
:102300000895CF93DF93CDB7DEB769970FB6F894F2
:10231000DEBF0FBECDBFFC01DB018C918F5F8C93C4
:10232000BE016F5F7F4F89E1DB011D928A95E9F75E
:1023300029E0298384E08A8391E09D8383E08E8372
:102340002A8721E22B879C879D879F8722E2288B03
:1023500027E02B8B25E02C8B8E8B20E430E0388F10
:102360002F8B998F82818B8395858685998B8A8B1C
:10237000838180688D8B49E150E080E00E94412498
:1023800069960FB6F894DEBF0FBECDBFDF91CF9137
:102390000895CF93DF93FC01DB01828190E01496D6
:1023A0002D913C91159782179307A9F511969C9151
:1023B00011978C91813A31F481E0913069F1933039
:1023C00051F52AC0813239F59B3021F412968C9157
:1023D000878705C09A3029F412968C91808B81E012
:1023E0001BC09930C1F4EF0116968D919C911797FF
:1023F0008230910539F462E070E0CF0141960E948D
:10240000682409C0019739F461E070E0CF01429679
:102410000E946824198A80E0DF91CF910895EF929D
:10242000FF920F931F93CF93DF93FB0120812138FD
:1024300051F52381223239F5DC0112962C9130E0DE
:102440004481558142175307F1F4EC010B851C853B
:10245000E12CF12C0115110591F0F8014481558111
:102460006281738180E80E9441248F3FFFEF9F07C4
:1024700069F0E80EF91ED8010D911C91EBCF81E0B7
:102480008F87C70105C080E090E002C08FEF9FEF0B
:10249000DF91CF911F910F91FF90EF900895FC0174
:1024A000A385B485109719F47487638709C08D914B
:1024B0009C911197009711F0DC01F9CF6D937C93FB
:1024C00025853685DB0114968D919C911597820F99
:1024D000931F968785870895AF92BF92CF92DF9220
:1024E000EF92FF920F931F93CF93DF931F92CDB77D
:1024F000DEB77C0169836A01590141E050E0BE0109
:102500006F5F7F4FFC0183810E9492238C0197FDB6
:102510000BC0F7018381A501B60180640E9492235C
:1025200097FD02C0800F911F0F90DF91CF911F91F7
:102530000F91FF90EF90DF90CF90BF90AF900895F4
:10254000CF93DF93EC0181E08C838D839E01265F26
:102550003F4F3F832E831986188625EA31E0398361
:1025600028831C861B861E861D868F87888B198A6A
:102570001A8A81EC8A870E945522BE01DF91CF9191
:102580000C940E2280910C05811107C089EF94E014
:102590000E94A01281E080930C0589EF94E00895D9
:1025A0000F931F93CF93C82F0E9404270091150506
:1025B00010911605209117053091180560177107C5
:1025C0008207930798F10E9404272091050130911A
:1025D0000601DC01CB01820F931FA11DB11D809369
:1025E000150590931605A0931705B0931805C0FF25
:1025F00004C020E04091070112C0C1FF05C0409116
:102600000701419520E00BC0C2FF04C020910701E3
:10261000219504C0C3FF0AC02091070140E060E09B
:1026200080E0CF911F910F910C947A0ACF911F9166
:102630000F9108950E94CD0A0E94C90A10922105A7
:1026400080E090E008950F931F9380912105811100
:1026500013C0109224051092190510921A051092B9
:102660001B0510921C0510921D0510921E0510925C
:102670001F051092200573C00E94042700911905C0
:1026800010911A0520911B0530911C0560177107E8
:102690008207930708F463C00E94042720910B016E
:1026A00030910C01DC01CB01820F931FA11DB11DE4
:1026B0008093190590931A05A0931B05B0931C05F0
:1026C0000E94042700911D0510911E0520911F05F1
:1026D00030912005601771078207930720F19091D0
:1026E000240580910A01492F50E02FEF30E0281B8C
:1026F0003109421753071CF4890F809324050E9467
:1027000004272091080130910901DC01CB01820FDF
:10271000931FA11DB11D80931D0590931E05A093CD
:102720001F05B09320058091210580FF04C06091B2
:102730000D01619506C081FF03C060910D0101C0CC
:1027400060E082FF04C080910D01819506C083FF87
:1027500003C080910D0101C080E00E944C1580E013
:1027600090E01F910F9108950F93CF93DF93FB019A
:102770008181803509F07DC0EB019081292F207285
:10278000802F8270392F307496FF16C0211114C02B
:10279000C92FCF7B0170882341F0011102C00E9434
:1027A000A6148C2F0E947E1493C0002309F490C0BD
:1027B0008C2F0E9480148CC0211137C00170882397
:1027C00009F45AC001117FC00E94042720910B0117
:1027D00030910C01DC01CB01820F931FA11DB11DB3
:1027E0008093190590931A05A0931B05B0931C05BF
:1027F0000E9404272091080130910901DC01CB01DE
:10280000820F931FA11DB11D80931D0590931E057E
:10281000A0931F05B0932005109215051092160580
:1028200010921705109218054EC0882309F450C065
:1028300000FD4EC090FD02C080E001C082E021E0BA
:10284000311101C020E0822B91FD02C020E001C0C7
:1028500024E0822B92FD02C020E001C028E0822B00
:1028600093FD02C090E001C090E1892B0E94AC145E
:102870002FC080E090E035C0002351F19095809109
:1028800021059823909321058881982F937031F02A
:1028900020E084FD0DC040E061E011C0982F9C70E5
:1028A00049F084FD09C020E040E060E081E008C01C
:1028B00041E004C020E001C021E040E060E080E0B1
:1028C0000E94850A05C0888184FF05C00E94D0123D
:1028D00081E090E006C090912105892B809321052D
:1028E000F7CFDF91CF910F9108950E947A1480E085
:1028F00090E008950E94760A0C94D10A0C94BF0AC5
:102900000E94C40A10922505089556954795640FB4
:10291000751F3695279540E0820F931F0C94DD0AB2
:10292000109227051092260510922905109228056D
:102930008FEF9FE790932D0580932C0590932B05A7
:1029400080932A0581E080932505089580912505CF
:1029500081110C94901408950F931F93CF93C82F57
:1029600080912505811102C00E949014C0FF06C00D
:1029700010922505CF911F910F910895E0911001BC
:102980000E2F10E080912C0590912D05B8010E942A
:10299000C8279B0170932D0560932C0580912A0513
:1029A00090912B05B8010E94C827AB0170932B05AD
:1029B00060932A057C2F74708091260590912705DD
:1029C000E0912805F09129056C2F6670663071F44E
:1029D000820F931F9093270580932605BA016E0FEF
:1029E0007F1F709329056093280534C0772361F019
:1029F000D8011197A49FB001A59F700DB49F700DD1
:102A00001124E60FF71F04C0C1FD06C0E40FF51F37
:102A1000F0932905E0932805C4FF0CC0F801319715
:102A2000E29FB001E39F700DF29F700D1124860F9D
:102A3000971F04C0C3FD06C0820F931F9093270504
:102A400080932605609128057091290580912605BF
:102A500090912705CF911F910F910C948514889F19
:102A600090011124232F3327829FA001839F500DB3
:102A70001124452F5527440F551FC901880F991F51
:102A8000820F931F0196841B950B8F3F910519F0C0
:102A900010F08FEF90E00895EF92FF920F931F9345
:102AA000CF93DF93182F062F80910F01E82EF12C82
:102AB000112309F44CC0662381F123E6829FC001F3
:102AC00011246CE870E00E94DC276115710509F0A3
:102AD0007B01212F012E000C330B43E61402C001B1
:102AE00011246CE870E00E94DC276115710509F083
:102AF0009B01122F202F002E000C330B43E6040203
:102B0000C00111246CE870E00E94DC27611571059A
:102B100009F09B01022F1123D1F0809124050E941E
:102B20002F1590912305282F1203E0011124C90FBE
:102B3000D11D97FDDA95EC16FD0664F088279927DC
:102B40008E199F09C817D90734F4EC0104C0C0E0FE
:102B5000D0E001C0E7010023D9F0809124050E9454
:102B60002F1520912205382F0303C0011124820F55
:102B7000911D27FD9A95E816F90664F02227332760
:102B80002E193F097C018217930724F4790102C0B2
:102B9000E12CF12C1092250520910E0130E0C701A7
:102BA000B9010E94DC27E62FCE01B9010E94DC2783
:102BB000862F20E040E06E2F0E947A0A20910E01BD
:102BC00030E0CE01B9010E94DC2780932305C701C4
:102BD000B9010E94DC2780932205DF91CF911F91DC
:102BE0000F91FF90EF900895262F20684FEF6FEF21
:102BF0000E94F4040E94200A0C94CD0A1F93CF93E4
:102C0000DF93C62F142FFC01D49141FF05C062E071
:102C10008D2F9C2F0E94F41510FF05C061E08D2FB1
:102C20009C2F0E94F415DF91CF911F9108951F935F
:102C3000CF93DF93EB01209709F442C010E0CE015F
:102C40000196FE01449150E0FA013197E830F10518
:102C500008F036C0EA5AFF4F9E012E5F3F4F0C949A
:102C60001228E901FC01149124C0E901FC016491DE
:102C700070E080E090E00E9435271BC0FC01649169
:102C8000239642E009C0FC016491239641E004C010
:102C9000FC016491239643E0C90109C0E90142E0C7
:102CA00005C0E90141E002C0E90143E060E00E94A3
:102CB000FE15612F70E080E090E00E943527BFCFC5
:102CC000DF91CF911F91089580E090E06134B8F4D6
:102CD0006A3360F5603229F148F46A30F1F018F493
:102CE0006830C8F408956B31D1F008956133D8F499
:102CF000E62FF0E0EE0FFF1FEC5AFB4F2DC06136C0
:102D000028F46B35D0F498E083EC0EC06B37E0F01C
:102D10006F37E0F0089582E207C088E2089589E203
:102D200008958CE208958DEE860F0895E62FF0E069
:102D3000EE0FFF1FEE5BFB4F0FC0E62FF0E0EE0F34
:102D4000FF1FE25FFB4F08C083EAEECFE62FF0E003
:102D5000EE0FFF1FE652FC4F859194910895CF929C
:102D6000DF92EF92FF920F931F93CF93DF936C014B
:102D70008B01F80164916623A1F0C6010E946416DC
:102D8000EC01E12CF12C8E159F0519F40F5F1F4FFC
:102D9000F0CF62E00E94F41561E0CE010E94F415CC
:102DA000F5CF80E090E0DF91CF911F910F91FF90E0
:102DB000EF90DF90CF9008950F93FB0181818036D3
:102DC000C9F4809131058830C0F49081E82FF0E09B
:102DD000BF01660F771FE60FF71FEE5CFA4F908377
:102DE00090E1499F200D1124218302838F5F8093FE
:102DF000310503C080E090E002C081E090E00F91D7
:102E000008951092310580E090E00895CF93C0E0DE
:102E100080913105C81748F58C2F90E0FC01EE0F2A
:102E2000FF1FDF01A80FB91FAE5CBA4F11962C919E
:102E30002F3F19F42093300506C0322F32953F7092
:102E4000309330052F7020932F058E0F9F1FFC01AC
:102E5000EE5CFA4F628180810E940503BC018EE224
:102E600095E00E941716CF5FD3CF80E090E0CF911E
:102E7000089510924E0580E3EFE4F5E0DF011D9226
:102E80008A95E9F7089580914E050895E0914E05E1
:102E9000F0E0EE0FFF1FE15BFA4F80819181089512
:102EA000EFE4F5E020E030E041915191452B49F409
:102EB000F901EE0FFF1FE15BFA4F91838083822FB0
:102EC00008952F5F3F4F2831310571F78FEF089537
:102ED000CF93DF93EC010E945017E881F9810190B4
:102EE000F081E02DCE01099580E090E0DF91CF9157
:102EF00008959A01462F682F80E293E00C9476079C
:102F0000CF92DF92EF92CF936B01E82EC0E06E2D4F
:102F1000A6018C2F0E947917CF5FC034C1F7CF91E3
:102F2000EF90DF90CF90089560E070E080E00E9425
:102F30008017E0914E05F0E0EE0FFF1FE15BFA4FC6
:102F400080819181009739F0DC01ED91FC91028044
:102F5000F381E02D09940895883140F480934E0563
:102F600080914B05811102C00C94941708958091B3
:102F70004E058F5F80934E05883150F4E82FF0E0C6
:102F8000EE0FFF1FE15BFA4F20813181232B41F4CB
:102F900010924E0580914B05811104C00C9494173A
:102FA0000C94AC17089580914E05811110C087E1F3
:102FB000E82FF0E0EE0FFF1FE15BFA4F2081318137
:102FC000232B31F48150A1F710924E0503C081509C
:102FD00080934E0580914E050C94AC179C01EFE454
:102FE000F5E080E0419151914217530711F40C94A0
:102FF000AC178F5F8831B1F708950C94EE17762FD8
:10300000642F0E94801708950F931F938901242F26
:10301000462F682F80E293E00E94BF071F910F9117
:10302000089580E293E00C94D107CF93DF9360E0A2
:1030300070E080E00E948017CFE4D5E089919991FB
:10304000009739F0DC01ED91FC910190F081E02DC9
:103050000995B5E0CF37DB0789F70E940427209157
:10306000110130911201620F731F70934D0560932F
:103070004C0580E090E0DF91CF9108950F93FB0124
:1030800081818334C9F401FF0CC000FD0AC0FB013B
:103090002081318180E093E48217930729F40E9414
:1030A000B71781E090E00AC081E093E42817390760
:1030B000C1F70E94D317F5CF80E090E00F910895FB
:1030C00080914B05811133C0809156029091570237
:1030D00020914C0530914D05821B930B20911101DD
:1030E000309112012817390780F40E94111820919D
:1030F0004C0530914D058091110190911201820F84
:10310000931F90934D0580934C05E0914E05F0E0A0
:10311000EE0FFF1FE15BFA4F80819181009739F03C
:10312000DC01ED91FC910480F581E02D099580E0B2
:1031300090E008958AE495E00C9439170895089575
:103140000895089560E070E080E00E94801708957F
:10315000862F642F20E030E040E00E94041808959C
:1031600081EB91E09093800580937F0508950F9304
:103170001F93CF93DF936115710521F4642F742F92
:10318000842F61C026E0289FD001299FB00D112413
:103190008B2F9927AE7FBB27EFEFF0E0EF01C61B27
:1031A000D70BC49F9001C59F300DD49F300D1124C3
:1031B0006A9FE0016B9FD00D7A9FD00D1124CD2F17
:1031C000DD278F010C1B1D0B049FE001059FD00D17
:1031D000149FD00D11248F010A1B1B0B069FD001D9
:1031E000079FB00D169FB00D11246B2F7727E61B9C
:1031F000F70BE49FD001E59FB00DF49FB00D1124B3
:1032000082309105A1F038F4009769F00197B1F48C
:103210009D2F742F0AC08330910569F0049771F4D3
:103220009B2F732F0EC0942F7B2F432F0AC0932FF9
:10323000742F4B2F06C0932F7D2F03C0942F732F15
:103240004D2F642F892FDF91CF911F910F910895FA
:10325000CF93DF93D82FC62F0E940427F4E07695F2
:103260006795FA95E1F7862F67FD8095880F889F0F
:10327000B0011124672F7727AB01440F551F460F6C
:10328000571F869F9001879F300D1124832F992708
:10329000880F991F481B590B56954795405B50E086
:1032A0006C2F70E08D2F90E00E94B718DF91CF91C6
:1032B00008950E94110A817008950E9459198093FF
:1032C000820580E090E00895CF93C62F0E9459199F
:1032D0008C1729F061E083E590E00E948009CF918E
:1032E00008951F93CF93DF9320918305211116C07A
:1032F000EC010E945919182F0E9443170E94AC1725
:1033000080918205811105C060E0CE010E946419A0
:1033100010E01093820581E080938305DF91CF91C7
:103320001F9108959F92AF92BF92CF92DF92EF923A
:10333000FF920F931F93CF93DF930E9443170E9436
:10334000AC179AE5E92E92E0F92EC0E000E010E01B
:10335000D02FE0910101F0910201402F6C2FD70195
:10336000A00FB11F8C910995982EB92EA92EE0912E
:103370000101F0910201402F6C2F80918405099585
:10338000292D3B2D4091840554E44217530721F425
:10339000C0931801009317012817390739F4C12C7D
:1033A000D12C2C153D0511F0AA20A9F0E0914E0575
:1033B000F0E0EE0FFF1FE15BFA4F808191810097F3
:1033C000A1F0DC01ED91FC910680F781E02D4D2FFD
:1033D0006C2F09950AC0209114013091150140917C
:1033E00016016D2F8C2F0E9404180F5F1F4F0031A4
:1033F000110509F0ADCFCF5FB0E1EB0EF11CC43089
:1034000009F0A4CF80911801853088F480911701CC
:10341000813168F46FEF809113010E9428199B019C
:10342000482F60911701809118010E940418DF91C4
:10343000CF911F910F91FF90EF90DF90CF90BF90B1
:10344000AF909F900895CF93DF93EC018091840516
:103450000E94E505811104C0CE010E9471190DC0C2
:1034600080918305882331F061E0CE010E946419C8
:1034700010928305CE010E94921980E090E0DF91C6
:10348000CF910895EF92FF920F931F93CF93DF9305
:103490008AE5E82E82E0F82EC0E000E010E0D02FB0
:1034A000E0910101F0910201402F6C2FD701A00F94
:1034B000B11F8C91099540911C0150911D012091E3
:1034C0001F014817590739F42F3F29F4C093890584
:1034D000D093880518C02F3F41F080911E018F3F87
:1034E00021F0C21302C08D1789F30F5F1F4F003107
:1034F0001105A9F6CF5F80E1E80EF11CC43069F632
:1035000081E080938A05DF91CF911F910F91FF9009
:10351000EF90089580918A0581114DC080918605B4
:1035200090918705892B49F40E94042770938705A1
:10353000609386050E94421A3EC00E940427209193
:10354000860530918705AB01BC01421B530B610915
:1035500071098091190190911A01A0E0B0E08417DF
:103560009507A607B707D0F481E080938A05E0911C
:103570004E05F0E0EE0FFF1FE15BFA4F8081918175
:103580000097C9F0DC01ED91FC910680F781E02DF8
:10359000409188056091890509950DC06FEF809174
:1035A0001B010E9428199B01482F6091880580917A
:1035B00089050E94041880E090E00895FC01448190
:1035C000638182810C94FF17FC01862F642F248174
:1035D000338142810E9404180895FC018DEB91E033
:1035E000918380836283438324830895FC016381F4
:1035F00082810E9428190E9480170895EBE8F5E067
:1036000089EC91E0918380838AEA82838FEF8383C0
:103610000895CF93DF93EC019D81963918F49F5F55
:103620009D832CC01D822B819C818A8140E050E0CB
:1036300060E0299F801911240E94791740E050E032
:1036400060E08A810E9479179B818A81890F8A8331
:103650002FEF280F2E3310F091959B8340E050E020
:103660006FEF0E9479172B819C818A814FEF50E088
:1036700060E0299F801911240E947917DF91CF9172
:103680000895EFE8F5E085ED91E091838083128263
:1036900081E0838385E0848315820895CF93DF934F
:1036A000EC010E9404272D813E81AB01421B530B8C
:1036B0002F81388542175307E0F07E836D834A855A
:1036C00050E0698570E08A819B810E94B7189B0158
:1036D000482F5C818A819B81850F911D8F3F9105C9
:1036E00010F08F5F91099B838A83842FB9010E9418
:1036F0008017DF91CF9108951F93CF93DF93EC0153
:103700000E9404272D813E81AB01421B530B2F8168
:1037100038854217530760F17E836D8310E08A81FC
:103720009B81212F2695269530E1239F800D911DA9
:1037300011248F3F910510F08F5F91094A8550E069
:10374000698570E00E94B718AB01682F812F0E9435
:1037500079171F5F103419F72C818A819B81820FA2
:10376000911D8F3F910510F08F5F91099B838A8394
:10377000DF91CF911F910895FC0162870895FC01AC
:1037800062870895E0EAF5E081EE91E0918380831D
:103790001382128241E044831682158228E230E0CF
:1037A000308727839FEF918782E38287E5E9F5E001
:1037B0006DEE71E0718360831382128244831682FE
:1037C00015823087278391878287089580E4E1EB13
:1037D000F5E0DF011D928A95E9F708954F925F9217
:1037E0006F927F928F929F92AF92BF92CF92DF9211
:1037F000EF92FF920F931F93CF93DF931F92CDB75A
:10380000DEB78091AF059091B005892B09F459C0BE
:103810000E9404272B013C018091AD059091AE05DB
:103820006201C81AD90AA0902001B090210181EB51
:10383000882E85E0982EF12C8401E12CD8018C9102
:1038400089838823D1F18091AF059091B005DC0187
:10385000ED91FC910190F081E02DBE016F5F7F4FF3
:1038600009959B01482F6E2D8F2D0E940418AC14D2
:10387000BD0418F48981F8018083D8018C918111ED
:1038800007C020E030E040E06E2D8F2D0E9404182C
:10389000E3940F5F1F4FB0E1EB12D0CFF394E0E160
:1038A0008E0E911CF4E0FF12C7CFAC14BD0448F497
:1038B0005092AE054092AD0504C0AC14BD04D0F2E8
:1038C000E0CF0F90DF91CF911F910F91FF90EF907C
:1038D000DF90CF90BF90AF909F908F907F906F9030
:1038E0005F904F9008950F931F93CF93DF93EB0159
:1038F00098814FEF50E06FEF70E0913E58F02FEF5E
:1039000030E0F901E91BF109CF010E94B718E62F59
:10391000382F17C08EE190E00E94B718E62F272FAE
:103920004881489FC00111240FEF10E0B8010E94A8
:10393000DC27362F429FC0011124B8010E94DC27EA
:10394000762F9881913E10F0915003C0903418F07A
:103950009051988305C0903210F09052FACF18829F
:103960006E2F832FDF91CF911F910F9108950F93A9
:10397000443070F4203160F401FF0AC080E1489FB8
:10398000F0011124EF54FA4FE20FF11D8FEF808305
:1039900080E090E00F91089525E032E0FC01318352
:1039A0002083089589EF91E09093AC058093AB0557
:1039B00008950F931F9300E010E020E00E94F81D8F
:1039C0001F910F9108950F931F938091FB05909184
:1039D000FC05A091FD05B091FE05892B8A2B8B2B50
:1039E00079F00E9404270091FB051091FC052091BD
:1039F000FD053091FE05061717072807390760F106
:103A00008091F7059091F805A091F905B091FA051C
:103A1000892B8A2B8B2B89F10E9404270091F705B3
:103A20001091F8052091F9053091FA05061717074E
:103A30002807390710F54AE060E08091F30590917E
:103A4000F4050E94D91C1092F7051092F805109207
:103A5000F9051092FA0511C042E060E08091F50589
:103A60009091F6050E94D91C1092FB051092FC055E
:103A70001092FD051092FE05C3CF1F910F9108957E
:103A8000EF92FF920F931F93CF93DF93EB01122FCF
:103A90000E944617815F954009F05BC007FD59C041
:103AA000888199818430910508F453C0883291054A
:103AB00008F04FC001FF4DC01830F0F4E090F5055C
:103AC000F090F6059093F6058093F5050E94042783
:103AD0002091220130912301DC01CB01820F931F41
:103AE000A11DB11D8093FB059093FC05A093FD05DE
:103AF000B093FE0512E01DC0E090F305F090F405D0
:103B00009093F4058093F3050E94042720912201ED
:103B100030912301DC01CB01820F931FA11DB11D48
:103B20008093F7059093F805A093F905B093FA05F3
:103B30001AE088819981E816F90629F0412F60E0A2
:103B4000C7010E94D91C412F60E0888199810E94A1
:103B5000181E80E090E0DF91CF911F910F91FF90B0
:103B6000EF9008958BE092E09093F2058093F10539
:103B700008956F927F928F92BF92CF92DF92EF92D1
:103B8000FF920F931F93CF93DF936C01B42E3801F4
:103B9000822EC62F00E010E07801D0E0C6010E2C86
:103BA00002C0969587950A94E2F780FF07C0482DDA
:103BB00093016B2D6D0F8C2F0E940418DF5F8FEF28
:103BC000E81AF80AD43051F70C5F1F4FCF5F00316D
:103BD000110511F7DF91CF911F910F91FF90EF9099
:103BE000DF90CF90BF908F907F906F900C941118C2
:103BF000CF92DF92EF920F931F936801E22E8430F1
:103C0000910580F08832910568F42E2D8601E82F09
:103C1000E450F0E0EE0FFF1FE852FB4F85919491C6
:103C20000E94B91D1F910F91EF90DF90CF900895E2
:103C30000F931F93009124011091250120912601DB
:103C40000E94F81D1F910F910895CF93C8E080E264
:103C500093E00E94F807C150D1F780E293E00E9400
:103C6000F80767E380E293E00E94ED088823A9F358
:103C700080E293E00E94F408813079F78091280374
:103C800090912903A0912A03B0912B03892B8A2BB1
:103C90008B2B19F7CF9108950E9480170E9411185D
:103CA0000C94251E8F929F92AF92BF92EF920F932A
:103CB0001F93CF93DF93FC01DA01922F802F28E02E
:103CC000929F800D1124EB01488159816A817B818B
:103CD000082E04C076956795579547950A94D2F7B4
:103CE000242F2170220F4D915D916D917C91082EB2
:103CF00004C076956795579547950A94D2F7417019
:103D0000242BDF01A80FB11D3C912130E1F43E319D
:103D1000C0F441E050E060E070E0082E04C0440FC1
:103D2000551F661F771F0A94D2F780A091A0A2A00A
:103D3000B3A0482959296A297B2940A351A362A32A
:103D400073A31C920BC03F3110F43F5F3C932330B0
:103D500029F44E2D401B00E019EC19C040A151A1DF
:103D600062A173A104C076956795579547958A958A
:103D7000D2F740FF06C04E2D401B00E010E029ECBA
:103D800007C0223051F44E2D401B09EC10E020E01A
:103D9000692F80E293E00E94BF07DF91CF911F91CE
:103DA0000F91EF90BF90AF909F908F900895AF923A
:103DB000BF92CF92DF92EF92FF920F931F93CF9318
:103DC000DF93CDB7DEB7C854D1090FB6F894DEBF84
:103DD0000FBECDBF84E26E0125E2C20ED11CF601FA
:103DE000282F11922A95E9F7FE0131965F01119271
:103DF0008A95E9F740E060E088EC0E94FF1780E2D6
:103E000093E00E94F80761E080E293E00E94ED08F1
:103E10008823A1F067E080E293E00E94ED08882308
:103E200069F067E380E293E00E94ED08882331F0B7
:103E300080E293E00E94F408833009F110E0F12C55
:103E400087E0E82E0F2D212F40E253E068E273E077
:103E5000C6010E94521E9FE0E92E212F44E253E04A
:103E60006CE273E0C5010E94521EF394F8E0FF1269
:103E7000E7CF1F5F143019F70E941118C0CFC85B3D
:103E8000DF4F0FB6F894DEBF0FBECDBFDF91CF91ED
:103E90001F910F91FF90EF90DF90CF90BF90AF9068
:103EA00008955D9A289A0895CF92DF92EF92CF936A
:103EB000DF93C0903D01D0903E01E0903F0160E073
:103EC00070E089EC0E944C1E60E079EC80E00E947A
:103ED0004C1E69EC70E080E00E944C1E8E2DB601F5
:103EE0000E944C1EC8EED3E080EA95E00E944E1B73
:103EF0000E9411182197C1F7DF91CF91EF90DF90C9
:103F0000CF900C94251E0E94511F62E080E293E046
:103F10000E94BA080E94541F0C94D71E61E080E2F0
:103F200093E00E94ED088823B1F067E080E293E01F
:103F30000E94ED08882379F067E380E293E00E9415
:103F4000ED08882341F080E293E00E94F40883307A
:103F500011F40E94831F80E090E0089590916A061A
:103F60008091270190FF0FC081111AC08091010636
:103F7000811106C081E08093010680E090E00EC0D0
:103F800081E090E00BC08111109227018091010621
:103F9000882331F01092010682E090E00E945D03D8
:103FA00080E090E00895BF92CF92DF92EF92FF926F
:103FB0000F931F93CF93DF9310E0009140011017F0
:103FC00008F063C0C12FD0E06E0123E0CC0CDD1CF3
:103FD0002A95E1F7E12CF12C82E0C80ED11CBE2C11
:103FE000F601EE0DFF1DE251FF4F6491662379F05B
:103FF00080E293E00E94ED08882361F0EFEFEE1A73
:10400000FE0AF5E0EF16F10451F795E0B92EFF2412
:10401000F39401C0F12C80E293E00E94F408B812FE
:1040200032C0FF2081F10E940427C0900306D09087
:104030000406E0900506F09006066C157D058E05D9
:104040009F0508F1FE0183E0EE0FFF1F8A95E1F75F
:10405000E251FF4F25913491812FF90109950E947A
:1040600004272091280130912901DC01CB01820F26
:10407000931FA11DB11D8093030690930406A09386
:104080000506B09306061F5F9ACF80E090E0DF91AF
:10409000CF911F910F91FF90EF90DF90CF90BF9045
:1040A0000895CF9384E394E00E94CB0DC1E0811189
:1040B000C0E080E293E00E94C608C0933E046C2FEB
:1040C00084E394E00E94CE0D68EE73E080E090E01F
:1040D0000E94352780E293E0CF910C94CC08CF93D7
:1040E000DF931F92CDB7DEB76983DC01ED91FC91C0
:1040F0000280F381E02D41E050E0BE016F5F7F4F11
:1041000009950F90DF91CF910895CF93DF93EC0144
:104110008C859D8597FF05C082E00E9461239D8765
:104120008C878C859D85DF91CF91089583E00E94D7
:10413000782390E0089583E00C94F525FC018485B4
:10414000958597FD06C082E00E940D2390E00196C0
:10415000089582E00E940D2390E00895FC0184857B
:10416000958597FD05C02FEF3FEF3587248708958C
:1041700082E00C946123CF93DF93EC0180913501B1
:10418000882331F083E00E9492231816190634F038
:1041900081E090E09B838A8380E090E0DF91CF9183
:1041A0000895EEEFFFE72591349181E02B3F3C4DE0
:1041B00009F080E00895FC0190819E5F908342E4C5
:1041C00050E060E275E080E80C944124FC018181BC
:1041D0009081913A59F4813209F065C047E050E08E
:1041E0006EE271E080E00E9441245BC0913209F0F0
:1041F0005AC0833269F482819381A0E0B0E0809359
:104200002A0190932B01A0932C01B0932D0149C05A
:10421000803239F467E070E08EE291E00E94682419
:1042200040C0823209F03DC08281809335010E94F6
:10423000D120882319F0EEEFFAE002C0E0E0F8E0C8
:1042400080912E0190912F01A0913001B091310108
:10425000803B9440A105B10541F58091350180FD79
:1042600024C0EE3F8AE0F80751F0808191818737C2
:1042700027E7920721F09093FF0A8093FE0A87E7D1
:1042800097E79183808380916000809358069BE03C
:1042900088E10FB6F894A895809360000FBE9093C4
:1042A000600081E0089580E00895808191818737E2
:1042B0009747B9F7A8958091600088618093600066
:1042C0008091580680936000EE3F8AE0F80739F04D
:1042D0008091FE0A9091FF0A91838083E2CF109231
:1042E000FF0A1092FE0ADDCFE8E0F6E013821282A8
:1042F00088EE93E0A0E0B0E084839583A683B78343
:1043000087E192E0918380838FEF9FEF9587848789
:104310000895EF92FF920F931F93CF93DF937B014A
:10432000FC01C281D38100E010E0209781F0E88198
:10433000F9810280F381E02DB701CE01099597FD47
:1043400008C0080F191F0884D985C02DEECFC801F9
:1043500002C08FEF9FEFDF91CF911F910F91FF90E0
:10436000EF9008950F931F93CF93DF938B01FC0180
:10437000C281D381209771F0E881F9810480F581B1
:10438000E02DB801CE010995009731F40884D98554
:10439000C02DF0CF80E090E0DF91CF911F910F9181
:1043A00008950F931F93CF93DF938B01FC01C2817C
:1043B000D381209771F0E881F9810680F781E02DA3
:1043C000B801CE010995080F111D0884D985C02DAB
:1043D000F0CFF8011082DF91CF911F910F910895D6
:1043E0000F931F93CF93DF938B01FC01C281D38185
:1043F000209771F0E881F9810190F081E02DB801FA
:10440000CE010995811105C00884D985C02DF0CF52
:1044100080E0DF91CF911F910F910895CF93DF93AB
:10442000FC01DB01218114968C91149790E0820F9E
:10443000911D0897A4F5C281D381209719F4738345
:10444000628308C088859985009711F0EC01FACF46
:10445000B987A887808112968C93129781811396D1
:104460008C931397908115968C911597890F808363
:1044700080E014969C911497891798F41696CD9124
:10448000DC911797C80FD11D9881C181D0E0CA5C1B
:10449000DE4F988391819F5F91838F5FEACF80E0A9
:1044A00001C081E0DF91CF91089580915D06811177
:1044B0000DC082E08093590684E080935A061092E2
:1044C0005C0610925B0681E080935D0689E596E0CC
:1044D00008954091680650916906209166063091D2
:1044E000670642175307B4F49091E8009570E1F322
:1044F0009091E80092FD19C08093F10080916806C8
:104500009091690601968F739927892B19F48EEF84
:104510008093E800809168069091690601969093D7
:1045200069068093680681E0089580E00895DF922F
:10453000EF92FF920F931F93CF93DF93D82EF92E14
:10454000E42E062F10E0C8010196880F0E94692210
:1045500083E00E946922CD2DDF2D0C0F1D1FC01797
:10456000D10789F0E7FE03C0FE01849101C0888174
:104570000E946922F82E80E00E9469228F212196F4
:104580008111EDCF01C081E0DF91CF911F910F919B
:10459000FF90EF90DF9008958091D7008160809325
:1045A000D70080EA8093D80089B5806189BD89B53C
:1045B000826089BD09B400FEFDCF61E070E080E05B
:1045C00090E00E9435278091D8008F7C8061809395
:1045D000D8008091E000807F8093E0000895CF9321
:1045E000DF931F92CDB7DEB71982CE0101960E94EC
:1045F000DB200E945522BE016F5F7F4F0E94892100
:1046000089810F90DF91CF9108952FB7FC0120830E
:10461000F89467706093E9000895CF93DF931F9239
:10462000CDB7DEB7682FCE0101960E940523809199
:10463000F20099819FBF0F90DF91CF910895EF9283
:10464000FF920F931F93CF93DF931F92CDB7DEB7E7
:1046500090916C06992311F057FF03C08FEF9FEFE5
:1046600028C08A017B01682FCE0101960E94052394
:104670002091F20030E0021713070CF49801822F0A
:10468000F70194E6815030F090936D064091F1006F
:104690004193F8CF2115310521F08091F200882354
:1046A00021F089818FBFC90104C08BE68093E800A7
:1046B000F8CF0F90DF91CF911F910F91FF90EF9066
:1046C0000895CF93DF931F92CDB7DEB741E050E05E
:1046D000BE016F5F7F4F0E941F23019719F48981EC
:1046E00090E002C08FEF9FEF0F90DF91CF91089580
:1046F000CF93DF931F92CDB7DEB7682FCE0101961F
:104700000E9405239091E800892F807295FF04C0D4
:104710009091F20080E4891B99819FBF0F90DF91F7
:10472000CF9108955F926F927F928F929F92AF92F6
:10473000BF92CF92DF92EF92FF920F931F93CF938E
:10474000DF931F92CDB7DEB7982E6B01B42E052FE5
:1047500080916C06811103C08FEF9FEF76C080912E
:104760006A0680FF05C08091E00082608093E000CF
:10477000EB2CF02EA12C8AEF882E892D8072682ECA
:10478000892D8074582E9AE3792EE114F10419F4DE
:10479000AA2009F455C0892D0E947823182F811171
:1047A0000AC08A948820C1F261E070E080E090E065
:1047B0000E943527EACF90E0E816F9060CF41E2D8A
:1047C000692DCE0101960E9405238091E80085FFA6
:1047D00034C0812F90E0E81AF90A662029F01150C0
:1047E000A0F01092F100FBCFF60197FE0AC0115025
:1047F00050F024912093F1003196F9CF219120932C
:10480000F1001150D8F7C80ED91EAA2019F07092E5
:10481000E8000BC08091E80085FD09C07092E800B7
:10482000AA24A394E114F10441F0A12C06C0E114E0
:10483000F10419F451107092E80089818FBFA5CF5F
:1048400084E680936E068B2D902F0F90DF91CF9191
:104850001F910F91FF90EF90DF90CF90BF90AF909E
:104860009F908F907F906F905F9008951092E900D5
:104870001092690610926806909367068093660608
:104880000895DF92EF92FF920F931F93CF93DF93E0
:10489000D82E8A017B01E40EF51EEB01CE15DF0553
:1048A00071F0D7FE03C0FE01849101C088810E948F
:1048B000692221968111F2CF8FEF9FEF01C0C801CD
:1048C000DF91CF911F910F91FF90EF90DF900895AE
:1048D000CF93DF93EC019B01B4E6ABEF21153105DB
:1048E000F1F0A9012134310514F040E450E0809149
:1048F000E80082FFFCCF942FFB01E21BF30BEC0FCF
:10490000FD1F915028F08091F10080833196F9CFFE
:10491000B0936D06A093E800241B350BDFCFCB01CD
:10492000DF91CF9108951F920F920FB60F9211242D
:10493000CF92DF92EF92FF920F931F932F933F93AB
:104940004F935F936F937F938F939F93AF93BF9397
:10495000EF93FF93CF93DF93CDB7DEB76C97DEBFB6
:10496000CDBF1092E9008091E80083FF1FC189E06C
:10497000FE017596FE2E0F2F815029F09091F100C7
:1049800090833196F9CF84E680936D0682EF809311
:10499000E8008D8987FF05C09091E80090FFFCCF6B
:1049A00003C09EEF9093E800982F907609F0D7C04F
:1049B0009E894F89588D2F89188D91110CC0803890
:1049C00029F480916B068093F10002C01092F100EF
:1049D0001092F100E4C0913051F48111E0C04130F7
:1049E000510509F0DCC080916B068D7F0BC09330C0
:1049F00061F48111D4C04130510509F0D0C08091DB
:104A00006B06826080936B06CAC0953049F4809132
:104A1000E80080FFFCCF822F80688093E300BFC056
:104A2000963009F06FC0CB8CDC8C123069F580E0D9
:104A300090E00E9436240E94EF2299E09E012F5FB1
:104A40003F4F7901F901292F11922A95E9F79983AE
:104A50001A8391E09E8390EA98879AEF9987209134
:104A6000680630916906275F3F4F3C832B838D8317
:104A7000C6010E94362449E050E0B70180E00E9460
:104A800041240E94EF228BC0C6010E9436240E945E
:104A900055226F2D702F0E94B221009719F00CF053
:104AA0007EC081C0113009F46FC0133009F07BC0A3
:104AB0008F89882309F46BC0823029F440E868E0CC
:104AC0008FE795E006C0813039F440E86AE084E77A
:104AD00095E00E94972255C0833009F064C00E947F
:104AE00055228E010F5F1F4FB8010E94D121F8019E
:104AF00001900020E9F73197BF01601B710B40E086
:104B0000C801E7CF973009F44EC0983021F481E016
:104B10008093F10044C0993009F041C0837009F0DE
:104B200042C0E7E3F1E081E031E096E3208121112A
:104B300009C08EE78093EA001092EA008F89809383
:104B40006C062DC08093E9003093EB0021912093F7
:104B5000EC009093ED008F5F873041F7EACF8B8DAB
:104B60009C8D0E943624898D811105C08F2D902F38
:104B70000E94E62006C00E9455226F2D702F0E94D1
:104B8000F021882381F00BC062E675E002C068E87E
:104B900075E0FB01449150E080E80E9441248EEFD3
:104BA0008093E80003C081E28093EB006C960FB61F
:104BB000F894DEBF0FBECDBFDF91CF91FF91EF9193
:104BC000BF91AF919F918F917F916F915F914F9125
:104BD0003F912F911F910F91FF90EF90DF90CF9019
:104BE0000F900FBE0F901F9018958093E900809151
:104BF000F200882319F08AE38093E80008951F9259
:104C00000F920FB60F9211242F933F934F935F9300
:104C10006F937F938F939F93AF93BF93CF93EF93B4
:104C2000FF93C091E1008091E100837F8093E100D8
:104C3000C3FF0FC01092E90081E08093EB00109257
:104C4000EC0082E38093ED0010926C0688E0809384
:104C5000F000C2FF15C083E00E94F52580916E062A
:104C6000882329F080916E06815080936E06809192
:104C70006D06882329F080916D06815080936D0622
:104C8000C4FF10C08091E2008E7E81608093E200BC
:104C90008091E1008F7E8093E10080916A068E7E94
:104CA000806111C0C0FF11C08091E2008E7E8061E2
:104CB0008093E2008091E1008E7E8093E1008091FC
:104CC0006A068E7E816080936A06FF91EF91CF9194
:104CD000BF91AF919F918F917F916F915F914F9114
:104CE0003F912F910F900FBE0F901F90189510922B
:104CF0006C0610926B0610926A060E94CC22E1EEBE
:104D0000F0E080818E7E80838DE08093E200559A72
:104D1000209A08958091E0008D7F8093E00080913B
:104D2000E00081FD08C080916A0680FF04C0809188
:104D30006B0681FD02C080E008950E94CC22809124
:104D4000E00082608093E00081E0089508950E9471
:104D500071270E94A62685E696E00E9477260E948B
:104D60009003C0E0D0E00E94BE032097E1F30E94D0
:104D70000000F9CF1F920F920FB60F9211242F93BC
:104D80003F938F939F93AF93BF93809170069091C1
:104D90007106A0917206B091730630916F0623E000
:104DA000230F2D3720F40196A11DB11D05C026E863
:104DB000230F0296A11DB11D20936F0680937006EC
:104DC00090937106A0937206B09373068091740657
:104DD00090917506A0917606B09177060196A11D77
:104DE000B11D8093740690937506A0937606B093D8
:104DF0007706BF91AF919F918F913F912F910F9027
:104E00000FBE0F901F9018952FB7F8946091700601
:104E10007091710680917206909173062FBF08956C
:104E20003FB7F8948091740690917506A09176062C
:104E3000B091770626B5A89B05C02F3F19F00196C3
:104E4000A11DB11D3FBFBA2FA92F982F8827820F10
:104E5000911DA11DB11DBC01CD0142E0660F771F60
:104E6000881F991F4A95D1F708958F929F92AF920C
:104E7000BF92CF92DF92EF92FF926B017C010E9472
:104E800010274B015C01C114D104E104F10401F1CC
:104E90000E94C7270E941027DC01CB0188199909BD
:104EA000AA09BB09883E9340A105B10560F321E042
:104EB000C21AD108E108F10888EE880E83E0981E36
:104EC000A11CB11CC114D104E104F10419F7DBCF1A
:104ED000FF90EF90DF90CF90BF90AF909F908F901A
:104EE0000895789484B5826084BD84B5816084BD62
:104EF00085B5826085BD85B5816085BDEEE6F0E053
:104F0000808181608083E1E8F0E0108280818260AE
:104F10008083808181608083E0E8F0E0808181602F
:104F20008083E1E9F0E0808182608083808181601C
:104F30008083E0E9F0E0808181608083E1ECF0E053
:104F400080818460808380818260808380818160B1
:104F50008083E3ECF0E0808181608083E0ECF0E02E
:104F6000808182608083E2ECF0E0808181608083D8
:104F7000EAE7F0E0808184608083808182608083C2
:104F80008081816080838081806880830895089516
:104F9000AA1BBB1B51E107C0AA1FBB1FA617B7075F
:104FA00010F0A61BB70B881F991F5A95A9F780957B
:104FB0009095BC01CD01089597FB072E16F400943F
:104FC00007D077FD09D00E94C82707FC05D03EF422
:104FD000909581959F4F0895709561957F4F0895A5
:104FE000A1E21A2EAA1BBB1BFD010DC0AA1FBB1FED
:104FF000EE1FFF1FA217B307E407F50720F0A21B5F
:10500000B30BE40BF50B661F771F881F991F1A94CB
:1050100069F760957095809590959B01AC01BD01F5
:10502000CF010895EE0FFF1F0590F491E02D099434
:105030000E9420288F93CB010E9420280C942728BF
:105040000E942A288F93892F0E942A2899270F903F
:10505000800D0895082E817006940694811D069493
:10506000811D0694811D0694811D0694811D069460
:10507000801D0895FB01DC0104C08D910190801911
:1050800021F441505040C8F7881B990B0895DC016A
:1050900001C06D9341505040E0F7089512E0C6ED15
:1050A000D2E004C0FE010E9412282196C73DD1071C
:0650B000C9F7F894FFCFE0
:1050B6000388050101320001400001010001107F53
:1050C600021000AA0000A0FFFFF023AA0043FFFF82
:1050D6003200E80380808001F401FFFFFFFF00E15A
:1050E60000000000000000C18081000000A0A0A018
:1050F6000103040B0C13141A1B24252B2C33343BED
:105106003C02050A0D1215191C23262A2D32353AA2
:105116003D0106090E1116181D2227292E31363992
:105126003E0007080F10171F1E2120282F30373882
:105136003F000000004A0D020D930DFB0C0000001D
:10514600002211B6100411FB0CFC10F6FF00000142
:105156001100000000C91181110F12721100000028
:10516600009E18A218A018A818000000009E18DEBD
:105176001AA018E41A000000009E189F18F61AA13B
:1051860018000000009E189F18091BA118000000B7
:10519600009E189F184E1BA118000000009E189F25
:1051A600187C1BA118000000009E18E61BEE1BA130
:1051B6001800000000731C000000009E189F18E3F2
:1051C6001CA118000000006F20BB2096209B209E8B
:0651D60020AE2085200040
:107000005FC0000078C0000076C0000074C00000BF
:1070100072C0000070C000006EC000006CC00000B4
:107020006AC0000068C000000EC5000064C0000017
:1070300062C0000060C000005EC000005CC00000D4
:107040005AC00000E6C0000056C0000054C0000056
:1070500052C0000050C000004EC000004CC00000F4
:107060004AC0000048C0000046C0000044C0000004
:1070700042C0000040C000003EC000003CC0000014
:107080003AC0000038C0000036C0000034C0000024
:1070900032C0000030C000002EC000002CC0000034
:1070A0002AC0000028C0000026C000008E3EA73E77
:1070B000533FA73E533FDF3E013F533F213F333F06
:1070C00011241FBECFEFDAE0DEBFCDBF11E0A0E09C
:1070D000B1E0E0E3FFE702C005900D92AC3AB107E2
:1070E000D9F721E0ACEAB1E001C01D92AC3BB20798
:1070F000E1F743D31BC784CF84E08093E9008091FC
:10710000E80085FD0DC08091E8008B778093E80052
:107110008091E80082FDF3CF8EB38111F9CF02C0D8
:107120008091F100089593E09093E9009091E80038
:1071300095FF03C08093F10008959091E8009E7739
:107140009093E8009091E80090FDF4CF9EB39111E8
:10715000F9CF089544E063E071E080EB71C3CF9311
:10716000DF9300D000D01F92CDB7DEB784E08983D3
:10717000809102018695869586958A831B821C8262
:107180008FEF8D8345E0BE016F5F7F4F80EB58D35B
:107190000F900F900F900F900F90DF91CF91089567
:1071A000F89410926F001092810010928500109256
:1071B000840081E085BF15BE0C940000089584B75B
:1071C000877F84BF0FB6F894A8958091600088618E
:1071D00080936000109260000FBE90E880E00FB6D0
:1071E000F89490936100809361000FBE81E085BFA9
:1071F00082E085BFE1E6F0E0908310821092890082
:107200009AEF9093880080936F0083E080938100D1
:1072100002C41F920F920FB60F9211242F938F93D7
:107220009F93EF93FF931092850010928400E0E00B
:10723000F0E085919491019649F08091AC01909194
:10724000AD0101969093AD018093AC01FF91EF9158
:107250009F918F912F910F900FBE0F901F901895B7
:1072600042E061EC82E06CD342E161E883E068D304
:1072700042E160E884E064C38091B401982F9F7775
:10728000913239F59091B501903291F0913209F532
:10729000813AF9F48091E800877F8093E80067E005
:1072A00070E087E091E080D48091E8008B770FC098
:1072B000813279F48091E800877F8093E80067E06D
:1072C00070E087E091E0C8D48091E8008E778093E9
:1072D000E80008954F925F926F927F928F929F92F3
:1072E000AF92BF92CF92DF92EF92FF920F931F93D4
:1072F000CF93DF9384E08093E9008091E80082FFE0
:107300002BC2FADEC82F26DF2ADF809102018F5FB1
:1073100080930201C53481F48CE393E79093AD012F
:107320008093AC0107B600FCFDCFF999FECF81E157
:1073300080935700E89503C0C43521F4DDDE8DE06D
:10734000F2DEE1C1CC34D9F3C035C9F3C43721F43E
:1073500084E4E9DE80E0F4CFC13611F489E5F0CFB2
:10736000C13491F4C9DEC82FC7DE2C2F30E0322F94
:107370002227330F90E0880F991F822B932B092E21
:10738000000CAA0BBB0B93C1C03711F483E5D8CF17
:10739000C33549F4C2EAD1E08991C5DE21E0C93A9A
:1073A000D207D1F7B0C1C63521F481E3BCDE80E35A
:1073B000C7CFC33731F487E8B6DE85E9B4DE8EE1A6
:1073C000BFCFC536B9F4E0E0F0E083E095E080930C
:1073D0005700E89507B600FCFDCF90935700E8955D
:1073E00007B600FCFDCFE058FF4FE11540E7F4077A
:1073F00071F7A5CFC23719F4E1E0F0E00EC0C63452
:1074000019F4E0E0F0E009C0CE3419F4E3E0F0E074
:1074100004C0C13539F4E2E0F0E089E08093570020
:1074200084918ECFC23631F489E57DDE80E07BDE4B
:1074300080E886CFC23419F0C73609F0D0C0109268
:10744000AD011092AC0158DE082F56DED82F54DE65
:10745000182F8BEB810F823010F08FE371CF8D2FBF
:1074600090E0902B10926F00C73609F042C021E1E6
:1074700020935700E895EC01B12C01E0209709F426
:10748000AAC0C090AE01D090AF01E090B001F090E2
:10749000B1011634B9F4EB2DF0E0EC29FD2984910B
:1074A00042DEBB2069F052E0C50ED11CE11CF11C8C
:1074B000C092AE01D092AF01E092B001F092B10162
:1074C000B02615C0D701C601B695A79597958795A3
:1074D00017D529DE82E0C80ED11CE11CF11CC09238
:1074E000AE01D092AF01E092B001F092B1012197CC
:1074F000C5CF8090AE019090AF01A090B001B09048
:10750000B101163441F423E0F40120935700E895CB
:1075100007B600FCFDCFE12CF12CEC0101E0209737
:1075200009F44DC0163439F5FF2009F14090AE0141
:107530005090AF016090B0017090B101DDDD2E2D53
:1075400030E0A901582BF2010A0100935700E89599
:107550001124F2E04F0E511C611C711C4092AE01CF
:107560005092AF016092B0017092B10102C0C4DDCF
:10757000E82EF02622C0C0DD682F8091AE019091E8
:10758000AF01A091B001B091B101B695A7959795C3
:107590008795BED48091AE019091AF01A091B001CA
:1075A000B091B1010296A11DB11D8093AE019093DF
:1075B000AF01A093B001B093B1012197B0CF1634C1
:1075C00041F485E0F40180935700E89507B600FC8C
:1075D000FDCF8DE0A8DD82E080936F0094C0C334BE
:1075E00071F4C091AE01D091AF0186DD90E021E051
:1075F000FE010C0120935700E8951124A0CEC3365C
:1076000001F5C090AE01D090AF01E090B001F090D4
:10761000B10172DDF601E16090E021E00C01209300
:107620005700E8951124F2E0CF0ED11CE11CF11CAB
:10763000C092AE01D092AF01E092B001F092B101E0
:107640007ECECD3661F4E091AE01F091AF0185E0E0
:1076500080935700E89507B600FCFDCF70CEC23589
:1076600051F4E091AE01F091AF01C591D4918D2F0D
:107670005ADD8C2F65CEC43419F53EDD682F80911C
:10768000AE019091AF01A091B001B091B101B6955A
:10769000A795979587953CD48091AE019091AF01C5
:1076A000A091B001B091B1010296A11DB11D8093CE
:1076B000AE019093AF01A093B001B093B1013FCE62
:1076C000C436F1F4C090AE01D090AF01E090B001AB
:1076D000F090B101D701C601B695A795979587950A
:1076E0000FD421DD22E0C20ED11CE11CF11CC0929E
:1076F000AE01D092AF01E092B001F092B10103C0AF
:10770000CB3109F0AACE83E08093E9009091E800A4
:107710008091E8008E778093E80095FD11C08091FC
:10772000E80080FD04C08EB38111F9CF15C08091AF
:10773000E8008E778093E80003C08EB3882361F061
:107740008091E80080FFF9CF84E08093E900809188
:10775000E8008B778093E800DF91CF911F910F9124
:10776000FF90EF90DF90CF90BF90AF909F908F9061
:107770007F906F905F904F900895CF938091000815
:10778000909101081092010810920008C4B714BE2D
:107790000FB6F894A895809160008861809360008E
:1077A000109260000FBE45D0D5DCE0E0F0E085919E
:1077B00094910196D9F0C230C9F03E9A46988198CA
:1077C000809A899A88988FE19EE40197F1F700C02A
:1077D0000000799B0AC08FE39CE90197F1F700C094
:1077E0000000799B02C0469ADBDC469AE8DC78947C
:1077F0001092AD011092AC013F9A479A8091AC0172
:107800009091AD018033954720F4A9DC63DD61D30D
:10781000F5CF8FE99FE00197F1F700C0000080915C
:10782000E00081608093E000BBDC80E090E0CF91DD
:10783000089584E08093BC0080E18093B8000895AF
:10784000EFE9FFE03197F1F700C0000094EA909370
:10785000BC009091BC0097FFFCCF9091B90098308C
:1078600091F58E7F8093BB0084E88093BC0080916B
:10787000BC0087FFFCCF8091B900883121F54150D1
:10788000FB0180E094E8442381F081918093BB0068
:107890009093BC008091BC0087FFFCCF8091B90021
:1078A000883289F480E04150EECF81110CC0808194
:1078B0008093BB0084E88093BC008091BC0087FF6C
:1078C000FCCF8091B90084E98093BC000895292FF2
:1078D00030E02230310559F02330310569F0213094
:1078E000310531F582E190E020E931E025C08EE3F9
:1078F00090E022E531E020C0882359F0813071F01A
