:107000005FC0000078C0000076C0000074C00000BF
:1070100072C0000070C000006EC000006CC00000B4
:107020006AC0000068C00000CDC4000064C0000059
:1070300062C0000060C000005EC000005CC00000D4
:107040005AC00000E5C0000056C0000054C0000057
:1070500052C0000050C000004EC000004CC00000F4
:107060004AC0000048C0000046C0000044C0000004
:1070700042C0000040C000003EC000003CC0000014
:107080003AC0000038C0000036C0000034C0000024
:1070900032C0000030C000002EC000002CC0000034
:1070A0002AC0000028C0000026C00000563E6F3EE7
:1070B000473F6F3E473FA73EC93E473F1A3F2C3FE1
:1070C00011241FBECFEFDAE0DEBFCDBF11E0A0E09C
:1070D000B1E0EEE1FFE702C005900D92A43BB107DD
:1070E000D9F711E0A4EBB1E001C01D92AA3CB107B1
:1070F000E1F75BD312C784CF84E08093E9008091ED
:10710000E80085FD0DC08091E8008B778093E80052
:107110008091E80082FDF3CF8EB38111F9CF02C0D8
:107120008091F100089593E09093E9009091E80038
:1071300095FF0AC08093F1005D9884E690E09093FB
:10714000B9018093B80108959091E8009E779093DB
:10715000E8009091E80090FDEDCF9EB39111F9CF3A
:107160000895F89410926F0010928100109285009B
:107170001092840081E085BF15BE5D985D9A289AC3
:107180000C94000008952091BE013091BF012F5F43
:107190003F4F3093BF012093BE01832F37FF02C0C2
:1071A0008EEF831B880F821710F45D9808955D9A07
:1071B000089584B7877F84BF0FB6F894A89580910F
:1071C0006000886180936000109260000FBE90E8BC
:1071D00080E00FB6F89490936100809361000FBE39
:1071E00081E085BF82E085BF209A559AE1E6F0E014
:1071F000908310825D985D9A289A109289009AEF88
:107200009093880080936F0083E080938100C2C3D5
:107210001F920F920FB60F9211242F938F939F936B
:10722000EF93FF9310928500109284008091B80133
:107230009091B901009741F001979093B901809323
:10724000B801892B09F45D9A8091B6019091B7013C
:10725000009741F001979093B7018093B601892B75
:1072600009F4289AE0E0F0E085919491019649F0C4
:107270008091B4019091B50101969093B5018093EE
:10728000B401FF91EF919F918F912F910F900FBEBD
:107290000F901F90189542E061EC82E010D342E11C
:1072A00061E883E00CD342E160E884E008C38091A8
:1072B000C201982F9F77913239F59091C301903296
:1072C00091F0913209F5813AF9F48091E800877FD5
:1072D0008093E80067E070E083E091E024D480913F
:1072E000E8008B770FC0813279F48091E800877FC6
:1072F0008093E80067E070E083E091E071D48091D2
:10730000E8008E778093E80008956F927F928F92C5
:107310009F92AF92BF92CF92DF92EF92FF920F9324
:107320001F93CF93DF9384E08093E9008091E8007E
:1073300082FF2CC2289884E690E09093B701809356
:10734000B601DADEC82F853481F48CE49DE1909398
:10735000B5018093B40107B600FCFDCFF999FECFCB
:1073600081E180935700E89503C0843521F4C4DEA1
:107370008DE0D9DEE2C18C34D9F38035C9F384378E
:1073800021F484E4D0DE80E0F4CF813611F489E585
:10739000F0CF813491F4B0DEC82FAEDE90E0880FDC
:1073A000991F2C2F30E0322F2227330F822B932B63
:1073B000AA2797FDA095BA2F94C1803711F483E5D1
:1073C000D8CF833549F4CAEAD1E01C2F195F8991DF
:1073D000AADE1C13FCCFB1C1863521F481E3A3DE04
:1073E00080E3C7CF833731F487E89DDE85E99BDEF4
:1073F0008EE1BFCF8536B9F4E0E0F0E083E095E0C0
:1074000080935700E89507B600FCFDCF9093570096
:10741000E89507B600FCFDCFE058FF4FE11520E7E7
:10742000F20771F7A5CF823719F4E1E0F0E00EC062
:10743000863419F4E0E0F0E009C08E3419F4E3E09A
:10744000F0E004C0813539F4E2E0F0E089E08093B7
:10745000570084918ECF823631F489E564DE80E076
:1074600062DE80E886CF823419F0873609F0D1C019
:107470001092B5011092B4013FDE082F3DDED82FE7
:107480003BDE182F8BEB810F823010F08FE371CF32
:107490002D2F30E0302B10926F00C73609F043C01B
:1074A00081E180935700E895E90100E0BB24B394A3
:1074B000209709F4AAC0C090BA01D090BB01E09017
:1074C000BC01F090BD011634B9F4E02FF0E0EC29D6
:1074D000FD29849128DE002369F082E0C80ED11CCA
:1074E000E11CF11CC092BA01D092BB01E092BC0138
:1074F000F092BD010B2515C0D701C601B695A79521
:1075000097958795F5D40FDEE2E0CE0ED11CE11CF5
:10751000F11CC092BA01D092BB01E092BC01F09282
:10752000BD012197C5CF8090BA019090BB01A0907A
:10753000BC01B090BD01163441F483E0F4018093A6
:107540005700E89507B600FCFDCFE901712C00E07B
:1075500066246394209709F44CC0163431F5002357
:1075600001F1C090BA01D090BB01E090BC01F09055
:10757000BD01C2DD272D30E0382BF60109016092F4
:107580005700E8951124F2E0CF0ED11CE11CF11C4C
:10759000C092BA01D092BB01E092BC01F092BD0151
:1075A00002C0AADD782E062522C0A6DD682F8091B4
:1075B000BA019091BB01A091BC01B091BD01B695FB
:1075C000A795979587959CD48091BA019091BB011E
:1075D000A091BC01B091BD010296A11DB11D809387
:1075E000BA019093BB01A093BC01B093BD01219758
:1075F000B1CF163441F485E0F40180935700E8954B
:1076000007B600FCFDCF8DE08EDD82E080936F0039
:1076100094C0833471F4C091BA01D091BB016CDD88
:1076200090E021E0FE010C0120935700E895112421
:107630009FCE833601F5C090BA01D090BB01E09097
:10764000BC01F090BD0158DDF601E16090E021E061
:107650000C0120935700E8951124F2E0CF0ED11CC5
:10766000E11CF11CC092BA01D092BB01E092BC01B6
:10767000F092BD017DCE8D3661F4E091BA01F091BA
:10768000BB0185E080935700E89507B600FCFDCF6D
:107690006FCE823551F4E091BA01F091BB01C591F2
:1076A000D4918D2F40DD8C2F64CE843419F524DDE8
:1076B000682F8091BA019091BB01A091BC01B0915B
:1076C000BD01B695A795979587951AD48091BA0173
:1076D0009091BB01A091BC01B091BD010296A11D8A
:1076E000B11D8093BA019093BB01A093BC01B093EC
:1076F000BD013ECE8436F1F4C090BA01D090BB01FA
:10770000E090BC01F090BD01D701C601B695A795E8
:1077100097958795EDD307DD22E0C20ED11CE11CC1
:10772000F11CC092BA01D092BB01E092BC01F09270
:10773000BD0103C08B3109F0A9CE83E08093E9003D
:107740009091E8008091E8008E778093E80095FDA5
:1077500011C08091E80080FD04C08EB38111F9CF83
:1077600015C08091E8008E778093E80003C08EB347
:10777000882361F08091E80080FFF9CF84E0809356
:10778000E9008091E8008B778093E800DF91CF914A
:107790001F910F91FF90EF90DF90CF90BF90AF902F
:1077A0009F908F907F906F90089520910008309166
:1077B0000108109201081092000884B714BE0FB699
:1077C000F894A89590916000986190936000109251
:1077D00060000FBE81FD1AC080FF09C0E0E0F0E04C
:1077E000459154914F3F5F4F11F0BBDC0FC083FFB9
:1077F0000DC080910001909101012817390731F0E7
:10780000E0E0F0E085919491019679F7D2DC7894EC
:107810001092B5011092B40180910201882369F0A1
:1078200074DD4FD38091B4019091B50181349F41B3
:1078300010F010920201A7DCEFCF8091E000816090
:107840008093E0008EDC80E090E00895292F30E006
:107850002230310559F02330310569F021303105EE
:1078600031F582E190E028E931E025C08EE390E037
:107870002AE531E020C0882359F0813071F0823050
:1078800089F08330A1F48CE090E02AE031E013C06D
:1078900084E090E026E531E00EC082E290E022E351
:1078A00031E009C088E190E028E131E004C080E0E7
:1078B00090E020E030E0FA01318320830895809346
:1078C000E900EBEEF0E0808181608083EDEEF0E096
:1078D00010826093EC0040838091EE00881F88271F
:1078E000881F08958091C20187FF0FC08091E80032
:1078F00082FD04C08EB38111F9CF10C08091E800E1
:107900008B770AC08EB3882349F08091E80080FF0E
:10791000F9CF8091E8008E778093E80008950F9367
:107920001F93CF93DF9341D048D0C8EDD0E088813A
:107930008F77888388818068888388818F7D88831A
:1079400019BC1EBA1092C00100EE10E0F80180814F
:107950008B7F808388818160888342E060E080E063
:10796000AEDFE1EEF0E080818E7F8083E2EEF0E03A
:10797000808181608083808188608083F80180813C
:107980008E7F8083888180618883DF91CF911F9172
:107990000F910895E7EDF0E08081816080838AE4B3
:1079A00082BF81E08093C101BACFE8EDF0E0808131
:1079B0008E7F80831092E20008951092DA00109278
:1079C000E10008951F920F920FB60F9211242F938A
:1079D0003F934F935F936F937F938F939F93AF9357
:1079E000BF93EF93FF938091DA0080FF1BC08091DB
:1079F000D80080FF17C08091DA008E7F8093DA0074
:107A00008091D90080FF0BC080E189BD82E189BDF2
:107A100009B400FEFDCF81E08EBB52D203C019BC79
:107A20001EBA4ED28091E10080FF17C08091E20023
:107A300080FF13C08091E2008E7F8093E2008091EE
:107A4000E20080618093E2008091D80080628093A0
:107A5000D80019BC85E08EBB33D28091E10084FF51
:107A60002CC08091E20084FF28C080E189BD82E1C2
:107A700089BD09B400FEFDCF8091D8008F7D809331
:107A8000D8008091E1008F7E8093E1008091E20038
:107A90008F7E8093E2008091E20081608093E2001B
:107AA0008091C001811106C08091E30087FD02C072
:107AB00081E001C084E08EBB03D28091E10083FFAE
:107AC00021C08091E20083FF1DC08091E100877F8B
:107AD0008093E10082E08EBB1092C0018091E100B2
:107AE0008E7F8093E1008091E2008E7F8093E200A0
:107AF0008091E20080618093E20042E060E080E0FB
:107B0000DEDEDED1FF91EF91BF91AF919F918F911A
:107B10007F916F915F914F913F912F910F900FBE89
:107B20000F901F9018952091C8013091C901261718
:107B3000370748F06115710539F42091E8002E7778
:107B40002093E80001C0B90140E061157105A1F181
:107B50002EB3222309F440C0253009F43FC0209100
:107B6000E80023FD37C02091E80022FD2DC02091C0
:107B7000E80020FFEACF4091F3002091F20030E0CE
:107B8000342BFC01CF016115710559F02830310506
:107B900040F481918093F100615071092F5F3F4F54
:107BA000F1CF41E02830310509F040E02091E800B4
:107BB0002E772093E800C9CF4111CACF05C08EB3FC
:107BC000882351F0853051F08091E80082FFF7CF93
:107BD00080E0089581E0089582E0089583E00895AB
:107BE0006115710529F42091E8002B772093E800B6
:107BF000FC016115710531F18EB3882359F185308F
:107C000059F18091E80083FD23C08091E80082FF54
:107C1000F0CF2091F3008091F20090E0922B892B1D
:107C200031F08091F10081936150710991F7809159
:107C3000E8008B778093E800DCCF8EB3882351F087
:107C4000853051F08091E80080FFF7CF80E0089503
:107C500081E0089582E0089583E008950F931F93D3
:107C6000CF93DF93CDB7DEB7AA970FB6F894DEBFF8
:107C70000FBECDBFE2ECF1E088E08E0F9091F100F5
:107C800091938E13FBCF13DB8091E80083FFFFC03D
:107C90008091C2019091C301492F50E04A305105B3
:107CA00008F0F5C0FA01EA5AF74C1CC1823809F015
:107CB000EEC08091C60187708093E9008091EB004F
:107CC0001092E9009091E800977F9093E80085FB7F
:107CD000882780F98093F1001092F100B6C0282F18
:107CE0002D7F09F0D4C0823009F0D1C08091C40149
:107CF000811127C08091C601877009F4C8C08093A4
:107D0000E9002091EB0020FF1CC0933021F480910A
:107D1000EB00806214C09091EB0090619093EB00B7
:107D200021E030E0A90102C0440F551F8A95E2F717
:107D30004093EA001092EA008091EB008860809303
:107D4000EB001092E9008091E800877F81C08111EB
:107D50009EC01091C4011F770FB7F8948091E8007E
:107D6000877F8093E800BEDD8091E80080FFFCCF34
:107D70008091E3008078812B8093E300806880937A
:107D8000E300111102C082E001C083E08EBB0FBF8F
:107D90007EC08058823008F07AC08091C4019091F2
:107DA000C5018C3D53E0950769F583E08A838AE23B
:107DB00089834FB7F894DE01139620E03EE051E24C
:107DC000E32FF0E050935700E49120FF03C0E295C9
:107DD000EF703F5FEF708E2F90E0EA3010F0C796A3
:107DE00001C0C0968D939D932F5F243149F74FBFFB
:107DF0008091E800877F8093E8006AE270E0CE011E
:107E0000019611C0AE014F5F5F4F6091C6011EDD4C
:107E1000BC01892B09F43BC09091E800977F9093B7
:107E2000E80089819A817FDE8091E8008B778093DA
:107E3000E8002DC0803859F58091E800877F809355
:107E4000E8008091C0018093F1008091E8008E7776
:107E50008093E80047DD1BC0811119C09091C401D7
:107E60009230A8F48091E800877F8093E800909397
:107E7000C00138DD8091C001811106C08091E3000E
:107E800087FD02C081E001C084E08EBB04DA8091EE
:107E9000E80083FF0AC08091EB0080628093EB00D2
:107EA0008091E800877F8093E800AA960FB6F89447
:107EB000DEBF0FBECDBFDF91CF911F910F9108950F
:107EC0000895CF938EB3882359F0C091E900C7700D
:107ED0001092E9008091E80083FDC0DEC093E900C4
:107EE000CF910895EE0FFF1F0590F491E02D0994B6
:107EF000F999FECF92BD81BDF89A992780B5089572
:107F0000262FF999FECF92BD81BD20BD0FB6F89402
:0E7F1000FA9AF99A0FBE01960895F894FFCFE1
:107F1E00777701000000000000080C0348004900BC
:107F2E0044004F004F00000018034B00650079001D
:107F3E0062006F0061007200640069006F00200033
:107F4E00000022034D006F00640065006C002000ED
:107F5E0030003100200020002000200020002000F2
:107F6E002000200000000403090409023E00020163
:107F7E0000803209040000010202010005240010F5
:107F8E0001042402040524060001070582030800EB
:107F9E00FF09040100020A00000007050402100098
:107FAE0001070583021000011201100102000008F2
:107FBE0009120023010002010301434154455249B5
:047FCE004E41000020
:040000030000700089
:00000001FF
