:100000000C94DE010C9406020C9406020C94060279
:100010000C9406020C9406020C9406020C94060240
:100020000C9406020C9406020C94C3180C945217FC
:100030000C9406020C9406020C9406020C94060220
:100040000C9406020C9406020C9406020C94060210
:100050000C9406020C9406020C9406020C943A11BD
:100060000C9406020C9406020C9406020C940602F0
:100070000C9406020C9406020C9406020C940602E0
:100080000C9406020C9406020C9406020C940602D0
:100090000C94370C0C9406020C9406020C94060285
:1000A0000C9406020C9406020C9406025F12621273
:1000B000511255125B1283128312831266126A1256
:1000C0006E127412781283127E12084AD73B3BCE0E
:1000D000016E84BCBFFDC12F3D6C74319ABD568347
:1000E0003DDA3D00C77F11BED9E4BB4C3E916BAAFF
:1000F000AABE000000803F07634236B79BD8A71A0C
:1001000039685618AEBAAB558C1D3CB7CC5763BD99
:100110006DEDFD753EF6177231BF000000803F05A2
:10012000A84CCDB2D44EB93836A9020C50B991863C
:1001300088083CA6AAAA2ABE000000803F0005014C
:100140000902A101850705091901290815002501E2
:100150009508750181020501093009311600002654
:10016000FF7F75109502810209381581257F75087A
:1001700095018106C0050C0901A101850415002621
:10018000FF0319002AFF03950475108100C00501C3
:100190000906A1018508050719E029E715002501D1
:1001A00075019508810275049501810119042931B1
:1001B000150025017501952E8102750195018101BA
:1001C0001933299B15002501750195698102750177
:1001D00095018101199D29DD1500250175019541C4
:1001E0008102750295018101C0000000000000003D
:1001F000002A2B2800000000000000000000000082
:100200000000000000000000002C9EB4A0A1A2A4E9
:1002100034A6A7A5AE362D3738271E1F202122234E
:10022000242526B333B62EB7B89F84858687888960
:100230008A8B8C8D8E8F90919293949596979899A6
:100240009A9B9C9D2F3130A3AD3504050607080904
:100250000A0B0C0D0E0F1011121314151617181986
:100260001A1B1C1DAFB1B0B50005010902A1018523
:100270000105091901290815002501950875018155
:100280000205010930093109381581257F75089566
:10029000038106C005010980A1018505150026FF1F
:1002A00000190029FF950175088100C000000002B7
:1002B00000090F0000030401000C00000000000012
:1002C000000000000000000000000004080201100F
:1002D000408040102040804080080204018040207F
:1002E0001002011080102040402004040404040384
:1002F00004050202020204030202020206060606C6
:10030000060604040202020404000000002500287E
:10031000002B002E00310000000000240027002ADE
:10032000002D003000080B00020202010009040049
:100330000001020200000524001001052401010152
:10034000042402060524060001070581031000406D
:1003500009040100020A0000000705020240000033
:100360000705830240000012010002EF020140096C
:10037000120123000101020301120100020000002A
:1003800040091201230001010203014B6579626FEC
:10039000617264696F004D6F64656C2030310004D8
:1003A0000309040013020A05120635083F0B650E07
:1003B000B00E440FAF0FF90FE0131C0611241FBE3F
:1003C000CFEFDAE0DEBFCDBF12E0A0E0B1E0EAE2BD
:1003D000FCE302C005900D92AA3EB107D9F725E0D3
:1003E000AAEEB2E001C01D92AD3CB207E1F711E008
:1003F000CDEDD1E004C02197FE010E94F41DC23D65
:10040000D107C9F70E947E190C94081E0C940000B5
:100410009A01462F682F8AEE92E00C9439058AEEF5
:1004200092E00C9456058AEE92E00C940E050FB6FD
:10043000F894A89580916000886180936000109284
:1004400060000FBE8CEF94E00E94150F8BE295E0E8
:100450000E94970F83ED94E00E94630E8AEE92E073
:100460000E941F058CEF92E00E94C50463E08CE0BF
:1004700094E00E943D088093FB028093FA02089565
:100480008AEE92E00E9476056091FA028CEF92E08B
:100490000E9460048CEF94E00E94D80E8CEF94E0F0
:1004A0000C940E0FEF92FF920F931F93CF93DF9355
:1004B000FC01EB018A01CB016BE270E00E949F1D01
:1004C000DB014BE2469FC001479F900D1124C81BE2
:1004D000D90B86E08C9F70018D9FF00C11246FEF7B
:1004E00070E0AB01401B510B429FC001439F900D38
:1004F000529F900D1124E09EA001E19E500DF09EB0
:10050000500D1124452F5527EB01C41BD50BC29F5D
:10051000A001C39F500DD29F500D1124EB01CE19A5
:10052000DF097E01E09EE001E19ED00DF09ED00D3E
:100530001124CD2FDD276C1B7D0B629FE001639F93
:10054000D00D729FD00D1124A230B105A1F030F46E
:10055000109761F01197B9F452830AC0A330B10526
:1005600071F0149781F4D28391830BC022832D2FD5
:10057000218390830BC092832183D08307C0928311
:100580005183208303C0228391835083DF91CF91D5
:100590001F910F91FF90EF900895FC01108211823E
:1005A00012821382158E148E168E178E10A211A22F
:1005B00012A281E083A384A385E085A316A21682FC
:1005C0001582148282E3818780EA80878FEF878398
:1005D000148613868287178616869FE79587828BF7
:1005E000118A108A958B148A138A0895CF92DF920C
:1005F000EF92CF936A01E62EC0E06E2DA6018C2FFC
:100600000E940802CF5FC034C1F7CF91EF90DF9016
:10061000CF9008951F93CF93DF93EC01162F4C8159
:100620005D816E810E94F602113049F44F81588538
:100630006985CE01DF91CF911F910C94F602DF9175
:10064000CF911F910895FC019081973018F49F5F1E
:100650009083089510820895CF93DF93EC010E9458
:1006600084110E942C1B20E030E04AEF54E40E94E9
:100670004A1A2BED3FE049E450E40E94D31C0E944B
:10068000401D0E94C41A22EB3AE54CEB5EE30E9447
:10069000921920E030E048ED52E40E94D31C0E9401
:1006A000FD1A6AA3662311F0663919F48BA18195AE
:1006B0008BA3262F30E04FEF50E068EC70E0CE01C6
:1006C0004696DF91CF910C9452021F93CF93DF9304
:1006D000EC0110E04C815D816E81812F0E94080247
:1006E0001F5F1C32B9F7488959896A89812F0E9496
:1006F00008021F5F1034B9F7CE010E942C034E8907
:100700005F89688D8CE3DF91CF911F910C94080273
:10071000CF93DF93EC010E942C034E895F89688D93
:10072000CE01DF91CF910C94F602CF93DF93EC01D1
:100730009EA1943128F49F5F9EA3DF91CF910895ED
:100740001EA24C815D816E812CA19DA18B81299F70
:10075000801911240E9408024C815D816E818B8179
:100760000E9408029CA18B81890F8B832FEF280F99
:100770002F3310F091959CA34A855B856C850E9470
:100780000802488959896A892CA19DA18B81299FDA
:1007900080191124DF91CF910C940802CF93DF933D
:1007A000EC014E8D5F8D68A179A177FF0BC04F5F83
:1007B0005F4F6F4F7F4F4E8F5F8F68A379A3DF919D
:1007C000CF9108951E8E1F8E18A219A26C8D7D8D5B
:1007D0002FEF30E04FEF50E049960E9452028C8D8F
:1007E0009D8D01968F3F910520F06FEF70E00E9484
:1007F0009F1D9D8F8C8F498D5A8D6B8DCE01DF9102
:10080000CF910C94F602CF92DF92EF92FF921F935A
:10081000CF93DF93EC014E8D5F8D68A179A1141603
:100820001506160617064CF04F5F5F4F6F4F7F4F50
:100830004E8F5F8F68A379A33BC01E8E1F8E18A2B8
:1008400019A210E0CC24CA94D12C7E0149E1E40E17
:10085000F11C2C8D3D8D812F86958695A90160E137
:10086000869F400D511D1124CA014F3F510518F0BC
:10087000B6010E949F1D2FEF30E04FEF50E0BC010A
:10088000C7010E945202498D5A8D6B8D812F0E94A3
:1008900008021F5F1034E9F68C8D9D8D01968F3F05
:1008A000910520F06FEF70E00E949F1D9D8F8C8F4F
:1008B000DF91CF911F91FF90EF90DF90CF9008953F
:1008C000CF93DF93EC018881623029F4843609F0FC
:1008D0008A8384E603C0843611F48A818883688120
:1008E0008981681719F0CE010E940A038881882344
:1008F000F9F08530E9F0823021F4CE010E948803BE
:1009000017C0833021F4CE010E94CE0311C0843081
:1009100021F4CE010E9403040BC0863021F4CE01E5
:100920000E94950305C0843619F4CE010E94650328
:100930000E940F0288818983DF91CF9108950F93E0
:100940001F93CF938C01C62FFC0140895189628986
:100950008C2F0E9408020E940F026AEF70E080E074
:1009600090E00E94B511F8014481558166818C2F79
:100970000E9408020E940F026AE070E080E090E0AE
:10098000CF911F910F910C94B511CF93DF93EC0190
:100990004C815D816E810E94F60261E3CE010E946E
:1009A0009F046DE0CE010E949F046AE2CE010E9486
:1009B0009F0467E1CE010E949F0465E3CE010E947F
:1009C0009F0466E0CE010E949F0462E1CE010E9476
:1009D0009F046EE0CE010E949F0462E3CE010E945C
:1009E0009F0465E3CE010E949F0462E2CE010E9453
:1009F0009F046BE3CE010E949F0467E3CE010E9437
:100A00009F0464E3CE010E949F0481E08883DF910C
:100A1000CF9108958CEF92E00C94CD02089561E09F
:100A20008DE00E94841261E08DE00C94C01261E0C0
:100A300087E00E94841260E087E00C94C012CF939C
:100A4000DF93EC010E940F05CE010E94170518826A
:100A500019821A821B821C821D821E821F828DE0D7
:100A600094E00E94AD0A8CE08093B800DF91CF91B2
:100A70000895603250F470E0FB01EE0FFF1F6E0F1F
:100A80007F1FFB01E357FC4F0DC0603470F470E032
:100A900060527109FB01EE0FFF1F6E0F7F1FFB01FC
:100AA000ED5DFC4F20833183428308958DE893E010
:100AB0000E94BC0D83E293E00E94BC0D8DE893E0A0
:100AC0000E94BC0D83E293E00E94BC0D8DE893E090
:100AD0000E94BC0D83E293E00E94BC0D8DE893E080
:100AE0000E94BC0D83E293E00C94BC0DAF92BF92C8
:100AF000DF92EF92FF920F931F93CF93DF931F929A
:100B0000CDB7DEB75C01FC0180819181A281B38108
:100B100080879187A287B38784819581A681B781D9
:100B200084879587A687B7878DE893E00E94CE0DCE
:100B3000882349F08DE893E00E947D0DF5016083E4
:100B400071838283938383E293E00E94CE0D882396
:100B500049F083E293E00E947D0DF5016483758383
:100B60008683978330E000E087E0E82E9FE0F92E4F
:100B700010E0D12ED30EF50180859185A285B38535
:100B80000D2C04C0B695A795979587950A94D2F732
:100B9000282F217040815181628173810D2C04C006
:100BA00076956795579547950A94D2F741706E2DC3
:100BB000611B802F39830E94A209F50184859585E8
:100BC000A685B7850D2C04C0B695A79597958795F2
:100BD0000A94D2F7282F217044815581668177814C
:100BE00004C07695679557954795DA94D2F741708A
:100BF0006F2D611B802F0E94A2091F5F3981183061
:100C000009F0B7CF0F5F385F043009F0B1CF0F9014
:100C1000DF91CF911F910F91FF90EF90DF90BF90E8
:100C2000AF90089560E08DE893E00E946C0D63E062
:100C300083E293E00C946C0D83E293E00E946B0DD1
:100C40008DE893E00C946B0DFC01108211821282EE
:100C500013821482158216821782108611861286DC
:100C600013861586148617861686118A108A138AAB
:100C7000128A148A8BE295E00C94970FCF93DF933E
:100C8000EC018BE295E00E94A40F1C8ADF91CF91CA
:100C900008958BE295E00C94A90F4F925F926F92AA
:100CA0007F928F929F92AF92BF92CF92DF92EF92FC
:100CB000FF920F931F93CF93DF9300D000D0CDB757
:100CC000DEB72A013B0109831A832B833C83C701CA
:100CD000B60122E0C22ED12CE12CF12CA701960105
:100CE0000E94D51D89819A81AB81BC81820F931F9F
:100CF000A41FB51F89839A83AB83BC83C501B4014C
:100D0000A70196010E94D51DC301B201620F731F96
:100D1000841F951F20E049815A8183ED94E00F9054
:100D20000F900F900F90DF91CF911F910F91FF9037
:100D3000EF90DF90CF90BF90AF909F908F907F907B
:100D40006F905F904F900C94370EFC01138A128ABB
:100D5000118A108A8FEF9FE7958784879787868708
:100D600081E0848B08956F927F928F929F92AF92D1
:100D7000BF92CF92DF92EF92FF920F931F93CF9388
:100D8000DF931F92CDB7DEB73C01FC01848981114E
:100D900005C0C30169830E94A5066981F30160FF54
:100DA00002C0148A31C08484958496948794958671
:100DB0008486C684D784D694C794D786C68661FDB8
:100DC00008C062FF06C0808991898C0D9D1D918BA2
:100DD000808B63FD09C064FF07C0F301828993899A
:100DE000880D991D938B828BA12CB12CE12CF12CB9
:100DF000F3010089118920E030E04289538960E0E5
:100E000070E0C3010E944D060F90DF91CF911F91BA
:100E10000F91FF90EF90DF90CF90BF90AF909F9099
:100E20008F907F906F900895CF92DF92EF92FF9214
:100E3000CB01BA012DEC3CEC4CE45DE30E94D31CE9
:100E400020E030E040EA50E40E9492190E94FF192D
:100E50002BED3FE049EC5FE30E94931920E030E086
:100E600040EA50E40E94D31C6B017C0120E030E09A
:100E700040E85EE30E94451A87FF06C0C12CD12CD2
:100E800080E8E82E8EE3F82EC701B601FF90EF90C0
:100E9000DF90CF9008956F927F928F929F92AF9242
:100EA000BF92CF92DF92EF92FF920F931F93CF9357
:100EB000DF931F92CDB7DEB7611103C0442309F45D
:100EC000BFC0142F062F3C0120E030E040E85FE374
:100ED000FC0160817181828193810E949319AB0131
:100EE000BC01F3014083518362837383C3010E9479
:100EF00014076B017C011016DCF4602F000F770BD8
:100F0000880B990B0E942E1BA70196010E94D31CEF
:100F1000F30124813581468157810E9493194B0149
:100F20005C010E94691B9B01AC01C501B4011AC0A0
:100F3000002301F1602F000F770B880B990B0E94A3
:100F40002E1BA70196010E94D31CF3012481358139
:100F5000468157810E9492194B015C010E942E1A12
:100F6000A50194010E949219F3016483758386831D
:100F7000978303C0812C912C54011116DCF4612F4E
:100F8000110F770B880B990B0E942E1BA70196015E
:100F90000E94D31CF30120853185428553850E9430
:100FA00093196B017C010E94691B9B01AC01C70175
:100FB000B6011AC0112301F1612F110F770B880BB5
:100FC000990B0E942E1BA70196010E94D31CF301CE
:100FD00020853185428553850E9492196B017C01E1
:100FE0000E942E1AA70196010E949219F3016087B0
:100FF00071878287938703C0C12CD12C7601F301BE
:10100000148AC701B6010E94F61A462FC501B40121
:1010100049830E94F61A20E049818BE295E00F9007
:10102000DF91CF911F910F91FF90EF90DF90CF90C4
:10103000BF90AF909F908F907F906F900C94760FA1
:10104000FC0110821182128213820F90DF91CF91E6
:101050001F910F91FF90EF90DF90CF90BF90AF90D6
:101060009F908F907F906F90089587EF93E00C94FE
:10107000240680E090E00C94FA1D80E00895CF9360
:10108000DF93EC0182FF05C061EE8CEF94E00E94DB
:10109000E70EC0FF05C060EE8CEF94E00E94E70E03
:1010A000C1FF05C066EE8CEF94E00E94E70EC3FF1F
:1010B00005C063EE8CEF94E00E94E70E6D2F8CEF7D
:1010C00094E0DF91CF910C94E70E0F931F93CF9391
:1010D000DF931F92CDB7DEB7092F162F642F85FF40
:1010E00022C0812F49830E94050A4981882381F00B
:1010F0000E3F21F48091FA028F5F05C00D3F31F45D
:101100008091FA0281508093FA0202C00093FA02A1
:10111000642F812F0E940B0A8823C1F08091FB026B
:101120008093FA0213C0812F0E94050A882371F070
:101130000093FB020093FA02602F8CE094E00F9082
:10114000DF91CF911F910F910C9439080F90DF918F
:10115000CF911F910F910895CF93C92F862F642FA0
:101160000E94FF09882309F1C0FF06C04FEF60E02D
:1011700087EF93E00E944B07C1FF06C041E060E0AB
:1011800087EF93E00E944B07C2FF06C040E06FEF7D
:1011900087EF93E00E944B07C3FF07C040E061E088
:1011A00087EF93E0CF910C944B07CF910895EF9286
:1011B000FF920F931F93CF93DF93282F2071E22E7E
:1011C00084FF0AC095FD08C0DF91CF911F910F9158
:1011D000FF90EF900C94AC08042F162FC92FD82F36
:1011E0008870F82ED3FD4AC08FEF890F823018F037
:1011F000943009F043C0602F812F0E94050A882394
:10120000D9F0C13021F060E0C43011F403C061E0D6
:1012100080E001C082E0862BC23011F060E001C0A6
:1012200064E0682B87EF93E0DF91CF911F910F91DE
:10123000FF90EF900C943E06602F812F0E940B0AC6
:10124000882309F478C0C13021F060E0C43011F483
:1012500003C061E080E001C082E0862BC23011F063
:1012600060E001C064E0682B87EF93E0DF91CF91ED
:101270001F910F91FF90EF900C944906602F812FE2
:101280000E94050A882309F456C0C5FF1BC0EE2042
:10129000C9F0C6FB882780F9C1FD02C060E001C02B
:1012A00064E0682BC3FD02C080E001C080E1682BD0
:1012B00087EF93E0DF91CF911F910F91FF90EF9017
:1012C0000C94B306D2FF0CC06C2F70E086EE94E055
:1012D000DF91CF911F910F91FF90EF900C94970E9B
:1012E000FF2061F0C13039F58CEF92E0DF91CF91B2
:1012F0001F910F91FF90EF900C942303D1FF0BC02F
:101300006C2F8AE395E0DF91CF911F910F91FF90B1
:10131000EF900C94E10FD0FF0EC0C13061F463E197
:1013200071E085E695E0DF91CF911F910F91FF90DD
:10133000EF900C941515DF91CF911F910F91FF90B5
:10134000EF900895EF92FF921F93CF93DF931F9238
:10135000CDB7DEB7342F422F9091FA02E82EF12C50
:10136000A62FB0E0F70124E0929FE00DF11D1124BB
:1013700084E0EE0FFF1F8A95E1F7EA0FFB1FEE0FE7
:10138000FF1FEB5CFE4F918110818091FB02F70102
:1013900024E0829FE00DF11D112424E0EE0FFF1FD9
:1013A0002A95E1F7EA0FFB1FEE0FFF1FEB5CFE4FE4
:1013B000808184FF0BC0632F808191810F90DF912A
:1013C000CF911F91FF90EF900C946508832F17FF2A
:1013D00005C0632F812F0E94D7080AC0642F99830C
:1013E0000E94FF099981882319F0812F0E943F08EC
:1013F0000F90DF91CF911F91FF90EF90089591E0B2
:10140000811101C090E0892F0895882311F081E0B7
:10141000611180E00895982F662311F081E0911109
:1014200080E0089580913D0490E020913E04821B6D
:101430009109089590913E0480913D04981750F4CD
:10144000E92FF0E0E15CFB4F208130E09F5F90935B
:101450003E0402C02FEF3FEFC9010895E0913E0422
:1014600080913D04E81730F4F0E0E15CFB4F8081AF
:1014700090E008958FEF9FEF08950895CF92DF9247
:10148000EF92FF920F931F93CF93DF937C01262F50
:10149000972F8A0180911904882391F0C62FD72FA6
:1014A0006E01C40ED51ECC15DD0571F06991D70112
:1014B000ED91FC910190F081E02DC7010995F3CFEA
:1014C000642F822F0E94FF0BC801DF91CF911F91E3
:1014D0000F91FF90EF90DF90CF900895CF93DF931F
:1014E0001F92CDB7DEB76983209119042223D1F072
:1014F00020911A04203240F021E030E0FC013383D7
:10150000228380E090E015C080911B04E82FF0E07A
:10151000E45EFB4F998190838F5F80931B048093DF
:101520001A0405C061E0CE0101960E94FF0B81E024
:1015300090E00F90DF91CF910895FC011382128209
:1015400088EE93E0A0E0B0E084839583A683B78320
:1015500089EB92E091838083089510923E0410926B
:101560003D0410921B0410921A040C94430B81E06A
:101570008093190460933C0410921B0410921A0487
:1015800008950C94B70A0F93062F21E040911A0496
:101590006CE174E080913C040E94A90B10921B0442
:1015A00010921A04109219040F9108954F925F92AD
:1015B0006F927F92AF92BF92CF92EF92FF920F9372
:1015C0001F93CF93DF935C01F62ED42F28013901AE
:1015D000EE2021F10E94B70ACE2DC43008F0C3E0FE
:1015E000C150C0F0D501ED91FC91B8E0CB9FC00196
:1015F0001124A301920104C056954795379527956C
:101600008A95D2F7CA01B9010190F081E02DC50198
:101610000995E6CF60E0C5010E94C30A4D2FD13283
:1016200008F040E22C2D6FE374E08F2D0E94610BD7
:1016300010923E0480933D04DF91CF911F910F9152
:10164000FF90EF90CF90BF90AF907F906F905F90A2
:101650004F900895CF92EF920F931F93C22EE12CDB
:1016600000E010E098010E94D60A1F910F91EF90C0
:10167000CF9008950C942A0B61E00C94C30A8DE07E
:1016800094E00C949D0A1092CC0481E08093CA04EB
:101690001092C90461E082E00E94C01261E083E020
:1016A0000E94C012E9EBF0E080818E7F8083808110
:1016B0008D7F808388E48093B80085E48093BC00AC
:1016C0000895413208F043C09091CC049111FCCFB1
:1016D00091E09093CC042093CA042FEF20935F04F1
:1016E0001092A404240F2093A3049093CB04909110
:1016F000CB04880F892B8093CB048091C90481305F
:1017000061F41092C9048091CB048093BB00809156
:10171000BC0083FDF8CF85EC01C085EE8093BC0052
:101720008091CC048130E1F38091A404841710F4FB
:101730004091A40425EA34E0FB01D9018A2F821BE1
:10174000841718F48D918193F9CF842F089580E048
:1017500008950F93413208F04AC09091CC04911142
:10176000FCCF32E03093CC040093CA043FEF3093B7
:101770005F041092A4044093A304FB0165EA74E0A3
:10178000DB013A2F361B341718F431913D93F9CF12
:101790001092CB043091CB04880F832B8093CB0421
:1017A0008091C904813061F41092C9048091CB0406
:1017B0008093BB008091BC0083FDF8CF85EC01C015
:1017C00085EE8093BC00222321F08091CC048230EE
:1017D000D1F380915F048F3F79F080915F04803274
:1017E00041F080915F04803331F094E005C091E0D6
:1017F00003C092E001C093E0892F0F9108954091BA
:101800008104262F30E0240F311D21323105DCF414
:101810002091CC042430C9F4FC0180E090E08617CC
:1018200058F4309181042191DC01AD57BB4FA30FD7
:10183000B11D2C930196F3CF80918104680F6093C2
:10184000810480E0089581E0089582E0089585EDA7
:101850008093BC008091BC0084FDFCCF1092CC042E
:10186000089585EC8093BC001092CC0408951F92DB
:101870000F920FB60F9211242F933F934F935F93C4
:101880006F937F938F939F93AF93BF93EF93FF9348
:101890008091B900887F803609F49EC078F588323F
:1018A00009F45DC090F4803109F456C038F48823FF
:1018B00009F4F5C0883009F44FC0F5C0883109F447
:1018C0004EC0803209F45FC0EEC0803409F46AC0B3
:1018D00058F4803309F457C0883309F0E4C080938A
:1018E0005F040E94310CDFC0803509F44FC0883599
:1018F00009F45DC0883409F0D6C0D3C0883909F432
:10190000C4C0A8F4883709F467C038F4883609F4ED
:1019100063C0803709F460C0C6C0883809F4B5C018
:10192000803909F45FC0803809F0BDC05BC0803BDE
:1019300009F483C038F4803A09F466C0883A09F49F
:101940007CC0B1C0803C09F4A4C0883C09F4A1C0AB
:10195000883B09F487C0A7C08091CB0410C0909148
:10196000A4048091A304981770F5E091A40481E089
:101970008E0F8093A404F0E0EB55FB4F80818093A1
:10198000BB0085EC83C080935F048BC0E091A4040E
:1019900081E08E0F8093A4048091BB00F0E0EB55B2
:1019A000FB4F80839091A4048091A3046BC0E091CD
:1019B000A40481E08E0F8093A4048091BB00F0E02A
:1019C000EB55FB4F80838091CA0481116AC081E08E
:1019D0008093C90484EA5EC083E08093CC041092B3
:1019E0006004CFCF80916004803208F04EC0E09157
:1019F000600481E08E0F809360048091BB00F0E072
:101A0000EF59FB4F8083BDCF0E94310C8091600461
:101A1000803230F4E0916004F0E0EF59FB4F108227
:101A20006091600470E0E091C504F091C60481E625
:101A300094E009951092600436C084E08093CC0451
:101A40001092820410928104E091C704F091C804BE
:101A5000099580918104811105C081E08093810402
:101A600010928304E091820481E08E0F80938204BF
:101A7000F0E0ED57FB4F80818093BB009091820492
:101A800080918104981708F47CCF85E88093BC008E
:101A90000AC085EC8093BC001092CC0404C0109264
:101AA0005F040E94270CFF91EF91BF91AF919F912E
:101AB0008F917F916F915F914F913F912F910F90F7
:101AC0000FBE0F901F901895DC01ED91FC910190D5
:101AD000F081E02D09940895FC01E859FF4F108230
:101AE000319610823797262F30E03183208332974A
:101AF000686570E0718360830895FC01EC59FF4FC5
:101B000060817181828193810895EF92FF920F939A
:101B10001F93CF93DF937C01062FFC01E05AFF4F08
:101B2000608171818DE094E00E94C10A602F70E0B5
:101B300060587F4F8DE094E00E94640D88E1089F1B
:101B400080011124C0E0D0E0FE01E00FF11FEE0D96
:101B5000FF1D60818DE094E00E946E0A2196C831DD
:101B6000D10591F78DE094E0DF91CF911F910F9116
:101B7000FF90EF900C943C0BCF93DF93EC01C7598F
:101B8000DF4F688121E0260F28830E94850D888120
:101B9000843009F41882DF91CF910895CF93DF93B9
:101BA000EC01FC01E05AFF4F6081718121E030E0DF
:101BB00045E050E08DE094E00E943A0B8DE094E027
:101BC0000E941A0A813009F58DE094E00E941A0AF9
:101BD000FE01EC59FF4F80838DE094E00E941A0AC9
:101BE000FE01EB59FF4F80838DE094E00E941A0ABA
:101BF000FE01EA59FF4F80838DE094E00E941A0AAB
:101C0000C959DF4F888381E001C080E0DF91CF9127
:101C100008958091D804811113C01092CE041092BF
:101C2000CD048EE391E09093D0048093CF0487E3BA
:101C300090E09093D2048093D10481E08093D80403
:101C40000E942C116DEC74E00C94BB100F931F9349
:101C5000CF93DF93EB018A010E942C119801AE0112
:101C600067E0DF91CF911F910F910C94D810CF9323
:101C7000DF9300D000D000D0CDB7DEB7FC01718378
:101C8000608353834283348139837B836A835D839A
:101C90004C832E8346E050E0BE016F5F7F4F0E9471
:101CA000260E26960FB6F894DEBF0FBECDBFDF918D
:101CB000CF910895FC01148242815381608171812A
:101CC00020E00C94370E0C945A0E83ED94E00C94A3
:101CD000090E8091EE04811113C01092E10410925C
:101CE000E00485E791E09093E3048093E20489E1C6
:101CF00090E09093E5048093E40481E08093EE0407
:101D00000E942C1160EE74E00C94BB100F931F9393
:101D1000CF93DF93EB018A010E942C119801AE0151
:101D200064E0DF91CF911F910F910C94D810FC01CA
:101D300020E030E041915191452B41F4220F331FB7
:101D4000FC01E20FF31F7183608305C02F5F3F4FDB
:101D50002430310579F748E050E0BC010C94860E40
:101D600086EE94E00C94690EFC011382128229EC39
:101D700032E03183208380911D05811113C01092C0
:101D8000F7041092F6048EE891E09093F9048093A2
:101D9000F8048BE590E09093FB048093FA0481E0D3
:101DA00080931D050E942C1166EF74E00C94BB100B
:101DB000CF93DF93EC010E942C11AE014C5F5F4F7B
:101DC0002DE130E068E0DF91CF910C94D8106E3DAA
:101DD00090F4262F269526952695FC01E20FF11DFD
:101DE000677081E090E001C0880F6A95EAF79581FD
:101DF000892B85830DC0605E683068F421E030E097
:101E000001C0220F6A95EAF7FC013481232B248359
:101E100081E090E0089580E090E0089504962DE13F
:101E2000FC0111922A95E9F70895CF93DF93EC0115
:101E30000E940E0FCE01DF91CF910C94D80ECF935C
:101E4000DF93EC01E62FF0E0E038F105C0F4E75154
:101E5000FE4F649167FF03C08C8182608C836F7733
:101E6000CE010E94E70ECE010E94D80ECE010E9444
:101E70000E0FCE010E94D80E81E090E002C080E0FB
:101E800090E0DF91CF9108958CEF94E00C94B40E24
:101E900080912C05811113C0109226051092250502
:101EA00089E692E090932805809327058BE290E0E5
:101EB00090932A058093290581E080932C050E9448
:101EC0002C1165E275E00C94BB100F931F93CF9318
:101ED000DF93EB018A010E942C119801AE0161E0B1
:101EE000DF91CF911F910F910C94D810CF93DF9376
:101EF00000D000D0CDB7DEB7FC01308139836A83D2
:101F00004B832C8344E050E0BE016F5F7F4F0E9403
:101F1000650F0F900F900F900F90DF91CF91089564
:101F2000FC01108220E040E060E00C94760F0C94FD
:101F3000900FFC012081621731F0608320E040E0C7
:101F400060E00C94760F0895FC012081622B0C94C4
:101F5000990F6095FC01208162230C94990F8BE20C
:101F600095E00C94480F80913B05811113C01092AD
:101F700035051092340584E992E0909337058093FB
:101F8000360588E190E0909339058093380581E02B
:101F900080933B050E942C1164E375E00C94BB1008
:101FA0000F931F93CF93DF93EB018A010E942C11B3
:101FB0009801AE0165E0DF91CF911F910F910C94D4
:101FC000D810CF93DF931F92CDB7DEB76983633804
:101FD00029F482EC95E00E94611907C041E050E0CD
:101FE000BE016F5F7F4F0E94D00F0F90DF91CF91A6
:101FF00008958AE395E00C94B30FFB018BE6808390
:1020000082E6818389E682838FE6838380E384830B
:1020100081E3858386E00895CF93DF93CDB7DEB764
:1020200069970FB6F894DEBF0FBECDBFFC01DB0190
:102030008C918F5F8C93BE016F5F7F4F89E1DB01D5
:102040001D928A95E9F729E0298384E08A8391E04B
:102050009D8383E08E832A8721E22B879C879D873F
:102060009F8722E2288B27E02B8B25E02C8B8E8B01
:1020700020E430E0388F2F8B998F82818B83958578
:102080008685998B8A8B838180688D8B49E150E0AE
:1020900080E00E94F81669960FB6F894DEBF0FBE76
:1020A000CDBFDF91CF910895DC01FB0112968C9199
:1020B000129790E02481358182179307D1F49181A2
:1020C0008081813A31F481E0913091F0933089F44C
:1020D00011C0813271F49B3021F482811F968C9360
:1020E00005C09A3031F4828150968C9381E0089536
:1020F000089580E00895EF92FF920F931F93CF937E
:10210000DF93FB012081213851F52381223239F5FB
:10211000DC0112962C9130E044815581421753071F
:10212000F1F4EC010B851C85E12CF12C0115110556
:1021300091F0F801448155816281738180E80E94A9
:10214000F8168F3FFFEF9F0769F0E80EF91ED801E0
:102150000D911C91EBCF81E08F87C70105C080E016
:1021600090E002C08FEF9FEFDF91CF911F910F9111
:10217000FF90EF900895FC01A385B485109719F4A2
:102180007487638709C08D919C911197009711F016
:10219000DC01F9CF6D937C9325853685DB011496A0
:1021A0008D919C911597820F931F9687858708952F
:1021B000AF92BF92CF92DF92EF92FF920F931F9355
:1021C000CF93DF931F92CDB7DEB77C0169836A019D
:1021D000590141E050E0BE016F5F7F4FFC018381F8
:1021E0000E9457168C0197FD0BC0F7018381A50152
:1021F000B60180640E94571697FD02C0800F911FA0
:102200000F90DF91CF911F910F91FF90EF90DF9092
:10221000CF90BF90AF900895CF93DF93EC0181E012
:102220008C838D839E01265F3F4F3F832E831986CB
:10223000188621ED32E0398328831C861B861E8692
:102240001D868F87888B81EC8A870E94C114BE010E
:10225000DF91CF910C947A1480915405811107C0BD
:1022600083E495E00E940C1181E08093540583E49F
:1022700095E008951F920F920FB60F9211242F939D
:102280003F938F939F93AF93BF9380915D05909100
:102290005E05A0915F05B091600530915C0523E07B
:1022A000230F2D3720F40196A11DB11D05C026E88E
:1022B000230F0296A11DB11D20935C0580935D053F
:1022C00090935E05A0935F05B093600580916105D2
:1022D00090916205A0916305B09164050196A11DDE
:1022E000B11D8093610590936205A0936305B0933F
:1022F0006405BF91AF919F918F913F912F910F9066
:102300000FBE0F901F9018952FB7F89460915D0540
:1023100070915E0580915F05909160052FBF0895D3
:102320003FB7F8948091610590916205A091630593
:10233000B091640526B5A89B05C02F3F19F0019602
:10234000A11DB11D3FBFBA2FA92F982F8827820F3B
:10235000911DA11DB11DBC01CD0142E0660F771F8B
:10236000881F991F4A95D1F708958F929F92AF9237
:10237000BF92CF92DF92EF92FF926B017C010E949D
:1023800090114B015C01C114D104E104F10401F18D
:102390000E9491190E949011DC01CB0188199909C2
:1023A000AA09BB09883E9340A105B10560F321E06D
:1023B000C21AD108E108F10888EE880E83E0981E61
:1023C000A11CB11CC114D104E104F10419F7DBCF45
:1023D000FF90EF90DF90CF90BF90AF909F908F9045
:1023E0000895789484B5826084BD84B5816084BD8D
:1023F00085B5826085BD85B5816085BDEEE6F0E07E
:10240000808181608083E1E8F0E0108280818260D9
:102410008083808181608083E0E8F0E0808181605A
:102420008083E1E9F0E08081826080838081816047
:102430008083E0E9F0E0808181608083E1ECF0E07E
:1024400080818460808380818260808380818160DC
:102450008083E3ECF0E0808181608083E0ECF0E059
:10246000808182608083E2ECF0E080818160808303
:10247000EAE7F0E0808184608083808182608083ED
:10248000808181608083808180688083089590E06E
:10249000FC013197EF30F105B0F5EA5AFF4F0C948B
:1024A000F41D809180008F7703C0809180008F7D24
:1024B00080938000089580918000877FF9CF84B554
:1024C0008F7702C084B58F7D84BD08958091900080
:1024D0008F7707C0809190008F7D03C0809190001E
:1024E000877F8093900008958091C0008F7703C00C
:1024F0008091C0008F7D8093C00008958091C200BC
:10250000877F8093C2000895CF93DF9390E0FC0112
:10251000E553FD4F2491FC01E651FD4F8491882342
:1025200061F190E0880F991FFC01E95EFC4FC591B5
:10253000D491FC01E75FFC4FA591B491611109C0F2
:102540009FB7F8948881209582238883EC912E236D
:102550000BC0623061F49FB7F8943881822F809568
:1025600083238883EC912E2B2C939FBF06C08FB7BB
:10257000F894E8812E2B28838FBFDF91CF910895A7
:102580001F93CF93DF93282F30E0F901E455FD4FDF
:102590008491F901E553FD4FD491F901E651FD4FC6
:1025A000C491CC23C9F0162F81110E944712EC2F41
:1025B000F0E0EE0FFF1FE75FFC4FA591B4918FB7DE
:1025C000F894111105C09C91ED2FE095E92302C00C
:1025D000EC91ED2BEC938FBFDF91CF911F9108957C
:1025E000CF93DF931F92CDB7DEB76983DC01ED9106
:1025F000FC910280F381E02D41E050E0BE016F5F6D
:102600007F4F09950F90DF91CF910895CF93DF937E
:10261000EC018C859D8597FF05C082E00E942616FF
:102620009D878C878C859D85DF91CF91089583E070
:102630000C94B918FC018485958597FD06C082E04D
:102640000E94D01590E00196089582E00E94D01576
:1026500090E00895FC018485958597FD05C02FEFD6
:102660003FEF35872487089582E00C942616CF9398
:10267000DF93EC0180910B01882331F083E00E940D
:1026800057161816190634F081E090E09B838A8370
:1026900080E090E0DF91CF910895FC0190819E5FF2
:1026A000908342E450E065E273E080E80C94F81611
:1026B000FC0181819081913A59F4813209F048C03E
:1026C00047E050E064E071E080E00E94F81676C0D8
:1026D0009132F1F5833291F49381892F90E0982F14
:1026E00088272281822BA0E0B0E0809300019093A4
:1026F0000101A0930201B093030160C0803239F45C
:1027000067E070E084E091E00E941F1706C082320B
:1027100009F054C0828180930B018091B505882314
:1027200019F0EEEFFAE002C0E0E0F8E08091040179
:1027300090910501A0910601B0910701803B944062
:10274000A105B10539F480910B0180FF1FC002C0C3
:1027500080E008950FB6F894A89580916000886194
:1027600080936000109260000FBEA895EE3F8AE053
:10277000F80739F08091FE0A9091FF0A91838083D7
:102780001DC01092FF0A1092FE0A18C0EE3F2AE008
:10279000F20731F0808191819093FF0A8093FE0AC5
:1027A00087E797E7918380839BE088E10FB6F894F1
:1027B000A895809360000FBE9093600081E008951B
:1027C000E5E6F5E01382128288EE93E0A0E0B0E047
:1027D00084839583A683B7838DED92E09183808374
:1027E0008FEF9FEF958784870895EF92FF920F9365
:1027F0001F93CF93DF937B01FC01C281D38100E063
:1028000010E0209781F0E881F9810280F381E02DCA
:10281000B701CE01099597FD08C0080F191F08845C
:10282000D985C02DEECFC80102C08FEF9FEFDF9199
:10283000CF911F910F91FF90EF9008950F931F93E9
:10284000CF93DF938B01FC01C281D381209771F07C
:10285000E881F9810480F581E02DB801CE01099568
:10286000009731F40884D985C02DF0CF80E090E046
:10287000DF91CF911F910F9108950F931F93CF93E5
:10288000DF938B01FC01C281D381209771F0E88135
:10289000F9810680F781E02DB801CE010995080F76
:1028A000111D0884D985C02DF0CFF8011082DF9169
:1028B000CF911F910F9108950F931F93CF93DF93A3
:1028C0008B01FC01C281D381209771F0E881F981ED
:1028D0000190F081E02DB801CE010995811105C06C
:1028E0000884D985C02DF0CF80E0DF91CF911F9172
:1028F0000F910895CF93DF93FC01DB0121811496A2
:102900008C91149790E0820F911D0897B4F5C281C5
:10291000D381209719F47383628308C088859985D1
:10292000009711F0EC01FACFB987A8878081129641
:102930008C931297818113968C931397908115969F
:102940008C911597890F808380E014969C91149741
:10295000891788F41696CD91DC911797C80FD11D71
:102960009881C181D0E0C45FDE4F988391819F5FE1
:1029700091838F5FEACF81E001C080E0DF91CF914A
:1029800008958091BA0581110DC082E08093B6054B
:1029900084E08093B7051092B9051092B80581E0E4
:1029A0008093BA0586EB95E00895CF92DF92EF927F
:1029B000FF920F931F93CF93DF936C017A018B01EA
:1029C000C0E0D0E0CE15DF0589F0D8016D918D0112
:1029D000D601ED91FC910190F081E02DC6010995A1
:1029E000892B11F47E0102C02196ECCFC701DF9143
:1029F000CF911F910F91FF90EF90DF90CF900895AE
:102A00006115710579F0FB0101900020E9F731971C
:102A1000AF01461B570BDC01ED91FC910280F38165
:102A2000E02D099480E090E008950C940015615029
:102A300030F02091F100FC0120830196F8CF289816
:102A400084E68093CB0508954091C6055091C70553
:102A50002091C4053091C50542175307B4F49091F5
:102A6000E8009570E1F39091E80092FD19C0809321
:102A7000F1008091C6059091C70501968F73992743
:102A8000892B19F48EEF8093E8008091C605909110
:102A9000C70501969093C7058093C60581E0089508
:102AA00080E00895CF92DF92EF92FF920F931F93F1
:102AB000CF93DF931F92CDB7DEB7182F062FE42EEA
:102AC000862F880F8E5F99830E94241583E00E94D1
:102AD0002415F12EC12E9981D92E8C2D8F19801796
:102AE00098F4F601E7FE02C0849101C080810E9443
:102AF0002415182F80E00E9424158123FFEFCF1AA0
:102B0000DF0A8111EACF01C081E00F90DF91CF9100
:102B10001F910F91FF90EF90DF90CF9008958091DB
:102B2000D70081608093D70080EA8093D80089B570
:102B3000806189BD89B5826089BD09B400FEFDCF81
:102B400061E070E080E090E00E94B5118091D800D3
:102B50008F7C80618093D8008091E000807F80939B
:102B6000E0000895CF93DF931F92CDB7DEB71982AF
:102B7000CE0101960E944D130E94C114BE016F5FE9
:102B80007F4F0E94F51389810F90DF91CF910895B7
:102B90002FB7FC012083F89467706093E9000895D3
:102BA000CF93DF931F92CDB7DEB7682FCE0101968A
:102BB0000E94C8158091F20099819FBF0F90DF910C
:102BC000CF910895EF92FF920F931F93CF93DF93CE
:102BD0001F92CDB7DEB79091CA05992311F057FF28
:102BE00003C08FEF9FEF2AC08A017B01682FCE01BF
:102BF00001960E94C8158091F20090E0A80180170C
:102C000091070CF4AC01842FF70194E6815038F061
:102C100028989093CB052091F1002193F7CF41158F
:102C2000510521F08091F200882321F089818FBF26
:102C3000CA0104C08BE68093E800F8CF0F90DF91C3
:102C4000CF911F910F91FF90EF900895CF93DF9355
:102C50001F92CDB7DEB741E050E0BE016F5F7F4FFE
:102C60000E94E215019719F4898190E002C08FEF6C
:102C70009FEF0F90DF91CF910895CF93DF931F9235
:102C8000CDB7DEB7682FCE0101960E94C81590918E
:102C9000E800892F807295FF04C09091F2008FE3C5
:102CA000891B99819FBF0F90DF91CF9108956F92FB
:102CB0007F928F929F92AF92BF92CF92DF92EF92CC
:102CC000FF920F931F93CF93DF931F92CDB7DEB781
:102CD000A82E6B01B42E052F8091CA05811103C067
:102CE0008FEF9FEF6AC08091C80580FF05C080917B
:102CF000E00082608093E000EB2CF02E8AEF982EAB
:102D00008A2D8072782E9AE3892E8A2D8074682EFF
:102D1000E114F10409F447C08A2D0E943D16182FD2
:102D200081110AC09A949920D9F261E070E080E0A4
:102D300090E00E94B511ECCF90E0E816F9060CF493
:102D40001E2D6A2DCE0101960E94C8158091E800C3
:102D500085FF26C0812F90E0E81AF90A772029F034
:102D60001150A8F01092F100FBCFF601A7FE07C0AA
:102D7000115058F024912093F1003196F9CF115061
:102D800020F021912093F100FACFC80ED91E809136
:102D9000E80085FF0FC0E114F10411F461100AC0CE
:102DA00089818FBFB5CF5D9884E68093CC058B2D4C
:102DB000902F03C08092E800F3CF0F90DF91CF9166
:102DC0001F910F91FF90EF90DF90CF90BF90AF9049
:102DD0009F908F907F906F9008951092E9001092CD
:102DE000C7051092C6059093C5058093C405089544
:102DF000DF92EF92FF920F931F93CF93DF93D82E22
:102E00008A017B01E40EF51EEB01CE15DF0571F0A2
:102E1000D7FE03C0FE01849101C088810E94241561
:102E200021968111F2CF8FEF9FEF01C0C801DF9192
:102E3000CF911F910F91FF90EF90DF900895BF9277
:102E4000CF92DF92EF92FF920F931F93CF93DF9376
:102E50006C018B01EB019BEFB92E2097C1F07E0135
:102E6000C134D1051CF080E4E82EF12C8091E800FB
:102E700082FFFCCFC8018C1B9D0B6E2D8C0D9D1D00
:102E80000E941715B092E800CE19DF09E6CFC801FD
:102E9000DF91CF911F910F91FF90EF90DF90CF9036
:102EA000BF9008951F920F920FB60F921124CF92E8
:102EB000DF92EF92FF920F931F932F933F934F93C5
:102EC0005F936F937F938F939F93AF93BF93EF9392
:102ED000FF93CF93DF93CDB7DEB76C97DEBFCDBF47
:102EE0001092E9008091E80083FF24C168E0CE01E0
:102EF00045960E94171582EF8093E8008D8987FF21
:102F000005C09091E80090FFFCCF03C09EEF909326
:102F1000E800982F907609F0F1C09E892F89188DCE
:102F200091110CC0803829F48091C9058093F1007B
:102F300002C01092F1001092F100F5C0422F50E053
:102F4000512B913051F48111EEC04130510509F0FF
:102F5000EAC08091C9058D7F0BC0933061F4811167
:102F6000E2C04130510509F0DEC08091C9058260A0
:102F70008093C905D8C0953041F48091E80080FF66
:102F8000FCCF20682093E300CEC0963009F08CC0BF
:102F9000EB8CFC8C123069F580E090E00E94ED161D
:102FA0000E94B21599E09E012F5F3F4F6901F90120
:102FB000292F11922A95E9F799831A8391E09E832C
:102FC00090EA98879AEF99872091C6053091C705B6
:102FD000275F3F4F3C832B838D83C7010E94ED16F3
:102FE00049E050E0B60180E00E94F8160E94B21558
:102FF0009AC0C7010E94ED160E94C114BE016B5E0B
:103000007F4F0E941E14009719F00CF08CC08FC0E7
:10301000113071F48B8D9C8D089719F481E08093A9
:10302000C3058091C30581112FC069E773E031C0EA
:10303000133009F07CC08F89882349F1823029F44C
:1030400040E868E086E993E006C0813039F440E862
:103050006AE08BE893E00E94521563C0833009F068
:1030600066C00E94C1148E010F5F1F4FB8010E94FD
:103070003D14F80101900020E9F73197BF01601B72
:10308000710B40E0C801E7CF67E673E002C06FE96B
:1030900073E06115710509F44AC0FB01449150E0E9
:1030A00080E80E94F8163FC0973009F440C098307D
:1030B00021F481E08093F10036C09930A1F583704E
:1030C000B1F5EDE0F1E081E021E036E39081992374
:1030D00061F08093E9002093EB0091919093EC00D4
:1030E0003093ED008F5F873089F78EE78093EA0099
:1030F0001092EA008F898093CA0515C08B8D9C8D34
:103100000E94ED16898D811105C0CE0145960E9461
:10311000581307C00E94C114BE016B5E7F4F0E940E
:103120005C14882321F08EEF8093E80003C081E2D5
:103130008093EB006C960FB6F894DEBF0FBECDBF48
:10314000DF91CF91FF91EF91BF91AF919F918F91BF
:103150007F916F915F914F913F912F911F910F91AF
:10316000FF90EF90DF90CF900F900FBE0F901F90C9
:1031700018958093E9008091F200882319F08AE382
:103180008093E80008951F920F920FB60F921124BA
:103190002F933F934F935F936F937F938F939F935F
:1031A000AF93BF93CF93EF93FF93C091E1008091D2
:1031B000E100837F8093E100C3FF0FC01092E9001C
:1031C00081E08093EB001092EC0082E38093ED00AD
:1031D0001092CA0588E08093F000C2FF19C083E016
:1031E0000E94B9188091CC05882339F08091CC05D4
:1031F00081508093CC05882389F18091CB05882369
:1032000039F08091CB0581508093CB05882341F123
:10321000C4FF10C08091E2008E7E81608093E20046
:103220008091E1008F7E8093E1008091C8058E7EC1
:10323000806111C0C0FF16C08091E2008E7E806167
:103240008093E2008091E1008E7E8093E100809186
:10325000C8058E7E81608093C80504C05D9ACDCF7D
:10326000289AD6CFFF91EF91CF91BF91AF919F91C7
:103270008F917F916F915F914F913F912F910F901F
:103280000FBE0F901F9018951092CA051092C90595
:103290001092C8050E948F158091E1008E7E809368
:1032A000E1008DE08093E200559A209AEEEFFFE76F
:1032B000859194918B3F9C4D19F481E08093B505E5
:1032C00008958091E0008D7F8093E0008091E00080
:1032D00081FD08C08091C80580FF04C08091C905A8
:1032E00081FD02C080E008950E948F158091E0006A
:1032F00082608093E00081E0089508950E94F111BA
:103300000E947D1982EC95E00E9444190E941702E8
:10331000C0E0D0E00E9440022097E1F30E9400004C
:10332000F9CF08955058BB27AA270E94AA190C94D8
:103330000B1C0E94FD1B38F00E94041C20F039F485
:103340009F3F19F426F40C94D31B0EF4E095E7FB91
:103350000C94A41BE92F0E941C1C58F3BA17620797
:1033600073078407950720F079F4A6F50C94561C92
:103370000EF4E0950B2EBA2FA02D0B01B901900190
:103380000C01CA01A0011124FF27591B99F0593FD4
:1033900050F4503E68F11A16F040A22F232F342F1C
:1033A0004427585FF3CF469537952795A795F0406A
:1033B0005395C9F77EF41F16BA0B620B730B840B7F
:1033C000BAF09150A1F0FF0FBB1F661F771F881F37
:1033D000C2F70EC0BA0F621F731F841F48F487958F
:1033E00077956795B795F7959E3F08F0B0CF939581
:1033F000880F08F09927EE0F979587950895DF932A
:10340000DD27B92FBF7740E85FE316161706480798
:103410005B0718F4D92F0E945D1C9F938F937F93B5
:103420006F930E94481DEAECF0E00E94D61B0E94B8
:103430000B1C2F913F914F915F910E94E61CDD2361
:1034400051F09058A2EA2AED3FE049EC5FE3D078D2
:103450005D270E94AA19DF910C940B1C0E943E1C50
:1034600090F09F3748F4911116F40C94571C60E0CB
:1034700070E080E89FE3089526F01B16611D711D22
:10348000811D0C94AA1B0C94C51B0E94801B08F480
:1034900081E008950E945E1A0C940B1C0E94041C8B
:1034A00058F00E94FD1B40F029F45F3F29F00C9476
:1034B000A41B51110C94571C0C94D31B0E941C1C70
:1034C00068F39923B1F3552391F3951B550BBB2753
:1034D000AA2762177307840738F09F5F5F4F220F98
:1034E000331F441FAA1FA9F335D00E2E3AF0E0E88F
:1034F00032D091505040E695001CCAF72BD0FE2FD9
:1035000029D0660F771F881FBB1F2617370748076C
:10351000AB07B0E809F0BB0B802DBF01FF27935824
:103520005F4F3AF09E3F510578F00C94A41B0C9429
:10353000571C5F3FE4F3983ED4F3869577956795E3
:10354000B795F7959F5FC9F7880F911D9695879559
:1035500097F90895E1E0660F771F881FBB1F621778
:1035600073078407BA0720F0621B730B840BBA0B36
:10357000EE1F88F7E095089529F416F00C94A41B2B
:103580000C94561C0C94D31B0E94241CA8F3963850
:10359000A0F707F80F92E8942BE33AEA48EB5FE7CD
:1035A0000E94E91C0F920F920F924DB75EB70F92D7
:1035B0000E949F1CE7EFF0E00E94D61B4F915F91A5
:1035C000EF91FF91E595EE1FFF1F49F0FE57E06870
:1035D0004427EE0F441FFA95E1F74195550B0E94E1
:1035E000691C0F9007FE0C945D1C08950E94FD1A43
:1035F0006894B1110C94571C08950E94241C88F003
:103600009F5798F0B92F9927B751B0F0E1F0660FA6
:10361000771F881F991F1AF0BA95C9F714C0B130E7
:1036200091F00E94561CB1E008950C94561C672F2F
:10363000782F8827B85F39F0B93FCCF38695779516
:103640006795B395D9F73EF49095809570956195FF
:103650007F4F8F4F9F4F0895E89409C097FB3EF42A
:1036600090958095709561957F4F8F4F9F4F9923CF
:10367000A9F0F92F96E9BB279395F695879577954D
:103680006795B795F111F8CFFAF4BB0F11F460FF0D
:103690001BC06F5F7F4F8F4F9F4F16C0882311F065
:1036A00096E911C0772321F09EE8872F762F05C079
:1036B000662371F096E8862F70E060E02AF09A9514
:1036C000660F771F881FDAF7880F9695879597F909
:1036D00008950E943E1C90F09F3748F4911116F017
:1036E0000C94571C60E070E080E89FEB089526F48E
:1036F0001B16611D711D811D0C94AA1B0C94C51B0A
:10370000990F0008550FAA0BE0E8FEEF16161706F2
:10371000E807F907C0F012161306E407F50798F05A
:10372000621B730B840B950B39F40A2661F0232B73
:10373000242B252B21F408950A2609F4A140A695EF
:103740008FEF811D811D089597F99F6780E870E0D4
:1037500060E00895882371F4772321F09850872B37
:10376000762F07C0662311F499270DC09051862B40
:1037700070E060E02AF09A95660F771F881FDAF7ED
:10378000880F9695879597F908959F3F31F091504E
:1037900020F4879577956795B795880F911D969535
:1037A000879597F908959FEF80EC0895DF93CF9365
:1037B0001F930F93FF92EF92DF927B018C0168942D
:1037C00006C0DA2EEF010E94E61CFE01E894A591E6
:1037D0002591359145915591A6F3EF010E94AA19C3
:1037E000FE019701A801DA9469F7DF90EF90FF904E
:1037F0000F911F91CF91DF91089500240A9416161E
:10380000170618060906089500240A9412161306CE
:10381000140605060895092E0394000C11F488235C
:1038200052F0BB0F40F4BF2B11F460FF04C06F5F78
:103830007F4F8F4F9F4F089557FD9058440F551F4E
:1038400059F05F3F71F04795880F97FB991F61F022
:103850009F3F79F087950895121613061406551F99
:10386000F2CF4695F1DF08C0161617061806991F05
:10387000F1CF869571056105089408950E94241C76
:10388000A0F0BEE7B91788F4BB279F3860F416167E
:10389000B11D672F782F8827985FF7CF869577958A
:1038A0006795B11D93959639C8F30895E894BB27A1
:1038B00066277727CB0197F908959B01AC0160E05B
:1038C00070E080E89FE30C944A1A0C94A41B0C94BB
:1038D000C51B0E94241CD8F39923C9F3940F511DD2
:1038E000A3F39150504094F059F0882332F0660FC2
:1038F000771F881F91505040C1F79E3F51052CF70C
:10390000880F911D9695879597F908955F3FACF0C4
:10391000983E9CF0BB27869577956795B79508F4F8
:10392000B1609395C1F7BB0F58F711F460FFE8CF72
:103930006F5F7F4F8F4F9F4FE3CF0C94571CFA015F
:10394000DC01AA0FBB1F9B01AC01BF5728F4222743
:1039500033274427507820C0B75190F4AB2F002470
:10396000469537952795011CA395D2F3002071F059
:10397000220F331F441FB395DAF30ED00C94921923
:1039800061307105A0E88A07B94630F49B01AC01AB
:103990006627772788279078309621F02083318317
:1039A0004283538308950E94E61C0C940B1C0E94D2
:1039B000FD1B38F00E94041C20F0952311F00C949C
:1039C000A41B0C94D31B11240C94571C0E941C1C88
:1039D00070F3959FC1F3950F50E0551F629FF00162
:1039E000729FBB27F00DB11D639FAA27F00DB11D7B
:1039F000AA1F649F6627B00DA11D661F829F222704
:103A0000B00DA11D621F739FB00DA11D621F839F8A
:103A1000A00D611D221F749F3327A00D611D231F60
:103A2000849F600D211D822F762F6A2F11249F57AE
:103A300050409AF0F1F088234AF0EE0FFF1FBB1FB1
:103A4000661F771F881F91505040A9F79E3F510570
:103A500080F00C94A41B0C94571C5F3FE4F3983E39
:103A6000D4F3869577956795B795F795E7959F5F1A
:103A7000C1F7FE2B880F911D9695879597F90895AC
:103A80009F930E944E1D0F9007FCEE5F0C94771DD4
:103A90009B01AC010C94D31C0C94D31B0E94241CDE
:103AA000D8F3E894E0E0BB279F57F0F02AED3FE021
:103AB00049EC06C0EE0FBB0F661F771F881F28F06A
:103AC000B23A62077307840728F0B25A620B730B8D
:103AD000840BE3959A9572F7803830F49A95BB0F72
:103AE000661F771F881FD2F790480C94C71BEF936F
:103AF000E0FF07C0A2EA2AED3FE049EC5FEB0E943D
:103B0000AA190E940B1C0F90039401FC9058EFE13E
:103B1000F1E00C948B1D9F938F937F936F93FF9392
:103B2000EF939B01AC010E94D31CEF91FF910E9487
:103B3000D61B2F913F914F915F910C94D31CAA1BE0
:103B4000BB1B51E107C0AA1FBB1FA617B70710F088
:103B5000A61BB70B881F991F5A95A9F780959095BA
:103B6000BC01CD010895A1E21A2EAA1BBB1BFD01C9
:103B70000DC0AA1FBB1FEE1FFF1FA217B307E4074C
:103B8000F50720F0A21BB30BE40BF50B661F771FA4
:103B9000881F991F1A9469F7609570958095909584
:103BA0009B01AC01BD01CF010895052E97FB1EF4CA
:103BB00000940E94EC1D57FD07D00E94B31D07FC26
:103BC00003D04EF40C94EC1D509540953095219502
:103BD0003F4F4F4F5F4F0895909580957095619539
:103BE0007F4F8F4F9F4F0895EE0FFF1F0590F49169
:103BF000E02D0994262FF999FECF1FBA92BD81BD01
:103C000020BD0FB6F894FA9AF99A0FBE019608955E
:103C100011E0CDEDD1E004C0FE010E94F41D21961B
:0A3C2000CE3DD107C9F7F894FFCF9D
:103C2A00FFFFFFFF00E100000000000000C18081EB
:103C3A000000004B6579626F6172642E494F206BF8
:103C4A006579626F61726420647269766572207642
:103C5A00302E3030008801001E001F002000210095
:103C6A0022000000E000E4000000230024002500F8
:103C7A00260027100200350014001A00080015005B
:103C8A0017002B002A002C30FE001C0018000C0024
:103C9A00120013002E004B00040016000700090052
:103CAA000A002900E300E60028000B000D000E00C0
:103CBA000F00330034004E001D001B0006001900DF
:103CCA000530FE00E100E50000001100100036009A
:103CDA00370038002D0000003A003B003C003D0050
:103CEA003E000000E000E40000003F004000410008
:103CFA004210000000002B800490010000902590E3
:103D0A0029000080018002000084CD042F043000C5
:103D1A002F00308282004A900490029008902690E8
:103D2A002A84B500E300E6004C005000510052001E
:103D3A004F00440045004D001D001B00060019906D
:103D4A0060000000E100E5000084EA84E900F10077
:103D5A00F2003104318801001E001F0020002100FA
:103D6A0022000000E000E400000023005F00600081
:103D7A00610056100000350014001A0008001500F2
:103D8A00173001002A002C3001001C005C005D0085
:103D9A005E0057002E004B000400160007000900C1
:103DAA000A002B00E300E6009E000B0059005A00AF
:103DBA005B002E0034004E001D001B000600190097
:103DCA0005002900E100E50000001100620063001F
:103DDA005500540028000000006E0A3E0A120A1A12
:103DEA000A2E0A3D0A000000001F0FD51400000029
:103DFA000054100C107B10FD0F00000000F0123769
:0A3E0A00131A132A130613171300EE
:00000001FF
