:100000001BC035C034C033C032C031C030C02FC077
:100010002EC0BDC12CC02BC02AC029C028C04EC1D3
:1000200026C025C024C0C2C132C033C039C03EC0C2
:1000300023C042C047C04DC011241FBECFEFD2E045
:10004000DEBFCDBF11E0A0E0B1E0EEEAF6E002C015
:1000500005900D92AE30B107D9F721E0AEE0B1E0E6
:1000600001C01D92AB3DB207E1F762D21EC3C8CFFB
:1000700090E08830910538F081ED8CBD9DB581E030
:1000800089278DBD0895FC01EC5EFF4F09941CBCCF
:10009000089583ED8CBD9DB581E089278DBD0895C0
:1000A00083ED8CBD8DB581608DBD089582ED8CBDD5
:1000B0008DB581608DBD089581ED8CBD8DB581605C
:1000C0008DBD089580ED8CBD9DB581E089278DBDE6
:1000D000089580ED8CBD8DB581608DBD0895E09152
:1000E0003501E03470F49091340121E02E0F20931B
:1000F0003501F0E0E90FF11DEF73FF27EC5CFE4FD7
:1001000082830895FC019081892F807F8038C1F41B
:10011000F8949F70A92FB0E0A90FB11DA90FB11DD0
:10012000AA0FBB1FAA0FBB1FAA0FBB1FA958BE4F08
:1001300088E1319601900D928A95E1F778940895BF
:100140009330B1F058F4913031F0923009F03BC067
:10015000623009F439C09093760108959430F1F03B
:10016000963081F56230B9F7818180930C0180CFA0
:10017000643099F7F8948FE190E0DC01AA0FBB1F7F
:10018000A80FB91FA958BE4F2181328143812D93F9
:100190003D934C93019788F7789408956530E9F67C
:1001A0002181F894822F90E0820F911D820F911D82
:1001B000DC01A958BE4F2281338144812D933D93A8
:1001C0004C93EACF08950895818190E0909389003F
:1001D00080938800089580913501882379F090916B
:1001E0003401E92FF0E0EC5CFE4F228181508093D6
:1001F00035019F5F9F7390933401822F08950F9371
:100200001F93CF93DF93FC01DB018C91882389F04E
:1002100090917601913051F1A0F19230C1F0963079
:1002200069F480910C01808381E0FB01808310924E
:100230007601DF91CF911F910F91089581E0808326
:10024000DB018C93DF91CF911F910F9108958091E5
:10025000880090918900808381E0DB018C9310926B
:100260007601DF91CF911F910F91089582E08083F5
:10027000FB01908310927601DF91CF911F910F9136
:10028000089580913501811109C0108281E0FB0140
:100290008083DF91CF911F910F9108958B01EF0122
:1002A00081E0808398DF898396DF8A8394DF8B8364
:1002B00092DF8C8385E0D8018C93BBCF1F920F9285
:1002C0000FB60F9211248F939F93EF93FF9380911A
:1002D000D9019091DA018130910539F1A8F00297A6
:1002E00051F48FEF8EBD8091D8018F5F8093D8013C
:1002F000883009F43FC0FF91EF919F918F910F904B
:100300000FBE0F901F9018951EBC8091D8018F5F73
:100310008093D801883079F781E090E09093DA01FA
:100320008093D9011092D801E6CF8091D7018F5FD9
:100330008093D701813029F1E091D80181E08E0FBF
:100340008093D801F0E0E958FE4F80818EBD809106
:10035000D7018430C9F08091D801803661F682E0FF
:1003600090E09093DA018093D9011092D801109215
:10037000D701C1CF1092DA011092D9011092D801A1
:10038000BACF8FEF8EBDE7CF1092D701E4CF1F9287
:100390000F920FB60F9211248F9381E080930D017D
:1003A0008F910F900FBE0F901F9018951F920F9274
:1003B0000FB60F9211242F933F934F935F936F9338
:1003C0007F938F939F93AF93BF93EF93FF9380910E
:1003D000B900883909F477C0C8F1883B09F483C0B3
:1003E00070F5883A09F446C0803B09F443C0803A6E
:1003F000C9F585ED8093BC008091BC0084FDFCCFE5
:10040000E0910E01F0910F01309729F060913301D6
:1004100080E191E0099585EC8093BC00FF91EF911C
:10042000BF91AF919F918F917F916F915F914F910C
:100430003F912F910F900FBE0F901F901895883C01
:1004400051F3883F59F3803C69F4E5CF883709F4CC
:1004500044C0E8F18838B9F1803909F44AC08038DD
:1004600009F447C085ED8093BC008091BC0084FDF9
:10047000FCCFD4CF10923301E0913101F0913201E1
:10048000309709F448C080E28093300160E371E066
:1004900080E191E0099580913001E091330188235A
:1004A00009F442C081E08E0FF0E080933301E05FF9
:1004B000FE4F80818093BB00909133018091300189
:1004C000981708F4A8CF85E88093BC00A7CF88369A
:1004D00021F0803711F0803629F61092330185EC37
:1004E0008093BC009BCFE091330181E08E0FF0E060
:1004F000DCCFE0913301E03230F781E08E0F809362
:1005000033018091BB00F0E0E05FFE4F808385EC1B
:100510008093BC0083CFE0E0F0E081E091E0909335
:10052000300110921001C1CF81E08E0FF0E0F6CFC4
:1005300087B18F6087B988B18F6088B91AB85FEFCB
:100540005BB9479A3F9A809181008C6080938100CB
:10055000109285001092840082E390E090938900CD
:100560008093880080916F00826080936F00789400
:1005700082E890E090930F0180930E018FEF90E05E
:10058000909332018093310193B183B19170827065
:10059000892B8865880F8093BA005093BB008091A7
:1005A000B9008E7F8093B9008091B9008D7F8093D0
:1005B000B90085EC8093BC007894F8948FE190E0CA
:1005C00020E030E040E0FC01EE0FFF1FE80FF91FD4
:1005D000E958FE4F208331834283019788F778944E
:1005E0008CE284B985B1837D85B980910C0140DDB1
:1005F0001092DA011092D9011EBC81E08093D801DB
:100600001092D701EE24E394F12C80910D01882300
:10061000E1F362E071E0A0E0B1E0E1E0F1E040E0B0
:1006200050E010E088B19701042E01C0220F0A9417
:10063000EAF7922F9095892388B9000089B198B183
:10064000292B28B9EB01388183272C91908192279F
:1006500098239083209528232C938095822B892B97
:10066000809538273883180F4F5F5F4F6D5F7F4F3E
:100670001396339644305105A9F6111103C0109218
:100680000D01C3CFF89480910201809528DD8091FF
:100690000501809524DD80910801809520DD809101
:0E06A0000B0180951CDD7894B0CFF894FFCF4D
:0E06AE000000FF0000FF0000FF0000FF04013D
:00000001FF
